{
  "address": "0x2D6684bBDE45B2788d00D60fAC6fa51032D4119e",
  "abi": [
    {
      "anonymous": false,
      "inputs": [
        {
          "indexed": true,
          "internalType": "address",
          "name": "owner",
          "type": "address"
        },
        {
          "indexed": true,
          "internalType": "address",
          "name": "spender",
          "type": "address"
        },
        {
          "indexed": false,
          "internalType": "uint256",
          "name": "value",
          "type": "uint256"
        }
      ],
      "name": "Approval",
      "type": "event"
    },
    {
      "anonymous": false,
      "inputs": [
        {
          "indexed": true,
          "internalType": "address",
          "name": "previousOwner",
          "type": "address"
        },
        {
          "indexed": true,
          "internalType": "address",
          "name": "newOwner",
          "type": "address"
        }
      ],
      "name": "OwnershipTransferred",
      "type": "event"
    },
    {
      "anonymous": false,
      "inputs": [
        {
          "indexed": false,
          "internalType": "address",
          "name": "account",
          "type": "address"
        }
      ],
      "name": "Paused",
      "type": "event"
    },
    {
      "anonymous": false,
      "inputs": [
        {
          "indexed": false,
          "internalType": "contract ISynthesizer",
          "name": "_synthesizer",
          "type": "address"
        }
      ],
      "name": "SynthesizerUpdated",
      "type": "event"
    },
    {
      "anonymous": false,
      "inputs": [
        {
          "indexed": true,
          "internalType": "address",
          "name": "from",
          "type": "address"
        },
        {
          "indexed": true,
          "internalType": "address",
          "name": "to",
          "type": "address"
        },
        {
          "indexed": false,
          "internalType": "uint256",
          "name": "value",
          "type": "uint256"
        }
      ],
      "name": "Transfer",
      "type": "event"
    },
    {
      "anonymous": false,
      "inputs": [
        {
          "indexed": false,
          "internalType": "address",
          "name": "account",
          "type": "address"
        }
      ],
      "name": "Unpaused",
      "type": "event"
    },
    {
      "inputs": [
        {
          "internalType": "address",
          "name": "owner",
          "type": "address"
        },
        {
          "internalType": "address",
          "name": "spender",
          "type": "address"
        }
      ],
      "name": "allowance",
      "outputs": [
        {
          "internalType": "uint256",
          "name": "",
          "type": "uint256"
        }
      ],
      "stateMutability": "view",
      "type": "function"
    },
    {
      "inputs": [
        {
          "internalType": "address",
          "name": "spender",
          "type": "address"
        },
        {
          "internalType": "uint256",
          "name": "amount",
          "type": "uint256"
        }
      ],
      "name": "approve",
      "outputs": [
        {
          "internalType": "bool",
          "name": "",
          "type": "bool"
        }
      ],
      "stateMutability": "nonpayable",
      "type": "function"
    },
    {
      "inputs": [
        {
          "internalType": "address",
          "name": "account",
          "type": "address"
        }
      ],
      "name": "balanceOf",
      "outputs": [
        {
          "internalType": "uint256",
          "name": "",
          "type": "uint256"
        }
      ],
      "stateMutability": "view",
      "type": "function"
    },
    {
      "inputs": [],
      "name": "decimals",
      "outputs": [
        {
          "internalType": "uint8",
          "name": "",
          "type": "uint8"
        }
      ],
      "stateMutability": "view",
      "type": "function"
    },
    {
      "inputs": [
        {
          "internalType": "address",
          "name": "spender",
          "type": "address"
        },
        {
          "internalType": "uint256",
          "name": "subtractedValue",
          "type": "uint256"
        }
      ],
      "name": "decreaseAllowance",
      "outputs": [
        {
          "internalType": "bool",
          "name": "",
          "type": "bool"
        }
      ],
      "stateMutability": "nonpayable",
      "type": "function"
    },
    {
      "inputs": [
        {
          "internalType": "address",
          "name": "spender",
          "type": "address"
        },
        {
          "internalType": "uint256",
          "name": "addedValue",
          "type": "uint256"
        }
      ],
      "name": "increaseAllowance",
      "outputs": [
        {
          "internalType": "bool",
          "name": "",
          "type": "bool"
        }
      ],
      "stateMutability": "nonpayable",
      "type": "function"
    },
    {
      "inputs": [],
      "name": "initialize",
      "outputs": [],
      "stateMutability": "nonpayable",
      "type": "function"
    },
    {
      "inputs": [
        {
          "internalType": "address",
          "name": "account",
          "type": "address"
        },
        {
          "internalType": "uint256",
          "name": "amount",
          "type": "uint256"
        }
      ],
      "name": "mint",
      "outputs": [],
      "stateMutability": "nonpayable",
      "type": "function"
    },
    {
      "inputs": [],
      "name": "name",
      "outputs": [
        {
          "internalType": "string",
          "name": "",
          "type": "string"
        }
      ],
      "stateMutability": "view",
      "type": "function"
    },
    {
      "inputs": [],
      "name": "owner",
      "outputs": [
        {
          "internalType": "address",
          "name": "",
          "type": "address"
        }
      ],
      "stateMutability": "view",
      "type": "function"
    },
    {
      "inputs": [],
      "name": "paused",
      "outputs": [
        {
          "internalType": "bool",
          "name": "",
          "type": "bool"
        }
      ],
      "stateMutability": "view",
      "type": "function"
    },
    {
      "inputs": [],
      "name": "renounceOwnership",
      "outputs": [],
      "stateMutability": "nonpayable",
      "type": "function"
    },
    {
      "inputs": [
        {
          "internalType": "contract ISynthesizer",
          "name": "_synthesizer",
          "type": "address"
        }
      ],
      "name": "setSynthesizer",
      "outputs": [],
      "stateMutability": "nonpayable",
      "type": "function"
    },
    {
      "inputs": [],
      "name": "symbol",
      "outputs": [
        {
          "internalType": "string",
          "name": "",
          "type": "string"
        }
      ],
      "stateMutability": "view",
      "type": "function"
    },
    {
      "inputs": [],
      "name": "synthesizer",
      "outputs": [
        {
          "internalType": "contract ISynthesizer",
          "name": "",
          "type": "address"
        }
      ],
      "stateMutability": "view",
      "type": "function"
    },
    {
      "inputs": [],
      "name": "totalSupply",
      "outputs": [
        {
          "internalType": "uint256",
          "name": "",
          "type": "uint256"
        }
      ],
      "stateMutability": "view",
      "type": "function"
    },
    {
      "inputs": [
        {
          "internalType": "address",
          "name": "recipient",
          "type": "address"
        },
        {
          "internalType": "uint256",
          "name": "amount",
          "type": "uint256"
        }
      ],
      "name": "transfer",
      "outputs": [
        {
          "internalType": "bool",
          "name": "",
          "type": "bool"
        }
      ],
      "stateMutability": "nonpayable",
      "type": "function"
    },
    {
      "inputs": [
        {
          "internalType": "address",
          "name": "sender",
          "type": "address"
        },
        {
          "internalType": "address",
          "name": "recipient",
          "type": "address"
        },
        {
          "internalType": "uint256",
          "name": "amount",
          "type": "uint256"
        }
      ],
      "name": "transferFrom",
      "outputs": [
        {
          "internalType": "bool",
          "name": "",
          "type": "bool"
        }
      ],
      "stateMutability": "nonpayable",
      "type": "function"
    },
    {
      "inputs": [
        {
          "internalType": "address",
          "name": "newOwner",
          "type": "address"
        }
      ],
      "name": "transferOwnership",
      "outputs": [],
      "stateMutability": "nonpayable",
      "type": "function"
    }
  ],
  "transactionHash": "0xba454465ead216742888c2ab764c1d4bf845a9167b5cb36558052cf87733197c",
  "args": [],
  "solcInputHash": "3c436d8b08a151345fd1814cac60dd46",
  "bytecode": "0x608060405234801561001057600080fd5b50611896806100206000396000f3fe608060405234801561001057600080fd5b50600436106101215760003560e01c806370a08231116100ad578063a457c2d711610071578063a457c2d71461031d578063a9059cbb14610349578063dd62ed3e14610375578063f2fde38b146103a3578063f64be328146103c957610121565b806370a08231146102d7578063715018a6146102fd5780638129fc1c146103055780638da5cb5b1461030d57806395d89b411461031557610121565b8063313ce567116100f4578063313ce56714610233578063395093511461025157806340c10f191461027d57806343df37af146102ab5780635c975abb146102cf57610121565b806306fdde0314610126578063095ea7b3146101a357806318160ddd146101e357806323b872dd146101fd575b600080fd5b61012e6103ef565b6040805160208082528351818301528351919283929083019185019080838360005b83811015610168578181015183820152602001610150565b50505050905090810190601f1680156101955780820380516001836020036101000a031916815260200191505b509250505060405180910390f35b6101cf600480360360408110156101b957600080fd5b506001600160a01b038135169060200135610485565b604080519115158252519081900360200190f35b6101eb6104a2565b60408051918252519081900360200190f35b6101cf6004803603606081101561021357600080fd5b506001600160a01b038135811691602081013590911690604001356104a8565b61023b61052f565b6040805160ff9092168252519081900360200190f35b6101cf6004803603604081101561026757600080fd5b506001600160a01b038135169060200135610538565b6102a96004803603604081101561029357600080fd5b506001600160a01b038135169060200135610586565b005b6102b36105f6565b604080516001600160a01b039092168252519081900360200190f35b6101cf610605565b6101eb600480360360208110156102ed57600080fd5b50356001600160a01b031661060e565b6102a9610629565b6102a96106d5565b6102b36107e8565b61012e6107f7565b6101cf6004803603604081101561033357600080fd5b506001600160a01b038135169060200135610858565b6101cf6004803603604081101561035f57600080fd5b506001600160a01b0381351690602001356108c0565b6101eb6004803603604081101561038b57600080fd5b506001600160a01b03813581169160200135166108d4565b6102a9600480360360208110156103b957600080fd5b50356001600160a01b03166108ff565b6102a9600480360360208110156103df57600080fd5b50356001600160a01b0316610a02565b60688054604080516020601f600260001961010060018816150201909516949094049384018190048102820181019092528281526060939092909183018282801561047b5780601f106104505761010080835404028352916020019161047b565b820191906000526020600020905b81548152906001019060200180831161045e57829003601f168201915b5050505050905090565b6000610499610492610afd565b8484610b01565b50600192915050565b60675490565b60006104b5848484610bed565b610525846104c1610afd565b6105208560405180606001604052806028815260200161175e602891396001600160a01b038a166000908152606660205260408120906104ff610afd565b6001600160a01b031681526020810191909152604001600020549190610d4a565b610b01565b5060019392505050565b606a5460ff1690565b6000610499610545610afd565b846105208560666000610556610afd565b6001600160a01b03908116825260208083019390935260409182016000908120918c168152925290205490610de1565b61058e610afd565b6001600160a01b031661059f6107e8565b6001600160a01b0316146105e8576040805162461bcd60e51b81526020600482018190526024820152600080516020611786833981519152604482015290519081900360640190fd5b6105f28282610e42565b5050565b60fb546001600160a01b031681565b60975460ff1690565b6001600160a01b031660009081526065602052604090205490565b610631610afd565b6001600160a01b03166106426107e8565b6001600160a01b03161461068b576040805162461bcd60e51b81526020600482018190526024820152600080516020611786833981519152604482015290519081900360640190fd5b6033546040516000916001600160a01b0316907f8be0079c531659141344cd1fd0a4f28419497f9722a3daafe3b4186f6b6457e0908390a3603380546001600160a01b0319169055565b600054610100900460ff16806106ee57506106ee610eb7565b806106fc575060005460ff16155b6107375760405162461bcd60e51b815260040180806020018281038252602e815260200180611730602e913960400191505060405180910390fd5b600054610100900460ff16158015610762576000805460ff1961ff0019909116610100171660011790555b61076a610ec8565b6107af60405180604001604052806007815260200166536861646f777360c81b81525060405180604001604052806004815260200163444f575360e01b815250610f65565b6107b761101a565b6107d36107c2610afd565b6a1e9b0e04e39e5845000000610e42565b80156107e5576000805461ff00191690555b50565b6033546001600160a01b031690565b60698054604080516020601f600260001961010060018816150201909516949094049384018190048102820181019092528281526060939092909183018282801561047b5780601f106104505761010080835404028352916020019161047b565b6000610499610865610afd565b8461052085604051806060016040528060258152602001611812602591396066600061088f610afd565b6001600160a01b03908116825260208083019390935260409182016000908120918d16815292529020549190610d4a565b60006104996108cd610afd565b8484610bed565b6001600160a01b03918216600090815260666020908152604080832093909416825291909152205490565b610907610afd565b6001600160a01b03166109186107e8565b6001600160a01b031614610961576040805162461bcd60e51b81526020600482018190526024820152600080516020611786833981519152604482015290519081900360640190fd5b6001600160a01b0381166109a65760405162461bcd60e51b81526004018080602001828103825260268152602001806116c26026913960400191505060405180910390fd5b6033546040516001600160a01b038084169216907f8be0079c531659141344cd1fd0a4f28419497f9722a3daafe3b4186f6b6457e090600090a3603380546001600160a01b0319166001600160a01b0392909216919091179055565b610a0a610afd565b6001600160a01b0316610a1b6107e8565b6001600160a01b031614610a64576040805162461bcd60e51b81526020600482018190526024820152600080516020611786833981519152604482015290519081900360640190fd5b6001600160a01b038116610aa95760405162461bcd60e51b81526004018080602001828103825260238152602001806117a66023913960400191505060405180910390fd5b60fb80546001600160a01b0383166001600160a01b0319909116811790915560408051918252517f29445e725cad656c0e2bd48d33a5322ea98dc5322fe3236d8f3d1e9b0ff897e39181900360200190a150565b3390565b6001600160a01b038316610b465760405162461bcd60e51b81526004018080602001828103825260248152602001806117ee6024913960400191505060405180910390fd5b6001600160a01b038216610b8b5760405162461bcd60e51b81526004018080602001828103825260228152602001806116e86022913960400191505060405180910390fd5b6001600160a01b03808416600081815260666020908152604080832094871680845294825291829020859055815185815291517f8c5be1e5ebec7d5bd14f71427d1e84f3dd0314c0f7b2291e5b200ac8c7c3b9259281900390910190a3505050565b6001600160a01b038316610c325760405162461bcd60e51b81526004018080602001828103825260258152602001806117c96025913960400191505060405180910390fd5b6001600160a01b038216610c775760405162461bcd60e51b815260040180806020018281038252602381526020018061169f6023913960400191505060405180910390fd5b610c828383836110bf565b610cbf8160405180606001604052806026815260200161170a602691396001600160a01b0386166000908152606560205260409020549190610d4a565b6001600160a01b038085166000908152606560205260408082209390935590841681522054610cee9082610de1565b6001600160a01b0380841660008181526065602090815260409182902094909455805185815290519193928716927fddf252ad1be2c89b69c2b068fc378daa952ba7f163c4a11628f55a4df523b3ef92918290030190a3505050565b60008184841115610dd95760405162461bcd60e51b81526004018080602001828103825283818151815260200191508051906020019080838360005b83811015610d9e578181015183820152602001610d86565b50505050905090810190601f168015610dcb5780820380516001836020036101000a031916815260200191505b509250505060405180910390fd5b505050900390565b600082820183811015610e3b576040805162461bcd60e51b815260206004820152601b60248201527f536166654d6174683a206164646974696f6e206f766572666c6f770000000000604482015290519081900360640190fd5b9392505050565b6000610e4c6104a2565b90508181016a52b7d2dcc80cd2e40000001015610ea8576040805162461bcd60e51b815260206004820152601560248201527426b0bc103a37ba30b61039bab838363c9037bb32b960591b604482015290519081900360640190fd5b610eb283836111a8565b505050565b6000610ec23061129a565b15905090565b600054610100900460ff1680610ee15750610ee1610eb7565b80610eef575060005460ff16155b610f2a5760405162461bcd60e51b815260040180806020018281038252602e815260200180611730602e913960400191505060405180910390fd5b600054610100900460ff16158015610f55576000805460ff1961ff0019909116610100171660011790555b610f5d6112a0565b6107d3611340565b600054610100900460ff1680610f7e5750610f7e610eb7565b80610f8c575060005460ff16155b610fc75760405162461bcd60e51b815260040180806020018281038252602e815260200180611730602e913960400191505060405180910390fd5b600054610100900460ff16158015610ff2576000805460ff1961ff0019909116610100171660011790555b610ffa6112a0565b6110048383611439565b8015610eb2576000805461ff0019169055505050565b600054610100900460ff16806110335750611033610eb7565b80611041575060005460ff16155b61107c5760405162461bcd60e51b815260040180806020018281038252602e815260200180611730602e913960400191505060405180910390fd5b600054610100900460ff161580156110a7576000805460ff1961ff0019909116610100171660011790555b6110af6112a0565b6110b7611511565b6107d36112a0565b60fb546001600160a01b03161561119d5760fb546040805163dcb5ec2360e01b81526001600160a01b0386811660048301529151919092169163dcb5ec23916024808301926020929190829003018186803b15801561111d57600080fd5b505afa158015611131573d6000803e3d6000fd5b505050506040513d602081101561114757600080fd5b505181111561119d576040805162461bcd60e51b815260206004820152601b60248201527f43616e6e6f74207472616e73666572207374616b656420444f57530000000000604482015290519081900360640190fd5b610eb28383836115bc565b6001600160a01b038216611203576040805162461bcd60e51b815260206004820152601f60248201527f45524332303a206d696e7420746f20746865207a65726f206164647265737300604482015290519081900360640190fd5b61120f600083836110bf565b60675461121c9082610de1565b6067556001600160a01b0382166000908152606560205260409020546112429082610de1565b6001600160a01b03831660008181526065602090815260408083209490945583518581529351929391927fddf252ad1be2c89b69c2b068fc378daa952ba7f163c4a11628f55a4df523b3ef9281900390910190a35050565b3b151590565b600054610100900460ff16806112b957506112b9610eb7565b806112c7575060005460ff16155b6113025760405162461bcd60e51b815260040180806020018281038252602e815260200180611730602e913960400191505060405180910390fd5b600054610100900460ff161580156107d3576000805460ff1961ff00199091166101001716600117905580156107e5576000805461ff001916905550565b600054610100900460ff16806113595750611359610eb7565b80611367575060005460ff16155b6113a25760405162461bcd60e51b815260040180806020018281038252602e815260200180611730602e913960400191505060405180910390fd5b600054610100900460ff161580156113cd576000805460ff1961ff0019909116610100171660011790555b60006113d7610afd565b603380546001600160a01b0319166001600160a01b038316908117909155604051919250906000907f8be0079c531659141344cd1fd0a4f28419497f9722a3daafe3b4186f6b6457e0908290a35080156107e5576000805461ff001916905550565b600054610100900460ff16806114525750611452610eb7565b80611460575060005460ff16155b61149b5760405162461bcd60e51b815260040180806020018281038252602e815260200180611730602e913960400191505060405180910390fd5b600054610100900460ff161580156114c6576000805460ff1961ff0019909116610100171660011790555b82516114d990606890602086019061160b565b5081516114ed90606990602085019061160b565b50606a805460ff191660121790558015610eb2576000805461ff0019169055505050565b600054610100900460ff168061152a575061152a610eb7565b80611538575060005460ff16155b6115735760405162461bcd60e51b815260040180806020018281038252602e815260200180611730602e913960400191505060405180910390fd5b600054610100900460ff1615801561159e576000805460ff1961ff0019909116610100171660011790555b6097805460ff1916905580156107e5576000805461ff001916905550565b6115c7838383610eb2565b6115cf610605565b15610eb25760405162461bcd60e51b815260040180806020018281038252602a815260200180611837602a913960400191505060405180910390fd5b828054600181600116156101000203166002900490600052602060002090601f016020900481019282601f1061164c57805160ff1916838001178555611679565b82800160010185558215611679579182015b8281111561167957825182559160200191906001019061165e565b50611685929150611689565b5090565b5b80821115611685576000815560010161168a56fe45524332303a207472616e7366657220746f20746865207a65726f20616464726573734f776e61626c653a206e6577206f776e657220697320746865207a65726f206164647265737345524332303a20617070726f766520746f20746865207a65726f206164647265737345524332303a207472616e7366657220616d6f756e7420657863656564732062616c616e6365496e697469616c697a61626c653a20636f6e747261637420697320616c726561647920696e697469616c697a656445524332303a207472616e7366657220616d6f756e74206578636565647320616c6c6f77616e63654f776e61626c653a2063616c6c6572206973206e6f7420746865206f776e657273796e74686573697a65722063616e206e6f74206265207a65726f206164647265737345524332303a207472616e736665722066726f6d20746865207a65726f206164647265737345524332303a20617070726f76652066726f6d20746865207a65726f206164647265737345524332303a2064656372656173656420616c6c6f77616e63652062656c6f77207a65726f45524332305061757361626c653a20746f6b656e207472616e73666572207768696c6520706175736564a264697066735822122099df53fd338317c7c12c1b017d5dee160547ecfbd14ddebb82802eec91741b2364736f6c63430007010033",
  "devdoc": {
    "kind": "dev",
    "methods": {
      "allowance(address,address)": {
        "details": "See {IERC20-allowance}."
      },
      "approve(address,uint256)": {
        "details": "See {IERC20-approve}. Requirements: - `spender` cannot be the zero address."
      },
      "balanceOf(address)": {
        "details": "See {IERC20-balanceOf}."
      },
      "decimals()": {
        "details": "Returns the number of decimals used to get its user representation. For example, if `decimals` equals `2`, a balance of `505` tokens should be displayed to a user as `5,05` (`505 / 10 ** 2`). Tokens usually opt for a value of 18, imitating the relationship between Ether and Wei. This is the value {ERC20} uses, unless {_setupDecimals} is called. NOTE: This information is only used for _display_ purposes: it in no way affects any of the arithmetic of the contract, including {IERC20-balanceOf} and {IERC20-transfer}."
      },
      "decreaseAllowance(address,uint256)": {
        "details": "Atomically decreases the allowance granted to `spender` by the caller. This is an alternative to {approve} that can be used as a mitigation for problems described in {IERC20-approve}. Emits an {Approval} event indicating the updated allowance. Requirements: - `spender` cannot be the zero address. - `spender` must have allowance for the caller of at least `subtractedValue`."
      },
      "increaseAllowance(address,uint256)": {
        "details": "Atomically increases the allowance granted to `spender` by the caller. This is an alternative to {approve} that can be used as a mitigation for problems described in {IERC20-approve}. Emits an {Approval} event indicating the updated allowance. Requirements: - `spender` cannot be the zero address."
      },
      "name()": {
        "details": "Returns the name of the token."
      },
      "owner()": {
        "details": "Returns the address of the current owner."
      },
      "paused()": {
        "details": "Returns true if the contract is paused, and false otherwise."
      },
      "renounceOwnership()": {
        "details": "Leaves the contract without owner. It will not be possible to call `onlyOwner` functions anymore. Can only be called by the current owner. NOTE: Renouncing ownership will leave the contract without an owner, thereby removing any functionality that is only available to the owner."
      },
      "symbol()": {
        "details": "Returns the symbol of the token, usually a shorter version of the name."
      },
      "totalSupply()": {
        "details": "See {IERC20-totalSupply}."
      },
      "transfer(address,uint256)": {
        "details": "See {IERC20-transfer}. Requirements: - `recipient` cannot be the zero address. - the caller must have a balance of at least `amount`."
      },
      "transferFrom(address,address,uint256)": {
        "details": "See {IERC20-transferFrom}. Emits an {Approval} event indicating the updated allowance. This is not required by the EIP. See the note at the beginning of {ERC20}. Requirements: - `sender` and `recipient` cannot be the zero address. - `sender` must have a balance of at least `amount`. - the caller must have allowance for ``sender``'s tokens of at least `amount`."
      },
      "transferOwnership(address)": {
        "details": "Transfers ownership of the contract to a new account (`newOwner`). Can only be called by the current owner."
      }
    },
    "version": 1
  },
  "userdoc": {
    "kind": "user",
    "methods": {},
    "version": 1
  },
  "storageLayout": {
    "storage": [
      {
        "astId": 595,
        "contract": "contracts/Shadows.sol:Shadows",
        "label": "_initialized",
        "offset": 0,
        "slot": "0",
        "type": "t_bool"
      },
      {
        "astId": 598,
        "contract": "contracts/Shadows.sol:Shadows",
        "label": "_initializing",
        "offset": 1,
        "slot": "0",
        "type": "t_bool"
      },
      {
        "astId": 1615,
        "contract": "contracts/Shadows.sol:Shadows",
        "label": "__gap",
        "offset": 0,
        "slot": "1",
        "type": "t_array(t_uint256)50_storage"
      },
      {
        "astId": 113,
        "contract": "contracts/Shadows.sol:Shadows",
        "label": "_owner",
        "offset": 0,
        "slot": "51",
        "type": "t_address"
      },
      {
        "astId": 232,
        "contract": "contracts/Shadows.sol:Shadows",
        "label": "__gap",
        "offset": 0,
        "slot": "52",
        "type": "t_array(t_uint256)49_storage"
      },
      {
        "astId": 739,
        "contract": "contracts/Shadows.sol:Shadows",
        "label": "_balances",
        "offset": 0,
        "slot": "101",
        "type": "t_mapping(t_address,t_uint256)"
      },
      {
        "astId": 745,
        "contract": "contracts/Shadows.sol:Shadows",
        "label": "_allowances",
        "offset": 0,
        "slot": "102",
        "type": "t_mapping(t_address,t_mapping(t_address,t_uint256))"
      },
      {
        "astId": 747,
        "contract": "contracts/Shadows.sol:Shadows",
        "label": "_totalSupply",
        "offset": 0,
        "slot": "103",
        "type": "t_uint256"
      },
      {
        "astId": 749,
        "contract": "contracts/Shadows.sol:Shadows",
        "label": "_name",
        "offset": 0,
        "slot": "104",
        "type": "t_string_storage"
      },
      {
        "astId": 751,
        "contract": "contracts/Shadows.sol:Shadows",
        "label": "_symbol",
        "offset": 0,
        "slot": "105",
        "type": "t_string_storage"
      },
      {
        "astId": 753,
        "contract": "contracts/Shadows.sol:Shadows",
        "label": "_decimals",
        "offset": 0,
        "slot": "106",
        "type": "t_uint8"
      },
      {
        "astId": 1248,
        "contract": "contracts/Shadows.sol:Shadows",
        "label": "__gap",
        "offset": 0,
        "slot": "107",
        "type": "t_array(t_uint256)44_storage"
      },
      {
        "astId": 1637,
        "contract": "contracts/Shadows.sol:Shadows",
        "label": "_paused",
        "offset": 0,
        "slot": "151",
        "type": "t_bool"
      },
      {
        "astId": 1728,
        "contract": "contracts/Shadows.sol:Shadows",
        "label": "__gap",
        "offset": 0,
        "slot": "152",
        "type": "t_array(t_uint256)49_storage"
      },
      {
        "astId": 718,
        "contract": "contracts/Shadows.sol:Shadows",
        "label": "__gap",
        "offset": 0,
        "slot": "201",
        "type": "t_array(t_uint256)50_storage"
      },
      {
        "astId": 5989,
        "contract": "contracts/Shadows.sol:Shadows",
        "label": "synthesizer",
        "offset": 0,
        "slot": "251",
        "type": "t_contract(ISynthesizer)8085"
      }
    ],
    "types": {
      "t_address": {
        "encoding": "inplace",
        "label": "address",
        "numberOfBytes": "20"
      },
      "t_array(t_uint256)44_storage": {
        "base": "t_uint256",
        "encoding": "inplace",
        "label": "uint256[44]",
        "numberOfBytes": "1408"
      },
      "t_array(t_uint256)49_storage": {
        "base": "t_uint256",
        "encoding": "inplace",
        "label": "uint256[49]",
        "numberOfBytes": "1568"
      },
      "t_array(t_uint256)50_storage": {
        "base": "t_uint256",
        "encoding": "inplace",
        "label": "uint256[50]",
        "numberOfBytes": "1600"
      },
      "t_bool": {
        "encoding": "inplace",
        "label": "bool",
        "numberOfBytes": "1"
      },
      "t_contract(ISynthesizer)8085": {
        "encoding": "inplace",
        "label": "contract ISynthesizer",
        "numberOfBytes": "20"
      },
      "t_mapping(t_address,t_mapping(t_address,t_uint256))": {
        "encoding": "mapping",
        "key": "t_address",
        "label": "mapping(address => mapping(address => uint256))",
        "numberOfBytes": "32",
        "value": "t_mapping(t_address,t_uint256)"
      },
      "t_mapping(t_address,t_uint256)": {
        "encoding": "mapping",
        "key": "t_address",
        "label": "mapping(address => uint256)",
        "numberOfBytes": "32",
        "value": "t_uint256"
      },
      "t_string_storage": {
        "encoding": "bytes",
        "label": "string",
        "numberOfBytes": "32"
      },
      "t_uint256": {
        "encoding": "inplace",
        "label": "uint256",
        "numberOfBytes": "32"
      },
      "t_uint8": {
        "encoding": "inplace",
        "label": "uint8",
        "numberOfBytes": "1"
      }
    }
  }
}