{
  "address": "0x3fb43535B633AC2984f7f2F3757Fd7a1BE2a6Cb7",
  "abi": [
    {
      "anonymous": false,
      "inputs": [
        {
          "indexed": true,
          "internalType": "address",
          "name": "owner",
          "type": "address"
        },
        {
          "indexed": true,
          "internalType": "address",
          "name": "spender",
          "type": "address"
        },
        {
          "indexed": false,
          "internalType": "uint256",
          "name": "value",
          "type": "uint256"
        }
      ],
      "name": "Approval",
      "type": "event"
    },
    {
      "anonymous": false,
      "inputs": [
        {
          "indexed": true,
          "internalType": "address",
          "name": "account",
          "type": "address"
        },
        {
          "indexed": false,
          "internalType": "uint256",
          "name": "value",
          "type": "uint256"
        }
      ],
      "name": "Burned",
      "type": "event"
    },
    {
      "anonymous": false,
      "inputs": [
        {
          "indexed": true,
          "internalType": "address",
          "name": "account",
          "type": "address"
        },
        {
          "indexed": false,
          "internalType": "uint256",
          "name": "value",
          "type": "uint256"
        }
      ],
      "name": "Issued",
      "type": "event"
    },
    {
      "anonymous": false,
      "inputs": [
        {
          "indexed": true,
          "internalType": "address",
          "name": "previousOwner",
          "type": "address"
        },
        {
          "indexed": true,
          "internalType": "address",
          "name": "newOwner",
          "type": "address"
        }
      ],
      "name": "OwnershipTransferred",
      "type": "event"
    },
    {
      "anonymous": false,
      "inputs": [
        {
          "indexed": true,
          "internalType": "address",
          "name": "account",
          "type": "address"
        },
        {
          "indexed": false,
          "internalType": "uint256",
          "name": "value",
          "type": "uint256"
        }
      ],
      "name": "Purged",
      "type": "event"
    },
    {
      "anonymous": false,
      "inputs": [
        {
          "indexed": false,
          "internalType": "contract AddressResolver",
          "name": "_resolver",
          "type": "address"
        }
      ],
      "name": "ResolverUpdated",
      "type": "event"
    },
    {
      "anonymous": false,
      "inputs": [
        {
          "indexed": true,
          "internalType": "address",
          "name": "from",
          "type": "address"
        },
        {
          "indexed": true,
          "internalType": "address",
          "name": "to",
          "type": "address"
        },
        {
          "indexed": false,
          "internalType": "uint256",
          "name": "value",
          "type": "uint256"
        }
      ],
      "name": "Transfer",
      "type": "event"
    },
    {
      "inputs": [
        {
          "internalType": "address",
          "name": "owner",
          "type": "address"
        },
        {
          "internalType": "address",
          "name": "spender",
          "type": "address"
        }
      ],
      "name": "allowance",
      "outputs": [
        {
          "internalType": "uint256",
          "name": "",
          "type": "uint256"
        }
      ],
      "stateMutability": "view",
      "type": "function"
    },
    {
      "inputs": [
        {
          "internalType": "address",
          "name": "spender",
          "type": "address"
        },
        {
          "internalType": "uint256",
          "name": "amount",
          "type": "uint256"
        }
      ],
      "name": "approve",
      "outputs": [
        {
          "internalType": "bool",
          "name": "",
          "type": "bool"
        }
      ],
      "stateMutability": "nonpayable",
      "type": "function"
    },
    {
      "inputs": [
        {
          "internalType": "address",
          "name": "account",
          "type": "address"
        }
      ],
      "name": "balanceOf",
      "outputs": [
        {
          "internalType": "uint256",
          "name": "",
          "type": "uint256"
        }
      ],
      "stateMutability": "view",
      "type": "function"
    },
    {
      "inputs": [
        {
          "internalType": "address",
          "name": "account",
          "type": "address"
        },
        {
          "internalType": "uint256",
          "name": "amount",
          "type": "uint256"
        }
      ],
      "name": "burn",
      "outputs": [],
      "stateMutability": "nonpayable",
      "type": "function"
    },
    {
      "inputs": [],
      "name": "currencyKey",
      "outputs": [
        {
          "internalType": "bytes32",
          "name": "",
          "type": "bytes32"
        }
      ],
      "stateMutability": "view",
      "type": "function"
    },
    {
      "inputs": [],
      "name": "decimals",
      "outputs": [
        {
          "internalType": "uint8",
          "name": "",
          "type": "uint8"
        }
      ],
      "stateMutability": "view",
      "type": "function"
    },
    {
      "inputs": [
        {
          "internalType": "address",
          "name": "spender",
          "type": "address"
        },
        {
          "internalType": "uint256",
          "name": "subtractedValue",
          "type": "uint256"
        }
      ],
      "name": "decreaseAllowance",
      "outputs": [
        {
          "internalType": "bool",
          "name": "",
          "type": "bool"
        }
      ],
      "stateMutability": "nonpayable",
      "type": "function"
    },
    {
      "inputs": [
        {
          "internalType": "address",
          "name": "spender",
          "type": "address"
        },
        {
          "internalType": "uint256",
          "name": "addedValue",
          "type": "uint256"
        }
      ],
      "name": "increaseAllowance",
      "outputs": [
        {
          "internalType": "bool",
          "name": "",
          "type": "bool"
        }
      ],
      "stateMutability": "nonpayable",
      "type": "function"
    },
    {
      "inputs": [
        {
          "internalType": "string",
          "name": "_tokenName",
          "type": "string"
        },
        {
          "internalType": "string",
          "name": "_tokenSymbol",
          "type": "string"
        },
        {
          "internalType": "bytes32",
          "name": "_currencyKey",
          "type": "bytes32"
        },
        {
          "internalType": "address",
          "name": "_resolver",
          "type": "address"
        }
      ],
      "name": "initialize",
      "outputs": [],
      "stateMutability": "nonpayable",
      "type": "function"
    },
    {
      "inputs": [
        {
          "internalType": "address",
          "name": "account",
          "type": "address"
        },
        {
          "internalType": "uint256",
          "name": "amount",
          "type": "uint256"
        }
      ],
      "name": "issue",
      "outputs": [],
      "stateMutability": "nonpayable",
      "type": "function"
    },
    {
      "inputs": [],
      "name": "name",
      "outputs": [
        {
          "internalType": "string",
          "name": "",
          "type": "string"
        }
      ],
      "stateMutability": "view",
      "type": "function"
    },
    {
      "inputs": [],
      "name": "owner",
      "outputs": [
        {
          "internalType": "address",
          "name": "",
          "type": "address"
        }
      ],
      "stateMutability": "view",
      "type": "function"
    },
    {
      "inputs": [
        {
          "internalType": "address[]",
          "name": "addresses",
          "type": "address[]"
        }
      ],
      "name": "purge",
      "outputs": [],
      "stateMutability": "nonpayable",
      "type": "function"
    },
    {
      "inputs": [],
      "name": "renounceOwnership",
      "outputs": [],
      "stateMutability": "nonpayable",
      "type": "function"
    },
    {
      "inputs": [],
      "name": "resolver",
      "outputs": [
        {
          "internalType": "contract AddressResolver",
          "name": "",
          "type": "address"
        }
      ],
      "stateMutability": "view",
      "type": "function"
    },
    {
      "inputs": [
        {
          "internalType": "contract AddressResolver",
          "name": "_resolver",
          "type": "address"
        }
      ],
      "name": "setResolver",
      "outputs": [],
      "stateMutability": "nonpayable",
      "type": "function"
    },
    {
      "inputs": [],
      "name": "symbol",
      "outputs": [
        {
          "internalType": "string",
          "name": "",
          "type": "string"
        }
      ],
      "stateMutability": "view",
      "type": "function"
    },
    {
      "inputs": [],
      "name": "totalSupply",
      "outputs": [
        {
          "internalType": "uint256",
          "name": "",
          "type": "uint256"
        }
      ],
      "stateMutability": "view",
      "type": "function"
    },
    {
      "inputs": [
        {
          "internalType": "address",
          "name": "recipient",
          "type": "address"
        },
        {
          "internalType": "uint256",
          "name": "amount",
          "type": "uint256"
        }
      ],
      "name": "transfer",
      "outputs": [
        {
          "internalType": "bool",
          "name": "",
          "type": "bool"
        }
      ],
      "stateMutability": "nonpayable",
      "type": "function"
    },
    {
      "inputs": [
        {
          "internalType": "address",
          "name": "sender",
          "type": "address"
        },
        {
          "internalType": "address",
          "name": "recipient",
          "type": "address"
        },
        {
          "internalType": "uint256",
          "name": "amount",
          "type": "uint256"
        }
      ],
      "name": "transferFrom",
      "outputs": [
        {
          "internalType": "bool",
          "name": "",
          "type": "bool"
        }
      ],
      "stateMutability": "nonpayable",
      "type": "function"
    },
    {
      "inputs": [
        {
          "internalType": "address",
          "name": "newOwner",
          "type": "address"
        }
      ],
      "name": "transferOwnership",
      "outputs": [],
      "stateMutability": "nonpayable",
      "type": "function"
    },
    {
      "inputs": [
        {
          "internalType": "address",
          "name": "account",
          "type": "address"
        }
      ],
      "name": "transferableSynths",
      "outputs": [
        {
          "internalType": "uint256",
          "name": "",
          "type": "uint256"
        }
      ],
      "stateMutability": "view",
      "type": "function"
    }
  ],
  "transactionHash": "0x7e48105a97e3b35cea8a7352c3e194165fc85b5327126ce553d1c33facff5b61",
  "args": [],
  "solcInputHash": "fba4edb38ebdf9b08a91a604814aac3c",
  "bytecode": "0x608060405234801561001057600080fd5b506121b7806100206000396000f3fe608060405234801561001057600080fd5b50600436106101425760003560e01c8063867904b4116100b8578063a9059cbb1161007c578063a9059cbb1461047d578063ab593079146104a9578063dbd06c8514610519578063dd62ed3e14610521578063f2fde38b1461054f578063ffff51d61461057557610142565b8063867904b4146103e95780638da5cb5b1461041557806395d89b411461041d5780639dc29fac14610425578063a457c2d71461045157610142565b806323b872dd1161010a57806323b872dd14610315578063313ce5671461034b57806339509351146103695780634e543b261461039557806370a08231146103bb578063715018a6146103e157610142565b806304f3bcec1461014757806306fdde031461016b578063095ea7b3146101e8578063155f273b1461022857806318160ddd146102fb575b600080fd5b61014f61059b565b604080516001600160a01b039092168252519081900360200190f35b6101736105aa565b6040805160208082528351818301528351919283929083019185019080838360005b838110156101ad578181015183820152602001610195565b50505050905090810190601f1680156101da5780820380516001836020036101000a031916815260200191505b509250505060405180910390f35b610214600480360360408110156101fe57600080fd5b506001600160a01b038135169060200135610640565b604080519115158252519081900360200190f35b6102f96004803603608081101561023e57600080fd5b81019060208101813564010000000081111561025957600080fd5b82018360208201111561026b57600080fd5b8035906020019184600183028401116401000000008311171561028d57600080fd5b9193909290916020810190356401000000008111156102ab57600080fd5b8201836020820111156102bd57600080fd5b803590602001918460018302840111640100000000831117156102df57600080fd5b9193509150803590602001356001600160a01b031661065d565b005b61030361078e565b60408051918252519081900360200190f35b6102146004803603606081101561032b57600080fd5b506001600160a01b03813581169160208101359091169060400135610794565b61035361081b565b6040805160ff9092168252519081900360200190f35b6102146004803603604081101561037f57600080fd5b506001600160a01b038135169060200135610824565b6102f9600480360360208110156103ab57600080fd5b50356001600160a01b0316610872565b610303600480360360208110156103d157600080fd5b50356001600160a01b0316610928565b6102f9610943565b6102f9600480360360408110156103ff57600080fd5b506001600160a01b0381351690602001356109ef565b61014f610aeb565b610173610afa565b6102f96004803603604081101561043b57600080fd5b506001600160a01b038135169060200135610b5b565b6102146004803603604081101561046757600080fd5b506001600160a01b038135169060200135610c57565b6102146004803603604081101561049357600080fd5b506001600160a01b038135169060200135610cbf565b6102f9600480360360208110156104bf57600080fd5b8101906020810181356401000000008111156104da57600080fd5b8201836020820111156104ec57600080fd5b8035906020019184602083028401116401000000008311171561050e57600080fd5b509092509050610cd3565b610303610e78565b6103036004803603604081101561053757600080fd5b506001600160a01b0381358116916020013516610e7e565b6102f96004803603602081101561056557600080fd5b50356001600160a01b0316610ea9565b6103036004803603602081101561058b57600080fd5b50356001600160a01b0316610fac565b6097546001600160a01b031681565b60688054604080516020601f60026000196101006001881615020190951694909404938401819004810282018101909252828152606093909290918301828280156106365780601f1061060b57610100808354040283529160200191610636565b820191906000526020600020905b81548152906001019060200180831161061957829003601f168201915b5050505050905090565b600061065461064d610fbd565b8484610fc1565b50600192915050565b600054610100900460ff168061067657506106766110ad565b80610684575060005460ff16155b6106bf5760405162461bcd60e51b815260040180806020018281038252602e81526020018061203d602e913960400191505060405180910390fd5b600054610100900460ff161580156106ea576000805460ff1961ff0019909116610100171660011790555b6106f26110be565b61076587878080601f01602080910402602001604051908101604052809392919081815260200183838082843760009201919091525050604080516020601f8b01819004810282018101909252898152925089915088908190840183828082843760009201919091525061117092505050565b61076e82611225565b60988390558015610785576000805461ff00191690555b50505050505050565b60675490565b60006107a18484846112d9565b610811846107ad610fbd565b61080c856040518060600160405280602881526020016120ab602891396001600160a01b038a166000908152606660205260408120906107eb610fbd565b6001600160a01b031681526020810191909152604001600020549190611391565b610fc1565b5060019392505050565b606a5460ff1690565b6000610654610831610fbd565b8461080c8560666000610842610fbd565b6001600160a01b03908116825260208083019390935260409182016000908120918c168152925290205490611428565b61087a610fbd565b6001600160a01b031661088b610aeb565b6001600160a01b0316146108d4576040805162461bcd60e51b815260206004820181905260248201526000805160206120d3833981519152604482015290519081900360640190fd5b609780546001600160a01b0383166001600160a01b0319909116811790915560408051918252517f15cd6d20bba01b3fcb790c73829dd07412cbdf689ef818c96a2505889f3736a29181900360200190a150565b6001600160a01b031660009081526065602052604090205490565b61094b610fbd565b6001600160a01b031661095c610aeb565b6001600160a01b0316146109a5576040805162461bcd60e51b815260206004820181905260248201526000805160206120d3833981519152604482015290519081900360640190fd5b6033546040516000916001600160a01b0316907f8be0079c531659141344cd1fd0a4f28419497f9722a3daafe3b4186f6b6457e0908390a3603380546001600160a01b0319169055565b60006109f9611489565b6001600160a01b0316336001600160a01b03161490506000610a19611547565b6001600160a01b0316336001600160a01b03161490506000610a396115d0565b6001600160a01b0316336001600160a01b03161490508280610a585750815b80610a605750805b610a9b5760405162461bcd60e51b815260040180806020018281038252604081526020018061206b6040913960400191505060405180910390fd5b610aa5858561165b565b6040805185815290516001600160a01b038716917fa59f12e354e8cd10bb74c559844c2dd69a5458e31fe56c7594c62ca57480509a919081900360200190a25050505050565b6033546001600160a01b031690565b60698054604080516020601f60026000196101006001881615020190951694909404938401819004810282018101909252828152606093909290918301828280156106365780601f1061060b57610100808354040283529160200191610636565b6000610b65611489565b6001600160a01b0316336001600160a01b03161490506000610b85611547565b6001600160a01b0316336001600160a01b03161490506000610ba56115d0565b6001600160a01b0316336001600160a01b03161490508280610bc45750815b80610bcc5750805b610c075760405162461bcd60e51b815260040180806020018281038252604081526020018061206b6040913960400191505060405180910390fd5b610c11858561174d565b6040805185815290516001600160a01b038716917f696de425f79f4a40bc6d2122ca50507f0efbeabbff86a84871b7196ab8ea8df7919081900360200190a25050505050565b6000610654610c64610fbd565b8461080c8560405180606001604052806025815260200161215d6025913960666000610c8e610fbd565b6001600160a01b03908116825260208083019390935260409182016000908120918d16815292529020549190611391565b6000610654610ccc610fbd565b84846112d9565b610cdb610fbd565b6001600160a01b0316610cec610aeb565b6001600160a01b031614610d35576040805162461bcd60e51b815260206004820181905260248201526000805160206120d3833981519152604482015290519081900360640190fd5b60005b81811015610e73576000838383818110610d4e57fe5b905060200201356001600160a01b031690506000610d6b82610928565b90508015610e6957610d7b6115d0565b6001600160a01b0316630a1e187d83609854846514da185554d160d21b876040518663ffffffff1660e01b815260040180866001600160a01b03168152602001858152602001848152602001838152602001826001600160a01b0316815260200195505050505050602060405180830381600087803b158015610dfd57600080fd5b505af1158015610e11573d6000803e3d6000fd5b505050506040513d6020811015610e2757600080fd5b50506040805182815290516001600160a01b038416917f265db6c9c62cb962adbcf4398a54e4b02b2d87b28ab5b7538850150465a5f43c919081900360200190a25b5050600101610d38565b505050565b60985481565b6001600160a01b03918216600090815260666020908152604080832093909416825291909152205490565b610eb1610fbd565b6001600160a01b0316610ec2610aeb565b6001600160a01b031614610f0b576040805162461bcd60e51b815260206004820181905260248201526000805160206120d3833981519152604482015290519081900360640190fd5b6001600160a01b038116610f505760405162461bcd60e51b8152600401808060200182810382526026815260200180611fcf6026913960400191505060405180910390fd5b6033546040516001600160a01b038084169216907f8be0079c531659141344cd1fd0a4f28419497f9722a3daafe3b4186f6b6457e090600090a3603380546001600160a01b0319166001600160a01b0392909216919091179055565b6000610fb782610928565b92915050565b3390565b6001600160a01b0383166110065760405162461bcd60e51b81526004018080602001828103825260248152602001806121396024913960400191505060405180910390fd5b6001600160a01b03821661104b5760405162461bcd60e51b8152600401808060200182810382526022815260200180611ff56022913960400191505060405180910390fd5b6001600160a01b03808416600081815260666020908152604080832094871680845294825291829020859055815185815291517f8c5be1e5ebec7d5bd14f71427d1e84f3dd0314c0f7b2291e5b200ac8c7c3b9259281900390910190a3505050565b60006110b830611849565b15905090565b600054610100900460ff16806110d757506110d76110ad565b806110e5575060005460ff16155b6111205760405162461bcd60e51b815260040180806020018281038252602e81526020018061203d602e913960400191505060405180910390fd5b600054610100900460ff1615801561114b576000805460ff1961ff0019909116610100171660011790555b61115361184f565b61115b6118ef565b801561116d576000805461ff00191690555b50565b600054610100900460ff168061118957506111896110ad565b80611197575060005460ff16155b6111d25760405162461bcd60e51b815260040180806020018281038252602e81526020018061203d602e913960400191505060405180910390fd5b600054610100900460ff161580156111fd576000805460ff1961ff0019909116610100171660011790555b61120561184f565b61120f83836119e8565b8015610e73576000805461ff0019169055505050565b600054610100900460ff168061123e575061123e6110ad565b8061124c575060005460ff16155b6112875760405162461bcd60e51b815260040180806020018281038252602e81526020018061203d602e913960400191505060405180910390fd5b600054610100900460ff161580156112b2576000805460ff1961ff0019909116610100171660011790555b6112ba6110be565b6112c382611ac0565b80156112d5576000805461ff00191690555b5050565b6112e1611547565b6001600160a01b031663eb1edd616040518163ffffffff1660e01b815260040160206040518083038186803b15801561131957600080fd5b505afa15801561132d573d6000803e3d6000fd5b505050506040513d602081101561134357600080fd5b50516001600160a01b0383811691161415611367576113628282611b7d565b610e73565b6001600160a01b03821661138657611362611380610fbd565b8261174d565b610e73838383611d3c565b600081848411156114205760405162461bcd60e51b81526004018080602001828103825283818151815260200191508051906020019080838360005b838110156113e55781810151838201526020016113cd565b50505050905090810190601f1680156114125780820380516001836020036101000a031916815260200191505b509250505060405180910390fd5b505050900390565b600082820183811015611482576040805162461bcd60e51b815260206004820152601b60248201527f536166654d6174683a206164646974696f6e206f766572666c6f770000000000604482015290519081900360640190fd5b9392505050565b6097546040805163dacb2d0160e01b81526a29bcb73a3432b9b4bd32b960a91b600482015260248101829052601b60448201527f4d697373696e672053796e74686573697a657220616464726573730000000000606482015290516000926001600160a01b03169163dacb2d01916084808301926020929190829003018186803b15801561151657600080fd5b505afa15801561152a573d6000803e3d6000fd5b505050506040513d602081101561154057600080fd5b5051905090565b6097546040805163dacb2d0160e01b815266119959541bdbdb60ca1b600482015260248101829052601760448201527f4d697373696e6720466565506f6f6c2061646472657373000000000000000000606482015290516000926001600160a01b03169163dacb2d01916084808301926020929190829003018186803b15801561151657600080fd5b6097546040805163dacb2d0160e01b81526822bc31b430b733b2b960b91b600482015260248101829052601960448201527f4d697373696e672045786368616e676572206164647265737300000000000000606482015290516000926001600160a01b03169163dacb2d01916084808301926020929190829003018186803b15801561151657600080fd5b6001600160a01b0382166116b6576040805162461bcd60e51b815260206004820152601f60248201527f45524332303a206d696e7420746f20746865207a65726f206164647265737300604482015290519081900360640190fd5b6116c260008383610e73565b6067546116cf9082611428565b6067556001600160a01b0382166000908152606560205260409020546116f59082611428565b6001600160a01b03831660008181526065602090815260408083209490945583518581529351929391927fddf252ad1be2c89b69c2b068fc378daa952ba7f163c4a11628f55a4df523b3ef9281900390910190a35050565b6001600160a01b0382166117925760405162461bcd60e51b81526004018080602001828103825260218152602001806120f36021913960400191505060405180910390fd5b61179e82600083610e73565b6117db81604051806060016040528060228152602001611fad602291396001600160a01b0385166000908152606560205260409020549190611391565b6001600160a01b0383166000908152606560205260409020556067546118019082611e99565b6067556040805182815290516000916001600160a01b038516917fddf252ad1be2c89b69c2b068fc378daa952ba7f163c4a11628f55a4df523b3ef9181900360200190a35050565b3b151590565b600054610100900460ff168061186857506118686110ad565b80611876575060005460ff16155b6118b15760405162461bcd60e51b815260040180806020018281038252602e81526020018061203d602e913960400191505060405180910390fd5b600054610100900460ff1615801561115b576000805460ff1961ff001990911661010017166001179055801561116d576000805461ff001916905550565b600054610100900460ff168061190857506119086110ad565b80611916575060005460ff16155b6119515760405162461bcd60e51b815260040180806020018281038252602e81526020018061203d602e913960400191505060405180910390fd5b600054610100900460ff1615801561197c576000805460ff1961ff0019909116610100171660011790555b6000611986610fbd565b603380546001600160a01b0319166001600160a01b038316908117909155604051919250906000907f8be0079c531659141344cd1fd0a4f28419497f9722a3daafe3b4186f6b6457e0908290a350801561116d576000805461ff001916905550565b600054610100900460ff1680611a015750611a016110ad565b80611a0f575060005460ff16155b611a4a5760405162461bcd60e51b815260040180806020018281038252602e81526020018061203d602e913960400191505060405180910390fd5b600054610100900460ff16158015611a75576000805460ff1961ff0019909116610100171660011790555b8251611a88906068906020860190611ef6565b508151611a9c906069906020850190611ef6565b50606a805460ff191660121790558015610e73576000805461ff0019169055505050565b600054610100900460ff1680611ad95750611ad96110ad565b80611ae7575060005460ff16155b611b225760405162461bcd60e51b815260040180806020018281038252602e81526020018061203d602e913960400191505060405180910390fd5b600054610100900460ff16158015611b4d576000805460ff1961ff0019909116610100171660011790555b609780546001600160a01b0319166001600160a01b03841617905580156112d5576000805461ff00191690555050565b60006514da185554d160d21b6098541415611bab575080611ba6611b9f610fbd565b8484611d3c565b611cdb565b611bb36115d0565b6001600160a01b0316630a1e187d611bc9610fbd565b609854856514da185554d160d21b611bdf611547565b6001600160a01b031663eb1edd616040518163ffffffff1660e01b815260040160206040518083038186803b158015611c1757600080fd5b505afa158015611c2b573d6000803e3d6000fd5b505050506040513d6020811015611c4157600080fd5b5051604080516001600160e01b031960e089901b1681526001600160a01b039687166004820152602481019590955260448501939093526064840191909152929092166084820152905160a48083019260209291908290030181600087803b158015611cac57600080fd5b505af1158015611cc0573d6000803e3d6000fd5b505050506040513d6020811015611cd657600080fd5b505190505b611ce3611547565b6001600160a01b03166322bf55ef826040518263ffffffff1660e01b815260040180828152602001915050600060405180830381600087803b158015611d2857600080fd5b505af1158015610785573d6000803e3d6000fd5b6001600160a01b038316611d815760405162461bcd60e51b81526004018080602001828103825260258152602001806121146025913960400191505060405180910390fd5b6001600160a01b038216611dc65760405162461bcd60e51b8152600401808060200182810382526023815260200180611f8a6023913960400191505060405180910390fd5b611dd1838383610e73565b611e0e81604051806060016040528060268152602001612017602691396001600160a01b0386166000908152606560205260409020549190611391565b6001600160a01b038085166000908152606560205260408082209390935590841681522054611e3d9082611428565b6001600160a01b0380841660008181526065602090815260409182902094909455805185815290519193928716927fddf252ad1be2c89b69c2b068fc378daa952ba7f163c4a11628f55a4df523b3ef92918290030190a3505050565b600082821115611ef0576040805162461bcd60e51b815260206004820152601e60248201527f536166654d6174683a207375627472616374696f6e206f766572666c6f770000604482015290519081900360640190fd5b50900390565b828054600181600116156101000203166002900490600052602060002090601f016020900481019282601f10611f3757805160ff1916838001178555611f64565b82800160010185558215611f64579182015b82811115611f64578251825591602001919060010190611f49565b50611f70929150611f74565b5090565b5b80821115611f705760008155600101611f7556fe45524332303a207472616e7366657220746f20746865207a65726f206164647265737345524332303a206275726e20616d6f756e7420657863656564732062616c616e63654f776e61626c653a206e6577206f776e657220697320746865207a65726f206164647265737345524332303a20617070726f766520746f20746865207a65726f206164647265737345524332303a207472616e7366657220616d6f756e7420657863656564732062616c616e6365496e697469616c697a61626c653a20636f6e747261637420697320616c726561647920696e697469616c697a65644f6e6c792053796e74686573697a65722c20466565506f6f6c2c2045786368616e676572206f722049737375657220636f6e74726163747320616c6c6f77656445524332303a207472616e7366657220616d6f756e74206578636565647320616c6c6f77616e63654f776e61626c653a2063616c6c6572206973206e6f7420746865206f776e657245524332303a206275726e2066726f6d20746865207a65726f206164647265737345524332303a207472616e736665722066726f6d20746865207a65726f206164647265737345524332303a20617070726f76652066726f6d20746865207a65726f206164647265737345524332303a2064656372656173656420616c6c6f77616e63652062656c6f77207a65726fa26469706673582212208302ba12004c3df88b5f1c7e8d3d6f497e6672a5623904fc256272bde85878d564736f6c63430007010033",
  "devdoc": {
    "kind": "dev",
    "methods": {
      "allowance(address,address)": {
        "details": "See {IERC20-allowance}."
      },
      "approve(address,uint256)": {
        "details": "See {IERC20-approve}. Requirements: - `spender` cannot be the zero address."
      },
      "balanceOf(address)": {
        "details": "See {IERC20-balanceOf}."
      },
      "decimals()": {
        "details": "Returns the number of decimals used to get its user representation. For example, if `decimals` equals `2`, a balance of `505` tokens should be displayed to a user as `5,05` (`505 / 10 ** 2`). Tokens usually opt for a value of 18, imitating the relationship between Ether and Wei. This is the value {ERC20} uses, unless {_setupDecimals} is called. NOTE: This information is only used for _display_ purposes: it in no way affects any of the arithmetic of the contract, including {IERC20-balanceOf} and {IERC20-transfer}."
      },
      "decreaseAllowance(address,uint256)": {
        "details": "Atomically decreases the allowance granted to `spender` by the caller. This is an alternative to {approve} that can be used as a mitigation for problems described in {IERC20-approve}. Emits an {Approval} event indicating the updated allowance. Requirements: - `spender` cannot be the zero address. - `spender` must have allowance for the caller of at least `subtractedValue`."
      },
      "increaseAllowance(address,uint256)": {
        "details": "Atomically increases the allowance granted to `spender` by the caller. This is an alternative to {approve} that can be used as a mitigation for problems described in {IERC20-approve}. Emits an {Approval} event indicating the updated allowance. Requirements: - `spender` cannot be the zero address."
      },
      "name()": {
        "details": "Returns the name of the token."
      },
      "owner()": {
        "details": "Returns the address of the current owner."
      },
      "renounceOwnership()": {
        "details": "Leaves the contract without owner. It will not be possible to call `onlyOwner` functions anymore. Can only be called by the current owner. NOTE: Renouncing ownership will leave the contract without an owner, thereby removing any functionality that is only available to the owner."
      },
      "symbol()": {
        "details": "Returns the symbol of the token, usually a shorter version of the name."
      },
      "totalSupply()": {
        "details": "See {IERC20-totalSupply}."
      },
      "transfer(address,uint256)": {
        "details": "See {IERC20-transfer}. Requirements: - `recipient` cannot be the zero address. - the caller must have a balance of at least `amount`."
      },
      "transferFrom(address,address,uint256)": {
        "details": "See {IERC20-transferFrom}. Emits an {Approval} event indicating the updated allowance. This is not required by the EIP. See the note at the beginning of {ERC20}. Requirements: - `sender` and `recipient` cannot be the zero address. - `sender` must have a balance of at least `amount`. - the caller must have allowance for ``sender``'s tokens of at least `amount`."
      },
      "transferOwnership(address)": {
        "details": "Transfers ownership of the contract to a new account (`newOwner`). Can only be called by the current owner."
      }
    },
    "version": 1
  },
  "userdoc": {
    "kind": "user",
    "methods": {},
    "version": 1
  },
  "storageLayout": {
    "storage": [
      {
        "astId": 595,
        "contract": "contracts/Synth.sol:Synth",
        "label": "_initialized",
        "offset": 0,
        "slot": "0",
        "type": "t_bool"
      },
      {
        "astId": 598,
        "contract": "contracts/Synth.sol:Synth",
        "label": "_initializing",
        "offset": 1,
        "slot": "0",
        "type": "t_bool"
      },
      {
        "astId": 1615,
        "contract": "contracts/Synth.sol:Synth",
        "label": "__gap",
        "offset": 0,
        "slot": "1",
        "type": "t_array(t_uint256)50_storage"
      },
      {
        "astId": 113,
        "contract": "contracts/Synth.sol:Synth",
        "label": "_owner",
        "offset": 0,
        "slot": "51",
        "type": "t_address"
      },
      {
        "astId": 232,
        "contract": "contracts/Synth.sol:Synth",
        "label": "__gap",
        "offset": 0,
        "slot": "52",
        "type": "t_array(t_uint256)49_storage"
      },
      {
        "astId": 739,
        "contract": "contracts/Synth.sol:Synth",
        "label": "_balances",
        "offset": 0,
        "slot": "101",
        "type": "t_mapping(t_address,t_uint256)"
      },
      {
        "astId": 745,
        "contract": "contracts/Synth.sol:Synth",
        "label": "_allowances",
        "offset": 0,
        "slot": "102",
        "type": "t_mapping(t_address,t_mapping(t_address,t_uint256))"
      },
      {
        "astId": 747,
        "contract": "contracts/Synth.sol:Synth",
        "label": "_totalSupply",
        "offset": 0,
        "slot": "103",
        "type": "t_uint256"
      },
      {
        "astId": 749,
        "contract": "contracts/Synth.sol:Synth",
        "label": "_name",
        "offset": 0,
        "slot": "104",
        "type": "t_string_storage"
      },
      {
        "astId": 751,
        "contract": "contracts/Synth.sol:Synth",
        "label": "_symbol",
        "offset": 0,
        "slot": "105",
        "type": "t_string_storage"
      },
      {
        "astId": 753,
        "contract": "contracts/Synth.sol:Synth",
        "label": "_decimals",
        "offset": 0,
        "slot": "106",
        "type": "t_uint8"
      },
      {
        "astId": 1248,
        "contract": "contracts/Synth.sol:Synth",
        "label": "__gap",
        "offset": 0,
        "slot": "107",
        "type": "t_array(t_uint256)44_storage"
      },
      {
        "astId": 9671,
        "contract": "contracts/Synth.sol:Synth",
        "label": "resolver",
        "offset": 0,
        "slot": "151",
        "type": "t_contract(AddressResolver)9659"
      },
      {
        "astId": 7222,
        "contract": "contracts/Synth.sol:Synth",
        "label": "currencyKey",
        "offset": 0,
        "slot": "152",
        "type": "t_bytes32"
      }
    ],
    "types": {
      "t_address": {
        "encoding": "inplace",
        "label": "address",
        "numberOfBytes": "20"
      },
      "t_array(t_uint256)44_storage": {
        "base": "t_uint256",
        "encoding": "inplace",
        "label": "uint256[44]",
        "numberOfBytes": "1408"
      },
      "t_array(t_uint256)49_storage": {
        "base": "t_uint256",
        "encoding": "inplace",
        "label": "uint256[49]",
        "numberOfBytes": "1568"
      },
      "t_array(t_uint256)50_storage": {
        "base": "t_uint256",
        "encoding": "inplace",
        "label": "uint256[50]",
        "numberOfBytes": "1600"
      },
      "t_bool": {
        "encoding": "inplace",
        "label": "bool",
        "numberOfBytes": "1"
      },
      "t_bytes32": {
        "encoding": "inplace",
        "label": "bytes32",
        "numberOfBytes": "32"
      },
      "t_contract(AddressResolver)9659": {
        "encoding": "inplace",
        "label": "contract AddressResolver",
        "numberOfBytes": "20"
      },
      "t_mapping(t_address,t_mapping(t_address,t_uint256))": {
        "encoding": "mapping",
        "key": "t_address",
        "label": "mapping(address => mapping(address => uint256))",
        "numberOfBytes": "32",
        "value": "t_mapping(t_address,t_uint256)"
      },
      "t_mapping(t_address,t_uint256)": {
        "encoding": "mapping",
        "key": "t_address",
        "label": "mapping(address => uint256)",
        "numberOfBytes": "32",
        "value": "t_uint256"
      },
      "t_string_storage": {
        "encoding": "bytes",
        "label": "string",
        "numberOfBytes": "32"
      },
      "t_uint256": {
        "encoding": "inplace",
        "label": "uint256",
        "numberOfBytes": "32"
      },
      "t_uint8": {
        "encoding": "inplace",
        "label": "uint8",
        "numberOfBytes": "1"
      }
    }
  }
}