{
  "address": "0xFc054433BCc6821DaFC1D98E8606ddF66F8F6C11",
  "abi": [
    {
      "anonymous": false,
      "inputs": [
        {
          "indexed": false,
          "internalType": "uint256",
          "name": "newRatio",
          "type": "uint256"
        }
      ],
      "name": "IssuanceRatioUpdated",
      "type": "event"
    },
    {
      "anonymous": false,
      "inputs": [
        {
          "indexed": true,
          "internalType": "address",
          "name": "previousOwner",
          "type": "address"
        },
        {
          "indexed": true,
          "internalType": "address",
          "name": "newOwner",
          "type": "address"
        }
      ],
      "name": "OwnershipTransferred",
      "type": "event"
    },
    {
      "anonymous": false,
      "inputs": [
        {
          "indexed": false,
          "internalType": "contract AddressResolver",
          "name": "_resolver",
          "type": "address"
        }
      ],
      "name": "ResolverUpdated",
      "type": "event"
    },
    {
      "inputs": [
        {
          "internalType": "contract ISynth",
          "name": "synth",
          "type": "address"
        }
      ],
      "name": "addSynth",
      "outputs": [],
      "stateMutability": "nonpayable",
      "type": "function"
    },
    {
      "inputs": [],
      "name": "availableCurrencyKeys",
      "outputs": [
        {
          "internalType": "bytes32[]",
          "name": "",
          "type": "bytes32[]"
        }
      ],
      "stateMutability": "view",
      "type": "function"
    },
    {
      "inputs": [],
      "name": "availableSynthCount",
      "outputs": [
        {
          "internalType": "uint256",
          "name": "",
          "type": "uint256"
        }
      ],
      "stateMutability": "view",
      "type": "function"
    },
    {
      "inputs": [
        {
          "internalType": "uint256",
          "name": "",
          "type": "uint256"
        }
      ],
      "name": "availableSynths",
      "outputs": [
        {
          "internalType": "contract ISynth",
          "name": "",
          "type": "address"
        }
      ],
      "stateMutability": "view",
      "type": "function"
    },
    {
      "inputs": [
        {
          "internalType": "uint256",
          "name": "amount",
          "type": "uint256"
        }
      ],
      "name": "burnSynths",
      "outputs": [],
      "stateMutability": "nonpayable",
      "type": "function"
    },
    {
      "inputs": [
        {
          "internalType": "address",
          "name": "account",
          "type": "address"
        }
      ],
      "name": "collateral",
      "outputs": [
        {
          "internalType": "uint256",
          "name": "",
          "type": "uint256"
        }
      ],
      "stateMutability": "view",
      "type": "function"
    },
    {
      "inputs": [
        {
          "internalType": "address",
          "name": "_issuer",
          "type": "address"
        }
      ],
      "name": "collateralisationRatio",
      "outputs": [
        {
          "internalType": "uint256",
          "name": "",
          "type": "uint256"
        }
      ],
      "stateMutability": "view",
      "type": "function"
    },
    {
      "inputs": [
        {
          "internalType": "address",
          "name": "_issuer",
          "type": "address"
        },
        {
          "internalType": "bytes32",
          "name": "currencyKey",
          "type": "bytes32"
        }
      ],
      "name": "debtBalanceOf",
      "outputs": [
        {
          "internalType": "uint256",
          "name": "",
          "type": "uint256"
        }
      ],
      "stateMutability": "view",
      "type": "function"
    },
    {
      "inputs": [
        {
          "internalType": "uint256",
          "name": "",
          "type": "uint256"
        }
      ],
      "name": "debtLedger",
      "outputs": [
        {
          "internalType": "uint256",
          "name": "",
          "type": "uint256"
        }
      ],
      "stateMutability": "view",
      "type": "function"
    },
    {
      "inputs": [],
      "name": "debtLedgerLength",
      "outputs": [
        {
          "internalType": "uint256",
          "name": "",
          "type": "uint256"
        }
      ],
      "stateMutability": "view",
      "type": "function"
    },
    {
      "inputs": [
        {
          "internalType": "bytes32",
          "name": "sourceCurrencyKey",
          "type": "bytes32"
        },
        {
          "internalType": "uint256",
          "name": "sourceAmount",
          "type": "uint256"
        },
        {
          "internalType": "bytes32",
          "name": "destinationCurrencyKey",
          "type": "bytes32"
        }
      ],
      "name": "exchange",
      "outputs": [
        {
          "internalType": "uint256",
          "name": "amountReceived",
          "type": "uint256"
        }
      ],
      "stateMutability": "nonpayable",
      "type": "function"
    },
    {
      "inputs": [
        {
          "internalType": "address",
          "name": "account",
          "type": "address"
        }
      ],
      "name": "hasIssued",
      "outputs": [
        {
          "internalType": "bool",
          "name": "",
          "type": "bool"
        }
      ],
      "stateMutability": "view",
      "type": "function"
    },
    {
      "inputs": [
        {
          "internalType": "address",
          "name": "_resolver",
          "type": "address"
        }
      ],
      "name": "initialize",
      "outputs": [],
      "stateMutability": "nonpayable",
      "type": "function"
    },
    {
      "inputs": [
        {
          "internalType": "address",
          "name": "",
          "type": "address"
        }
      ],
      "name": "issuanceData",
      "outputs": [
        {
          "internalType": "uint256",
          "name": "initialDebtOwnership",
          "type": "uint256"
        },
        {
          "internalType": "uint256",
          "name": "debtEntryIndex",
          "type": "uint256"
        }
      ],
      "stateMutability": "view",
      "type": "function"
    },
    {
      "inputs": [],
      "name": "issuanceRatio",
      "outputs": [
        {
          "internalType": "uint256",
          "name": "",
          "type": "uint256"
        }
      ],
      "stateMutability": "view",
      "type": "function"
    },
    {
      "inputs": [],
      "name": "issueMaxSynths",
      "outputs": [],
      "stateMutability": "nonpayable",
      "type": "function"
    },
    {
      "inputs": [
        {
          "internalType": "uint256",
          "name": "amount",
          "type": "uint256"
        }
      ],
      "name": "issueSynths",
      "outputs": [],
      "stateMutability": "nonpayable",
      "type": "function"
    },
    {
      "inputs": [],
      "name": "lastDebtLedgerEntry",
      "outputs": [
        {
          "internalType": "uint256",
          "name": "",
          "type": "uint256"
        }
      ],
      "stateMutability": "view",
      "type": "function"
    },
    {
      "inputs": [
        {
          "internalType": "address",
          "name": "account",
          "type": "address"
        },
        {
          "internalType": "uint256",
          "name": "susdAmount",
          "type": "uint256"
        },
        {
          "internalType": "address",
          "name": "liquidator",
          "type": "address"
        }
      ],
      "name": "liquidateDelinquentAccount",
      "outputs": [
        {
          "internalType": "uint256",
          "name": "totalRedeemed",
          "type": "uint256"
        },
        {
          "internalType": "uint256",
          "name": "amountToLiquidate",
          "type": "uint256"
        }
      ],
      "stateMutability": "nonpayable",
      "type": "function"
    },
    {
      "inputs": [
        {
          "internalType": "address",
          "name": "_issuer",
          "type": "address"
        }
      ],
      "name": "maxIssuableSynths",
      "outputs": [
        {
          "internalType": "uint256",
          "name": "",
          "type": "uint256"
        }
      ],
      "stateMutability": "view",
      "type": "function"
    },
    {
      "inputs": [],
      "name": "owner",
      "outputs": [
        {
          "internalType": "address",
          "name": "",
          "type": "address"
        }
      ],
      "stateMutability": "view",
      "type": "function"
    },
    {
      "inputs": [
        {
          "internalType": "address",
          "name": "_issuer",
          "type": "address"
        }
      ],
      "name": "remainingIssuableSynths",
      "outputs": [
        {
          "internalType": "uint256",
          "name": "",
          "type": "uint256"
        },
        {
          "internalType": "uint256",
          "name": "",
          "type": "uint256"
        }
      ],
      "stateMutability": "view",
      "type": "function"
    },
    {
      "inputs": [
        {
          "internalType": "bytes32",
          "name": "currencyKey",
          "type": "bytes32"
        }
      ],
      "name": "removeSynth",
      "outputs": [],
      "stateMutability": "nonpayable",
      "type": "function"
    },
    {
      "inputs": [],
      "name": "renounceOwnership",
      "outputs": [],
      "stateMutability": "nonpayable",
      "type": "function"
    },
    {
      "inputs": [],
      "name": "resolver",
      "outputs": [
        {
          "internalType": "contract AddressResolver",
          "name": "",
          "type": "address"
        }
      ],
      "stateMutability": "view",
      "type": "function"
    },
    {
      "inputs": [
        {
          "internalType": "uint256",
          "name": "_issuanceRatio",
          "type": "uint256"
        }
      ],
      "name": "setIssuanceRatio",
      "outputs": [],
      "stateMutability": "nonpayable",
      "type": "function"
    },
    {
      "inputs": [
        {
          "internalType": "contract AddressResolver",
          "name": "_resolver",
          "type": "address"
        }
      ],
      "name": "setResolver",
      "outputs": [],
      "stateMutability": "nonpayable",
      "type": "function"
    },
    {
      "inputs": [
        {
          "internalType": "bytes32",
          "name": "",
          "type": "bytes32"
        }
      ],
      "name": "synths",
      "outputs": [
        {
          "internalType": "contract ISynth",
          "name": "",
          "type": "address"
        }
      ],
      "stateMutability": "view",
      "type": "function"
    },
    {
      "inputs": [
        {
          "internalType": "address",
          "name": "",
          "type": "address"
        }
      ],
      "name": "synthsByAddress",
      "outputs": [
        {
          "internalType": "bytes32",
          "name": "",
          "type": "bytes32"
        }
      ],
      "stateMutability": "view",
      "type": "function"
    },
    {
      "inputs": [
        {
          "internalType": "bytes32",
          "name": "currencyKey",
          "type": "bytes32"
        }
      ],
      "name": "totalIssuedSynths",
      "outputs": [
        {
          "internalType": "uint256",
          "name": "",
          "type": "uint256"
        }
      ],
      "stateMutability": "view",
      "type": "function"
    },
    {
      "inputs": [],
      "name": "totalIssuerCount",
      "outputs": [
        {
          "internalType": "uint256",
          "name": "",
          "type": "uint256"
        }
      ],
      "stateMutability": "view",
      "type": "function"
    },
    {
      "inputs": [
        {
          "internalType": "address",
          "name": "newOwner",
          "type": "address"
        }
      ],
      "name": "transferOwnership",
      "outputs": [],
      "stateMutability": "nonpayable",
      "type": "function"
    },
    {
      "inputs": [
        {
          "internalType": "address",
          "name": "account",
          "type": "address"
        }
      ],
      "name": "transferableShadows",
      "outputs": [
        {
          "internalType": "uint256",
          "name": "",
          "type": "uint256"
        }
      ],
      "stateMutability": "view",
      "type": "function"
    }
  ],
  "transactionHash": "0x8de2330e29463f6251b941a39a8c56f244512e8b6db70c8884c5f61cecec9760",
  "args": [],
  "solcInputHash": "fba4edb38ebdf9b08a91a604814aac3c",
  "bytecode": "0x608060405234801561001057600080fd5b50613401806100206000396000f3fe608060405234801561001057600080fd5b50600436106101fb5760003560e01c80638a2900141161011a578063b410a034116100ad578063d37c4d8b1161007c578063d37c4d8b1461058f578063dbf63340146105bb578063dcb5ec23146105c3578063ee52a2f3146105e9578063f2fde38b14610612576101fb565b8063b410a0341461051f578063b992812e14610527578063c4d66de814610561578063cd92eba914610587576101fb565b8063a311c7c2116100e9578063a311c7c214610495578063a5fdc5de146104bb578063a63c4df4146104e1578063af086c7e14610517576101fb565b80638a290014146104425780638b3f80881461045f5780638da5cb5b146104855780639371bede1461048d576101fb565b8063326080391161019257806372cb051f1161016157806372cb051f1461038a578063835e119c146103e257806383d625d4146103ff578063849cf5881461041c576101fb565b8063326080391461033757806346317712146103545780634e543b261461035c578063715018a614610382576101fb565b80630b887dae116101ce5780630b887dae146102985780631137aedf146102b557806316b2213f146102f4578063295da87d1461031a576101fb565b806304f3bcec14610200578063054be0b71461022457806305b3c1c91461024357806308d95cd51461027b575b600080fd5b610208610638565b604080516001600160a01b039092168252519081900360200190f35b6102416004803603602081101561023a57600080fd5b5035610647565b005b6102696004803603602081101561025957600080fd5b50356001600160a01b0316610792565b60408051918252519081900360200190f35b6102696004803603602081101561029157600080fd5b503561084e565b610241600480360360208110156102ae57600080fd5b503561086c565b6102db600480360360208110156102cb57600080fd5b50356001600160a01b0316610ba0565b6040805192835260208301919091528051918290030190f35b6102696004803603602081101561030a57600080fd5b50356001600160a01b0316610bec565b6102416004803603602081101561033057600080fd5b5035610bfe565b6102086004803603602081101561034d57600080fd5b5035610d27565b610269610d42565b6102416004803603602081101561037257600080fd5b50356001600160a01b0316610d68565b610241610e1e565b610392610eca565b60408051602080825283518183015283519192839290830191858101910280838360005b838110156103ce5781810151838201526020016103b6565b505050509050019250505060405180910390f35b610208600480360360208110156103f857600080fd5b5035610f7f565b6102696004803603602081101561041557600080fd5b5035610fa6565b6102416004803603602081101561043257600080fd5b50356001600160a01b03166112bd565b6102416004803603602081101561045857600080fd5b50356114ca565b6102db6004803603602081101561047557600080fd5b50356001600160a01b03166114de565b6102086114f7565b610269611506565b610269600480360360208110156104ab57600080fd5b50356001600160a01b031661150c565b610269600480360360208110156104d157600080fd5b50356001600160a01b0316611550565b6102db600480360360608110156104f757600080fd5b506001600160a01b03813581169160208101359160409091013516611680565b610241611d68565b610269611d88565b61054d6004803603602081101561053d57600080fd5b50356001600160a01b0316611d8e565b604080519115158252519081900360200190f35b6102416004803603602081101561057757600080fd5b50356001600160a01b0316611dab565b610269611edc565b610269600480360360408110156105a557600080fd5b506001600160a01b038135169060200135611ee2565b610269611f9f565b610269600480360360208110156105d957600080fd5b50356001600160a01b0316611fa5565b610269600480360360608110156105ff57600080fd5b5080359060208101359060400135612142565b6102416004803603602081101561062857600080fd5b50356001600160a01b0316612205565b6065546001600160a01b031681565b61064f612308565b6001600160a01b03166106606114f7565b6001600160a01b0316146106a9576040805162461bcd60e51b81526020600482018190526024820152600080516020613379833981519152604482015290519081900360640190fd5b739bC00e6D905817864C147d10b7415C33b64434A163907af6c06040518163ffffffff1660e01b815260040160206040518083038186803b1580156106ed57600080fd5b505af4158015610701573d6000803e3d6000fd5b505050506040513d602081101561071757600080fd5b50518111156107575760405162461bcd60e51b81526004018080602001828103825260338152602001806133996033913960400191505060405180910390fd5b60668190556040805182815290517f63b22e09cc3a33e847c063e35f887bd4ea96bc8c0f93f1f8c311e4fa6d8854529181900360200190a150565b60008061079d61230c565b6001600160a01b031663654a60ac6107b485611550565b6514da185554d160d21b6040518363ffffffff1660e01b8152600401808063444f575360e01b8152506020018381526020018281526020019250505060206040518083038186803b15801561080857600080fd5b505afa15801561081c573d6000803e3d6000fd5b505050506040513d602081101561083257600080fd5b50516066549091506108459082906123be565b9150505b919050565b606c818154811061085b57fe5b600091825260209091200154905081565b610874612308565b6001600160a01b03166108856114f7565b6001600160a01b0316146108ce576040805162461bcd60e51b81526020600482018190526024820152600080516020613379833981519152604482015290519081900360640190fd5b6000818152606860205260409020546001600160a01b031661092e576040805162461bcd60e51b815260206004820152601460248201527314de5b9d1a08191bd95cc81b9bdd08195e1a5cdd60621b604482015290519081900360640190fd5b6000818152606860209081526040918290205482516318160ddd60e01b815292516001600160a01b03909116926318160ddd926004808301939192829003018186803b15801561097d57600080fd5b505afa158015610991573d6000803e3d6000fd5b505050506040513d60208110156109a757600080fd5b5051156109f1576040805162461bcd60e51b815260206004820152601360248201527253796e746820737570706c792065786973747360681b604482015290519081900360640190fd5b6514da185554d160d21b811415610a44576040805162461bcd60e51b815260206004820152601260248201527110d85b9b9bdd081c995b5bdd99481e1554d160721b604482015290519081900360640190fd5b6000818152606860205260408120546001600160a01b0316905b606754811015610b6057816001600160a01b031660678281548110610a7f57fe5b6000918252602090912001546001600160a01b03161415610b585760678181548110610aa757fe5b600091825260209091200180546001600160a01b0319169055606780546000198101908110610ad257fe5b600091825260209091200154606780546001600160a01b039092169183908110610af857fe5b9060005260206000200160006101000a8154816001600160a01b0302191690836001600160a01b031602179055506067805480610b3157fe5b600082815260209020810160001990810180546001600160a01b0319169055019055610b60565b600101610a5e565b5050600081815260686020818152604080842080546001600160a01b031685526069835290842084905593909252905280546001600160a01b0319169055565b6000806000610bb8846514da185554d160d21b611ee2565b90506000610bc585610792565b9050808210610bd657506000610be3565b610be081836123e2565b90505b92509050915091565b60696020526000908152604090205481565b6000610c08612308565b90506000610c1f826514da185554d160d21b611ee2565b905060008111610c6b576040805162461bcd60e51b81526020600482015260126024820152714e6f206465627420746f20666f726769766560701b604482015290519081900360640190fd5b6000838210610c7a5783610c7c565b815b9050610c8983828461243f565b6514da185554d160d21b600090815260686020526000805160206133388339815191525460408051632770a7eb60e21b81526001600160a01b03878116600483015260248201869052915185949290931692639dc29fac9260448084019391929182900301818387803b158015610cff57600080fd5b505af1158015610d13573d6000803e3d6000fd5b50505050610d208461252c565b5050505050565b6068602052600090815260409020546001600160a01b031681565b606c8054600091906000198101908110610d5857fe5b9060005260206000200154905090565b610d70612308565b6001600160a01b0316610d816114f7565b6001600160a01b031614610dca576040805162461bcd60e51b81526020600482018190526024820152600080516020613379833981519152604482015290519081900360640190fd5b606580546001600160a01b0383166001600160a01b0319909116811790915560408051918252517f15cd6d20bba01b3fcb790c73829dd07412cbdf689ef818c96a2505889f3736a29181900360200190a150565b610e26612308565b6001600160a01b0316610e376114f7565b6001600160a01b031614610e80576040805162461bcd60e51b81526020600482018190526024820152600080516020613379833981519152604482015290519081900360640190fd5b6033546040516000916001600160a01b0316907f8be0079c531659141344cd1fd0a4f28419497f9722a3daafe3b4186f6b6457e0908390a3603380546001600160a01b0319169055565b606754606090819067ffffffffffffffff81118015610ee857600080fd5b50604051908082528060200260200182016040528015610f12578160200160208202803683370190505b50905060005b606754811015610f79576069600060678381548110610f3357fe5b60009182526020808320909101546001600160a01b031683528201929092526040019020548251839083908110610f6657fe5b6020908102919091010152600101610f18565b50905090565b60678181548110610f8c57fe5b6000918252602090912001546001600160a01b0316905081565b600080610fb161230c565b9050600080826001600160a01b031663ac82f608866040518263ffffffff1660e01b81526004018082815260200191505060206040518083038186803b158015610ffa57600080fd5b505afa15801561100e573d6000803e3d6000fd5b505050506040513d602081101561102457600080fd5b50519050606060006001600160a01b03851663babcb423611043610eca565b6040518263ffffffff1660e01b81526004018080602001828103825283818151815260200191508051906020019060200280838360005b8381101561109257818101518382015260200161107a565b505050509050019250505060006040518083038186803b1580156110b557600080fd5b505afa1580156110c9573d6000803e3d6000fd5b505050506040513d6000823e601f3d908101601f1916820160409081528110156110f257600080fd5b810190808051604051939291908464010000000082111561111257600080fd5b90830190602082018581111561112757600080fd5b825186602082028301116401000000008211171561114457600080fd5b82525081516020918201928201910280838360005b83811015611171578181015183820152602001611159565b5050505091909101604052506020015192945091925050811590506111cf576040805162461bcd60e51b815260206004820152600f60248201526e526174657320617265207374616c6560881b604482015290519081900360640190fd5b60005b6067548110156112a7576000606782815481106111eb57fe5b60009182526020918290200154604080516318160ddd60e01b815290516001600160a01b03909216926318160ddd92600480840193829003018186803b15801561123457600080fd5b505afa158015611248573d6000803e3d6000fd5b505050506040513d602081101561125e57600080fd5b5051845190915060009061128f9086908590811061127857fe5b6020026020010151836125ef90919063ffffffff16565b905061129b878261260b565b965050506001016111d2565b506112b28484612665565b979650505050505050565b6112c5612308565b6001600160a01b03166112d66114f7565b6001600160a01b03161461131f576040805162461bcd60e51b81526020600482018190526024820152600080516020613379833981519152604482015290519081900360640190fd5b6000816001600160a01b031663dbd06c856040518163ffffffff1660e01b815260040160206040518083038186803b15801561135a57600080fd5b505afa15801561136e573d6000803e3d6000fd5b505050506040513d602081101561138457600080fd5b50516000818152606860205260409020549091506001600160a01b0316156113ea576040805162461bcd60e51b815260206004820152601460248201527353796e746820616c72656164792065786973747360601b604482015290519081900360640190fd5b6001600160a01b03821660009081526069602052604090205415611455576040805162461bcd60e51b815260206004820152601c60248201527f53796e7468206164647265737320616c72656164792065786973747300000000604482015290519081900360640190fd5b60678054600181019091557f9787eeb91fe3101235e4a76063c7023ecb40f923f97916639c598592fa30d6ae0180546001600160a01b039093166001600160a01b0319938416811790915560008281526068602090815260408083208054909616841790955591815260699091529190912055565b6114db6114d5612308565b8261267a565b50565b606a602052600090815260409020805460019091015482565b6033546001600160a01b031690565b606b5481565b60008061151883611550565b905080611529576000915050610849565b600061153c8463444f575360e01b611ee2565b90506115488183612665565b949350505050565b60008061155b612776565b6001600160a01b03166370a08231846040518263ffffffff1660e01b815260040180826001600160a01b0316815260200191505060206040518083038186803b1580156115a757600080fd5b505afa1580156115bb573d6000803e3d6000fd5b505050506040513d60208110156115d157600080fd5b5051905060006115df6127ff565b6001600160a01b03161461167a576116776115f86127ff565b6001600160a01b03166370a08231856040518263ffffffff1660e01b815260040180826001600160a01b0316815260200191505060206040518083038186803b15801561164457600080fd5b505afa158015611658573d6000803e3d6000fd5b505050506040513d602081101561166e57600080fd5b5051829061260b565b90505b92915050565b60008063444f575360e01b61169361230c565b6001600160a01b0316629919c0826040518263ffffffff1660e01b81526004018082815260200191505060206040518083038186803b1580156116d557600080fd5b505afa1580156116e9573d6000803e3d6000fd5b505050506040513d60208110156116ff57600080fd5b50511561174f576040805162461bcd60e51b81526020600482015260196024820152780a4c2e8ca40e6e8c2d8ca40dee440dcdee840c240e6f2dce8d603b1b604482015290519081900360640190fd5b600061175961288d565b9050806001600160a01b031663c49e80a6886040518263ffffffff1660e01b815260040180826001600160a01b0316815260200191505060206040518083038186803b1580156117a857600080fd5b505afa1580156117bc573d6000803e3d6000fd5b505050506040513d60208110156117d257600080fd5b5051611825576040805162461bcd60e51b815260206004820181905260248201527f4163636f756e74206e6f74206f70656e20666f72206c69717569646174696f6e604482015290519081900360640190fd5b6514da185554d160d21b6000526068602090815260008051602061333883398151915254604080516370a0823160e01b81526001600160a01b03898116600483015291518a9492909316926370a0823192602480840193919291829003018186803b15801561189357600080fd5b505afa1580156118a7573d6000803e3d6000fd5b505050506040513d60208110156118bd57600080fd5b50511015611904576040805162461bcd60e51b815260206004820152600f60248201526e139bdd08195b9bdd59da081e1554d1608a1b604482015290519081900360640190fd5b6000816001600160a01b03166323f5589a6040518163ffffffff1660e01b815260040160206040518083038186803b15801561193f57600080fd5b505afa158015611953573d6000803e3d6000fd5b505050506040513d602081101561196957600080fd5b50519050600061197889611550565b9050600061198461230c565b6001600160a01b031663654a60ac836514da185554d160d21b6040518363ffffffff1660e01b8152600401808063444f575360e01b8152506020018381526020018281526020019250505060206040518083038186803b1580156119e757600080fd5b505afa1580156119fb573d6000803e3d6000fd5b505050506040513d6020811015611a1157600080fd5b505190506000611a2a8b6514da185554d160d21b611ee2565b90506000856001600160a01b0316630ac045d583856040518363ffffffff1660e01b8152600401808381526020018281526020019250505060206040518083038186803b158015611a7a57600080fd5b505afa158015611a8e573d6000803e3d6000fd5b505050506040513d6020811015611aa457600080fd5b505190508a8110611ab5578a611ab7565b805b97506000611ac361230c565b6001600160a01b031663654a60ac6514da185554d160d21b8b6040518363ffffffff1660e01b8152600401808381526020018281526020018063444f575360e01b8152506020019250505060206040518083038186803b158015611b2657600080fd5b505afa158015611b3a573d6000803e3d6000fd5b505050506040513d6020811015611b5057600080fd5b505160408051630241ebdb60e61b81529051919250611be391611bdc918991739bC00e6D905817864C147d10b7415C33b64434A19163907af6c0916004808301926020929190829003018186803b158015611baa57600080fd5b505af4158015611bbe573d6000803e3d6000fd5b505050506040513d6020811015611bd457600080fd5b50519061260b565b82906123be565b9950848a1115611cdb57849950611bf861230c565b6001600160a01b031663654a60ac611c58611c5189739bC00e6D905817864C147d10b7415C33b64434A163907af6c06040518163ffffffff1660e01b815260040160206040518083038186803b158015611baa57600080fd5b889061291b565b6514da185554d160d21b6040518363ffffffff1660e01b8152600401808063444f575360e01b8152506020018381526020018281526020019250505060206040518083038186803b158015611cac57600080fd5b505afa158015611cc0573d6000803e3d6000fd5b505050506040513d6020811015611cd657600080fd5b505198505b611ce88d8c8b868e612939565b81891415611d5857866001600160a01b031663974e9e7f8e6040518263ffffffff1660e01b815260040180826001600160a01b03168152602001915050600060405180830381600087803b158015611d3f57600080fd5b505af1158015611d53573d6000803e3d6000fd5b505050505b5050505050505050935093915050565b6000611d7a611d75612308565b610ba0565b5090506114db6114d5612308565b60665481565b6001600160a01b03166000908152606a6020526040902054151590565b600054610100900460ff1680611dc45750611dc4612a7a565b80611dd2575060005460ff16155b611e0d5760405162461bcd60e51b815260040180806020018281038252602e81526020018061330a602e913960400191505060405180910390fd5b600054610100900460ff16158015611e38576000805460ff1961ff0019909116610100171660011790555b611e40612a8b565b611e4982612b3c565b6005739bC00e6D905817864C147d10b7415C33b64434A163907af6c06040518163ffffffff1660e01b815260040160206040518083038186803b158015611e8f57600080fd5b505af4158015611ea3573d6000803e3d6000fd5b505050506040513d6020811015611eb957600080fd5b505181611ec257fe5b046066558015611ed8576000805461ff00191690555b5050565b606c5490565b6000611eec6132c9565b506001600160a01b0383166000908152606a6020908152604091829020825180840190935280548084526001909101549183018290529081611f34576000935050505061167a565b6000611f6983611f63606c8581548110611f4a57fe5b9060005260206000200154611f5d610d42565b90612bef565b90612c08565b90506000611f7687610fa6565b90506000611f8783611f6384612c21565b9050611f9281612c31565b9998505050505050505050565b60675490565b600063444f575360e01b611fb761230c565b6001600160a01b0316629919c0826040518263ffffffff1660e01b81526004018082815260200191505060206040518083038186803b158015611ff957600080fd5b505afa15801561200d573d6000803e3d6000fd5b505050506040513d602081101561202357600080fd5b505115612073576040805162461bcd60e51b81526020600482015260196024820152780a4c2e8ca40e6e8c2d8ca40dee440dcdee840c240e6f2dce8d603b1b604482015290519081900360640190fd5b600061207d612776565b6001600160a01b03166370a08231856040518263ffffffff1660e01b815260040180826001600160a01b0316815260200191505060206040518083038186803b1580156120c957600080fd5b505afa1580156120dd573d6000803e3d6000fd5b505050506040513d60208110156120f357600080fd5b5051606654909150600090612119906121138763444f575360e01b611ee2565b90612665565b905081811061212d5760009350505061213c565b61213782826123e2565b935050505b50919050565b600061214c612c53565b6001600160a01b0316630a1e187d612162612308565b86868661216d612308565b6040518663ffffffff1660e01b815260040180866001600160a01b03168152602001858152602001848152602001838152602001826001600160a01b0316815260200195505050505050602060405180830381600087803b1580156121d157600080fd5b505af11580156121e5573d6000803e3d6000fd5b505050506040513d60208110156121fb57600080fd5b5051949350505050565b61220d612308565b6001600160a01b031661221e6114f7565b6001600160a01b031614612267576040805162461bcd60e51b81526020600482018190526024820152600080516020613379833981519152604482015290519081900360640190fd5b6001600160a01b0381166122ac5760405162461bcd60e51b81526004018080602001828103825260268152602001806132e46026913960400191505060405180910390fd5b6033546040516001600160a01b038084169216907f8be0079c531659141344cd1fd0a4f28419497f9722a3daafe3b4186f6b6457e090600090a3603380546001600160a01b0319166001600160a01b0392909216919091179055565b3390565b6065546040805163dacb2d0160e01b8152654f7261636c6560d01b60048201526024810182905260166044820152754d697373696e67204f7261636c65206164647265737360501b606482015290516000926001600160a01b03169163dacb2d01916084808301926020929190829003018186803b15801561238d57600080fd5b505afa1580156123a1573d6000803e3d6000fd5b505050506040513d60208110156123b757600080fd5b5051905090565b6000670de0b6b3a76400006123d38484612cde565b816123da57fe5b049392505050565b600082821115612439576040805162461bcd60e51b815260206004820152601e60248201527f536166654d6174683a207375627472616374696f6e206f766572666c6f770000604482015290519081900360640190fd5b50900390565b8160006124546514da185554d160d21b610fa6565b9050600061246282846123e2565b9050600081156124c65760006124788584612bef565b90506124c281739bC00e6D905817864C147d10b7415C33b64434A163d5e5e6e66040518163ffffffff1660e01b815260040160206040518083038186803b158015611baa57600080fd5b9150505b848414156124e6576124d9876000612d37565b6124e1612d5e565b61250f565b60006124f286866123e2565b905060006125008285612bef565b905061250c8982612d37565b50505b61252361251e82611f63610d42565b612d71565b50505050505050565b6125346132c9565b506001600160a01b0381166000908152606a6020908152604091829020825180840190935280548352600101549082015261256d612da6565b6001600160a01b0316638664527483836000015184602001516040518463ffffffff1660e01b815260040180846001600160a01b031681526020018381526020018281526020019350505050600060405180830381600087803b1580156125d357600080fd5b505af11580156125e7573d6000803e3d6000fd5b505050505050565b60006126048383670de0b6b3a7640000612e2f565b9392505050565b600082820183811015612604576040805162461bcd60e51b815260206004820152601b60248201527f536166654d6174683a206164646974696f6e206f766572666c6f770000000000604482015290519081900360640190fd5b60006126048383670de0b6b3a7640000612e66565b60008061268684610ba0565b91509150818311156126d2576040805162461bcd60e51b815260206004820152601060248201526f416d6f756e7420746f6f206c6172676560801b604482015290519081900360640190fd5b6126dd848483612e86565b6514da185554d160d21b60009081526068602052600080516020613338833981519152546040805163219e412d60e21b81526001600160a01b038881166004830152602482018890529151919092169263867904b4926044808201939182900301818387803b15801561274f57600080fd5b505af1158015612763573d6000803e3d6000fd5b505050506127708461252c565b50505050565b6065546040805163dacb2d0160e01b815266536861646f777360c81b600482015260248101829052601760448201527f4d697373696e6720536861646f77732061646472657373000000000000000000606482015290516000926001600160a01b03169163dacb2d01916084808301926020929190829003018186803b15801561238d57600080fd5b6065546040805163dacb2d0160e01b81526b526577617264457363726f7760a01b600482015260248101829052601c60448201527f4d697373696e6720526577617264457363726f77206164647265737300000000606482015290516000926001600160a01b03169163dacb2d01916084808301926020929190829003018186803b15801561238d57600080fd5b6065546040805163dacb2d0160e01b81526b4c69717569646174696f6e7360a01b600482015260248101829052601c60448201527f4d697373696e67204c69717569646174696f6e73206164647265737300000000606482015290516000926001600160a01b03169163dacb2d01916084808301926020929190829003018186803b15801561238d57600080fd5b60006126048261293385670de0b6b3a7640000612cde565b90613000565b82600061294587611550565b9050808310612952578391505b61295d87838661243f565b6514da185554d160d21b600090815260686020526000805160206133388339815191525460408051632770a7eb60e21b81526001600160a01b038b811660048301526024820187905291519190921692639dc29fac926044808201939182900301818387803b1580156129cf57600080fd5b505af11580156129e3573d6000803e3d6000fd5b50506514da185554d160d21b600090815260686020526000805160206133388339815191525460408051632770a7eb60e21b81526001600160a01b038c81166004830152602482018c90529151919092169450639dc29fac93506044808301939282900301818387803b158015612a5957600080fd5b505af1158015612a6d573d6000803e3d6000fd5b505050506125238761252c565b6000612a853061305f565b15905090565b600054610100900460ff1680612aa45750612aa4612a7a565b80612ab2575060005460ff16155b612aed5760405162461bcd60e51b815260040180806020018281038252602e81526020018061330a602e913960400191505060405180910390fd5b600054610100900460ff16158015612b18576000805460ff1961ff0019909116610100171660011790555b612b20613065565b612b28613105565b80156114db576000805461ff001916905550565b600054610100900460ff1680612b555750612b55612a7a565b80612b63575060005460ff16155b612b9e5760405162461bcd60e51b815260040180806020018281038252602e81526020018061330a602e913960400191505060405180910390fd5b600054610100900460ff16158015612bc9576000805460ff1961ff0019909116610100171660011790555b612bd1612a8b565b612bda826131fe565b8015611ed8576000805461ff00191690555050565b600061260483836b033b2e3c9fd0803ce8000000612e66565b600061260483836b033b2e3c9fd0803ce8000000612e2f565b600061167a82633b9aca00612cde565b60006305f5e10082046005600a820610612c4957600a015b600a900492915050565b6065546040805163dacb2d0160e01b81526822bc31b430b733b2b960b91b600482015260248101829052601960448201527f4d697373696e672045786368616e676572206164647265737300000000000000606482015290516000926001600160a01b03169163dacb2d01916084808301926020929190829003018186803b15801561238d57600080fd5b600082612ced5750600061167a565b82820282848281612cfa57fe5b04146126045760405162461bcd60e51b81526004018080602001828103825260218152602001806133586021913960400191505060405180910390fd5b6001600160a01b039091166000908152606a60205260409020908155606c54600190910155565b606b54612d6c9060006123e2565b606b55565b606c80546001810182556000919091527f2b4a51ab505fc96a0952efda2ba61bcd3078d4c02c39a186ec16f21883fbe0160155565b6065546040805163dacb2d0160e01b815266119959541bdbdb60ca1b600482015260248101829052601760448201527f4d697373696e6720466565506f6f6c2061646472657373000000000000000000606482015290516000926001600160a01b03169163dacb2d01916084808301926020929190829003018186803b15801561238d57600080fd5b600080600a8304612e408686612cde565b81612e4757fe5b0490506005600a825b0610612e5a57600a015b600a9004949350505050565b600080612e7a8461293387600a8702612cde565b90506005600a82612e50565b6000612e9a6514da185554d160d21b610fa6565b90506000612ea8848361260b565b90506000612eb68583612bef565b90506000612f3482739bC00e6D905817864C147d10b7415C33b64434A163d5e5e6e66040518163ffffffff1660e01b815260040160206040518083038186803b158015612f0257600080fd5b505af4158015612f16573d6000803e3d6000fd5b505050506040513d6020811015612f2c57600080fd5b5051906123e2565b90508415612f4d57612f4a83611f5d888861260b565b91505b84612f5a57612f5a6132bb565b612f648783612d37565b6000612f6e611edc565b1115612f8857612f8361251e82611f63610d42565b612523565b612523739bC00e6D905817864C147d10b7415C33b64434A163d5e5e6e66040518163ffffffff1660e01b815260040160206040518083038186803b158015612fcf57600080fd5b505af4158015612fe3573d6000803e3d6000fd5b505050506040513d6020811015612ff957600080fd5b5051612d71565b6000808211613056576040805162461bcd60e51b815260206004820152601a60248201527f536166654d6174683a206469766973696f6e206279207a65726f000000000000604482015290519081900360640190fd5b8183816123da57fe5b3b151590565b600054610100900460ff168061307e575061307e612a7a565b8061308c575060005460ff16155b6130c75760405162461bcd60e51b815260040180806020018281038252602e81526020018061330a602e913960400191505060405180910390fd5b600054610100900460ff16158015612b28576000805460ff1961ff00199091166101001716600117905580156114db576000805461ff001916905550565b600054610100900460ff168061311e575061311e612a7a565b8061312c575060005460ff16155b6131675760405162461bcd60e51b815260040180806020018281038252602e81526020018061330a602e913960400191505060405180910390fd5b600054610100900460ff16158015613192576000805460ff1961ff0019909116610100171660011790555b600061319c612308565b603380546001600160a01b0319166001600160a01b038316908117909155604051919250906000907f8be0079c531659141344cd1fd0a4f28419497f9722a3daafe3b4186f6b6457e0908290a35080156114db576000805461ff001916905550565b600054610100900460ff16806132175750613217612a7a565b80613225575060005460ff16155b6132605760405162461bcd60e51b815260040180806020018281038252602e81526020018061330a602e913960400191505060405180910390fd5b600054610100900460ff1615801561328b576000805460ff1961ff0019909116610100171660011790555b606580546001600160a01b0319166001600160a01b0384161790558015611ed8576000805461ff00191690555050565b606b54612d6c90600061260b565b60405180604001604052806000815260200160008152509056fe4f776e61626c653a206e6577206f776e657220697320746865207a65726f2061646472657373496e697469616c697a61626c653a20636f6e747261637420697320616c726561647920696e697469616c697a6564a608fccd882de3f13cf929a9041c4506fed4bea4cb411db49150f4291a7027f3536166654d6174683a206d756c7469706c69636174696f6e206f766572666c6f774f776e61626c653a2063616c6c6572206973206e6f7420746865206f776e65724e65772069737375616e636520726174696f2063616e6e6f7420657863656564204d41585f49535355414e43455f524154494fa26469706673582212208f69553ff0a2e68e3458c4e2c3b8e147d12c4ad63b28c3a125a76b6cef53154364736f6c63430007010033",
  "deployedBytecode": "0x608060405234801561001057600080fd5b50600436106101fb5760003560e01c80638a2900141161011a578063b410a034116100ad578063d37c4d8b1161007c578063d37c4d8b1461058f578063dbf63340146105bb578063dcb5ec23146105c3578063ee52a2f3146105e9578063f2fde38b14610612576101fb565b8063b410a0341461051f578063b992812e14610527578063c4d66de814610561578063cd92eba914610587576101fb565b8063a311c7c2116100e9578063a311c7c214610495578063a5fdc5de146104bb578063a63c4df4146104e1578063af086c7e14610517576101fb565b80638a290014146104425780638b3f80881461045f5780638da5cb5b146104855780639371bede1461048d576101fb565b8063326080391161019257806372cb051f1161016157806372cb051f1461038a578063835e119c146103e257806383d625d4146103ff578063849cf5881461041c576101fb565b8063326080391461033757806346317712146103545780634e543b261461035c578063715018a614610382576101fb565b80630b887dae116101ce5780630b887dae146102985780631137aedf146102b557806316b2213f146102f4578063295da87d1461031a576101fb565b806304f3bcec14610200578063054be0b71461022457806305b3c1c91461024357806308d95cd51461027b575b600080fd5b610208610638565b604080516001600160a01b039092168252519081900360200190f35b6102416004803603602081101561023a57600080fd5b5035610647565b005b6102696004803603602081101561025957600080fd5b50356001600160a01b0316610792565b60408051918252519081900360200190f35b6102696004803603602081101561029157600080fd5b503561084e565b610241600480360360208110156102ae57600080fd5b503561086c565b6102db600480360360208110156102cb57600080fd5b50356001600160a01b0316610ba0565b6040805192835260208301919091528051918290030190f35b6102696004803603602081101561030a57600080fd5b50356001600160a01b0316610bec565b6102416004803603602081101561033057600080fd5b5035610bfe565b6102086004803603602081101561034d57600080fd5b5035610d27565b610269610d42565b6102416004803603602081101561037257600080fd5b50356001600160a01b0316610d68565b610241610e1e565b610392610eca565b60408051602080825283518183015283519192839290830191858101910280838360005b838110156103ce5781810151838201526020016103b6565b505050509050019250505060405180910390f35b610208600480360360208110156103f857600080fd5b5035610f7f565b6102696004803603602081101561041557600080fd5b5035610fa6565b6102416004803603602081101561043257600080fd5b50356001600160a01b03166112bd565b6102416004803603602081101561045857600080fd5b50356114ca565b6102db6004803603602081101561047557600080fd5b50356001600160a01b03166114de565b6102086114f7565b610269611506565b610269600480360360208110156104ab57600080fd5b50356001600160a01b031661150c565b610269600480360360208110156104d157600080fd5b50356001600160a01b0316611550565b6102db600480360360608110156104f757600080fd5b506001600160a01b03813581169160208101359160409091013516611680565b610241611d68565b610269611d88565b61054d6004803603602081101561053d57600080fd5b50356001600160a01b0316611d8e565b604080519115158252519081900360200190f35b6102416004803603602081101561057757600080fd5b50356001600160a01b0316611dab565b610269611edc565b610269600480360360408110156105a557600080fd5b506001600160a01b038135169060200135611ee2565b610269611f9f565b610269600480360360208110156105d957600080fd5b50356001600160a01b0316611fa5565b610269600480360360608110156105ff57600080fd5b5080359060208101359060400135612142565b6102416004803603602081101561062857600080fd5b50356001600160a01b0316612205565b6065546001600160a01b031681565b61064f612308565b6001600160a01b03166106606114f7565b6001600160a01b0316146106a9576040805162461bcd60e51b81526020600482018190526024820152600080516020613379833981519152604482015290519081900360640190fd5b73__$22e4fd0786f9bb9222b95fc3343146c524$__63907af6c06040518163ffffffff1660e01b815260040160206040518083038186803b1580156106ed57600080fd5b505af4158015610701573d6000803e3d6000fd5b505050506040513d602081101561071757600080fd5b50518111156107575760405162461bcd60e51b81526004018080602001828103825260338152602001806133996033913960400191505060405180910390fd5b60668190556040805182815290517f63b22e09cc3a33e847c063e35f887bd4ea96bc8c0f93f1f8c311e4fa6d8854529181900360200190a150565b60008061079d61230c565b6001600160a01b031663654a60ac6107b485611550565b6514da185554d160d21b6040518363ffffffff1660e01b8152600401808063444f575360e01b8152506020018381526020018281526020019250505060206040518083038186803b15801561080857600080fd5b505afa15801561081c573d6000803e3d6000fd5b505050506040513d602081101561083257600080fd5b50516066549091506108459082906123be565b9150505b919050565b606c818154811061085b57fe5b600091825260209091200154905081565b610874612308565b6001600160a01b03166108856114f7565b6001600160a01b0316146108ce576040805162461bcd60e51b81526020600482018190526024820152600080516020613379833981519152604482015290519081900360640190fd5b6000818152606860205260409020546001600160a01b031661092e576040805162461bcd60e51b815260206004820152601460248201527314de5b9d1a08191bd95cc81b9bdd08195e1a5cdd60621b604482015290519081900360640190fd5b6000818152606860209081526040918290205482516318160ddd60e01b815292516001600160a01b03909116926318160ddd926004808301939192829003018186803b15801561097d57600080fd5b505afa158015610991573d6000803e3d6000fd5b505050506040513d60208110156109a757600080fd5b5051156109f1576040805162461bcd60e51b815260206004820152601360248201527253796e746820737570706c792065786973747360681b604482015290519081900360640190fd5b6514da185554d160d21b811415610a44576040805162461bcd60e51b815260206004820152601260248201527110d85b9b9bdd081c995b5bdd99481e1554d160721b604482015290519081900360640190fd5b6000818152606860205260408120546001600160a01b0316905b606754811015610b6057816001600160a01b031660678281548110610a7f57fe5b6000918252602090912001546001600160a01b03161415610b585760678181548110610aa757fe5b600091825260209091200180546001600160a01b0319169055606780546000198101908110610ad257fe5b600091825260209091200154606780546001600160a01b039092169183908110610af857fe5b9060005260206000200160006101000a8154816001600160a01b0302191690836001600160a01b031602179055506067805480610b3157fe5b600082815260209020810160001990810180546001600160a01b0319169055019055610b60565b600101610a5e565b5050600081815260686020818152604080842080546001600160a01b031685526069835290842084905593909252905280546001600160a01b0319169055565b6000806000610bb8846514da185554d160d21b611ee2565b90506000610bc585610792565b9050808210610bd657506000610be3565b610be081836123e2565b90505b92509050915091565b60696020526000908152604090205481565b6000610c08612308565b90506000610c1f826514da185554d160d21b611ee2565b905060008111610c6b576040805162461bcd60e51b81526020600482015260126024820152714e6f206465627420746f20666f726769766560701b604482015290519081900360640190fd5b6000838210610c7a5783610c7c565b815b9050610c8983828461243f565b6514da185554d160d21b600090815260686020526000805160206133388339815191525460408051632770a7eb60e21b81526001600160a01b03878116600483015260248201869052915185949290931692639dc29fac9260448084019391929182900301818387803b158015610cff57600080fd5b505af1158015610d13573d6000803e3d6000fd5b50505050610d208461252c565b5050505050565b6068602052600090815260409020546001600160a01b031681565b606c8054600091906000198101908110610d5857fe5b9060005260206000200154905090565b610d70612308565b6001600160a01b0316610d816114f7565b6001600160a01b031614610dca576040805162461bcd60e51b81526020600482018190526024820152600080516020613379833981519152604482015290519081900360640190fd5b606580546001600160a01b0383166001600160a01b0319909116811790915560408051918252517f15cd6d20bba01b3fcb790c73829dd07412cbdf689ef818c96a2505889f3736a29181900360200190a150565b610e26612308565b6001600160a01b0316610e376114f7565b6001600160a01b031614610e80576040805162461bcd60e51b81526020600482018190526024820152600080516020613379833981519152604482015290519081900360640190fd5b6033546040516000916001600160a01b0316907f8be0079c531659141344cd1fd0a4f28419497f9722a3daafe3b4186f6b6457e0908390a3603380546001600160a01b0319169055565b606754606090819067ffffffffffffffff81118015610ee857600080fd5b50604051908082528060200260200182016040528015610f12578160200160208202803683370190505b50905060005b606754811015610f79576069600060678381548110610f3357fe5b60009182526020808320909101546001600160a01b031683528201929092526040019020548251839083908110610f6657fe5b6020908102919091010152600101610f18565b50905090565b60678181548110610f8c57fe5b6000918252602090912001546001600160a01b0316905081565b600080610fb161230c565b9050600080826001600160a01b031663ac82f608866040518263ffffffff1660e01b81526004018082815260200191505060206040518083038186803b158015610ffa57600080fd5b505afa15801561100e573d6000803e3d6000fd5b505050506040513d602081101561102457600080fd5b50519050606060006001600160a01b03851663babcb423611043610eca565b6040518263ffffffff1660e01b81526004018080602001828103825283818151815260200191508051906020019060200280838360005b8381101561109257818101518382015260200161107a565b505050509050019250505060006040518083038186803b1580156110b557600080fd5b505afa1580156110c9573d6000803e3d6000fd5b505050506040513d6000823e601f3d908101601f1916820160409081528110156110f257600080fd5b810190808051604051939291908464010000000082111561111257600080fd5b90830190602082018581111561112757600080fd5b825186602082028301116401000000008211171561114457600080fd5b82525081516020918201928201910280838360005b83811015611171578181015183820152602001611159565b5050505091909101604052506020015192945091925050811590506111cf576040805162461bcd60e51b815260206004820152600f60248201526e526174657320617265207374616c6560881b604482015290519081900360640190fd5b60005b6067548110156112a7576000606782815481106111eb57fe5b60009182526020918290200154604080516318160ddd60e01b815290516001600160a01b03909216926318160ddd92600480840193829003018186803b15801561123457600080fd5b505afa158015611248573d6000803e3d6000fd5b505050506040513d602081101561125e57600080fd5b5051845190915060009061128f9086908590811061127857fe5b6020026020010151836125ef90919063ffffffff16565b905061129b878261260b565b965050506001016111d2565b506112b28484612665565b979650505050505050565b6112c5612308565b6001600160a01b03166112d66114f7565b6001600160a01b03161461131f576040805162461bcd60e51b81526020600482018190526024820152600080516020613379833981519152604482015290519081900360640190fd5b6000816001600160a01b031663dbd06c856040518163ffffffff1660e01b815260040160206040518083038186803b15801561135a57600080fd5b505afa15801561136e573d6000803e3d6000fd5b505050506040513d602081101561138457600080fd5b50516000818152606860205260409020549091506001600160a01b0316156113ea576040805162461bcd60e51b815260206004820152601460248201527353796e746820616c72656164792065786973747360601b604482015290519081900360640190fd5b6001600160a01b03821660009081526069602052604090205415611455576040805162461bcd60e51b815260206004820152601c60248201527f53796e7468206164647265737320616c72656164792065786973747300000000604482015290519081900360640190fd5b60678054600181019091557f9787eeb91fe3101235e4a76063c7023ecb40f923f97916639c598592fa30d6ae0180546001600160a01b039093166001600160a01b0319938416811790915560008281526068602090815260408083208054909616841790955591815260699091529190912055565b6114db6114d5612308565b8261267a565b50565b606a602052600090815260409020805460019091015482565b6033546001600160a01b031690565b606b5481565b60008061151883611550565b905080611529576000915050610849565b600061153c8463444f575360e01b611ee2565b90506115488183612665565b949350505050565b60008061155b612776565b6001600160a01b03166370a08231846040518263ffffffff1660e01b815260040180826001600160a01b0316815260200191505060206040518083038186803b1580156115a757600080fd5b505afa1580156115bb573d6000803e3d6000fd5b505050506040513d60208110156115d157600080fd5b5051905060006115df6127ff565b6001600160a01b03161461167a576116776115f86127ff565b6001600160a01b03166370a08231856040518263ffffffff1660e01b815260040180826001600160a01b0316815260200191505060206040518083038186803b15801561164457600080fd5b505afa158015611658573d6000803e3d6000fd5b505050506040513d602081101561166e57600080fd5b5051829061260b565b90505b92915050565b60008063444f575360e01b61169361230c565b6001600160a01b0316629919c0826040518263ffffffff1660e01b81526004018082815260200191505060206040518083038186803b1580156116d557600080fd5b505afa1580156116e9573d6000803e3d6000fd5b505050506040513d60208110156116ff57600080fd5b50511561174f576040805162461bcd60e51b81526020600482015260196024820152780a4c2e8ca40e6e8c2d8ca40dee440dcdee840c240e6f2dce8d603b1b604482015290519081900360640190fd5b600061175961288d565b9050806001600160a01b031663c49e80a6886040518263ffffffff1660e01b815260040180826001600160a01b0316815260200191505060206040518083038186803b1580156117a857600080fd5b505afa1580156117bc573d6000803e3d6000fd5b505050506040513d60208110156117d257600080fd5b5051611825576040805162461bcd60e51b815260206004820181905260248201527f4163636f756e74206e6f74206f70656e20666f72206c69717569646174696f6e604482015290519081900360640190fd5b6514da185554d160d21b6000526068602090815260008051602061333883398151915254604080516370a0823160e01b81526001600160a01b03898116600483015291518a9492909316926370a0823192602480840193919291829003018186803b15801561189357600080fd5b505afa1580156118a7573d6000803e3d6000fd5b505050506040513d60208110156118bd57600080fd5b50511015611904576040805162461bcd60e51b815260206004820152600f60248201526e139bdd08195b9bdd59da081e1554d1608a1b604482015290519081900360640190fd5b6000816001600160a01b03166323f5589a6040518163ffffffff1660e01b815260040160206040518083038186803b15801561193f57600080fd5b505afa158015611953573d6000803e3d6000fd5b505050506040513d602081101561196957600080fd5b50519050600061197889611550565b9050600061198461230c565b6001600160a01b031663654a60ac836514da185554d160d21b6040518363ffffffff1660e01b8152600401808063444f575360e01b8152506020018381526020018281526020019250505060206040518083038186803b1580156119e757600080fd5b505afa1580156119fb573d6000803e3d6000fd5b505050506040513d6020811015611a1157600080fd5b505190506000611a2a8b6514da185554d160d21b611ee2565b90506000856001600160a01b0316630ac045d583856040518363ffffffff1660e01b8152600401808381526020018281526020019250505060206040518083038186803b158015611a7a57600080fd5b505afa158015611a8e573d6000803e3d6000fd5b505050506040513d6020811015611aa457600080fd5b505190508a8110611ab5578a611ab7565b805b97506000611ac361230c565b6001600160a01b031663654a60ac6514da185554d160d21b8b6040518363ffffffff1660e01b8152600401808381526020018281526020018063444f575360e01b8152506020019250505060206040518083038186803b158015611b2657600080fd5b505afa158015611b3a573d6000803e3d6000fd5b505050506040513d6020811015611b5057600080fd5b505160408051630241ebdb60e61b81529051919250611be391611bdc91899173__$22e4fd0786f9bb9222b95fc3343146c524$__9163907af6c0916004808301926020929190829003018186803b158015611baa57600080fd5b505af4158015611bbe573d6000803e3d6000fd5b505050506040513d6020811015611bd457600080fd5b50519061260b565b82906123be565b9950848a1115611cdb57849950611bf861230c565b6001600160a01b031663654a60ac611c58611c518973__$22e4fd0786f9bb9222b95fc3343146c524$__63907af6c06040518163ffffffff1660e01b815260040160206040518083038186803b158015611baa57600080fd5b889061291b565b6514da185554d160d21b6040518363ffffffff1660e01b8152600401808063444f575360e01b8152506020018381526020018281526020019250505060206040518083038186803b158015611cac57600080fd5b505afa158015611cc0573d6000803e3d6000fd5b505050506040513d6020811015611cd657600080fd5b505198505b611ce88d8c8b868e612939565b81891415611d5857866001600160a01b031663974e9e7f8e6040518263ffffffff1660e01b815260040180826001600160a01b03168152602001915050600060405180830381600087803b158015611d3f57600080fd5b505af1158015611d53573d6000803e3d6000fd5b505050505b5050505050505050935093915050565b6000611d7a611d75612308565b610ba0565b5090506114db6114d5612308565b60665481565b6001600160a01b03166000908152606a6020526040902054151590565b600054610100900460ff1680611dc45750611dc4612a7a565b80611dd2575060005460ff16155b611e0d5760405162461bcd60e51b815260040180806020018281038252602e81526020018061330a602e913960400191505060405180910390fd5b600054610100900460ff16158015611e38576000805460ff1961ff0019909116610100171660011790555b611e40612a8b565b611e4982612b3c565b600573__$22e4fd0786f9bb9222b95fc3343146c524$__63907af6c06040518163ffffffff1660e01b815260040160206040518083038186803b158015611e8f57600080fd5b505af4158015611ea3573d6000803e3d6000fd5b505050506040513d6020811015611eb957600080fd5b505181611ec257fe5b046066558015611ed8576000805461ff00191690555b5050565b606c5490565b6000611eec6132c9565b506001600160a01b0383166000908152606a6020908152604091829020825180840190935280548084526001909101549183018290529081611f34576000935050505061167a565b6000611f6983611f63606c8581548110611f4a57fe5b9060005260206000200154611f5d610d42565b90612bef565b90612c08565b90506000611f7687610fa6565b90506000611f8783611f6384612c21565b9050611f9281612c31565b9998505050505050505050565b60675490565b600063444f575360e01b611fb761230c565b6001600160a01b0316629919c0826040518263ffffffff1660e01b81526004018082815260200191505060206040518083038186803b158015611ff957600080fd5b505afa15801561200d573d6000803e3d6000fd5b505050506040513d602081101561202357600080fd5b505115612073576040805162461bcd60e51b81526020600482015260196024820152780a4c2e8ca40e6e8c2d8ca40dee440dcdee840c240e6f2dce8d603b1b604482015290519081900360640190fd5b600061207d612776565b6001600160a01b03166370a08231856040518263ffffffff1660e01b815260040180826001600160a01b0316815260200191505060206040518083038186803b1580156120c957600080fd5b505afa1580156120dd573d6000803e3d6000fd5b505050506040513d60208110156120f357600080fd5b5051606654909150600090612119906121138763444f575360e01b611ee2565b90612665565b905081811061212d5760009350505061213c565b61213782826123e2565b935050505b50919050565b600061214c612c53565b6001600160a01b0316630a1e187d612162612308565b86868661216d612308565b6040518663ffffffff1660e01b815260040180866001600160a01b03168152602001858152602001848152602001838152602001826001600160a01b0316815260200195505050505050602060405180830381600087803b1580156121d157600080fd5b505af11580156121e5573d6000803e3d6000fd5b505050506040513d60208110156121fb57600080fd5b5051949350505050565b61220d612308565b6001600160a01b031661221e6114f7565b6001600160a01b031614612267576040805162461bcd60e51b81526020600482018190526024820152600080516020613379833981519152604482015290519081900360640190fd5b6001600160a01b0381166122ac5760405162461bcd60e51b81526004018080602001828103825260268152602001806132e46026913960400191505060405180910390fd5b6033546040516001600160a01b038084169216907f8be0079c531659141344cd1fd0a4f28419497f9722a3daafe3b4186f6b6457e090600090a3603380546001600160a01b0319166001600160a01b0392909216919091179055565b3390565b6065546040805163dacb2d0160e01b8152654f7261636c6560d01b60048201526024810182905260166044820152754d697373696e67204f7261636c65206164647265737360501b606482015290516000926001600160a01b03169163dacb2d01916084808301926020929190829003018186803b15801561238d57600080fd5b505afa1580156123a1573d6000803e3d6000fd5b505050506040513d60208110156123b757600080fd5b5051905090565b6000670de0b6b3a76400006123d38484612cde565b816123da57fe5b049392505050565b600082821115612439576040805162461bcd60e51b815260206004820152601e60248201527f536166654d6174683a207375627472616374696f6e206f766572666c6f770000604482015290519081900360640190fd5b50900390565b8160006124546514da185554d160d21b610fa6565b9050600061246282846123e2565b9050600081156124c65760006124788584612bef565b90506124c28173__$22e4fd0786f9bb9222b95fc3343146c524$__63d5e5e6e66040518163ffffffff1660e01b815260040160206040518083038186803b158015611baa57600080fd5b9150505b848414156124e6576124d9876000612d37565b6124e1612d5e565b61250f565b60006124f286866123e2565b905060006125008285612bef565b905061250c8982612d37565b50505b61252361251e82611f63610d42565b612d71565b50505050505050565b6125346132c9565b506001600160a01b0381166000908152606a6020908152604091829020825180840190935280548352600101549082015261256d612da6565b6001600160a01b0316638664527483836000015184602001516040518463ffffffff1660e01b815260040180846001600160a01b031681526020018381526020018281526020019350505050600060405180830381600087803b1580156125d357600080fd5b505af11580156125e7573d6000803e3d6000fd5b505050505050565b60006126048383670de0b6b3a7640000612e2f565b9392505050565b600082820183811015612604576040805162461bcd60e51b815260206004820152601b60248201527f536166654d6174683a206164646974696f6e206f766572666c6f770000000000604482015290519081900360640190fd5b60006126048383670de0b6b3a7640000612e66565b60008061268684610ba0565b91509150818311156126d2576040805162461bcd60e51b815260206004820152601060248201526f416d6f756e7420746f6f206c6172676560801b604482015290519081900360640190fd5b6126dd848483612e86565b6514da185554d160d21b60009081526068602052600080516020613338833981519152546040805163219e412d60e21b81526001600160a01b038881166004830152602482018890529151919092169263867904b4926044808201939182900301818387803b15801561274f57600080fd5b505af1158015612763573d6000803e3d6000fd5b505050506127708461252c565b50505050565b6065546040805163dacb2d0160e01b815266536861646f777360c81b600482015260248101829052601760448201527f4d697373696e6720536861646f77732061646472657373000000000000000000606482015290516000926001600160a01b03169163dacb2d01916084808301926020929190829003018186803b15801561238d57600080fd5b6065546040805163dacb2d0160e01b81526b526577617264457363726f7760a01b600482015260248101829052601c60448201527f4d697373696e6720526577617264457363726f77206164647265737300000000606482015290516000926001600160a01b03169163dacb2d01916084808301926020929190829003018186803b15801561238d57600080fd5b6065546040805163dacb2d0160e01b81526b4c69717569646174696f6e7360a01b600482015260248101829052601c60448201527f4d697373696e67204c69717569646174696f6e73206164647265737300000000606482015290516000926001600160a01b03169163dacb2d01916084808301926020929190829003018186803b15801561238d57600080fd5b60006126048261293385670de0b6b3a7640000612cde565b90613000565b82600061294587611550565b9050808310612952578391505b61295d87838661243f565b6514da185554d160d21b600090815260686020526000805160206133388339815191525460408051632770a7eb60e21b81526001600160a01b038b811660048301526024820187905291519190921692639dc29fac926044808201939182900301818387803b1580156129cf57600080fd5b505af11580156129e3573d6000803e3d6000fd5b50506514da185554d160d21b600090815260686020526000805160206133388339815191525460408051632770a7eb60e21b81526001600160a01b038c81166004830152602482018c90529151919092169450639dc29fac93506044808301939282900301818387803b158015612a5957600080fd5b505af1158015612a6d573d6000803e3d6000fd5b505050506125238761252c565b6000612a853061305f565b15905090565b600054610100900460ff1680612aa45750612aa4612a7a565b80612ab2575060005460ff16155b612aed5760405162461bcd60e51b815260040180806020018281038252602e81526020018061330a602e913960400191505060405180910390fd5b600054610100900460ff16158015612b18576000805460ff1961ff0019909116610100171660011790555b612b20613065565b612b28613105565b80156114db576000805461ff001916905550565b600054610100900460ff1680612b555750612b55612a7a565b80612b63575060005460ff16155b612b9e5760405162461bcd60e51b815260040180806020018281038252602e81526020018061330a602e913960400191505060405180910390fd5b600054610100900460ff16158015612bc9576000805460ff1961ff0019909116610100171660011790555b612bd1612a8b565b612bda826131fe565b8015611ed8576000805461ff00191690555050565b600061260483836b033b2e3c9fd0803ce8000000612e66565b600061260483836b033b2e3c9fd0803ce8000000612e2f565b600061167a82633b9aca00612cde565b60006305f5e10082046005600a820610612c4957600a015b600a900492915050565b6065546040805163dacb2d0160e01b81526822bc31b430b733b2b960b91b600482015260248101829052601960448201527f4d697373696e672045786368616e676572206164647265737300000000000000606482015290516000926001600160a01b03169163dacb2d01916084808301926020929190829003018186803b15801561238d57600080fd5b600082612ced5750600061167a565b82820282848281612cfa57fe5b04146126045760405162461bcd60e51b81526004018080602001828103825260218152602001806133586021913960400191505060405180910390fd5b6001600160a01b039091166000908152606a60205260409020908155606c54600190910155565b606b54612d6c9060006123e2565b606b55565b606c80546001810182556000919091527f2b4a51ab505fc96a0952efda2ba61bcd3078d4c02c39a186ec16f21883fbe0160155565b6065546040805163dacb2d0160e01b815266119959541bdbdb60ca1b600482015260248101829052601760448201527f4d697373696e6720466565506f6f6c2061646472657373000000000000000000606482015290516000926001600160a01b03169163dacb2d01916084808301926020929190829003018186803b15801561238d57600080fd5b600080600a8304612e408686612cde565b81612e4757fe5b0490506005600a825b0610612e5a57600a015b600a9004949350505050565b600080612e7a8461293387600a8702612cde565b90506005600a82612e50565b6000612e9a6514da185554d160d21b610fa6565b90506000612ea8848361260b565b90506000612eb68583612bef565b90506000612f348273__$22e4fd0786f9bb9222b95fc3343146c524$__63d5e5e6e66040518163ffffffff1660e01b815260040160206040518083038186803b158015612f0257600080fd5b505af4158015612f16573d6000803e3d6000fd5b505050506040513d6020811015612f2c57600080fd5b5051906123e2565b90508415612f4d57612f4a83611f5d888861260b565b91505b84612f5a57612f5a6132bb565b612f648783612d37565b6000612f6e611edc565b1115612f8857612f8361251e82611f63610d42565b612523565b61252373__$22e4fd0786f9bb9222b95fc3343146c524$__63d5e5e6e66040518163ffffffff1660e01b815260040160206040518083038186803b158015612fcf57600080fd5b505af4158015612fe3573d6000803e3d6000fd5b505050506040513d6020811015612ff957600080fd5b5051612d71565b6000808211613056576040805162461bcd60e51b815260206004820152601a60248201527f536166654d6174683a206469766973696f6e206279207a65726f000000000000604482015290519081900360640190fd5b8183816123da57fe5b3b151590565b600054610100900460ff168061307e575061307e612a7a565b8061308c575060005460ff16155b6130c75760405162461bcd60e51b815260040180806020018281038252602e81526020018061330a602e913960400191505060405180910390fd5b600054610100900460ff16158015612b28576000805460ff1961ff00199091166101001716600117905580156114db576000805461ff001916905550565b600054610100900460ff168061311e575061311e612a7a565b8061312c575060005460ff16155b6131675760405162461bcd60e51b815260040180806020018281038252602e81526020018061330a602e913960400191505060405180910390fd5b600054610100900460ff16158015613192576000805460ff1961ff0019909116610100171660011790555b600061319c612308565b603380546001600160a01b0319166001600160a01b038316908117909155604051919250906000907f8be0079c531659141344cd1fd0a4f28419497f9722a3daafe3b4186f6b6457e0908290a35080156114db576000805461ff001916905550565b600054610100900460ff16806132175750613217612a7a565b80613225575060005460ff16155b6132605760405162461bcd60e51b815260040180806020018281038252602e81526020018061330a602e913960400191505060405180910390fd5b600054610100900460ff1615801561328b576000805460ff1961ff0019909116610100171660011790555b606580546001600160a01b0319166001600160a01b0384161790558015611ed8576000805461ff00191690555050565b606b54612d6c90600061260b565b60405180604001604052806000815260200160008152509056fe4f776e61626c653a206e6577206f776e657220697320746865207a65726f2061646472657373496e697469616c697a61626c653a20636f6e747261637420697320616c726561647920696e697469616c697a6564a608fccd882de3f13cf929a9041c4506fed4bea4cb411db49150f4291a7027f3536166654d6174683a206d756c7469706c69636174696f6e206f766572666c6f774f776e61626c653a2063616c6c6572206973206e6f7420746865206f776e65724e65772069737375616e636520726174696f2063616e6e6f7420657863656564204d41585f49535355414e43455f524154494fa26469706673582212208f69553ff0a2e68e3458c4e2c3b8e147d12c4ad63b28c3a125a76b6cef53154364736f6c63430007010033",
  "libraries": {
    "SafeDecimalMath": "0x9bC00e6D905817864C147d10b7415C33b64434A1"
  },
  "devdoc": {
    "kind": "dev",
    "methods": {
      "owner()": {
        "details": "Returns the address of the current owner."
      },
      "renounceOwnership()": {
        "details": "Leaves the contract without owner. It will not be possible to call `onlyOwner` functions anymore. Can only be called by the current owner. NOTE: Renouncing ownership will leave the contract without an owner, thereby removing any functionality that is only available to the owner."
      },
      "transferOwnership(address)": {
        "details": "Transfers ownership of the contract to a new account (`newOwner`). Can only be called by the current owner."
      }
    },
    "version": 1
  },
  "userdoc": {
    "kind": "user",
    "methods": {},
    "version": 1
  },
  "storageLayout": {
    "storage": [
      {
        "astId": 595,
        "contract": "contracts/Synthesizer.sol:Synthesizer",
        "label": "_initialized",
        "offset": 0,
        "slot": "0",
        "type": "t_bool"
      },
      {
        "astId": 598,
        "contract": "contracts/Synthesizer.sol:Synthesizer",
        "label": "_initializing",
        "offset": 1,
        "slot": "0",
        "type": "t_bool"
      },
      {
        "astId": 1615,
        "contract": "contracts/Synthesizer.sol:Synthesizer",
        "label": "__gap",
        "offset": 0,
        "slot": "1",
        "type": "t_array(t_uint256)50_storage"
      },
      {
        "astId": 113,
        "contract": "contracts/Synthesizer.sol:Synthesizer",
        "label": "_owner",
        "offset": 0,
        "slot": "51",
        "type": "t_address"
      },
      {
        "astId": 232,
        "contract": "contracts/Synthesizer.sol:Synthesizer",
        "label": "__gap",
        "offset": 0,
        "slot": "52",
        "type": "t_array(t_uint256)49_storage"
      },
      {
        "astId": 9671,
        "contract": "contracts/Synthesizer.sol:Synthesizer",
        "label": "resolver",
        "offset": 0,
        "slot": "101",
        "type": "t_contract(AddressResolver)9659"
      },
      {
        "astId": 7598,
        "contract": "contracts/Synthesizer.sol:Synthesizer",
        "label": "issuanceRatio",
        "offset": 0,
        "slot": "102",
        "type": "t_uint256"
      },
      {
        "astId": 7601,
        "contract": "contracts/Synthesizer.sol:Synthesizer",
        "label": "availableSynths",
        "offset": 0,
        "slot": "103",
        "type": "t_array(t_contract(ISynth)9404)dyn_storage"
      },
      {
        "astId": 7605,
        "contract": "contracts/Synthesizer.sol:Synthesizer",
        "label": "synths",
        "offset": 0,
        "slot": "104",
        "type": "t_mapping(t_bytes32,t_contract(ISynth)9404)"
      },
      {
        "astId": 7609,
        "contract": "contracts/Synthesizer.sol:Synthesizer",
        "label": "synthsByAddress",
        "offset": 0,
        "slot": "105",
        "type": "t_mapping(t_address,t_bytes32)"
      },
      {
        "astId": 7618,
        "contract": "contracts/Synthesizer.sol:Synthesizer",
        "label": "issuanceData",
        "offset": 0,
        "slot": "106",
        "type": "t_mapping(t_address,t_struct(IssuanceData)7614_storage)"
      },
      {
        "astId": 7620,
        "contract": "contracts/Synthesizer.sol:Synthesizer",
        "label": "totalIssuerCount",
        "offset": 0,
        "slot": "107",
        "type": "t_uint256"
      },
      {
        "astId": 7623,
        "contract": "contracts/Synthesizer.sol:Synthesizer",
        "label": "debtLedger",
        "offset": 0,
        "slot": "108",
        "type": "t_array(t_uint256)dyn_storage"
      }
    ],
    "types": {
      "t_address": {
        "encoding": "inplace",
        "label": "address",
        "numberOfBytes": "20"
      },
      "t_array(t_contract(ISynth)9404)dyn_storage": {
        "base": "t_contract(ISynth)9404",
        "encoding": "dynamic_array",
        "label": "contract ISynth[]",
        "numberOfBytes": "32"
      },
      "t_array(t_uint256)49_storage": {
        "base": "t_uint256",
        "encoding": "inplace",
        "label": "uint256[49]",
        "numberOfBytes": "1568"
      },
      "t_array(t_uint256)50_storage": {
        "base": "t_uint256",
        "encoding": "inplace",
        "label": "uint256[50]",
        "numberOfBytes": "1600"
      },
      "t_array(t_uint256)dyn_storage": {
        "base": "t_uint256",
        "encoding": "dynamic_array",
        "label": "uint256[]",
        "numberOfBytes": "32"
      },
      "t_bool": {
        "encoding": "inplace",
        "label": "bool",
        "numberOfBytes": "1"
      },
      "t_bytes32": {
        "encoding": "inplace",
        "label": "bytes32",
        "numberOfBytes": "32"
      },
      "t_contract(AddressResolver)9659": {
        "encoding": "inplace",
        "label": "contract AddressResolver",
        "numberOfBytes": "20"
      },
      "t_contract(ISynth)9404": {
        "encoding": "inplace",
        "label": "contract ISynth",
        "numberOfBytes": "20"
      },
      "t_mapping(t_address,t_bytes32)": {
        "encoding": "mapping",
        "key": "t_address",
        "label": "mapping(address => bytes32)",
        "numberOfBytes": "32",
        "value": "t_bytes32"
      },
      "t_mapping(t_address,t_struct(IssuanceData)7614_storage)": {
        "encoding": "mapping",
        "key": "t_address",
        "label": "mapping(address => struct Synthesizer.IssuanceData)",
        "numberOfBytes": "32",
        "value": "t_struct(IssuanceData)7614_storage"
      },
      "t_mapping(t_bytes32,t_contract(ISynth)9404)": {
        "encoding": "mapping",
        "key": "t_bytes32",
        "label": "mapping(bytes32 => contract ISynth)",
        "numberOfBytes": "32",
        "value": "t_contract(ISynth)9404"
      },
      "t_struct(IssuanceData)7614_storage": {
        "encoding": "inplace",
        "label": "struct Synthesizer.IssuanceData",
        "members": [
          {
            "astId": 7611,
            "contract": "contracts/Synthesizer.sol:Synthesizer",
            "label": "initialDebtOwnership",
            "offset": 0,
            "slot": "0",
            "type": "t_uint256"
          },
          {
            "astId": 7613,
            "contract": "contracts/Synthesizer.sol:Synthesizer",
            "label": "debtEntryIndex",
            "offset": 0,
            "slot": "1",
            "type": "t_uint256"
          }
        ],
        "numberOfBytes": "64"
      },
      "t_uint256": {
        "encoding": "inplace",
        "label": "uint256",
        "numberOfBytes": "32"
      }
    }
  }
}