{
  "address": "0xDa31316512204F7B69cedD14bCAdBaEc754cE075",
  "abi": [
    {
      "anonymous": false,
      "inputs": [
        {
          "indexed": true,
          "internalType": "address",
          "name": "previousOwner",
          "type": "address"
        },
        {
          "indexed": true,
          "internalType": "address",
          "name": "newOwner",
          "type": "address"
        }
      ],
      "name": "OwnershipTransferred",
      "type": "event"
    },
    {
      "anonymous": false,
      "inputs": [
        {
          "indexed": true,
          "internalType": "address",
          "name": "account",
          "type": "address"
        },
        {
          "indexed": false,
          "internalType": "bytes32",
          "name": "fromCurrencyKey",
          "type": "bytes32"
        },
        {
          "indexed": false,
          "internalType": "uint256",
          "name": "fromAmount",
          "type": "uint256"
        },
        {
          "indexed": false,
          "internalType": "bytes32",
          "name": "toCurrencyKey",
          "type": "bytes32"
        },
        {
          "indexed": false,
          "internalType": "uint256",
          "name": "toAmount",
          "type": "uint256"
        },
        {
          "indexed": false,
          "internalType": "address",
          "name": "toAddress",
          "type": "address"
        }
      ],
      "name": "SynthExchanged",
      "type": "event"
    },
    {
      "inputs": [
        {
          "internalType": "address",
          "name": "from",
          "type": "address"
        },
        {
          "internalType": "bytes32",
          "name": "sourceCurrencyKey",
          "type": "bytes32"
        },
        {
          "internalType": "uint256",
          "name": "sourceAmount",
          "type": "uint256"
        },
        {
          "internalType": "bytes32",
          "name": "destinationCurrencyKey",
          "type": "bytes32"
        },
        {
          "internalType": "address",
          "name": "destinationAddress",
          "type": "address"
        }
      ],
      "name": "exchange",
      "outputs": [
        {
          "internalType": "uint256",
          "name": "amountReceived",
          "type": "uint256"
        }
      ],
      "stateMutability": "nonpayable",
      "type": "function"
    },
    {
      "inputs": [],
      "name": "exchangeEnabled",
      "outputs": [
        {
          "internalType": "bool",
          "name": "",
          "type": "bool"
        }
      ],
      "stateMutability": "view",
      "type": "function"
    },
    {
      "inputs": [
        {
          "internalType": "address",
          "name": "_resolver",
          "type": "address"
        }
      ],
      "name": "initialize",
      "outputs": [],
      "stateMutability": "nonpayable",
      "type": "function"
    },
    {
      "inputs": [],
      "name": "owner",
      "outputs": [
        {
          "internalType": "address",
          "name": "",
          "type": "address"
        }
      ],
      "stateMutability": "view",
      "type": "function"
    },
    {
      "inputs": [],
      "name": "renounceOwnership",
      "outputs": [],
      "stateMutability": "nonpayable",
      "type": "function"
    },
    {
      "inputs": [],
      "name": "resolver",
      "outputs": [
        {
          "internalType": "contract AddressResolver",
          "name": "",
          "type": "address"
        }
      ],
      "stateMutability": "view",
      "type": "function"
    },
    {
      "inputs": [
        {
          "internalType": "bool",
          "name": "_exchangeEnabled",
          "type": "bool"
        }
      ],
      "name": "setExchangeEnabled",
      "outputs": [],
      "stateMutability": "nonpayable",
      "type": "function"
    },
    {
      "inputs": [
        {
          "internalType": "contract AddressResolver",
          "name": "_resolver",
          "type": "address"
        }
      ],
      "name": "setResolver",
      "outputs": [],
      "stateMutability": "nonpayable",
      "type": "function"
    },
    {
      "inputs": [
        {
          "internalType": "address",
          "name": "newOwner",
          "type": "address"
        }
      ],
      "name": "transferOwnership",
      "outputs": [],
      "stateMutability": "nonpayable",
      "type": "function"
    }
  ],
  "transactionHash": "0xa4086e86af9da4d038888f658582c9871927c70a4190fb8d27e777a4843aa0ce",
  "args": [],
  "solcInputHash": "c4c728ab78f2e5e7c824c1a52b9f2453",
  "bytecode": "0x608060405234801561001057600080fd5b50611601806100206000396000f3fe608060405234801561001057600080fd5b50600436106100935760003560e01c80638da5cb5b116100665780638da5cb5b146101405780639452409614610148578063c4d66de814610167578063f2fde38b1461018d578063f5343752146101b357610093565b806304f3bcec146100985780630a1e187d146100bc5780634e543b2614610110578063715018a614610138575b600080fd5b6100a06101cf565b604080516001600160a01b039092168252519081900360200190f35b6100fe600480360360a08110156100d257600080fd5b506001600160a01b038135811691602081013591604082013591606081013591608090910135166101de565b60408051918252519081900360200190f35b6101366004803603602081101561012657600080fd5b50356001600160a01b0316610677565b005b6101366106fb565b6100a06107a7565b6101366004803603602081101561015e57600080fd5b503515156107b6565b6101366004803603602081101561017d57600080fd5b50356001600160a01b0316610836565b610136600480360360208110156101a357600080fd5b50356001600160a01b03166108fd565b6101bb610a00565b604080519115158252519081900360200190f35b6065546001600160a01b031681565b6000806101e9610a10565b9050336001600160a01b03821614806102765750604080516316b2213f60e01b815233600482015290516000916001600160a01b038416916316b2213f91602480820192602092909190829003018186803b15801561024757600080fd5b505afa15801561025b573d6000803e3d6000fd5b505050506040513d602081101561027157600080fd5b505114155b6102b15760405162461bcd60e51b81526004018080602001828103825260478152602001806115856047913960600191505060405180910390fd5b838614156102fc576040805162461bcd60e51b8152602060048201526013602482015272086c2dc4ee840c4ca40e6c2daca40e6f2dce8d606b1b604482015290519081900360640190fd5b6000851161033f576040805162461bcd60e51b815260206004820152600b60248201526a16995c9bc8185b5bdd5b9d60aa1b604482015290519081900360640190fd5b606554600160a01b900460ff16610396576040805162461bcd60e51b8152602060048201526016602482015275115e18da185b99da5b99c81a5cc8191a5cd8589b195960521b604482015290519081900360640190fd5b60006103a0610a10565b905060006103ac610ace565b9050816001600160a01b03166332608039896040518263ffffffff1660e01b81526004018082815260200191505060206040518083038186803b1580156103f257600080fd5b505afa158015610406573d6000803e3d6000fd5b505050506040513d602081101561041c57600080fd5b505160408051632770a7eb60e21b81526001600160a01b038c81166004830152602482018b905291519190921691639dc29fac91604480830192600092919082900301818387803b15801561047057600080fd5b505af1158015610484573d6000803e3d6000fd5b505050506000816001600160a01b031663654a60ac8a8a8a6040518463ffffffff1660e01b815260040180848152602001838152602001828152602001935050505060206040518083038186803b1580156104de57600080fd5b505afa1580156104f2573d6000803e3d6000fd5b505050506040513d602081101561050857600080fd5b50519050600061051782610b4f565b8092508197505050836001600160a01b03166332608039896040518263ffffffff1660e01b81526004018082815260200191505060206040518083038186803b15801561056357600080fd5b505afa158015610577573d6000803e3d6000fd5b505050506040513d602081101561058d57600080fd5b50516040805163219e412d60e21b81526001600160a01b038a81166004830152602482018a90529151919092169163867904b491604480830192600092919082900301818387803b1580156105e157600080fd5b505af11580156105f5573d6000803e3d6000fd5b50505050600081111561060e5761060e8385838b610c64565b604080518b8152602081018b90528082018a9052606081018890526001600160a01b0389811660808301529151918d16917f8eae5acabb9cc02af90ebe63f63fb9a836a4af848b9d3c3e643f25d01314756b9181900360a00190a2505050505095945050505050565b61067f610faa565b6001600160a01b03166106906107a7565b6001600160a01b0316146106d9576040805162461bcd60e51b81526020600482018190526024820152600080516020611565833981519152604482015290519081900360640190fd5b606580546001600160a01b0319166001600160a01b0392909216919091179055565b610703610faa565b6001600160a01b03166107146107a7565b6001600160a01b03161461075d576040805162461bcd60e51b81526020600482018190526024820152600080516020611565833981519152604482015290519081900360640190fd5b6033546040516000916001600160a01b0316907f8be0079c531659141344cd1fd0a4f28419497f9722a3daafe3b4186f6b6457e0908390a3603380546001600160a01b0319169055565b6033546001600160a01b031690565b6107be610faa565b6001600160a01b03166107cf6107a7565b6001600160a01b031614610818576040805162461bcd60e51b81526020600482018190526024820152600080516020611565833981519152604482015290519081900360640190fd5b60658054911515600160a01b0260ff60a01b19909216919091179055565b600054610100900460ff168061084f575061084f610fae565b8061085d575060005460ff16155b6108985760405162461bcd60e51b815260040180806020018281038252602e815260200180611516602e913960400191505060405180910390fd5b600054610100900460ff161580156108c3576000805460ff1961ff0019909116610100171660011790555b6108cb610fbf565b6108d482611071565b6065805460ff60a01b1916600160a01b17905580156108f9576000805461ff00191690555b5050565b610905610faa565b6001600160a01b03166109166107a7565b6001600160a01b03161461095f576040805162461bcd60e51b81526020600482018190526024820152600080516020611565833981519152604482015290519081900360640190fd5b6001600160a01b0381166109a45760405162461bcd60e51b81526004018080602001828103825260268152602001806114f06026913960400191505060405180910390fd5b6033546040516001600160a01b038084169216907f8be0079c531659141344cd1fd0a4f28419497f9722a3daafe3b4186f6b6457e090600090a3603380546001600160a01b0319166001600160a01b0392909216919091179055565b606554600160a01b900460ff1681565b6065546040805163dacb2d0160e01b81526a29bcb73a3432b9b4bd32b960a91b600482015260248101829052601b60448201527f4d697373696e672053796e74686573697a657220616464726573730000000000606482015290516000926001600160a01b03169163dacb2d01916084808301926020929190829003018186803b158015610a9d57600080fd5b505afa158015610ab1573d6000803e3d6000fd5b505050506040513d6020811015610ac757600080fd5b5051905090565b6065546040805163dacb2d0160e01b8152654f7261636c6560d01b60048201526024810182905260166044820152754d697373696e67204f7261636c65206164647265737360501b606482015290516000926001600160a01b03169163dacb2d01916084808301926020929190829003018186803b158015610a9d57600080fd5b80600080610b5b611124565b6001600160a01b0316630f9b49556040518163ffffffff1660e01b815260040160206040518083038186803b158015610b9357600080fd5b505afa158015610ba7573d6000803e3d6000fd5b505050506040513d6020811015610bbd57600080fd5b505160408051630241ebdb60e61b81529051919250610c5091610c4991849173BCE1584059046A691f0dBFD6aa3D7DEfd11225199163907af6c0916004808301926020929190829003018186803b158015610c1757600080fd5b505af4158015610c2b573d6000803e3d6000fd5b505050506040513d6020811015610c4157600080fd5b5051906111ad565b859061120f565b9250610c5c84846111ad565b915050915091565b6000846001600160a01b031663654a60ac83856514da185554d160d21b6040518463ffffffff1660e01b815260040180848152602001838152602001828152602001935050505060206040518083038186803b158015610cc357600080fd5b505afa158015610cd7573d6000803e3d6000fd5b505050506040513d6020811015610ced57600080fd5b505160408051633260803960e01b81526514da185554d160d21b600482015290519192506001600160a01b03861691633260803991602480820192602092909190829003018186803b158015610d4257600080fd5b505afa158015610d56573d6000803e3d6000fd5b505050506040513d6020811015610d6c57600080fd5b50516001600160a01b031663867904b4610d84611124565b6001600160a01b031663eb1edd616040518163ffffffff1660e01b815260040160206040518083038186803b158015610dbc57600080fd5b505afa158015610dd0573d6000803e3d6000fd5b505050506040513d6020811015610de657600080fd5b5051604080516001600160e01b031960e085901b1681526001600160a01b0390921660048301526024820185905251604480830192600092919082900301818387803b158015610e3557600080fd5b505af1158015610e49573d6000803e3d6000fd5b50505050610e55611124565b6001600160a01b03166322bf55ef826040518263ffffffff1660e01b815260040180828152602001915050600060405180830381600087803b158015610e9a57600080fd5b505af1158015610eae573d6000803e3d6000fd5b505050506000856001600160a01b031663654a60ac848663444f575360e01b6040518463ffffffff1660e01b815260040180848152602001838152602001828152602001935050505060206040518083038186803b158015610f0f57600080fd5b505afa158015610f23573d6000803e3d6000fd5b505050506040513d6020811015610f3957600080fd5b50519050610f45611124565b6001600160a01b031663cb1f33e5826040518263ffffffff1660e01b815260040180828152602001915050600060405180830381600087803b158015610f8a57600080fd5b505af1158015610f9e573d6000803e3d6000fd5b50505050505050505050565b3390565b6000610fb930611233565b15905090565b600054610100900460ff1680610fd85750610fd8610fae565b80610fe6575060005460ff16155b6110215760405162461bcd60e51b815260040180806020018281038252602e815260200180611516602e913960400191505060405180910390fd5b600054610100900460ff1615801561104c576000805460ff1961ff0019909116610100171660011790555b611054611239565b61105c6112d9565b801561106e576000805461ff00191690555b50565b600054610100900460ff168061108a575061108a610fae565b80611098575060005460ff16155b6110d35760405162461bcd60e51b815260040180806020018281038252602e815260200180611516602e913960400191505060405180910390fd5b600054610100900460ff161580156110fe576000805460ff1961ff0019909116610100171660011790555b611106610fbf565b61110f826113d2565b80156108f9576000805461ff00191690555050565b6065546040805163dacb2d0160e01b815266119959541bdbdb60ca1b600482015260248101829052601760448201527f4d697373696e6720466565506f6f6c2061646472657373000000000000000000606482015290516000926001600160a01b03169163dacb2d01916084808301926020929190829003018186803b158015610a9d57600080fd5b600082821115611204576040805162461bcd60e51b815260206004820152601e60248201527f536166654d6174683a207375627472616374696f6e206f766572666c6f770000604482015290519081900360640190fd5b508082035b92915050565b6000670de0b6b3a7640000611224848461148f565b8161122b57fe5b049392505050565b3b151590565b600054610100900460ff16806112525750611252610fae565b80611260575060005460ff16155b61129b5760405162461bcd60e51b815260040180806020018281038252602e815260200180611516602e913960400191505060405180910390fd5b600054610100900460ff1615801561105c576000805460ff1961ff001990911661010017166001179055801561106e576000805461ff001916905550565b600054610100900460ff16806112f257506112f2610fae565b80611300575060005460ff16155b61133b5760405162461bcd60e51b815260040180806020018281038252602e815260200180611516602e913960400191505060405180910390fd5b600054610100900460ff16158015611366576000805460ff1961ff0019909116610100171660011790555b6000611370610faa565b603380546001600160a01b0319166001600160a01b038316908117909155604051919250906000907f8be0079c531659141344cd1fd0a4f28419497f9722a3daafe3b4186f6b6457e0908290a350801561106e576000805461ff001916905550565b600054610100900460ff16806113eb57506113eb610fae565b806113f9575060005460ff16155b6114345760405162461bcd60e51b815260040180806020018281038252602e815260200180611516602e913960400191505060405180910390fd5b600054610100900460ff1615801561145f576000805460ff1961ff0019909116610100171660011790555b606580546001600160a01b0319166001600160a01b03841617905580156108f9576000805461ff00191690555050565b60008261149e57506000611209565b828202828482816114ab57fe5b04146114e85760405162461bcd60e51b81526004018080602001828103825260218152602001806115446021913960400191505060405180910390fd5b939250505056fe4f776e61626c653a206e6577206f776e657220697320746865207a65726f2061646472657373496e697469616c697a61626c653a20636f6e747261637420697320616c726561647920696e697469616c697a6564536166654d6174683a206d756c7469706c69636174696f6e206f766572666c6f774f776e61626c653a2063616c6c6572206973206e6f7420746865206f776e657245786368616e6765723a204f6e6c792053796e74686573697a6572206f7220612073796e746820636f6e74726163742063616e20706572666f726d207468697320616374696f6ea26469706673582212209ec0e2be96f66c284f15f94ce88cb5dd214f4ed20b985fb65e709a52ca45de9564736f6c63430007010033",
  "deployedBytecode": "0x608060405234801561001057600080fd5b50600436106100935760003560e01c80638da5cb5b116100665780638da5cb5b146101405780639452409614610148578063c4d66de814610167578063f2fde38b1461018d578063f5343752146101b357610093565b806304f3bcec146100985780630a1e187d146100bc5780634e543b2614610110578063715018a614610138575b600080fd5b6100a06101cf565b604080516001600160a01b039092168252519081900360200190f35b6100fe600480360360a08110156100d257600080fd5b506001600160a01b038135811691602081013591604082013591606081013591608090910135166101de565b60408051918252519081900360200190f35b6101366004803603602081101561012657600080fd5b50356001600160a01b0316610677565b005b6101366106fb565b6100a06107a7565b6101366004803603602081101561015e57600080fd5b503515156107b6565b6101366004803603602081101561017d57600080fd5b50356001600160a01b0316610836565b610136600480360360208110156101a357600080fd5b50356001600160a01b03166108fd565b6101bb610a00565b604080519115158252519081900360200190f35b6065546001600160a01b031681565b6000806101e9610a10565b9050336001600160a01b03821614806102765750604080516316b2213f60e01b815233600482015290516000916001600160a01b038416916316b2213f91602480820192602092909190829003018186803b15801561024757600080fd5b505afa15801561025b573d6000803e3d6000fd5b505050506040513d602081101561027157600080fd5b505114155b6102b15760405162461bcd60e51b81526004018080602001828103825260478152602001806115856047913960600191505060405180910390fd5b838614156102fc576040805162461bcd60e51b8152602060048201526013602482015272086c2dc4ee840c4ca40e6c2daca40e6f2dce8d606b1b604482015290519081900360640190fd5b6000851161033f576040805162461bcd60e51b815260206004820152600b60248201526a16995c9bc8185b5bdd5b9d60aa1b604482015290519081900360640190fd5b606554600160a01b900460ff16610396576040805162461bcd60e51b8152602060048201526016602482015275115e18da185b99da5b99c81a5cc8191a5cd8589b195960521b604482015290519081900360640190fd5b60006103a0610a10565b905060006103ac610ace565b9050816001600160a01b03166332608039896040518263ffffffff1660e01b81526004018082815260200191505060206040518083038186803b1580156103f257600080fd5b505afa158015610406573d6000803e3d6000fd5b505050506040513d602081101561041c57600080fd5b505160408051632770a7eb60e21b81526001600160a01b038c81166004830152602482018b905291519190921691639dc29fac91604480830192600092919082900301818387803b15801561047057600080fd5b505af1158015610484573d6000803e3d6000fd5b505050506000816001600160a01b031663654a60ac8a8a8a6040518463ffffffff1660e01b815260040180848152602001838152602001828152602001935050505060206040518083038186803b1580156104de57600080fd5b505afa1580156104f2573d6000803e3d6000fd5b505050506040513d602081101561050857600080fd5b50519050600061051782610b4f565b8092508197505050836001600160a01b03166332608039896040518263ffffffff1660e01b81526004018082815260200191505060206040518083038186803b15801561056357600080fd5b505afa158015610577573d6000803e3d6000fd5b505050506040513d602081101561058d57600080fd5b50516040805163219e412d60e21b81526001600160a01b038a81166004830152602482018a90529151919092169163867904b491604480830192600092919082900301818387803b1580156105e157600080fd5b505af11580156105f5573d6000803e3d6000fd5b50505050600081111561060e5761060e8385838b610c64565b604080518b8152602081018b90528082018a9052606081018890526001600160a01b0389811660808301529151918d16917f8eae5acabb9cc02af90ebe63f63fb9a836a4af848b9d3c3e643f25d01314756b9181900360a00190a2505050505095945050505050565b61067f610faa565b6001600160a01b03166106906107a7565b6001600160a01b0316146106d9576040805162461bcd60e51b81526020600482018190526024820152600080516020611565833981519152604482015290519081900360640190fd5b606580546001600160a01b0319166001600160a01b0392909216919091179055565b610703610faa565b6001600160a01b03166107146107a7565b6001600160a01b03161461075d576040805162461bcd60e51b81526020600482018190526024820152600080516020611565833981519152604482015290519081900360640190fd5b6033546040516000916001600160a01b0316907f8be0079c531659141344cd1fd0a4f28419497f9722a3daafe3b4186f6b6457e0908390a3603380546001600160a01b0319169055565b6033546001600160a01b031690565b6107be610faa565b6001600160a01b03166107cf6107a7565b6001600160a01b031614610818576040805162461bcd60e51b81526020600482018190526024820152600080516020611565833981519152604482015290519081900360640190fd5b60658054911515600160a01b0260ff60a01b19909216919091179055565b600054610100900460ff168061084f575061084f610fae565b8061085d575060005460ff16155b6108985760405162461bcd60e51b815260040180806020018281038252602e815260200180611516602e913960400191505060405180910390fd5b600054610100900460ff161580156108c3576000805460ff1961ff0019909116610100171660011790555b6108cb610fbf565b6108d482611071565b6065805460ff60a01b1916600160a01b17905580156108f9576000805461ff00191690555b5050565b610905610faa565b6001600160a01b03166109166107a7565b6001600160a01b03161461095f576040805162461bcd60e51b81526020600482018190526024820152600080516020611565833981519152604482015290519081900360640190fd5b6001600160a01b0381166109a45760405162461bcd60e51b81526004018080602001828103825260268152602001806114f06026913960400191505060405180910390fd5b6033546040516001600160a01b038084169216907f8be0079c531659141344cd1fd0a4f28419497f9722a3daafe3b4186f6b6457e090600090a3603380546001600160a01b0319166001600160a01b0392909216919091179055565b606554600160a01b900460ff1681565b6065546040805163dacb2d0160e01b81526a29bcb73a3432b9b4bd32b960a91b600482015260248101829052601b60448201527f4d697373696e672053796e74686573697a657220616464726573730000000000606482015290516000926001600160a01b03169163dacb2d01916084808301926020929190829003018186803b158015610a9d57600080fd5b505afa158015610ab1573d6000803e3d6000fd5b505050506040513d6020811015610ac757600080fd5b5051905090565b6065546040805163dacb2d0160e01b8152654f7261636c6560d01b60048201526024810182905260166044820152754d697373696e67204f7261636c65206164647265737360501b606482015290516000926001600160a01b03169163dacb2d01916084808301926020929190829003018186803b158015610a9d57600080fd5b80600080610b5b611124565b6001600160a01b0316630f9b49556040518163ffffffff1660e01b815260040160206040518083038186803b158015610b9357600080fd5b505afa158015610ba7573d6000803e3d6000fd5b505050506040513d6020811015610bbd57600080fd5b505160408051630241ebdb60e61b81529051919250610c5091610c4991849173__$22e4fd0786f9bb9222b95fc3343146c524$__9163907af6c0916004808301926020929190829003018186803b158015610c1757600080fd5b505af4158015610c2b573d6000803e3d6000fd5b505050506040513d6020811015610c4157600080fd5b5051906111ad565b859061120f565b9250610c5c84846111ad565b915050915091565b6000846001600160a01b031663654a60ac83856514da185554d160d21b6040518463ffffffff1660e01b815260040180848152602001838152602001828152602001935050505060206040518083038186803b158015610cc357600080fd5b505afa158015610cd7573d6000803e3d6000fd5b505050506040513d6020811015610ced57600080fd5b505160408051633260803960e01b81526514da185554d160d21b600482015290519192506001600160a01b03861691633260803991602480820192602092909190829003018186803b158015610d4257600080fd5b505afa158015610d56573d6000803e3d6000fd5b505050506040513d6020811015610d6c57600080fd5b50516001600160a01b031663867904b4610d84611124565b6001600160a01b031663eb1edd616040518163ffffffff1660e01b815260040160206040518083038186803b158015610dbc57600080fd5b505afa158015610dd0573d6000803e3d6000fd5b505050506040513d6020811015610de657600080fd5b5051604080516001600160e01b031960e085901b1681526001600160a01b0390921660048301526024820185905251604480830192600092919082900301818387803b158015610e3557600080fd5b505af1158015610e49573d6000803e3d6000fd5b50505050610e55611124565b6001600160a01b03166322bf55ef826040518263ffffffff1660e01b815260040180828152602001915050600060405180830381600087803b158015610e9a57600080fd5b505af1158015610eae573d6000803e3d6000fd5b505050506000856001600160a01b031663654a60ac848663444f575360e01b6040518463ffffffff1660e01b815260040180848152602001838152602001828152602001935050505060206040518083038186803b158015610f0f57600080fd5b505afa158015610f23573d6000803e3d6000fd5b505050506040513d6020811015610f3957600080fd5b50519050610f45611124565b6001600160a01b031663cb1f33e5826040518263ffffffff1660e01b815260040180828152602001915050600060405180830381600087803b158015610f8a57600080fd5b505af1158015610f9e573d6000803e3d6000fd5b50505050505050505050565b3390565b6000610fb930611233565b15905090565b600054610100900460ff1680610fd85750610fd8610fae565b80610fe6575060005460ff16155b6110215760405162461bcd60e51b815260040180806020018281038252602e815260200180611516602e913960400191505060405180910390fd5b600054610100900460ff1615801561104c576000805460ff1961ff0019909116610100171660011790555b611054611239565b61105c6112d9565b801561106e576000805461ff00191690555b50565b600054610100900460ff168061108a575061108a610fae565b80611098575060005460ff16155b6110d35760405162461bcd60e51b815260040180806020018281038252602e815260200180611516602e913960400191505060405180910390fd5b600054610100900460ff161580156110fe576000805460ff1961ff0019909116610100171660011790555b611106610fbf565b61110f826113d2565b80156108f9576000805461ff00191690555050565b6065546040805163dacb2d0160e01b815266119959541bdbdb60ca1b600482015260248101829052601760448201527f4d697373696e6720466565506f6f6c2061646472657373000000000000000000606482015290516000926001600160a01b03169163dacb2d01916084808301926020929190829003018186803b158015610a9d57600080fd5b600082821115611204576040805162461bcd60e51b815260206004820152601e60248201527f536166654d6174683a207375627472616374696f6e206f766572666c6f770000604482015290519081900360640190fd5b508082035b92915050565b6000670de0b6b3a7640000611224848461148f565b8161122b57fe5b049392505050565b3b151590565b600054610100900460ff16806112525750611252610fae565b80611260575060005460ff16155b61129b5760405162461bcd60e51b815260040180806020018281038252602e815260200180611516602e913960400191505060405180910390fd5b600054610100900460ff1615801561105c576000805460ff1961ff001990911661010017166001179055801561106e576000805461ff001916905550565b600054610100900460ff16806112f257506112f2610fae565b80611300575060005460ff16155b61133b5760405162461bcd60e51b815260040180806020018281038252602e815260200180611516602e913960400191505060405180910390fd5b600054610100900460ff16158015611366576000805460ff1961ff0019909116610100171660011790555b6000611370610faa565b603380546001600160a01b0319166001600160a01b038316908117909155604051919250906000907f8be0079c531659141344cd1fd0a4f28419497f9722a3daafe3b4186f6b6457e0908290a350801561106e576000805461ff001916905550565b600054610100900460ff16806113eb57506113eb610fae565b806113f9575060005460ff16155b6114345760405162461bcd60e51b815260040180806020018281038252602e815260200180611516602e913960400191505060405180910390fd5b600054610100900460ff1615801561145f576000805460ff1961ff0019909116610100171660011790555b606580546001600160a01b0319166001600160a01b03841617905580156108f9576000805461ff00191690555050565b60008261149e57506000611209565b828202828482816114ab57fe5b04146114e85760405162461bcd60e51b81526004018080602001828103825260218152602001806115446021913960400191505060405180910390fd5b939250505056fe4f776e61626c653a206e6577206f776e657220697320746865207a65726f2061646472657373496e697469616c697a61626c653a20636f6e747261637420697320616c726561647920696e697469616c697a6564536166654d6174683a206d756c7469706c69636174696f6e206f766572666c6f774f776e61626c653a2063616c6c6572206973206e6f7420746865206f776e657245786368616e6765723a204f6e6c792053796e74686573697a6572206f7220612073796e746820636f6e74726163742063616e20706572666f726d207468697320616374696f6ea26469706673582212209ec0e2be96f66c284f15f94ce88cb5dd214f4ed20b985fb65e709a52ca45de9564736f6c63430007010033",
  "libraries": {
    "SafeDecimalMath": "0xBCE1584059046A691f0dBFD6aa3D7DEfd1122519"
  },
  "devdoc": {
    "kind": "dev",
    "methods": {
      "owner()": {
        "details": "Returns the address of the current owner."
      },
      "renounceOwnership()": {
        "details": "Leaves the contract without owner. It will not be possible to call `onlyOwner` functions anymore. Can only be called by the current owner. NOTE: Renouncing ownership will leave the contract without an owner, thereby removing any functionality that is only available to the owner."
      },
      "transferOwnership(address)": {
        "details": "Transfers ownership of the contract to a new account (`newOwner`). Can only be called by the current owner."
      }
    },
    "version": 1
  },
  "userdoc": {
    "kind": "user",
    "methods": {},
    "version": 1
  },
  "storageLayout": {
    "storage": [
      {
        "astId": 595,
        "contract": "contracts/Exchanger.sol:Exchanger",
        "label": "_initialized",
        "offset": 0,
        "slot": "0",
        "type": "t_bool"
      },
      {
        "astId": 598,
        "contract": "contracts/Exchanger.sol:Exchanger",
        "label": "_initializing",
        "offset": 1,
        "slot": "0",
        "type": "t_bool"
      },
      {
        "astId": 1615,
        "contract": "contracts/Exchanger.sol:Exchanger",
        "label": "__gap",
        "offset": 0,
        "slot": "1",
        "type": "t_array(t_uint256)50_storage"
      },
      {
        "astId": 113,
        "contract": "contracts/Exchanger.sol:Exchanger",
        "label": "_owner",
        "offset": 0,
        "slot": "51",
        "type": "t_address"
      },
      {
        "astId": 232,
        "contract": "contracts/Exchanger.sol:Exchanger",
        "label": "__gap",
        "offset": 0,
        "slot": "52",
        "type": "t_array(t_uint256)49_storage"
      },
      {
        "astId": 9352,
        "contract": "contracts/Exchanger.sol:Exchanger",
        "label": "resolver",
        "offset": 0,
        "slot": "101",
        "type": "t_contract(AddressResolver)9340"
      },
      {
        "astId": 2316,
        "contract": "contracts/Exchanger.sol:Exchanger",
        "label": "exchangeEnabled",
        "offset": 20,
        "slot": "101",
        "type": "t_bool"
      }
    ],
    "types": {
      "t_address": {
        "encoding": "inplace",
        "label": "address",
        "numberOfBytes": "20"
      },
      "t_array(t_uint256)49_storage": {
        "base": "t_uint256",
        "encoding": "inplace",
        "label": "uint256[49]",
        "numberOfBytes": "1568"
      },
      "t_array(t_uint256)50_storage": {
        "base": "t_uint256",
        "encoding": "inplace",
        "label": "uint256[50]",
        "numberOfBytes": "1600"
      },
      "t_bool": {
        "encoding": "inplace",
        "label": "bool",
        "numberOfBytes": "1"
      },
      "t_contract(AddressResolver)9340": {
        "encoding": "inplace",
        "label": "contract AddressResolver",
        "numberOfBytes": "20"
      },
      "t_uint256": {
        "encoding": "inplace",
        "label": "uint256",
        "numberOfBytes": "32"
      }
    }
  }
}