{
  "address": "0xC93C87EE8ADb6c6D244D5CB9bad2dEf404E08d1F",
  "abi": [
    {
      "anonymous": false,
      "inputs": [
        {
          "indexed": false,
          "internalType": "uint256",
          "name": "feePeriodId",
          "type": "uint256"
        }
      ],
      "name": "FeePeriodClosed",
      "type": "event"
    },
    {
      "anonymous": false,
      "inputs": [
        {
          "indexed": false,
          "internalType": "uint256",
          "name": "newFeePeriodDuration",
          "type": "uint256"
        }
      ],
      "name": "FeePeriodDurationUpdated",
      "type": "event"
    },
    {
      "anonymous": false,
      "inputs": [
        {
          "indexed": false,
          "internalType": "address",
          "name": "account",
          "type": "address"
        },
        {
          "indexed": false,
          "internalType": "uint256",
          "name": "xUSDAmount",
          "type": "uint256"
        },
        {
          "indexed": false,
          "internalType": "uint256",
          "name": "dowsRewards",
          "type": "uint256"
        }
      ],
      "name": "FeesClaimed",
      "type": "event"
    },
    {
      "anonymous": false,
      "inputs": [
        {
          "indexed": false,
          "internalType": "address",
          "name": "account",
          "type": "address"
        },
        {
          "indexed": false,
          "internalType": "uint256",
          "name": "debtRatio",
          "type": "uint256"
        },
        {
          "indexed": false,
          "internalType": "uint256",
          "name": "debtEntryIndex",
          "type": "uint256"
        },
        {
          "indexed": false,
          "internalType": "uint256",
          "name": "feePeriodStartingDebtIndex",
          "type": "uint256"
        }
      ],
      "name": "IssuanceDebtRatioEntry",
      "type": "event"
    },
    {
      "anonymous": false,
      "inputs": [
        {
          "indexed": true,
          "internalType": "address",
          "name": "previousOwner",
          "type": "address"
        },
        {
          "indexed": true,
          "internalType": "address",
          "name": "newOwner",
          "type": "address"
        }
      ],
      "name": "OwnershipTransferred",
      "type": "event"
    },
    {
      "inputs": [],
      "name": "BONUS_REWARDS",
      "outputs": [
        {
          "internalType": "uint256",
          "name": "",
          "type": "uint256"
        }
      ],
      "stateMutability": "view",
      "type": "function"
    },
    {
      "inputs": [],
      "name": "FEE_ADDRESS",
      "outputs": [
        {
          "internalType": "address",
          "name": "",
          "type": "address"
        }
      ],
      "stateMutability": "view",
      "type": "function"
    },
    {
      "inputs": [],
      "name": "FEE_PERIOD_LENGTH",
      "outputs": [
        {
          "internalType": "uint8",
          "name": "",
          "type": "uint8"
        }
      ],
      "stateMutability": "view",
      "type": "function"
    },
    {
      "inputs": [
        {
          "internalType": "address",
          "name": "",
          "type": "address"
        },
        {
          "internalType": "uint256",
          "name": "",
          "type": "uint256"
        }
      ],
      "name": "accountIssuanceLedger",
      "outputs": [
        {
          "internalType": "uint256",
          "name": "debtPercentage",
          "type": "uint256"
        },
        {
          "internalType": "uint256",
          "name": "debtEntryIndex",
          "type": "uint256"
        }
      ],
      "stateMutability": "view",
      "type": "function"
    },
    {
      "inputs": [
        {
          "internalType": "address",
          "name": "account",
          "type": "address"
        },
        {
          "internalType": "uint256",
          "name": "debtRatio",
          "type": "uint256"
        },
        {
          "internalType": "uint256",
          "name": "debtEntryIndex",
          "type": "uint256"
        }
      ],
      "name": "appendAccountIssuanceRecord",
      "outputs": [],
      "stateMutability": "nonpayable",
      "type": "function"
    },
    {
      "inputs": [],
      "name": "claimFees",
      "outputs": [
        {
          "internalType": "bool",
          "name": "",
          "type": "bool"
        }
      ],
      "stateMutability": "nonpayable",
      "type": "function"
    },
    {
      "inputs": [],
      "name": "closeCurrentFeePeriod",
      "outputs": [],
      "stateMutability": "nonpayable",
      "type": "function"
    },
    {
      "inputs": [],
      "name": "exchangeFeeRate",
      "outputs": [
        {
          "internalType": "uint256",
          "name": "",
          "type": "uint256"
        }
      ],
      "stateMutability": "view",
      "type": "function"
    },
    {
      "inputs": [],
      "name": "feePeriodDuration",
      "outputs": [
        {
          "internalType": "uint256",
          "name": "",
          "type": "uint256"
        }
      ],
      "stateMutability": "view",
      "type": "function"
    },
    {
      "inputs": [],
      "name": "feePool",
      "outputs": [
        {
          "internalType": "address",
          "name": "",
          "type": "address"
        }
      ],
      "stateMutability": "view",
      "type": "function"
    },
    {
      "inputs": [
        {
          "internalType": "address",
          "name": "account",
          "type": "address"
        }
      ],
      "name": "feesAvailable",
      "outputs": [
        {
          "internalType": "uint256",
          "name": "",
          "type": "uint256"
        },
        {
          "internalType": "uint256",
          "name": "",
          "type": "uint256"
        }
      ],
      "stateMutability": "view",
      "type": "function"
    },
    {
      "inputs": [
        {
          "internalType": "address",
          "name": "account",
          "type": "address"
        }
      ],
      "name": "feesByPeriod",
      "outputs": [
        {
          "internalType": "uint256[2][3]",
          "name": "results",
          "type": "uint256[2][3]"
        }
      ],
      "stateMutability": "view",
      "type": "function"
    },
    {
      "inputs": [
        {
          "internalType": "address",
          "name": "_claimingAddress",
          "type": "address"
        }
      ],
      "name": "getLastFeeWithdrawal",
      "outputs": [
        {
          "internalType": "uint256",
          "name": "",
          "type": "uint256"
        }
      ],
      "stateMutability": "view",
      "type": "function"
    },
    {
      "inputs": [],
      "name": "initFeePaid",
      "outputs": [],
      "stateMutability": "nonpayable",
      "type": "function"
    },
    {
      "inputs": [
        {
          "internalType": "uint256",
          "name": "_exchangeFeeRate",
          "type": "uint256"
        },
        {
          "internalType": "address",
          "name": "_resolver",
          "type": "address"
        }
      ],
      "name": "initialize",
      "outputs": [],
      "stateMutability": "nonpayable",
      "type": "function"
    },
    {
      "inputs": [
        {
          "internalType": "address",
          "name": "account",
          "type": "address"
        }
      ],
      "name": "isFeesClaimable",
      "outputs": [
        {
          "internalType": "bool",
          "name": "",
          "type": "bool"
        }
      ],
      "stateMutability": "view",
      "type": "function"
    },
    {
      "inputs": [],
      "name": "owner",
      "outputs": [
        {
          "internalType": "address",
          "name": "",
          "type": "address"
        }
      ],
      "stateMutability": "view",
      "type": "function"
    },
    {
      "inputs": [
        {
          "internalType": "uint256",
          "name": "index",
          "type": "uint256"
        }
      ],
      "name": "recentFeePeriods",
      "outputs": [
        {
          "internalType": "uint64",
          "name": "feePeriodId",
          "type": "uint64"
        },
        {
          "internalType": "uint64",
          "name": "startingDebtIndex",
          "type": "uint64"
        },
        {
          "internalType": "uint64",
          "name": "startTime",
          "type": "uint64"
        },
        {
          "internalType": "uint256",
          "name": "feesToDistribute",
          "type": "uint256"
        },
        {
          "internalType": "uint256",
          "name": "feesClaimed",
          "type": "uint256"
        },
        {
          "internalType": "uint256",
          "name": "rewardsToDistribute",
          "type": "uint256"
        },
        {
          "internalType": "uint256",
          "name": "rewardsClaimed",
          "type": "uint256"
        }
      ],
      "stateMutability": "view",
      "type": "function"
    },
    {
      "inputs": [
        {
          "internalType": "uint256",
          "name": "amount",
          "type": "uint256"
        }
      ],
      "name": "recordFeePaid",
      "outputs": [],
      "stateMutability": "nonpayable",
      "type": "function"
    },
    {
      "inputs": [
        {
          "internalType": "uint256",
          "name": "amount",
          "type": "uint256"
        }
      ],
      "name": "recordRewardPaid",
      "outputs": [],
      "stateMutability": "nonpayable",
      "type": "function"
    },
    {
      "inputs": [],
      "name": "renounceOwnership",
      "outputs": [],
      "stateMutability": "nonpayable",
      "type": "function"
    },
    {
      "inputs": [],
      "name": "resolver",
      "outputs": [
        {
          "internalType": "contract AddressResolver",
          "name": "",
          "type": "address"
        }
      ],
      "stateMutability": "view",
      "type": "function"
    },
    {
      "inputs": [
        {
          "internalType": "uint256",
          "name": "_exchangeFeeRate",
          "type": "uint256"
        }
      ],
      "name": "setExchangeFeeRate",
      "outputs": [],
      "stateMutability": "nonpayable",
      "type": "function"
    },
    {
      "inputs": [
        {
          "internalType": "uint256",
          "name": "_feePeriodDuration",
          "type": "uint256"
        }
      ],
      "name": "setFeePeriodDuration",
      "outputs": [],
      "stateMutability": "nonpayable",
      "type": "function"
    },
    {
      "inputs": [
        {
          "internalType": "contract AddressResolver",
          "name": "_resolver",
          "type": "address"
        }
      ],
      "name": "setResolver",
      "outputs": [],
      "stateMutability": "nonpayable",
      "type": "function"
    },
    {
      "inputs": [
        {
          "internalType": "uint256",
          "name": "multiplierNumber",
          "type": "uint256"
        }
      ],
      "name": "setRewardsMultiplier",
      "outputs": [],
      "stateMutability": "nonpayable",
      "type": "function"
    },
    {
      "inputs": [
        {
          "internalType": "uint256",
          "name": "_percent",
          "type": "uint256"
        }
      ],
      "name": "setTargetThreshold",
      "outputs": [],
      "stateMutability": "nonpayable",
      "type": "function"
    },
    {
      "inputs": [],
      "name": "targetThreshold",
      "outputs": [
        {
          "internalType": "uint256",
          "name": "",
          "type": "uint256"
        }
      ],
      "stateMutability": "view",
      "type": "function"
    },
    {
      "inputs": [
        {
          "internalType": "address",
          "name": "newOwner",
          "type": "address"
        }
      ],
      "name": "transferOwnership",
      "outputs": [],
      "stateMutability": "nonpayable",
      "type": "function"
    }
  ],
  "transactionHash": "0x1193667d95ef1abc847b2336c28bf7fc961673d5a90b457651ec016f6ca9d58c",
  "args": [],
  "solcInputHash": "c4c728ab78f2e5e7c824c1a52b9f2453",
  "bytecode": "0x608060405234801561001057600080fd5b50612def806100206000396000f3fe608060405234801561001057600080fd5b50600436106101cf5760003560e01c8063715018a611610104578063c1a18509116100a2578063da35a26f11610071578063da35a26f14610527578063e0e6393d14610553578063eb1edd611461055b578063f2fde38b14610563576101cf565b8063c1a18509146104dc578063cb1f33e5146104e4578063cff2ddad14610501578063d294f0931461051f576101cf565b80637edd4e31116100de5780637edd4e3114610492578063866452741461049a5780638da5cb5b146104cc578063ae2e933b146104d4576101cf565b8063715018a6146104415780637ad57a41146104495780637de6554514610466576101cf565b80632cce0e54116101715780633fcd22401161014b5780633fcd2240146103605780634e543b26146103c4578063578a791d146103ea57806359a2f19f14610407576101cf565b80632cce0e54146102bb57806333140016146102d85780633ebc457a14610358576101cf565b80630de58615116101ad5780630de586151461024f5780630f9b49551461028e57806322425fa41461029657806322bf55ef1461029e576101cf565b806304c49f2c146101d457806304f3bcec146101f357806307ea50cd14610217575b600080fd5b6101f1600480360360208110156101ea57600080fd5b5035610589565b005b6101fb610626565b604080516001600160a01b039092168252519081900360200190f35b61023d6004803603602081101561022d57600080fd5b50356001600160a01b0316610635565b60408051918252519081900360200190f35b6102756004803603602081101561026557600080fd5b50356001600160a01b0316610654565b6040805192835260208301919091528051918290030190f35b61023d6106cf565b61023d6106d5565b6101f1600480360360208110156102b457600080fd5b50356106db565b6101f1600480360360208110156102d157600080fd5b50356107e8565b6102fe600480360360208110156102ee57600080fd5b50356001600160a01b0316610920565b6040516000826003835b818410156103485760208402830151604080838360005b8381101561033757818101518382015260200161031f565b505050509050019260010192610308565b9250505091505060405180910390f35b6101f1610a44565b61037d6004803603602081101561037657600080fd5b5035610d0c565b604080516001600160401b039889168152968816602088015294909616858501526060850192909252608084015260a083015260c082019290925290519081900360e00190f35b6101f1600480360360208110156103da57600080fd5b50356001600160a01b0316610daf565b6101f16004803603602081101561040057600080fd5b5035610e33565b61042d6004803603602081101561041d57600080fd5b50356001600160a01b0316610f67565b604080519115158252519081900360200190f35b6101f1611118565b6101f16004803603602081101561045f57600080fd5b50356111c4565b6102756004803603604081101561047c57600080fd5b506001600160a01b03813516906020013561122b565b6101f1611258565b6101f1600480360360608110156104b057600080fd5b506001600160a01b03813516906020810135906040013561130c565b6101fb611413565b6101fb611422565b61023d611431565b6101f1600480360360208110156104fa57600080fd5b5035611437565b610509611558565b6040805160ff9092168252519081900360200190f35b61042d61155d565b6101f16004803603604081101561053d57600080fd5b50803590602001356001600160a01b0316611574565b61023d61163a565b6101fb611640565b6101f16004803603602081101561057957600080fd5b50356001600160a01b0316611658565b61059161175b565b6001600160a01b03166105a2611413565b6001600160a01b0316146105eb576040805162461bcd60e51b81526020600482018190526024820152600080516020612d79833981519152604482015290519081900360640190fd5b607b8190556040805182815290517f791bd58dd9719b5eb5ccdd6ec4d5c459b0ab8efcf59b723cf477693c0889eacd9181900360200190a150565b6065546001600160a01b031681565b6001600160a01b0381166000908152606860205260409020545b919050565b60008061065f612bb6565b61066884610920565b905060008060015b60038110156106c35761069584826003811061068857fe5b602002015151849061175f565b92506106b98482600381106106a657fe5b602002015160016020020151839061175f565b9150600101610670565b50909350915050915091565b606a5481565b607b5481565b60006106e56117c2565b6001600160a01b0316331490506000806106fd61187e565b6001600160a01b03166316b2213f336040518263ffffffff1660e01b815260040180826001600160a01b0316815260200191505060206040518083038186803b15801561074957600080fd5b505afa15801561075d573d6000803e3d6000fd5b505050506040513d602081101561077357600080fd5b50511415905081806107825750805b6107bd5760405162461bcd60e51b8152600401808060200182810382526021815260200180612d996021913960400191505060405180910390fd5b6107d5836107cb600061190b565b600101549061175f565b6107df600061190b565b60010155505050565b6107f061175b565b6001600160a01b0316610801611413565b6001600160a01b03161461084a576040805162461bcd60e51b81526020600482018190526024820152600080516020612d79833981519152604482015290519081900360640190fd5b6032811115610895576040805162461bcd60e51b81526020600482015260126024820152710a8d0e4cae6d0ded8c840e8dede40d0d2ced60731b604482015290519081900360640190fd5b61091a606461091473BCE1584059046A691f0dBFD6aa3D7DEfd112251963907af6c06040518163ffffffff1660e01b815260040160206040518083038186803b1580156108e157600080fd5b505af41580156108f5573d6000803e3d6000fd5b505050506040513d602081101561090b57600080fd5b50518490611935565b9061198e565b607c5550565b610928612bb6565b6000806109368460006119f5565b909250905080158015610947575081155b1561095357505061064f565b60008061096260008585611a96565b865182905286516020018190529092509050600061097f87610635565b905060025b8015610a39576000198101600061099a8261190b565b54600160401b90046001600160401b0316905080158015906109cd57506109c08361190b565b546001600160401b031684105b15610a2e5760006109df826001611b43565b90506109eb8b82611ba0565b90995097506109fb848a8a611a96565b9097509550868a8560038110610a0d57fe5b602002015152858a8560038110610a2057fe5b602002015160016020020152505b505060001901610984565b505050505050919050565b607b544203610a53600061190b565b54600160801b90046001600160401b03161115610ab7576040805162461bcd60e51b815260206004820152601d60248201527f546f6f206561726c7920746f20636c6f73652066656520706572696f64000000604482015290519081900360640190fd5b6000610ac3600161190b565b90506000610ad1600261190b565b9050610afc8260010154610af683600201548460010154611b4390919063ffffffff16565b9061175f565b610b06600161190b565b60010155600380830154600483015491830154610b2792610af69190611b43565b610b31600161190b565b600390810191909155607a54610b5f9190610b5990600190610b53908461175f565b90611b43565b90611c81565b607a819055606b9060038110610b7157fe5b6005020180546001600160c01b0319168155600060018083018290556002830182905560038301829055600490920155610bbe90610bae8161190b565b546001600160401b03169061175f565b610bc8600061190b565b805467ffffffffffffffff19166001600160401b0392909216919091179055610bef61187e565b6001600160a01b031663cd92eba96040518163ffffffff1660e01b815260040160206040518083038186803b158015610c2757600080fd5b505afa158015610c3b573d6000803e3d6000fd5b505050506040513d6020811015610c5157600080fd5b5051610c5d600061190b565b80546001600160401b0392909216600160401b026fffffffffffffffff00000000000000001990921691909117905542610c97600061190b565b80546001600160401b0392909216600160801b0267ffffffffffffffff60801b199092169190911790557fe2ca356e01eb0a4bb7caaf07d472b7d687db156713ffc3111c758e9fe0a17ea7610cec600161190b565b54604080516001600160401b039092168252519081900360200190a15050565b6000806000806000806000610d1f612be3565b610d288961190b565b6040805160e08101825282546001600160401b03808216808452600160401b8304821660208501819052600160801b909304909116938301849052600185015460608401819052600286015460808501819052600387015460a0860181905260049097015460c0909501859052919f929e50939c50929a5091985091965090945092505050565b610db761175b565b6001600160a01b0316610dc8611413565b6001600160a01b031614610e11576040805162461bcd60e51b81526020600482018190526024820152600080516020612d79833981519152604482015290519081900360640190fd5b606580546001600160a01b0319166001600160a01b0392909216919091179055565b610e3b61175b565b6001600160a01b0316610e4c611413565b6001600160a01b031614610e95576040805162461bcd60e51b81526020600482018190526024820152600080516020612d79833981519152604482015290519081900360640190fd5b600a73BCE1584059046A691f0dBFD6aa3D7DEfd112251963907af6c06040518163ffffffff1660e01b815260040160206040518083038186803b158015610edb57600080fd5b505af4158015610eef573d6000803e3d6000fd5b505050506040513d6020811015610f0557600080fd5b505181610f0e57fe5b048110610f62576040805162461bcd60e51b815260206004820152601c60248201527f72617465203c204d41585f45584348414e47455f4645455f5241544500000000604482015290519081900360640190fd5b606a55565b600080610f7261187e565b6001600160a01b031663a311c7c2846040518263ffffffff1660e01b815260040180826001600160a01b0316815260200191505060206040518083038186803b158015610fbe57600080fd5b505afa158015610fd2573d6000803e3d6000fd5b505050506040513d6020811015610fe857600080fd5b505190506000610ff661187e565b6001600160a01b031663b410a0346040518163ffffffff1660e01b815260040160206040518083038186803b15801561102e57600080fd5b505afa158015611042573d6000803e3d6000fd5b505050506040513d602081101561105857600080fd5b505190508082101561106f5760019250505061064f565b60006110f76110f0607c5473BCE1584059046A691f0dBFD6aa3D7DEfd112251963907af6c06040518163ffffffff1660e01b815260040160206040518083038186803b1580156110be57600080fd5b505af41580156110d2573d6000803e3d6000fd5b505050506040513d60208110156110e857600080fd5b50519061175f565b8390611ce8565b90508083111561110d576000935050505061064f565b506001949350505050565b61112061175b565b6001600160a01b0316611131611413565b6001600160a01b03161461117a576040805162461bcd60e51b81526020600482018190526024820152600080516020612d79833981519152604482015290519081900360640190fd5b6033546040516000916001600160a01b0316907f8be0079c531659141344cd1fd0a4f28419497f9722a3daafe3b4186f6b6457e0908390a3603380546001600160a01b0319169055565b6111cc61175b565b6001600160a01b03166111dd611413565b6001600160a01b031614611226576040805162461bcd60e51b81526020600482018190526024820152600080516020612d79833981519152604482015290519081900360640190fd5b606755565b6069602052816000526040600020816003811061124457fe5b600202018054600190910154909250905082565b61126061175b565b6001600160a01b0316611271611413565b6001600160a01b0316146112ba576040805162461bcd60e51b81526020600482018190526024820152600080516020612d79833981519152604482015290519081900360640190fd5b60005b600381101561130957606b81600381106112d357fe5b6005020180546001600160c01b0319168155600060018083018290556002830182905560038301829055600490920155016112bd565b50565b61131461187e565b6001600160a01b0316336001600160a01b031614611379576040805162461bcd60e51b815260206004820152601f60248201527f466565506f6f6c3a204f6e6c792049737375657220417574686f726973656400604482015290519081900360640190fd5b61139f838383611389600061190b565b54600160401b90046001600160401b0316611d04565b7f28dcdf40e6b6196065d54760038ab1a8c0c1d9cfa58a99e6b0cb6022f7e247758383836113cd600061190b565b54604080516001600160a01b0390951685526020850193909352838301919091526001600160401b03600160401b909104166060830152519081900360800190a1505050565b6033546001600160a01b031690565b6066546001600160a01b031681565b60675481565b60006114416117c2565b6001600160a01b03163314905060008061145961187e565b6001600160a01b03166316b2213f336040518263ffffffff1660e01b815260040180826001600160a01b0316815260200191505060206040518083038186803b1580156114a557600080fd5b505afa1580156114b9573d6000803e3d6000fd5b505050506040513d60208110156114cf57600080fd5b50511415905081806114de5750805b6115195760405162461bcd60e51b8152600401808060200182810382526021815260200180612d996021913960400191505060405180910390fd5b6115456115316067548561193590919063ffffffff16565b61153b600061190b565b600301549061175f565b61154f600061190b565b60030155505050565b600381565b600061156f61156a61175b565b611d54565b905090565b600054610100900460ff168061158d575061158d611eb3565b8061159b575060005460ff16155b6115d65760405162461bcd60e51b815260040180806020018281038252602e815260200180612d2a602e913960400191505060405180910390fd5b600054610100900460ff16158015611601576000805460ff1961ff0019909116610100171660011790555b611609611ec4565b61161282611f75565b62093a80607b55606a83905560016067558015611635576000805461ff00191690555b505050565b607c5481565b7343707c6bb6202a5e1007356539a925c052ea976781565b61166061175b565b6001600160a01b0316611671611413565b6001600160a01b0316146116ba576040805162461bcd60e51b81526020600482018190526024820152600080516020612d79833981519152604482015290519081900360640190fd5b6001600160a01b0381166116ff5760405162461bcd60e51b8152600401808060200182810382526026815260200180612ca16026913960400191505060405180910390fd5b6033546040516001600160a01b038084169216907f8be0079c531659141344cd1fd0a4f28419497f9722a3daafe3b4186f6b6457e090600090a3603380546001600160a01b0319166001600160a01b0392909216919091179055565b3390565b6000828201838110156117b9576040805162461bcd60e51b815260206004820152601b60248201527f536166654d6174683a206164646974696f6e206f766572666c6f770000000000604482015290519081900360640190fd5b90505b92915050565b6065546040805163dacb2d0160e01b81526822bc31b430b733b2b960b91b600482015260248101829052601960448201527f4d697373696e672045786368616e676572206164647265737300000000000000606482015290516000926001600160a01b03169163dacb2d01916084808301926020929190829003018186803b15801561184d57600080fd5b505afa158015611861573d6000803e3d6000fd5b505050506040513d602081101561187757600080fd5b5051905090565b6065546040805163dacb2d0160e01b81526a29bcb73a3432b9b4bd32b960a91b600482015260248101829052601b60448201527f4d697373696e672053796e74686573697a657220616464726573730000000000606482015290516000926001600160a01b03169163dacb2d01916084808301926020929190829003018186803b15801561184d57600080fd5b6000606b600360ff1683607a54018161192057fe5b066003811061192b57fe5b6005020192915050565b600082611944575060006117bc565b8282028284828161195157fe5b04146117b95760405162461bcd60e51b8152600401808060200182810382526021815260200180612d586021913960400191505060405180910390fd5b60008082116119e4576040805162461bcd60e51b815260206004820152601a60248201527f536166654d6174683a206469766973696f6e206279207a65726f000000000000604482015290519081900360640190fd5b8183816119ed57fe5b049392505050565b60008060038310611a375760405162461bcd60e51b8152600401808060200182810382526023815260200180612cc76023913960400191505060405180910390fd5b6001600160a01b03841660009081526069602052604090208360038110611a5a57fe5b60020201546001600160a01b03851660009081526069602052604090209092508360038110611a8557fe5b600202016001015490509250929050565b60008083611aa957506000905080611b3b565b838515611aeb576000611ada6001611ac360018a0361190b565b54600160401b90046001600160401b031690611b43565b9050611ae7818787612029565b9150505b6000611b0482611afa8961190b565b6001015490611ce8565b90506000611b1f83611b158a61190b565b6003015490611ce8565b9050611b2a82612136565b611b3382612136565b945094505050505b935093915050565b600082821115611b9a576040805162461bcd60e51b815260206004820152601e60248201527f536166654d6174683a207375627472616374696f6e206f766572666c6f770000604482015290519081900360640190fd5b50900390565b600080611bab612c3b565b6001600160a01b0385166000908152606960205260408082208151606081019092529091600390835b82821015611c10578382600202016040518060400160405290816000820154815260200160018201548152505081526020019060010190611bd4565b50505050905060005b6003811015611c7757818160038110611c2e57fe5b6020020151602001518510611c6f57818160038110611c4957fe5b602002015151828260038110611c5b57fe5b602002015160200151935093505050611c7a565b600101611c19565b50505b9250929050565b6000808211611cd7576040805162461bcd60e51b815260206004820152601860248201527f536166654d6174683a206d6f64756c6f206279207a65726f0000000000000000604482015290519081900360640190fd5b818381611ce057fe5b069392505050565b6000670de0b6b3a7640000611cfd8484611935565b816119ed57fe5b6001600160a01b038416600090815260696020526040902060010154811115611d3057611d3084612158565b506001600160a01b0392909216600090815260696020526040902090815560010155565b600080808080611d6386610f67565b611db4576040805162461bcd60e51b815260206004820152601f60248201527f432d526174696f2062656c6f772070656e616c7479207468726573686f6c6400604482015290519081900360640190fd5b611dbd86610654565b909250905081151580611dd05750600081115b611e0b5760405162461bcd60e51b8152600401808060200182810382526040815260200180612cea6040913960400191505060405180910390fd5b611e2886611e19600161190b565b546001600160401b0316612226565b8115611e4357611e3782612242565b9250611e438684612306565b8015611e5e57611e528161257d565b9350611e5e868561263f565b604080516001600160a01b03881681526020810185905280820186905290517f1ac537f0ad67b64ac68a04587ff3a4cb6977de22eb2c37ee560897a92c6d07c79181900360600190a150600195945050505050565b6000611ebe30612843565b15905090565b600054610100900460ff1680611edd5750611edd611eb3565b80611eeb575060005460ff16155b611f265760405162461bcd60e51b815260040180806020018281038252602e815260200180612d2a602e913960400191505060405180910390fd5b600054610100900460ff16158015611f51576000805460ff1961ff0019909116610100171660011790555b611f59612849565b611f616128e9565b8015611309576000805461ff001916905550565b600054610100900460ff1680611f8e5750611f8e611eb3565b80611f9c575060005460ff16155b611fd75760405162461bcd60e51b815260040180806020018281038252602e815260200180612d2a602e913960400191505060405180910390fd5b600054610100900460ff16158015612002576000805460ff1961ff0019909116610100171660011790555b61200a611ec4565b612013826129e2565b8015612025576000805461ff00191690555b5050565b60008061212d8461212761203b61187e565b6001600160a01b03166308d95cd5876040518263ffffffff1660e01b81526004018082815260200191505060206040518083038186803b15801561207e57600080fd5b505afa158015612092573d6000803e3d6000fd5b505050506040513d60208110156120a857600080fd5b50516120b261187e565b6001600160a01b03166308d95cd58a6040518263ffffffff1660e01b81526004018082815260200191505060206040518083038186803b1580156120f557600080fd5b505afa158015612109573d6000803e3d6000fd5b505050506040513d602081101561211f57600080fd5b505190612a9f565b90612ab8565b95945050505050565b60006305f5e10082046005600a82061061214e57600a015b600a900492915050565b60015b6003811015612025576001600160a01b03821660009081526069602052604090206001820190826003811061218c57fe5b60020201546001600160a01b038416600090815260696020526040902082600381106121b457fe5b60020201556001600160a01b038316600090815260696020526040902082600381106121dc57fe5b600202016001015460696000856001600160a01b03166001600160a01b03168152602001908152602001600020826003811061221457fe5b6002020160010155506000190161215b565b6001600160a01b03909116600090815260686020526040902055565b6000818160025b60038110156122fe57600061225d8261190b565b600201549050600061227c826122728561190b565b6001015490611b43565b905080156122f35760008582106122935785612295565b815b90506122a1838261175f565b6122aa8561190b565b600201556122b88682611b43565b95506122c4858261175f565b9450856122d95784965050505050505061064f565b831580156122e75750600086115b156122f157600095505b505b505060001901612249565b509392505050565b816001600160a01b0381167343707c6bb6202a5e1007356539a925c052ea97671415612373576040805162461bcd60e51b8152602060048201526017602482015276119959481859191c995cdcc81b9bdd08185b1b1bddd959604a1b604482015290519081900360640190fd5b6001600160a01b03831615158061239357506001600160a01b0383163014155b806123b757506123a161187e565b6001600160a01b0316836001600160a01b031614155b612408576040805162461bcd60e51b815260206004820152601f60248201527f43616e27742073656e64206665657320746f2074686973206164647265737300604482015290519081900360640190fd5b600061241261187e565b6001600160a01b031663326080396514da185554d160d21b6040518263ffffffff1660e01b81526004018082815260200191505060206040518083038186803b15801561245e57600080fd5b505afa158015612472573d6000803e3d6000fd5b505050506040513d602081101561248857600080fd5b505160408051632770a7eb60e21b81527343707c6bb6202a5e1007356539a925c052ea976760048201526024810186905290519192506001600160a01b03831691639dc29fac9160448082019260009290919082900301818387803b1580156124f057600080fd5b505af1158015612504573d6000803e3d6000fd5b50505050806001600160a01b031663867904b485856040518363ffffffff1660e01b815260040180836001600160a01b0316815260200182815260200192505050600060405180830381600087803b15801561255f57600080fd5b505af1158015612573573d6000803e3d6000fd5b5050505050505050565b6000818160025b60038110156122fe5760006125b261259b8361190b565b600401546125a88461190b565b6003015490611b43565b905080156126355760008482106125c957846125cb565b815b90506125e4816125da8561190b565b600401549061175f565b6125ed8461190b565b600401556125fb8582611b43565b9450612607848261175f565b93508461261b57839550505050505061064f565b821580156126295750600085115b1561263357600094505b505b5060001901612584565b816001600160a01b0381167343707c6bb6202a5e1007356539a925c052ea976714156126ac576040805162461bcd60e51b8152602060048201526017602482015276119959481859191c995cdcc81b9bdd08185b1b1bddd959604a1b604482015290519081900360640190fd5b6001600160a01b0383166126fc576040805162461bcd60e51b815260206004820152601260248201527104163636f756e742063616e277420626520360741b604482015290519081900360640190fd5b6001600160a01b03831630141561275a576040805162461bcd60e51b815260206004820152601e60248201527f43616e27742073656e64207265776172647320746f2066656520706f6f6c0000604482015290519081900360640190fd5b61276261187e565b6001600160a01b0316836001600160a01b031614156127c8576040805162461bcd60e51b815260206004820152601d60248201527f43616e27742073656e64207265776172647320746f20736861646f7773000000604482015290519081900360640190fd5b6127d0612ad1565b6001600160a01b031663b5ddb9c784846040518363ffffffff1660e01b815260040180836001600160a01b0316815260200182815260200192505050600060405180830381600087803b15801561282657600080fd5b505af115801561283a573d6000803e3d6000fd5b50505050505050565b3b151590565b600054610100900460ff16806128625750612862611eb3565b80612870575060005460ff16155b6128ab5760405162461bcd60e51b815260040180806020018281038252602e815260200180612d2a602e913960400191505060405180910390fd5b600054610100900460ff16158015611f61576000805460ff1961ff0019909116610100171660011790558015611309576000805461ff001916905550565b600054610100900460ff16806129025750612902611eb3565b80612910575060005460ff16155b61294b5760405162461bcd60e51b815260040180806020018281038252602e815260200180612d2a602e913960400191505060405180910390fd5b600054610100900460ff16158015612976576000805460ff1961ff0019909116610100171660011790555b600061298061175b565b603380546001600160a01b0319166001600160a01b038316908117909155604051919250906000907f8be0079c531659141344cd1fd0a4f28419497f9722a3daafe3b4186f6b6457e0908290a3508015611309576000805461ff001916905550565b600054610100900460ff16806129fb57506129fb611eb3565b80612a09575060005460ff16155b612a445760405162461bcd60e51b815260040180806020018281038252602e815260200180612d2a602e913960400191505060405180910390fd5b600054610100900460ff16158015612a6f576000805460ff1961ff0019909116610100171660011790555b606580546001600160a01b0319166001600160a01b0384161790558015612025576000805461ff00191690555050565b60006117b983836b033b2e3c9fd0803ce8000000612b5f565b60006117b983836b033b2e3c9fd0803ce8000000612b91565b6065546040805163dacb2d0160e01b81526b526577617264457363726f7760a01b600482015260248101829052601c60448201527f4d697373696e6720526577617264457363726f77206164647265737300000000606482015290516000926001600160a01b03169163dacb2d01916084808301926020929190829003018186803b15801561184d57600080fd5b600080612b738461091487600a8702611935565b90506005600a825b0610612b8557600a015b600a9004949350505050565b600080600a8304612ba28686611935565b81612ba957fe5b0490506005600a82612b7b565b60405180606001604052806003905b612bcd612c68565b815260200190600190039081612bc55790505090565b6040518060e0016040528060006001600160401b0316815260200160006001600160401b0316815260200160006001600160401b03168152602001600081526020016000815260200160008152602001600081525090565b60405180606001604052806003905b612c52612c86565b815260200190600190039081612c4a5790505090565b60405180604001604052806002906020820280368337509192915050565b60405180604001604052806000815260200160008152509056fe4f776e61626c653a206e6577206f776e657220697320746865207a65726f2061646472657373696e646578206578636565647320746865204645455f504552494f445f4c454e4754484e6f2066656573206f72207265776172647320617661696c61626c6520666f7220706572696f642c206f72206665657320616c726561647920636c61696d6564496e697469616c697a61626c653a20636f6e747261637420697320616c726561647920696e697469616c697a6564536166654d6174683a206d756c7469706c69636174696f6e206f766572666c6f774f776e61626c653a2063616c6c6572206973206e6f7420746865206f776e65724f6e6c792045786368616e6765722c2053796e74687320417574686f7269736564a26469706673582212202799b646aa286e0b68a138b76d73d3c9eee4a4ced004ab03e1761c098ba4a1cf64736f6c63430007010033",
  "deployedBytecode": "0x608060405234801561001057600080fd5b50600436106101cf5760003560e01c8063715018a611610104578063c1a18509116100a2578063da35a26f11610071578063da35a26f14610527578063e0e6393d14610553578063eb1edd611461055b578063f2fde38b14610563576101cf565b8063c1a18509146104dc578063cb1f33e5146104e4578063cff2ddad14610501578063d294f0931461051f576101cf565b80637edd4e31116100de5780637edd4e3114610492578063866452741461049a5780638da5cb5b146104cc578063ae2e933b146104d4576101cf565b8063715018a6146104415780637ad57a41146104495780637de6554514610466576101cf565b80632cce0e54116101715780633fcd22401161014b5780633fcd2240146103605780634e543b26146103c4578063578a791d146103ea57806359a2f19f14610407576101cf565b80632cce0e54146102bb57806333140016146102d85780633ebc457a14610358576101cf565b80630de58615116101ad5780630de586151461024f5780630f9b49551461028e57806322425fa41461029657806322bf55ef1461029e576101cf565b806304c49f2c146101d457806304f3bcec146101f357806307ea50cd14610217575b600080fd5b6101f1600480360360208110156101ea57600080fd5b5035610589565b005b6101fb610626565b604080516001600160a01b039092168252519081900360200190f35b61023d6004803603602081101561022d57600080fd5b50356001600160a01b0316610635565b60408051918252519081900360200190f35b6102756004803603602081101561026557600080fd5b50356001600160a01b0316610654565b6040805192835260208301919091528051918290030190f35b61023d6106cf565b61023d6106d5565b6101f1600480360360208110156102b457600080fd5b50356106db565b6101f1600480360360208110156102d157600080fd5b50356107e8565b6102fe600480360360208110156102ee57600080fd5b50356001600160a01b0316610920565b6040516000826003835b818410156103485760208402830151604080838360005b8381101561033757818101518382015260200161031f565b505050509050019260010192610308565b9250505091505060405180910390f35b6101f1610a44565b61037d6004803603602081101561037657600080fd5b5035610d0c565b604080516001600160401b039889168152968816602088015294909616858501526060850192909252608084015260a083015260c082019290925290519081900360e00190f35b6101f1600480360360208110156103da57600080fd5b50356001600160a01b0316610daf565b6101f16004803603602081101561040057600080fd5b5035610e33565b61042d6004803603602081101561041d57600080fd5b50356001600160a01b0316610f67565b604080519115158252519081900360200190f35b6101f1611118565b6101f16004803603602081101561045f57600080fd5b50356111c4565b6102756004803603604081101561047c57600080fd5b506001600160a01b03813516906020013561122b565b6101f1611258565b6101f1600480360360608110156104b057600080fd5b506001600160a01b03813516906020810135906040013561130c565b6101fb611413565b6101fb611422565b61023d611431565b6101f1600480360360208110156104fa57600080fd5b5035611437565b610509611558565b6040805160ff9092168252519081900360200190f35b61042d61155d565b6101f16004803603604081101561053d57600080fd5b50803590602001356001600160a01b0316611574565b61023d61163a565b6101fb611640565b6101f16004803603602081101561057957600080fd5b50356001600160a01b0316611658565b61059161175b565b6001600160a01b03166105a2611413565b6001600160a01b0316146105eb576040805162461bcd60e51b81526020600482018190526024820152600080516020612d79833981519152604482015290519081900360640190fd5b607b8190556040805182815290517f791bd58dd9719b5eb5ccdd6ec4d5c459b0ab8efcf59b723cf477693c0889eacd9181900360200190a150565b6065546001600160a01b031681565b6001600160a01b0381166000908152606860205260409020545b919050565b60008061065f612bb6565b61066884610920565b905060008060015b60038110156106c35761069584826003811061068857fe5b602002015151849061175f565b92506106b98482600381106106a657fe5b602002015160016020020151839061175f565b9150600101610670565b50909350915050915091565b606a5481565b607b5481565b60006106e56117c2565b6001600160a01b0316331490506000806106fd61187e565b6001600160a01b03166316b2213f336040518263ffffffff1660e01b815260040180826001600160a01b0316815260200191505060206040518083038186803b15801561074957600080fd5b505afa15801561075d573d6000803e3d6000fd5b505050506040513d602081101561077357600080fd5b50511415905081806107825750805b6107bd5760405162461bcd60e51b8152600401808060200182810382526021815260200180612d996021913960400191505060405180910390fd5b6107d5836107cb600061190b565b600101549061175f565b6107df600061190b565b60010155505050565b6107f061175b565b6001600160a01b0316610801611413565b6001600160a01b03161461084a576040805162461bcd60e51b81526020600482018190526024820152600080516020612d79833981519152604482015290519081900360640190fd5b6032811115610895576040805162461bcd60e51b81526020600482015260126024820152710a8d0e4cae6d0ded8c840e8dede40d0d2ced60731b604482015290519081900360640190fd5b61091a606461091473__$22e4fd0786f9bb9222b95fc3343146c524$__63907af6c06040518163ffffffff1660e01b815260040160206040518083038186803b1580156108e157600080fd5b505af41580156108f5573d6000803e3d6000fd5b505050506040513d602081101561090b57600080fd5b50518490611935565b9061198e565b607c5550565b610928612bb6565b6000806109368460006119f5565b909250905080158015610947575081155b1561095357505061064f565b60008061096260008585611a96565b865182905286516020018190529092509050600061097f87610635565b905060025b8015610a39576000198101600061099a8261190b565b54600160401b90046001600160401b0316905080158015906109cd57506109c08361190b565b546001600160401b031684105b15610a2e5760006109df826001611b43565b90506109eb8b82611ba0565b90995097506109fb848a8a611a96565b9097509550868a8560038110610a0d57fe5b602002015152858a8560038110610a2057fe5b602002015160016020020152505b505060001901610984565b505050505050919050565b607b544203610a53600061190b565b54600160801b90046001600160401b03161115610ab7576040805162461bcd60e51b815260206004820152601d60248201527f546f6f206561726c7920746f20636c6f73652066656520706572696f64000000604482015290519081900360640190fd5b6000610ac3600161190b565b90506000610ad1600261190b565b9050610afc8260010154610af683600201548460010154611b4390919063ffffffff16565b9061175f565b610b06600161190b565b60010155600380830154600483015491830154610b2792610af69190611b43565b610b31600161190b565b600390810191909155607a54610b5f9190610b5990600190610b53908461175f565b90611b43565b90611c81565b607a819055606b9060038110610b7157fe5b6005020180546001600160c01b0319168155600060018083018290556002830182905560038301829055600490920155610bbe90610bae8161190b565b546001600160401b03169061175f565b610bc8600061190b565b805467ffffffffffffffff19166001600160401b0392909216919091179055610bef61187e565b6001600160a01b031663cd92eba96040518163ffffffff1660e01b815260040160206040518083038186803b158015610c2757600080fd5b505afa158015610c3b573d6000803e3d6000fd5b505050506040513d6020811015610c5157600080fd5b5051610c5d600061190b565b80546001600160401b0392909216600160401b026fffffffffffffffff00000000000000001990921691909117905542610c97600061190b565b80546001600160401b0392909216600160801b0267ffffffffffffffff60801b199092169190911790557fe2ca356e01eb0a4bb7caaf07d472b7d687db156713ffc3111c758e9fe0a17ea7610cec600161190b565b54604080516001600160401b039092168252519081900360200190a15050565b6000806000806000806000610d1f612be3565b610d288961190b565b6040805160e08101825282546001600160401b03808216808452600160401b8304821660208501819052600160801b909304909116938301849052600185015460608401819052600286015460808501819052600387015460a0860181905260049097015460c0909501859052919f929e50939c50929a5091985091965090945092505050565b610db761175b565b6001600160a01b0316610dc8611413565b6001600160a01b031614610e11576040805162461bcd60e51b81526020600482018190526024820152600080516020612d79833981519152604482015290519081900360640190fd5b606580546001600160a01b0319166001600160a01b0392909216919091179055565b610e3b61175b565b6001600160a01b0316610e4c611413565b6001600160a01b031614610e95576040805162461bcd60e51b81526020600482018190526024820152600080516020612d79833981519152604482015290519081900360640190fd5b600a73__$22e4fd0786f9bb9222b95fc3343146c524$__63907af6c06040518163ffffffff1660e01b815260040160206040518083038186803b158015610edb57600080fd5b505af4158015610eef573d6000803e3d6000fd5b505050506040513d6020811015610f0557600080fd5b505181610f0e57fe5b048110610f62576040805162461bcd60e51b815260206004820152601c60248201527f72617465203c204d41585f45584348414e47455f4645455f5241544500000000604482015290519081900360640190fd5b606a55565b600080610f7261187e565b6001600160a01b031663a311c7c2846040518263ffffffff1660e01b815260040180826001600160a01b0316815260200191505060206040518083038186803b158015610fbe57600080fd5b505afa158015610fd2573d6000803e3d6000fd5b505050506040513d6020811015610fe857600080fd5b505190506000610ff661187e565b6001600160a01b031663b410a0346040518163ffffffff1660e01b815260040160206040518083038186803b15801561102e57600080fd5b505afa158015611042573d6000803e3d6000fd5b505050506040513d602081101561105857600080fd5b505190508082101561106f5760019250505061064f565b60006110f76110f0607c5473__$22e4fd0786f9bb9222b95fc3343146c524$__63907af6c06040518163ffffffff1660e01b815260040160206040518083038186803b1580156110be57600080fd5b505af41580156110d2573d6000803e3d6000fd5b505050506040513d60208110156110e857600080fd5b50519061175f565b8390611ce8565b90508083111561110d576000935050505061064f565b506001949350505050565b61112061175b565b6001600160a01b0316611131611413565b6001600160a01b03161461117a576040805162461bcd60e51b81526020600482018190526024820152600080516020612d79833981519152604482015290519081900360640190fd5b6033546040516000916001600160a01b0316907f8be0079c531659141344cd1fd0a4f28419497f9722a3daafe3b4186f6b6457e0908390a3603380546001600160a01b0319169055565b6111cc61175b565b6001600160a01b03166111dd611413565b6001600160a01b031614611226576040805162461bcd60e51b81526020600482018190526024820152600080516020612d79833981519152604482015290519081900360640190fd5b606755565b6069602052816000526040600020816003811061124457fe5b600202018054600190910154909250905082565b61126061175b565b6001600160a01b0316611271611413565b6001600160a01b0316146112ba576040805162461bcd60e51b81526020600482018190526024820152600080516020612d79833981519152604482015290519081900360640190fd5b60005b600381101561130957606b81600381106112d357fe5b6005020180546001600160c01b0319168155600060018083018290556002830182905560038301829055600490920155016112bd565b50565b61131461187e565b6001600160a01b0316336001600160a01b031614611379576040805162461bcd60e51b815260206004820152601f60248201527f466565506f6f6c3a204f6e6c792049737375657220417574686f726973656400604482015290519081900360640190fd5b61139f838383611389600061190b565b54600160401b90046001600160401b0316611d04565b7f28dcdf40e6b6196065d54760038ab1a8c0c1d9cfa58a99e6b0cb6022f7e247758383836113cd600061190b565b54604080516001600160a01b0390951685526020850193909352838301919091526001600160401b03600160401b909104166060830152519081900360800190a1505050565b6033546001600160a01b031690565b6066546001600160a01b031681565b60675481565b60006114416117c2565b6001600160a01b03163314905060008061145961187e565b6001600160a01b03166316b2213f336040518263ffffffff1660e01b815260040180826001600160a01b0316815260200191505060206040518083038186803b1580156114a557600080fd5b505afa1580156114b9573d6000803e3d6000fd5b505050506040513d60208110156114cf57600080fd5b50511415905081806114de5750805b6115195760405162461bcd60e51b8152600401808060200182810382526021815260200180612d996021913960400191505060405180910390fd5b6115456115316067548561193590919063ffffffff16565b61153b600061190b565b600301549061175f565b61154f600061190b565b60030155505050565b600381565b600061156f61156a61175b565b611d54565b905090565b600054610100900460ff168061158d575061158d611eb3565b8061159b575060005460ff16155b6115d65760405162461bcd60e51b815260040180806020018281038252602e815260200180612d2a602e913960400191505060405180910390fd5b600054610100900460ff16158015611601576000805460ff1961ff0019909116610100171660011790555b611609611ec4565b61161282611f75565b62093a80607b55606a83905560016067558015611635576000805461ff00191690555b505050565b607c5481565b7343707c6bb6202a5e1007356539a925c052ea976781565b61166061175b565b6001600160a01b0316611671611413565b6001600160a01b0316146116ba576040805162461bcd60e51b81526020600482018190526024820152600080516020612d79833981519152604482015290519081900360640190fd5b6001600160a01b0381166116ff5760405162461bcd60e51b8152600401808060200182810382526026815260200180612ca16026913960400191505060405180910390fd5b6033546040516001600160a01b038084169216907f8be0079c531659141344cd1fd0a4f28419497f9722a3daafe3b4186f6b6457e090600090a3603380546001600160a01b0319166001600160a01b0392909216919091179055565b3390565b6000828201838110156117b9576040805162461bcd60e51b815260206004820152601b60248201527f536166654d6174683a206164646974696f6e206f766572666c6f770000000000604482015290519081900360640190fd5b90505b92915050565b6065546040805163dacb2d0160e01b81526822bc31b430b733b2b960b91b600482015260248101829052601960448201527f4d697373696e672045786368616e676572206164647265737300000000000000606482015290516000926001600160a01b03169163dacb2d01916084808301926020929190829003018186803b15801561184d57600080fd5b505afa158015611861573d6000803e3d6000fd5b505050506040513d602081101561187757600080fd5b5051905090565b6065546040805163dacb2d0160e01b81526a29bcb73a3432b9b4bd32b960a91b600482015260248101829052601b60448201527f4d697373696e672053796e74686573697a657220616464726573730000000000606482015290516000926001600160a01b03169163dacb2d01916084808301926020929190829003018186803b15801561184d57600080fd5b6000606b600360ff1683607a54018161192057fe5b066003811061192b57fe5b6005020192915050565b600082611944575060006117bc565b8282028284828161195157fe5b04146117b95760405162461bcd60e51b8152600401808060200182810382526021815260200180612d586021913960400191505060405180910390fd5b60008082116119e4576040805162461bcd60e51b815260206004820152601a60248201527f536166654d6174683a206469766973696f6e206279207a65726f000000000000604482015290519081900360640190fd5b8183816119ed57fe5b049392505050565b60008060038310611a375760405162461bcd60e51b8152600401808060200182810382526023815260200180612cc76023913960400191505060405180910390fd5b6001600160a01b03841660009081526069602052604090208360038110611a5a57fe5b60020201546001600160a01b03851660009081526069602052604090209092508360038110611a8557fe5b600202016001015490509250929050565b60008083611aa957506000905080611b3b565b838515611aeb576000611ada6001611ac360018a0361190b565b54600160401b90046001600160401b031690611b43565b9050611ae7818787612029565b9150505b6000611b0482611afa8961190b565b6001015490611ce8565b90506000611b1f83611b158a61190b565b6003015490611ce8565b9050611b2a82612136565b611b3382612136565b945094505050505b935093915050565b600082821115611b9a576040805162461bcd60e51b815260206004820152601e60248201527f536166654d6174683a207375627472616374696f6e206f766572666c6f770000604482015290519081900360640190fd5b50900390565b600080611bab612c3b565b6001600160a01b0385166000908152606960205260408082208151606081019092529091600390835b82821015611c10578382600202016040518060400160405290816000820154815260200160018201548152505081526020019060010190611bd4565b50505050905060005b6003811015611c7757818160038110611c2e57fe5b6020020151602001518510611c6f57818160038110611c4957fe5b602002015151828260038110611c5b57fe5b602002015160200151935093505050611c7a565b600101611c19565b50505b9250929050565b6000808211611cd7576040805162461bcd60e51b815260206004820152601860248201527f536166654d6174683a206d6f64756c6f206279207a65726f0000000000000000604482015290519081900360640190fd5b818381611ce057fe5b069392505050565b6000670de0b6b3a7640000611cfd8484611935565b816119ed57fe5b6001600160a01b038416600090815260696020526040902060010154811115611d3057611d3084612158565b506001600160a01b0392909216600090815260696020526040902090815560010155565b600080808080611d6386610f67565b611db4576040805162461bcd60e51b815260206004820152601f60248201527f432d526174696f2062656c6f772070656e616c7479207468726573686f6c6400604482015290519081900360640190fd5b611dbd86610654565b909250905081151580611dd05750600081115b611e0b5760405162461bcd60e51b8152600401808060200182810382526040815260200180612cea6040913960400191505060405180910390fd5b611e2886611e19600161190b565b546001600160401b0316612226565b8115611e4357611e3782612242565b9250611e438684612306565b8015611e5e57611e528161257d565b9350611e5e868561263f565b604080516001600160a01b03881681526020810185905280820186905290517f1ac537f0ad67b64ac68a04587ff3a4cb6977de22eb2c37ee560897a92c6d07c79181900360600190a150600195945050505050565b6000611ebe30612843565b15905090565b600054610100900460ff1680611edd5750611edd611eb3565b80611eeb575060005460ff16155b611f265760405162461bcd60e51b815260040180806020018281038252602e815260200180612d2a602e913960400191505060405180910390fd5b600054610100900460ff16158015611f51576000805460ff1961ff0019909116610100171660011790555b611f59612849565b611f616128e9565b8015611309576000805461ff001916905550565b600054610100900460ff1680611f8e5750611f8e611eb3565b80611f9c575060005460ff16155b611fd75760405162461bcd60e51b815260040180806020018281038252602e815260200180612d2a602e913960400191505060405180910390fd5b600054610100900460ff16158015612002576000805460ff1961ff0019909116610100171660011790555b61200a611ec4565b612013826129e2565b8015612025576000805461ff00191690555b5050565b60008061212d8461212761203b61187e565b6001600160a01b03166308d95cd5876040518263ffffffff1660e01b81526004018082815260200191505060206040518083038186803b15801561207e57600080fd5b505afa158015612092573d6000803e3d6000fd5b505050506040513d60208110156120a857600080fd5b50516120b261187e565b6001600160a01b03166308d95cd58a6040518263ffffffff1660e01b81526004018082815260200191505060206040518083038186803b1580156120f557600080fd5b505afa158015612109573d6000803e3d6000fd5b505050506040513d602081101561211f57600080fd5b505190612a9f565b90612ab8565b95945050505050565b60006305f5e10082046005600a82061061214e57600a015b600a900492915050565b60015b6003811015612025576001600160a01b03821660009081526069602052604090206001820190826003811061218c57fe5b60020201546001600160a01b038416600090815260696020526040902082600381106121b457fe5b60020201556001600160a01b038316600090815260696020526040902082600381106121dc57fe5b600202016001015460696000856001600160a01b03166001600160a01b03168152602001908152602001600020826003811061221457fe5b6002020160010155506000190161215b565b6001600160a01b03909116600090815260686020526040902055565b6000818160025b60038110156122fe57600061225d8261190b565b600201549050600061227c826122728561190b565b6001015490611b43565b905080156122f35760008582106122935785612295565b815b90506122a1838261175f565b6122aa8561190b565b600201556122b88682611b43565b95506122c4858261175f565b9450856122d95784965050505050505061064f565b831580156122e75750600086115b156122f157600095505b505b505060001901612249565b509392505050565b816001600160a01b0381167343707c6bb6202a5e1007356539a925c052ea97671415612373576040805162461bcd60e51b8152602060048201526017602482015276119959481859191c995cdcc81b9bdd08185b1b1bddd959604a1b604482015290519081900360640190fd5b6001600160a01b03831615158061239357506001600160a01b0383163014155b806123b757506123a161187e565b6001600160a01b0316836001600160a01b031614155b612408576040805162461bcd60e51b815260206004820152601f60248201527f43616e27742073656e64206665657320746f2074686973206164647265737300604482015290519081900360640190fd5b600061241261187e565b6001600160a01b031663326080396514da185554d160d21b6040518263ffffffff1660e01b81526004018082815260200191505060206040518083038186803b15801561245e57600080fd5b505afa158015612472573d6000803e3d6000fd5b505050506040513d602081101561248857600080fd5b505160408051632770a7eb60e21b81527343707c6bb6202a5e1007356539a925c052ea976760048201526024810186905290519192506001600160a01b03831691639dc29fac9160448082019260009290919082900301818387803b1580156124f057600080fd5b505af1158015612504573d6000803e3d6000fd5b50505050806001600160a01b031663867904b485856040518363ffffffff1660e01b815260040180836001600160a01b0316815260200182815260200192505050600060405180830381600087803b15801561255f57600080fd5b505af1158015612573573d6000803e3d6000fd5b5050505050505050565b6000818160025b60038110156122fe5760006125b261259b8361190b565b600401546125a88461190b565b6003015490611b43565b905080156126355760008482106125c957846125cb565b815b90506125e4816125da8561190b565b600401549061175f565b6125ed8461190b565b600401556125fb8582611b43565b9450612607848261175f565b93508461261b57839550505050505061064f565b821580156126295750600085115b1561263357600094505b505b5060001901612584565b816001600160a01b0381167343707c6bb6202a5e1007356539a925c052ea976714156126ac576040805162461bcd60e51b8152602060048201526017602482015276119959481859191c995cdcc81b9bdd08185b1b1bddd959604a1b604482015290519081900360640190fd5b6001600160a01b0383166126fc576040805162461bcd60e51b815260206004820152601260248201527104163636f756e742063616e277420626520360741b604482015290519081900360640190fd5b6001600160a01b03831630141561275a576040805162461bcd60e51b815260206004820152601e60248201527f43616e27742073656e64207265776172647320746f2066656520706f6f6c0000604482015290519081900360640190fd5b61276261187e565b6001600160a01b0316836001600160a01b031614156127c8576040805162461bcd60e51b815260206004820152601d60248201527f43616e27742073656e64207265776172647320746f20736861646f7773000000604482015290519081900360640190fd5b6127d0612ad1565b6001600160a01b031663b5ddb9c784846040518363ffffffff1660e01b815260040180836001600160a01b0316815260200182815260200192505050600060405180830381600087803b15801561282657600080fd5b505af115801561283a573d6000803e3d6000fd5b50505050505050565b3b151590565b600054610100900460ff16806128625750612862611eb3565b80612870575060005460ff16155b6128ab5760405162461bcd60e51b815260040180806020018281038252602e815260200180612d2a602e913960400191505060405180910390fd5b600054610100900460ff16158015611f61576000805460ff1961ff0019909116610100171660011790558015611309576000805461ff001916905550565b600054610100900460ff16806129025750612902611eb3565b80612910575060005460ff16155b61294b5760405162461bcd60e51b815260040180806020018281038252602e815260200180612d2a602e913960400191505060405180910390fd5b600054610100900460ff16158015612976576000805460ff1961ff0019909116610100171660011790555b600061298061175b565b603380546001600160a01b0319166001600160a01b038316908117909155604051919250906000907f8be0079c531659141344cd1fd0a4f28419497f9722a3daafe3b4186f6b6457e0908290a3508015611309576000805461ff001916905550565b600054610100900460ff16806129fb57506129fb611eb3565b80612a09575060005460ff16155b612a445760405162461bcd60e51b815260040180806020018281038252602e815260200180612d2a602e913960400191505060405180910390fd5b600054610100900460ff16158015612a6f576000805460ff1961ff0019909116610100171660011790555b606580546001600160a01b0319166001600160a01b0384161790558015612025576000805461ff00191690555050565b60006117b983836b033b2e3c9fd0803ce8000000612b5f565b60006117b983836b033b2e3c9fd0803ce8000000612b91565b6065546040805163dacb2d0160e01b81526b526577617264457363726f7760a01b600482015260248101829052601c60448201527f4d697373696e6720526577617264457363726f77206164647265737300000000606482015290516000926001600160a01b03169163dacb2d01916084808301926020929190829003018186803b15801561184d57600080fd5b600080612b738461091487600a8702611935565b90506005600a825b0610612b8557600a015b600a9004949350505050565b600080600a8304612ba28686611935565b81612ba957fe5b0490506005600a82612b7b565b60405180606001604052806003905b612bcd612c68565b815260200190600190039081612bc55790505090565b6040518060e0016040528060006001600160401b0316815260200160006001600160401b0316815260200160006001600160401b03168152602001600081526020016000815260200160008152602001600081525090565b60405180606001604052806003905b612c52612c86565b815260200190600190039081612c4a5790505090565b60405180604001604052806002906020820280368337509192915050565b60405180604001604052806000815260200160008152509056fe4f776e61626c653a206e6577206f776e657220697320746865207a65726f2061646472657373696e646578206578636565647320746865204645455f504552494f445f4c454e4754484e6f2066656573206f72207265776172647320617661696c61626c6520666f7220706572696f642c206f72206665657320616c726561647920636c61696d6564496e697469616c697a61626c653a20636f6e747261637420697320616c726561647920696e697469616c697a6564536166654d6174683a206d756c7469706c69636174696f6e206f766572666c6f774f776e61626c653a2063616c6c6572206973206e6f7420746865206f776e65724f6e6c792045786368616e6765722c2053796e74687320417574686f7269736564a26469706673582212202799b646aa286e0b68a138b76d73d3c9eee4a4ced004ab03e1761c098ba4a1cf64736f6c63430007010033",
  "libraries": {
    "SafeDecimalMath": "0xBCE1584059046A691f0dBFD6aa3D7DEfd1122519"
  },
  "devdoc": {
    "kind": "dev",
    "methods": {
      "appendAccountIssuanceRecord(address,uint256,uint256)": {
        "details": "onlyIssuer to call me on shadows.issue() & shadows.burn() calls to store the locked DOWS per fee period so we know to allocate the correct proportions of fees and rewards per period"
      },
      "owner()": {
        "details": "Returns the address of the current owner."
      },
      "renounceOwnership()": {
        "details": "Leaves the contract without owner. It will not be possible to call `onlyOwner` functions anymore. Can only be called by the current owner. NOTE: Renouncing ownership will leave the contract without an owner, thereby removing any functionality that is only available to the owner."
      },
      "transferOwnership(address)": {
        "details": "Transfers ownership of the contract to a new account (`newOwner`). Can only be called by the current owner."
      }
    },
    "version": 1
  },
  "userdoc": {
    "kind": "user",
    "methods": {
      "closeCurrentFeePeriod()": {
        "notice": "Close the current fee period and start a new one."
      }
    },
    "version": 1
  },
  "storageLayout": {
    "storage": [
      {
        "astId": 595,
        "contract": "contracts/FeePool.sol:FeePool",
        "label": "_initialized",
        "offset": 0,
        "slot": "0",
        "type": "t_bool"
      },
      {
        "astId": 598,
        "contract": "contracts/FeePool.sol:FeePool",
        "label": "_initializing",
        "offset": 1,
        "slot": "0",
        "type": "t_bool"
      },
      {
        "astId": 1615,
        "contract": "contracts/FeePool.sol:FeePool",
        "label": "__gap",
        "offset": 0,
        "slot": "1",
        "type": "t_array(t_uint256)50_storage"
      },
      {
        "astId": 113,
        "contract": "contracts/FeePool.sol:FeePool",
        "label": "_owner",
        "offset": 0,
        "slot": "51",
        "type": "t_address"
      },
      {
        "astId": 232,
        "contract": "contracts/FeePool.sol:FeePool",
        "label": "__gap",
        "offset": 0,
        "slot": "52",
        "type": "t_array(t_uint256)49_storage"
      },
      {
        "astId": 9352,
        "contract": "contracts/FeePool.sol:FeePool",
        "label": "resolver",
        "offset": 0,
        "slot": "101",
        "type": "t_contract(AddressResolver)9340"
      },
      {
        "astId": 2666,
        "contract": "contracts/FeePool.sol:FeePool",
        "label": "feePool",
        "offset": 0,
        "slot": "102",
        "type": "t_address"
      },
      {
        "astId": 2676,
        "contract": "contracts/FeePool.sol:FeePool",
        "label": "BONUS_REWARDS",
        "offset": 0,
        "slot": "103",
        "type": "t_uint256"
      },
      {
        "astId": 2680,
        "contract": "contracts/FeePool.sol:FeePool",
        "label": "lastFeeWithdrawalStorage",
        "offset": 0,
        "slot": "104",
        "type": "t_mapping(t_address,t_uint256)"
      },
      {
        "astId": 2686,
        "contract": "contracts/FeePool.sol:FeePool",
        "label": "accountIssuanceLedger",
        "offset": 0,
        "slot": "105",
        "type": "t_mapping(t_address,t_array(t_struct(IssuanceData)2671_storage)3_storage)"
      },
      {
        "astId": 2688,
        "contract": "contracts/FeePool.sol:FeePool",
        "label": "exchangeFeeRate",
        "offset": 0,
        "slot": "106",
        "type": "t_uint256"
      },
      {
        "astId": 2713,
        "contract": "contracts/FeePool.sol:FeePool",
        "label": "_recentFeePeriods",
        "offset": 0,
        "slot": "107",
        "type": "t_array(t_struct(FeePeriod)2709_storage)3_storage"
      },
      {
        "astId": 2715,
        "contract": "contracts/FeePool.sol:FeePool",
        "label": "_currentFeePeriod",
        "offset": 0,
        "slot": "122",
        "type": "t_uint256"
      },
      {
        "astId": 2717,
        "contract": "contracts/FeePool.sol:FeePool",
        "label": "feePeriodDuration",
        "offset": 0,
        "slot": "123",
        "type": "t_uint256"
      },
      {
        "astId": 2719,
        "contract": "contracts/FeePool.sol:FeePool",
        "label": "targetThreshold",
        "offset": 0,
        "slot": "124",
        "type": "t_uint256"
      }
    ],
    "types": {
      "t_address": {
        "encoding": "inplace",
        "label": "address",
        "numberOfBytes": "20"
      },
      "t_array(t_struct(FeePeriod)2709_storage)3_storage": {
        "base": "t_struct(FeePeriod)2709_storage",
        "encoding": "inplace",
        "label": "struct FeePool.FeePeriod[3]",
        "numberOfBytes": "480"
      },
      "t_array(t_struct(IssuanceData)2671_storage)3_storage": {
        "base": "t_struct(IssuanceData)2671_storage",
        "encoding": "inplace",
        "label": "struct FeePool.IssuanceData[3]",
        "numberOfBytes": "192"
      },
      "t_array(t_uint256)49_storage": {
        "base": "t_uint256",
        "encoding": "inplace",
        "label": "uint256[49]",
        "numberOfBytes": "1568"
      },
      "t_array(t_uint256)50_storage": {
        "base": "t_uint256",
        "encoding": "inplace",
        "label": "uint256[50]",
        "numberOfBytes": "1600"
      },
      "t_bool": {
        "encoding": "inplace",
        "label": "bool",
        "numberOfBytes": "1"
      },
      "t_contract(AddressResolver)9340": {
        "encoding": "inplace",
        "label": "contract AddressResolver",
        "numberOfBytes": "20"
      },
      "t_mapping(t_address,t_array(t_struct(IssuanceData)2671_storage)3_storage)": {
        "encoding": "mapping",
        "key": "t_address",
        "label": "mapping(address => struct FeePool.IssuanceData[3])",
        "numberOfBytes": "32",
        "value": "t_array(t_struct(IssuanceData)2671_storage)3_storage"
      },
      "t_mapping(t_address,t_uint256)": {
        "encoding": "mapping",
        "key": "t_address",
        "label": "mapping(address => uint256)",
        "numberOfBytes": "32",
        "value": "t_uint256"
      },
      "t_struct(FeePeriod)2709_storage": {
        "encoding": "inplace",
        "label": "struct FeePool.FeePeriod",
        "members": [
          {
            "astId": 2696,
            "contract": "contracts/FeePool.sol:FeePool",
            "label": "feePeriodId",
            "offset": 0,
            "slot": "0",
            "type": "t_uint64"
          },
          {
            "astId": 2698,
            "contract": "contracts/FeePool.sol:FeePool",
            "label": "startingDebtIndex",
            "offset": 8,
            "slot": "0",
            "type": "t_uint64"
          },
          {
            "astId": 2700,
            "contract": "contracts/FeePool.sol:FeePool",
            "label": "startTime",
            "offset": 16,
            "slot": "0",
            "type": "t_uint64"
          },
          {
            "astId": 2702,
            "contract": "contracts/FeePool.sol:FeePool",
            "label": "feesToDistribute",
            "offset": 0,
            "slot": "1",
            "type": "t_uint256"
          },
          {
            "astId": 2704,
            "contract": "contracts/FeePool.sol:FeePool",
            "label": "feesClaimed",
            "offset": 0,
            "slot": "2",
            "type": "t_uint256"
          },
          {
            "astId": 2706,
            "contract": "contracts/FeePool.sol:FeePool",
            "label": "rewardsToDistribute",
            "offset": 0,
            "slot": "3",
            "type": "t_uint256"
          },
          {
            "astId": 2708,
            "contract": "contracts/FeePool.sol:FeePool",
            "label": "rewardsClaimed",
            "offset": 0,
            "slot": "4",
            "type": "t_uint256"
          }
        ],
        "numberOfBytes": "160"
      },
      "t_struct(IssuanceData)2671_storage": {
        "encoding": "inplace",
        "label": "struct FeePool.IssuanceData",
        "members": [
          {
            "astId": 2668,
            "contract": "contracts/FeePool.sol:FeePool",
            "label": "debtPercentage",
            "offset": 0,
            "slot": "0",
            "type": "t_uint256"
          },
          {
            "astId": 2670,
            "contract": "contracts/FeePool.sol:FeePool",
            "label": "debtEntryIndex",
            "offset": 0,
            "slot": "1",
            "type": "t_uint256"
          }
        ],
        "numberOfBytes": "64"
      },
      "t_uint256": {
        "encoding": "inplace",
        "label": "uint256",
        "numberOfBytes": "32"
      },
      "t_uint64": {
        "encoding": "inplace",
        "label": "uint64",
        "numberOfBytes": "8"
      }
    }
  }
}