{
  "address": "0x36f84Fc34260bB6Fed11CE92286bfc4896eE8372",
  "abi": [
    {
      "anonymous": false,
      "inputs": [
        {
          "indexed": false,
          "internalType": "uint256",
          "name": "feePeriodId",
          "type": "uint256"
        }
      ],
      "name": "FeePeriodClosed",
      "type": "event"
    },
    {
      "anonymous": false,
      "inputs": [
        {
          "indexed": false,
          "internalType": "uint256",
          "name": "newFeePeriodDuration",
          "type": "uint256"
        }
      ],
      "name": "FeePeriodDurationUpdated",
      "type": "event"
    },
    {
      "anonymous": false,
      "inputs": [
        {
          "indexed": false,
          "internalType": "address",
          "name": "account",
          "type": "address"
        },
        {
          "indexed": false,
          "internalType": "uint256",
          "name": "xUSDAmount",
          "type": "uint256"
        },
        {
          "indexed": false,
          "internalType": "uint256",
          "name": "dowsRewards",
          "type": "uint256"
        }
      ],
      "name": "FeesClaimed",
      "type": "event"
    },
    {
      "anonymous": false,
      "inputs": [
        {
          "indexed": false,
          "internalType": "address",
          "name": "account",
          "type": "address"
        },
        {
          "indexed": false,
          "internalType": "uint256",
          "name": "debtRatio",
          "type": "uint256"
        },
        {
          "indexed": false,
          "internalType": "uint256",
          "name": "debtEntryIndex",
          "type": "uint256"
        },
        {
          "indexed": false,
          "internalType": "uint256",
          "name": "feePeriodStartingDebtIndex",
          "type": "uint256"
        }
      ],
      "name": "IssuanceDebtRatioEntry",
      "type": "event"
    },
    {
      "anonymous": false,
      "inputs": [
        {
          "indexed": true,
          "internalType": "address",
          "name": "previousOwner",
          "type": "address"
        },
        {
          "indexed": true,
          "internalType": "address",
          "name": "newOwner",
          "type": "address"
        }
      ],
      "name": "OwnershipTransferred",
      "type": "event"
    },
    {
      "inputs": [],
      "name": "FEE_ADDRESS",
      "outputs": [
        {
          "internalType": "address",
          "name": "",
          "type": "address"
        }
      ],
      "stateMutability": "view",
      "type": "function"
    },
    {
      "inputs": [],
      "name": "FEE_PERIOD_LENGTH",
      "outputs": [
        {
          "internalType": "uint8",
          "name": "",
          "type": "uint8"
        }
      ],
      "stateMutability": "view",
      "type": "function"
    },
    {
      "inputs": [],
      "name": "MAX_FEE_PERIOD_DURATION",
      "outputs": [
        {
          "internalType": "uint256",
          "name": "",
          "type": "uint256"
        }
      ],
      "stateMutability": "view",
      "type": "function"
    },
    {
      "inputs": [],
      "name": "MIN_FEE_PERIOD_DURATION",
      "outputs": [
        {
          "internalType": "uint256",
          "name": "",
          "type": "uint256"
        }
      ],
      "stateMutability": "view",
      "type": "function"
    },
    {
      "inputs": [
        {
          "internalType": "address",
          "name": "",
          "type": "address"
        },
        {
          "internalType": "uint256",
          "name": "",
          "type": "uint256"
        }
      ],
      "name": "accountIssuanceLedger",
      "outputs": [
        {
          "internalType": "uint256",
          "name": "debtPercentage",
          "type": "uint256"
        },
        {
          "internalType": "uint256",
          "name": "debtEntryIndex",
          "type": "uint256"
        }
      ],
      "stateMutability": "view",
      "type": "function"
    },
    {
      "inputs": [
        {
          "internalType": "address",
          "name": "account",
          "type": "address"
        },
        {
          "internalType": "uint256",
          "name": "debtRatio",
          "type": "uint256"
        },
        {
          "internalType": "uint256",
          "name": "debtEntryIndex",
          "type": "uint256"
        }
      ],
      "name": "appendAccountIssuanceRecord",
      "outputs": [],
      "stateMutability": "nonpayable",
      "type": "function"
    },
    {
      "inputs": [],
      "name": "claimFees",
      "outputs": [
        {
          "internalType": "bool",
          "name": "",
          "type": "bool"
        }
      ],
      "stateMutability": "nonpayable",
      "type": "function"
    },
    {
      "inputs": [],
      "name": "closeCurrentFeePeriod",
      "outputs": [],
      "stateMutability": "nonpayable",
      "type": "function"
    },
    {
      "inputs": [],
      "name": "exchangeFeeRate",
      "outputs": [
        {
          "internalType": "uint256",
          "name": "",
          "type": "uint256"
        }
      ],
      "stateMutability": "view",
      "type": "function"
    },
    {
      "inputs": [],
      "name": "feePeriodDuration",
      "outputs": [
        {
          "internalType": "uint256",
          "name": "",
          "type": "uint256"
        }
      ],
      "stateMutability": "view",
      "type": "function"
    },
    {
      "inputs": [],
      "name": "feePool",
      "outputs": [
        {
          "internalType": "address",
          "name": "",
          "type": "address"
        }
      ],
      "stateMutability": "view",
      "type": "function"
    },
    {
      "inputs": [
        {
          "internalType": "address",
          "name": "account",
          "type": "address"
        }
      ],
      "name": "feesAvailable",
      "outputs": [
        {
          "internalType": "uint256",
          "name": "",
          "type": "uint256"
        },
        {
          "internalType": "uint256",
          "name": "",
          "type": "uint256"
        }
      ],
      "stateMutability": "view",
      "type": "function"
    },
    {
      "inputs": [
        {
          "internalType": "address",
          "name": "account",
          "type": "address"
        }
      ],
      "name": "feesByPeriod",
      "outputs": [
        {
          "internalType": "uint256[2][3]",
          "name": "results",
          "type": "uint256[2][3]"
        }
      ],
      "stateMutability": "view",
      "type": "function"
    },
    {
      "inputs": [
        {
          "internalType": "address",
          "name": "_claimingAddress",
          "type": "address"
        }
      ],
      "name": "getLastFeeWithdrawal",
      "outputs": [
        {
          "internalType": "uint256",
          "name": "",
          "type": "uint256"
        }
      ],
      "stateMutability": "view",
      "type": "function"
    },
    {
      "inputs": [
        {
          "internalType": "uint256",
          "name": "_exchangeFeeRate",
          "type": "uint256"
        },
        {
          "internalType": "address",
          "name": "_resolver",
          "type": "address"
        }
      ],
      "name": "initialize",
      "outputs": [],
      "stateMutability": "nonpayable",
      "type": "function"
    },
    {
      "inputs": [
        {
          "internalType": "address",
          "name": "account",
          "type": "address"
        }
      ],
      "name": "isFeesClaimable",
      "outputs": [
        {
          "internalType": "bool",
          "name": "",
          "type": "bool"
        }
      ],
      "stateMutability": "view",
      "type": "function"
    },
    {
      "inputs": [],
      "name": "owner",
      "outputs": [
        {
          "internalType": "address",
          "name": "",
          "type": "address"
        }
      ],
      "stateMutability": "view",
      "type": "function"
    },
    {
      "inputs": [
        {
          "internalType": "uint256",
          "name": "index",
          "type": "uint256"
        }
      ],
      "name": "recentFeePeriods",
      "outputs": [
        {
          "internalType": "uint64",
          "name": "feePeriodId",
          "type": "uint64"
        },
        {
          "internalType": "uint64",
          "name": "startingDebtIndex",
          "type": "uint64"
        },
        {
          "internalType": "uint64",
          "name": "startTime",
          "type": "uint64"
        },
        {
          "internalType": "uint256",
          "name": "feesToDistribute",
          "type": "uint256"
        },
        {
          "internalType": "uint256",
          "name": "feesClaimed",
          "type": "uint256"
        },
        {
          "internalType": "uint256",
          "name": "rewardsToDistribute",
          "type": "uint256"
        },
        {
          "internalType": "uint256",
          "name": "rewardsClaimed",
          "type": "uint256"
        }
      ],
      "stateMutability": "view",
      "type": "function"
    },
    {
      "inputs": [
        {
          "internalType": "uint256",
          "name": "amount",
          "type": "uint256"
        }
      ],
      "name": "recordFeePaid",
      "outputs": [],
      "stateMutability": "nonpayable",
      "type": "function"
    },
    {
      "inputs": [],
      "name": "renounceOwnership",
      "outputs": [],
      "stateMutability": "nonpayable",
      "type": "function"
    },
    {
      "inputs": [],
      "name": "resolver",
      "outputs": [
        {
          "internalType": "contract AddressResolver",
          "name": "",
          "type": "address"
        }
      ],
      "stateMutability": "view",
      "type": "function"
    },
    {
      "inputs": [
        {
          "internalType": "uint256",
          "name": "_exchangeFeeRate",
          "type": "uint256"
        }
      ],
      "name": "setExchangeFeeRate",
      "outputs": [],
      "stateMutability": "nonpayable",
      "type": "function"
    },
    {
      "inputs": [
        {
          "internalType": "uint256",
          "name": "_feePeriodDuration",
          "type": "uint256"
        }
      ],
      "name": "setFeePeriodDuration",
      "outputs": [],
      "stateMutability": "nonpayable",
      "type": "function"
    },
    {
      "inputs": [
        {
          "internalType": "contract AddressResolver",
          "name": "_resolver",
          "type": "address"
        }
      ],
      "name": "setResolver",
      "outputs": [],
      "stateMutability": "nonpayable",
      "type": "function"
    },
    {
      "inputs": [
        {
          "internalType": "uint256",
          "name": "amount",
          "type": "uint256"
        }
      ],
      "name": "setRewardsToDistribute",
      "outputs": [],
      "stateMutability": "nonpayable",
      "type": "function"
    },
    {
      "inputs": [
        {
          "internalType": "uint256",
          "name": "_percent",
          "type": "uint256"
        }
      ],
      "name": "setTargetThreshold",
      "outputs": [],
      "stateMutability": "nonpayable",
      "type": "function"
    },
    {
      "inputs": [],
      "name": "targetThreshold",
      "outputs": [
        {
          "internalType": "uint256",
          "name": "",
          "type": "uint256"
        }
      ],
      "stateMutability": "view",
      "type": "function"
    },
    {
      "inputs": [
        {
          "internalType": "address",
          "name": "newOwner",
          "type": "address"
        }
      ],
      "name": "transferOwnership",
      "outputs": [],
      "stateMutability": "nonpayable",
      "type": "function"
    }
  ],
  "transactionHash": "0x4921697452a7a0088af91dccaabbc50910d3c3af9604324b6ceb1dee741d0a68",
  "args": [],
  "solcInputHash": "337b6b00b86b589608341b48d68d253e",
  "bytecode": "0x608060405234801561001057600080fd5b50612df6806100206000396000f3fe608060405234801561001057600080fd5b50600436106101c45760003560e01c8063715018a6116100f9578063d62ae39911610097578063eb1edd6111610071578063eb1edd611461050e578063f2fde38b14610516578063f344da671461053c578063fd1f498d14610544576101c4565b8063d62ae399146104d2578063da35a26f146104da578063e0e6393d14610506576101c4565b80638da5cb5b116100d35780638da5cb5b1461049c578063ae2e933b146104a4578063cff2ddad146104ac578063d294f093146104ca576101c4565b8063715018a6146104365780637de655451461043e578063866452741461046a576101c4565b80632cce0e54116101665780633fcd2240116101405780633fcd2240146103555780634e543b26146103b9578063578a791d146103df57806359a2f19f146103fc576101c4565b80632cce0e54146102b057806333140016146102cd5780633ebc457a1461034d576101c4565b80630de58615116101a25780630de58615146102445780630f9b49551461028357806322425fa41461028b57806322bf55ef14610293576101c4565b806304c49f2c146101c957806304f3bcec146101e857806307ea50cd1461020c575b600080fd5b6101e6600480360360208110156101df57600080fd5b5035610561565b005b6101f06106ae565b604080516001600160a01b039092168252519081900360200190f35b6102326004803603602081101561022257600080fd5b50356001600160a01b03166106bd565b60408051918252519081900360200190f35b61026a6004803603602081101561025a57600080fd5b50356001600160a01b03166106dc565b6040805192835260208301919091528051918290030190f35b610232610757565b61023261075d565b6101e6600480360360208110156102a957600080fd5b5035610763565b6101e6600480360360208110156102c657600080fd5b5035610870565b6102f3600480360360208110156102e357600080fd5b50356001600160a01b03166109a8565b6040516000826003835b8184101561033d5760208402830151604080838360005b8381101561032c578181015183820152602001610314565b5050505090500192600101926102fd565b9250505091505060405180910390f35b6101e6610acc565b6103726004803603602081101561036b57600080fd5b5035610d94565b604080516001600160401b039889168152968816602088015294909616858501526060850192909252608084015260a083015260c082019290925290519081900360e00190f35b6101e6600480360360208110156103cf57600080fd5b50356001600160a01b0316610e37565b6101e6600480360360208110156103f557600080fd5b5035610ebb565b6104226004803603602081101561041257600080fd5b50356001600160a01b0316610fef565b604080519115158252519081900360200190f35b6101e66111a0565b61026a6004803603604081101561045457600080fd5b506001600160a01b03813516906020013561124c565b6101e66004803603606081101561048057600080fd5b506001600160a01b038135169060208101359060400135611279565b6101f0611380565b6101f061138f565b6104b461139e565b6040805160ff9092168252519081900360200190f35b6104226113a3565b6102326113ba565b6101e6600480360360408110156104f057600080fd5b50803590602001356001600160a01b03166113c1565b610232611502565b6101f0611508565b6101e66004803603602081101561052c57600080fd5b50356001600160a01b0316611520565b610232611623565b6101e66004803603602081101561055a57600080fd5b503561162a565b610569611763565b6001600160a01b031661057a611380565b6001600160a01b0316146105c3576040805162461bcd60e51b81526020600482018190526024820152600080516020612d80833981519152604482015290519081900360640190fd5b6201518081101561061b576040805162461bcd60e51b815260206004820152601f60248201527f76616c7565203c204d494e5f4645455f504552494f445f4455524154494f4e00604482015290519081900360640190fd5b624f1a00811115610673576040805162461bcd60e51b815260206004820152601f60248201527f76616c7565203e204d41585f4645455f504552494f445f4455524154494f4e00604482015290519081900360640190fd5b607a8190556040805182815290517f791bd58dd9719b5eb5ccdd6ec4d5c459b0ab8efcf59b723cf477693c0889eacd9181900360200190a150565b6065546001600160a01b031681565b6001600160a01b0381166000908152606760205260409020545b919050565b6000806106e7612bbd565b6106f0846109a8565b905060008060015b600381101561074b5761071d84826003811061071057fe5b6020020151518490611767565b925061074184826003811061072e57fe5b6020020151600160200201518390611767565b91506001016106f8565b50909350915050915091565b60695481565b607a5481565b600061076d6117ca565b6001600160a01b031633149050600080610785611886565b6001600160a01b03166316b2213f336040518263ffffffff1660e01b815260040180826001600160a01b0316815260200191505060206040518083038186803b1580156107d157600080fd5b505afa1580156107e5573d6000803e3d6000fd5b505050506040513d60208110156107fb57600080fd5b505114159050818061080a5750805b6108455760405162461bcd60e51b8152600401808060200182810382526021815260200180612da06021913960400191505060405180910390fd5b61085d836108536000611913565b6001015490611767565b6108676000611913565b60010155505050565b610878611763565b6001600160a01b0316610889611380565b6001600160a01b0316146108d2576040805162461bcd60e51b81526020600482018190526024820152600080516020612d80833981519152604482015290519081900360640190fd5b603281111561091d576040805162461bcd60e51b81526020600482015260126024820152710a8d0e4cae6d0ded8c840e8dede40d0d2ced60731b604482015290519081900360640190fd5b6109a2606461099c737Ad03fA3195761d2c4670DD9B01bcdeF63028DD363907af6c06040518163ffffffff1660e01b815260040160206040518083038186803b15801561096957600080fd5b505af415801561097d573d6000803e3d6000fd5b505050506040513d602081101561099357600080fd5b5051849061193d565b90611996565b607b5550565b6109b0612bbd565b6000806109be8460006119fd565b9092509050801580156109cf575081155b156109db5750506106d7565b6000806109ea60008585611a9e565b8651829052865160200181905290925090506000610a07876106bd565b905060025b8015610ac15760001981016000610a2282611913565b54600160401b90046001600160401b031690508015801590610a555750610a4883611913565b546001600160401b031684105b15610ab6576000610a67826001611b4b565b9050610a738b82611ba8565b9099509750610a83848a8a611a9e565b9097509550868a8560038110610a9557fe5b602002015152858a8560038110610aa857fe5b602002015160016020020152505b505060001901610a0c565b505050505050919050565b607a544203610adb6000611913565b54600160801b90046001600160401b03161115610b3f576040805162461bcd60e51b815260206004820152601d60248201527f546f6f206561726c7920746f20636c6f73652066656520706572696f64000000604482015290519081900360640190fd5b6000610b4b6001611913565b90506000610b596002611913565b9050610b848260010154610b7e83600201548460010154611b4b90919063ffffffff16565b90611767565b610b8e6001611913565b60010155600380830154600483015491830154610baf92610b7e9190611b4b565b610bb96001611913565b600390810191909155607954610be79190610be190600190610bdb9084611767565b90611b4b565b90611c89565b6079819055606a9060038110610bf957fe5b6005020180546001600160c01b0319168155600060018083018290556002830182905560038301829055600490920155610c4690610c3681611913565b546001600160401b031690611767565b610c506000611913565b805467ffffffffffffffff19166001600160401b0392909216919091179055610c77611886565b6001600160a01b031663cd92eba96040518163ffffffff1660e01b815260040160206040518083038186803b158015610caf57600080fd5b505afa158015610cc3573d6000803e3d6000fd5b505050506040513d6020811015610cd957600080fd5b5051610ce56000611913565b80546001600160401b0392909216600160401b026fffffffffffffffff00000000000000001990921691909117905542610d1f6000611913565b80546001600160401b0392909216600160801b0267ffffffffffffffff60801b199092169190911790557fe2ca356e01eb0a4bb7caaf07d472b7d687db156713ffc3111c758e9fe0a17ea7610d746001611913565b54604080516001600160401b039092168252519081900360200190a15050565b6000806000806000806000610da7612bea565b610db089611913565b6040805160e08101825282546001600160401b03808216808452600160401b8304821660208501819052600160801b909304909116938301849052600185015460608401819052600286015460808501819052600387015460a0860181905260049097015460c0909501859052919f929e50939c50929a5091985091965090945092505050565b610e3f611763565b6001600160a01b0316610e50611380565b6001600160a01b031614610e99576040805162461bcd60e51b81526020600482018190526024820152600080516020612d80833981519152604482015290519081900360640190fd5b606580546001600160a01b0319166001600160a01b0392909216919091179055565b610ec3611763565b6001600160a01b0316610ed4611380565b6001600160a01b031614610f1d576040805162461bcd60e51b81526020600482018190526024820152600080516020612d80833981519152604482015290519081900360640190fd5b600a737Ad03fA3195761d2c4670DD9B01bcdeF63028DD363907af6c06040518163ffffffff1660e01b815260040160206040518083038186803b158015610f6357600080fd5b505af4158015610f77573d6000803e3d6000fd5b505050506040513d6020811015610f8d57600080fd5b505181610f9657fe5b048110610fea576040805162461bcd60e51b815260206004820152601c60248201527f72617465203c204d41585f45584348414e47455f4645455f5241544500000000604482015290519081900360640190fd5b606955565b600080610ffa611886565b6001600160a01b031663a311c7c2846040518263ffffffff1660e01b815260040180826001600160a01b0316815260200191505060206040518083038186803b15801561104657600080fd5b505afa15801561105a573d6000803e3d6000fd5b505050506040513d602081101561107057600080fd5b50519050600061107e611886565b6001600160a01b031663b410a0346040518163ffffffff1660e01b815260040160206040518083038186803b1580156110b657600080fd5b505afa1580156110ca573d6000803e3d6000fd5b505050506040513d60208110156110e057600080fd5b50519050808210156110f7576001925050506106d7565b600061117f611178607b54737Ad03fA3195761d2c4670DD9B01bcdeF63028DD363907af6c06040518163ffffffff1660e01b815260040160206040518083038186803b15801561114657600080fd5b505af415801561115a573d6000803e3d6000fd5b505050506040513d602081101561117057600080fd5b505190611767565b8390611cf0565b90508083111561119557600093505050506106d7565b506001949350505050565b6111a8611763565b6001600160a01b03166111b9611380565b6001600160a01b031614611202576040805162461bcd60e51b81526020600482018190526024820152600080516020612d80833981519152604482015290519081900360640190fd5b6033546040516000916001600160a01b0316907f8be0079c531659141344cd1fd0a4f28419497f9722a3daafe3b4186f6b6457e0908390a3603380546001600160a01b0319169055565b6068602052816000526040600020816003811061126557fe5b600202018054600190910154909250905082565b611281611886565b6001600160a01b0316336001600160a01b0316146112e6576040805162461bcd60e51b815260206004820152601f60248201527f466565506f6f6c3a204f6e6c792049737375657220417574686f726973656400604482015290519081900360640190fd5b61130c8383836112f66000611913565b54600160401b90046001600160401b0316611d0c565b7f28dcdf40e6b6196065d54760038ab1a8c0c1d9cfa58a99e6b0cb6022f7e2477583838361133a6000611913565b54604080516001600160a01b0390951685526020850193909352838301919091526001600160401b03600160401b909104166060830152519081900360800190a1505050565b6033546001600160a01b031690565b6066546001600160a01b031681565b600381565b60006113b56113b0611763565b611d5c565b905090565b6201518081565b600054610100900460ff16806113da57506113da611ebb565b806113e8575060005460ff16155b6114235760405162461bcd60e51b815260040180806020018281038252602e815260200180612d31602e913960400191505060405180910390fd5b600054610100900460ff1615801561144e576000805460ff1961ff0019909116610100171660011790555b611456611ecc565b61145f82611f7e565b62093a80607a819055506064737Ad03fA3195761d2c4670DD9B01bcdeF63028DD363907af6c06040518163ffffffff1660e01b815260040160206040518083038186803b1580156114af57600080fd5b505af41580156114c3573d6000803e3d6000fd5b505050506040513d60208110156114d957600080fd5b5051816114e257fe5b04607a55606983905580156114fd576000805461ff00191690555b505050565b607b5481565b7343707c6bb6202a5e1007356539a925c052ea976781565b611528611763565b6001600160a01b0316611539611380565b6001600160a01b031614611582576040805162461bcd60e51b81526020600482018190526024820152600080516020612d80833981519152604482015290519081900360640190fd5b6001600160a01b0381166115c75760405162461bcd60e51b8152600401808060200182810382526026815260200180612ca86026913960400191505060405180910390fd5b6033546040516001600160a01b038084169216907f8be0079c531659141344cd1fd0a4f28419497f9722a3daafe3b4186f6b6457e090600090a3603380546001600160a01b0319166001600160a01b0392909216919091179055565b624f1a0081565b606554604080516321f8a72160e01b8152722932bbb0b93239a234b9ba3934b13aba34b7b760691b600482015290516000926001600160a01b0316916321f8a721916024808301926020929190829003018186803b15801561168b57600080fd5b505afa15801561169f573d6000803e3d6000fd5b505050506040513d60208110156116b557600080fd5b505190506001600160a01b0381166116cb611763565b6001600160a01b031614806116e85750336001600160a01b038216145b611739576040805162461bcd60e51b815260206004820152601e60248201527f43616c6c6572206973206e6f742072657761726473417574686f726974790000604482015290519081900360640190fd5b611751826117476000611913565b6003015490611767565b61175b6000611913565b600301555050565b3390565b6000828201838110156117c1576040805162461bcd60e51b815260206004820152601b60248201527f536166654d6174683a206164646974696f6e206f766572666c6f770000000000604482015290519081900360640190fd5b90505b92915050565b6065546040805163dacb2d0160e01b81526822bc31b430b733b2b960b91b600482015260248101829052601960448201527f4d697373696e672045786368616e676572206164647265737300000000000000606482015290516000926001600160a01b03169163dacb2d01916084808301926020929190829003018186803b15801561185557600080fd5b505afa158015611869573d6000803e3d6000fd5b505050506040513d602081101561187f57600080fd5b5051905090565b6065546040805163dacb2d0160e01b81526a29bcb73a3432b9b4bd32b960a91b600482015260248101829052601b60448201527f4d697373696e672053796e74686573697a657220616464726573730000000000606482015290516000926001600160a01b03169163dacb2d01916084808301926020929190829003018186803b15801561185557600080fd5b6000606a600360ff1683607954018161192857fe5b066003811061193357fe5b6005020192915050565b60008261194c575060006117c4565b8282028284828161195957fe5b04146117c15760405162461bcd60e51b8152600401808060200182810382526021815260200180612d5f6021913960400191505060405180910390fd5b60008082116119ec576040805162461bcd60e51b815260206004820152601a60248201527f536166654d6174683a206469766973696f6e206279207a65726f000000000000604482015290519081900360640190fd5b8183816119f557fe5b049392505050565b60008060038310611a3f5760405162461bcd60e51b8152600401808060200182810382526023815260200180612cce6023913960400191505060405180910390fd5b6001600160a01b03841660009081526068602052604090208360038110611a6257fe5b60020201546001600160a01b03851660009081526068602052604090209092508360038110611a8d57fe5b600202016001015490509250929050565b60008083611ab157506000905080611b43565b838515611af3576000611ae26001611acb60018a03611913565b54600160401b90046001600160401b031690611b4b565b9050611aef818787612032565b9150505b6000611b0c82611b0289611913565b6001015490611cf0565b90506000611b2783611b1d8a611913565b6003015490611cf0565b9050611b328261213f565b611b3b8261213f565b945094505050505b935093915050565b600082821115611ba2576040805162461bcd60e51b815260206004820152601e60248201527f536166654d6174683a207375627472616374696f6e206f766572666c6f770000604482015290519081900360640190fd5b50900390565b600080611bb3612c42565b6001600160a01b0385166000908152606860205260408082208151606081019092529091600390835b82821015611c18578382600202016040518060400160405290816000820154815260200160018201548152505081526020019060010190611bdc565b50505050905060005b6003811015611c7f57818160038110611c3657fe5b6020020151602001518510611c7757818160038110611c5157fe5b602002015151828260038110611c6357fe5b602002015160200151935093505050611c82565b600101611c21565b50505b9250929050565b6000808211611cdf576040805162461bcd60e51b815260206004820152601860248201527f536166654d6174683a206d6f64756c6f206279207a65726f0000000000000000604482015290519081900360640190fd5b818381611ce857fe5b069392505050565b6000670de0b6b3a7640000611d05848461193d565b816119f557fe5b6001600160a01b038416600090815260686020526040902060010154811115611d3857611d3884612161565b506001600160a01b0392909216600090815260686020526040902090815560010155565b600080808080611d6b86610fef565b611dbc576040805162461bcd60e51b815260206004820152601f60248201527f432d526174696f2062656c6f772070656e616c7479207468726573686f6c6400604482015290519081900360640190fd5b611dc5866106dc565b909250905081151580611dd85750600081115b611e135760405162461bcd60e51b8152600401808060200182810382526040815260200180612cf16040913960400191505060405180910390fd5b611e3086611e216001611913565b546001600160401b031661222f565b8115611e4b57611e3f8261224b565b9250611e4b868461230f565b8015611e6657611e5a81612584565b9350611e668685612646565b604080516001600160a01b03881681526020810185905280820186905290517f1ac537f0ad67b64ac68a04587ff3a4cb6977de22eb2c37ee560897a92c6d07c79181900360600190a150600195945050505050565b6000611ec63061284a565b15905090565b600054610100900460ff1680611ee55750611ee5611ebb565b80611ef3575060005460ff16155b611f2e5760405162461bcd60e51b815260040180806020018281038252602e815260200180612d31602e913960400191505060405180910390fd5b600054610100900460ff16158015611f59576000805460ff1961ff0019909116610100171660011790555b611f61612850565b611f696128f0565b8015611f7b576000805461ff00191690555b50565b600054610100900460ff1680611f975750611f97611ebb565b80611fa5575060005460ff16155b611fe05760405162461bcd60e51b815260040180806020018281038252602e815260200180612d31602e913960400191505060405180910390fd5b600054610100900460ff1615801561200b576000805460ff1961ff0019909116610100171660011790555b612013611ecc565b61201c826129e9565b801561202e576000805461ff00191690555b5050565b60008061213684612130612044611886565b6001600160a01b03166308d95cd5876040518263ffffffff1660e01b81526004018082815260200191505060206040518083038186803b15801561208757600080fd5b505afa15801561209b573d6000803e3d6000fd5b505050506040513d60208110156120b157600080fd5b50516120bb611886565b6001600160a01b03166308d95cd58a6040518263ffffffff1660e01b81526004018082815260200191505060206040518083038186803b1580156120fe57600080fd5b505afa158015612112573d6000803e3d6000fd5b505050506040513d602081101561212857600080fd5b505190612aa6565b90612abf565b95945050505050565b60006305f5e10082046005600a82061061215757600a015b600a900492915050565b60015b600381101561202e576001600160a01b03821660009081526068602052604090206001820190826003811061219557fe5b60020201546001600160a01b038416600090815260686020526040902082600381106121bd57fe5b60020201556001600160a01b038316600090815260686020526040902082600381106121e557fe5b600202016001015460686000856001600160a01b03166001600160a01b03168152602001908152602001600020826003811061221d57fe5b60020201600101555060001901612164565b6001600160a01b03909116600090815260676020526040902055565b6000818160025b600381101561230757600061226682611913565b60020154905060006122858261227b85611913565b6001015490611b4b565b905080156122fc57600085821061229c578561229e565b815b90506122aa8382611767565b6122b385611913565b600201556122c18682611b4b565b95506122cd8582611767565b9450856122e2578496505050505050506106d7565b831580156122f05750600086115b156122fa57600095505b505b505060001901612252565b509392505050565b816001600160a01b0381167343707c6bb6202a5e1007356539a925c052ea9767141561237c576040805162461bcd60e51b8152602060048201526017602482015276119959481859191c995cdcc81b9bdd08185b1b1bddd959604a1b604482015290519081900360640190fd5b6001600160a01b03831615158061239c57506001600160a01b0383163014155b806123c057506123aa611886565b6001600160a01b0316836001600160a01b031614155b612411576040805162461bcd60e51b815260206004820152601f60248201527f43616e27742073656e64206665657320746f2074686973206164647265737300604482015290519081900360640190fd5b600061241b611886565b6001600160a01b03166332608039631e1554d160e21b6040518263ffffffff1660e01b81526004018082815260200191505060206040518083038186803b15801561246557600080fd5b505afa158015612479573d6000803e3d6000fd5b505050506040513d602081101561248f57600080fd5b505160408051632770a7eb60e21b81527343707c6bb6202a5e1007356539a925c052ea976760048201526024810186905290519192506001600160a01b03831691639dc29fac9160448082019260009290919082900301818387803b1580156124f757600080fd5b505af115801561250b573d6000803e3d6000fd5b50505050806001600160a01b031663867904b485856040518363ffffffff1660e01b815260040180836001600160a01b0316815260200182815260200192505050600060405180830381600087803b15801561256657600080fd5b505af115801561257a573d6000803e3d6000fd5b5050505050505050565b6000818160025b60038110156123075760006125b96125a283611913565b600401546125af84611913565b6003015490611b4b565b9050801561263c5760008482106125d057846125d2565b815b90506125eb816125e185611913565b6004015490611767565b6125f484611913565b600401556126028582611b4b565b945061260e8482611767565b9350846126225783955050505050506106d7565b821580156126305750600085115b1561263a57600094505b505b506000190161258b565b816001600160a01b0381167343707c6bb6202a5e1007356539a925c052ea976714156126b3576040805162461bcd60e51b8152602060048201526017602482015276119959481859191c995cdcc81b9bdd08185b1b1bddd959604a1b604482015290519081900360640190fd5b6001600160a01b038316612703576040805162461bcd60e51b815260206004820152601260248201527104163636f756e742063616e277420626520360741b604482015290519081900360640190fd5b6001600160a01b038316301415612761576040805162461bcd60e51b815260206004820152601e60248201527f43616e27742073656e64207265776172647320746f2066656520706f6f6c0000604482015290519081900360640190fd5b612769611886565b6001600160a01b0316836001600160a01b031614156127cf576040805162461bcd60e51b815260206004820152601d60248201527f43616e27742073656e64207265776172647320746f20736861646f7773000000604482015290519081900360640190fd5b6127d7612ad8565b6001600160a01b031663b5ddb9c784846040518363ffffffff1660e01b815260040180836001600160a01b0316815260200182815260200192505050600060405180830381600087803b15801561282d57600080fd5b505af1158015612841573d6000803e3d6000fd5b50505050505050565b3b151590565b600054610100900460ff16806128695750612869611ebb565b80612877575060005460ff16155b6128b25760405162461bcd60e51b815260040180806020018281038252602e815260200180612d31602e913960400191505060405180910390fd5b600054610100900460ff16158015611f69576000805460ff1961ff0019909116610100171660011790558015611f7b576000805461ff001916905550565b600054610100900460ff16806129095750612909611ebb565b80612917575060005460ff16155b6129525760405162461bcd60e51b815260040180806020018281038252602e815260200180612d31602e913960400191505060405180910390fd5b600054610100900460ff1615801561297d576000805460ff1961ff0019909116610100171660011790555b6000612987611763565b603380546001600160a01b0319166001600160a01b038316908117909155604051919250906000907f8be0079c531659141344cd1fd0a4f28419497f9722a3daafe3b4186f6b6457e0908290a3508015611f7b576000805461ff001916905550565b600054610100900460ff1680612a025750612a02611ebb565b80612a10575060005460ff16155b612a4b5760405162461bcd60e51b815260040180806020018281038252602e815260200180612d31602e913960400191505060405180910390fd5b600054610100900460ff16158015612a76576000805460ff1961ff0019909116610100171660011790555b606580546001600160a01b0319166001600160a01b038416179055801561202e576000805461ff00191690555050565b60006117c183836b033b2e3c9fd0803ce8000000612b66565b60006117c183836b033b2e3c9fd0803ce8000000612b98565b6065546040805163dacb2d0160e01b81526b526577617264457363726f7760a01b600482015260248101829052601c60448201527f4d697373696e6720526577617264457363726f77206164647265737300000000606482015290516000926001600160a01b03169163dacb2d01916084808301926020929190829003018186803b15801561185557600080fd5b600080612b7a8461099c87600a870261193d565b90506005600a825b0610612b8c57600a015b600a9004949350505050565b600080600a8304612ba9868661193d565b81612bb057fe5b0490506005600a82612b82565b60405180606001604052806003905b612bd4612c6f565b815260200190600190039081612bcc5790505090565b6040518060e0016040528060006001600160401b0316815260200160006001600160401b0316815260200160006001600160401b03168152602001600081526020016000815260200160008152602001600081525090565b60405180606001604052806003905b612c59612c8d565b815260200190600190039081612c515790505090565b60405180604001604052806002906020820280368337509192915050565b60405180604001604052806000815260200160008152509056fe4f776e61626c653a206e6577206f776e657220697320746865207a65726f2061646472657373696e646578206578636565647320746865204645455f504552494f445f4c454e4754484e6f2066656573206f72207265776172647320617661696c61626c6520666f7220706572696f642c206f72206665657320616c726561647920636c61696d6564496e697469616c697a61626c653a20636f6e747261637420697320616c726561647920696e697469616c697a6564536166654d6174683a206d756c7469706c69636174696f6e206f766572666c6f774f776e61626c653a2063616c6c6572206973206e6f7420746865206f776e65724f6e6c792045786368616e6765722c2053796e74687320417574686f7269736564a26469706673582212204bbdce7c75fe22b06852cc0232868c047453fe3d7f378e666a3b660144c19c1a64736f6c63430007010033",
  "deployedBytecode": "0x608060405234801561001057600080fd5b50600436106101c45760003560e01c8063715018a6116100f9578063d62ae39911610097578063eb1edd6111610071578063eb1edd611461050e578063f2fde38b14610516578063f344da671461053c578063fd1f498d14610544576101c4565b8063d62ae399146104d2578063da35a26f146104da578063e0e6393d14610506576101c4565b80638da5cb5b116100d35780638da5cb5b1461049c578063ae2e933b146104a4578063cff2ddad146104ac578063d294f093146104ca576101c4565b8063715018a6146104365780637de655451461043e578063866452741461046a576101c4565b80632cce0e54116101665780633fcd2240116101405780633fcd2240146103555780634e543b26146103b9578063578a791d146103df57806359a2f19f146103fc576101c4565b80632cce0e54146102b057806333140016146102cd5780633ebc457a1461034d576101c4565b80630de58615116101a25780630de58615146102445780630f9b49551461028357806322425fa41461028b57806322bf55ef14610293576101c4565b806304c49f2c146101c957806304f3bcec146101e857806307ea50cd1461020c575b600080fd5b6101e6600480360360208110156101df57600080fd5b5035610561565b005b6101f06106ae565b604080516001600160a01b039092168252519081900360200190f35b6102326004803603602081101561022257600080fd5b50356001600160a01b03166106bd565b60408051918252519081900360200190f35b61026a6004803603602081101561025a57600080fd5b50356001600160a01b03166106dc565b6040805192835260208301919091528051918290030190f35b610232610757565b61023261075d565b6101e6600480360360208110156102a957600080fd5b5035610763565b6101e6600480360360208110156102c657600080fd5b5035610870565b6102f3600480360360208110156102e357600080fd5b50356001600160a01b03166109a8565b6040516000826003835b8184101561033d5760208402830151604080838360005b8381101561032c578181015183820152602001610314565b5050505090500192600101926102fd565b9250505091505060405180910390f35b6101e6610acc565b6103726004803603602081101561036b57600080fd5b5035610d94565b604080516001600160401b039889168152968816602088015294909616858501526060850192909252608084015260a083015260c082019290925290519081900360e00190f35b6101e6600480360360208110156103cf57600080fd5b50356001600160a01b0316610e37565b6101e6600480360360208110156103f557600080fd5b5035610ebb565b6104226004803603602081101561041257600080fd5b50356001600160a01b0316610fef565b604080519115158252519081900360200190f35b6101e66111a0565b61026a6004803603604081101561045457600080fd5b506001600160a01b03813516906020013561124c565b6101e66004803603606081101561048057600080fd5b506001600160a01b038135169060208101359060400135611279565b6101f0611380565b6101f061138f565b6104b461139e565b6040805160ff9092168252519081900360200190f35b6104226113a3565b6102326113ba565b6101e6600480360360408110156104f057600080fd5b50803590602001356001600160a01b03166113c1565b610232611502565b6101f0611508565b6101e66004803603602081101561052c57600080fd5b50356001600160a01b0316611520565b610232611623565b6101e66004803603602081101561055a57600080fd5b503561162a565b610569611763565b6001600160a01b031661057a611380565b6001600160a01b0316146105c3576040805162461bcd60e51b81526020600482018190526024820152600080516020612d80833981519152604482015290519081900360640190fd5b6201518081101561061b576040805162461bcd60e51b815260206004820152601f60248201527f76616c7565203c204d494e5f4645455f504552494f445f4455524154494f4e00604482015290519081900360640190fd5b624f1a00811115610673576040805162461bcd60e51b815260206004820152601f60248201527f76616c7565203e204d41585f4645455f504552494f445f4455524154494f4e00604482015290519081900360640190fd5b607a8190556040805182815290517f791bd58dd9719b5eb5ccdd6ec4d5c459b0ab8efcf59b723cf477693c0889eacd9181900360200190a150565b6065546001600160a01b031681565b6001600160a01b0381166000908152606760205260409020545b919050565b6000806106e7612bbd565b6106f0846109a8565b905060008060015b600381101561074b5761071d84826003811061071057fe5b6020020151518490611767565b925061074184826003811061072e57fe5b6020020151600160200201518390611767565b91506001016106f8565b50909350915050915091565b60695481565b607a5481565b600061076d6117ca565b6001600160a01b031633149050600080610785611886565b6001600160a01b03166316b2213f336040518263ffffffff1660e01b815260040180826001600160a01b0316815260200191505060206040518083038186803b1580156107d157600080fd5b505afa1580156107e5573d6000803e3d6000fd5b505050506040513d60208110156107fb57600080fd5b505114159050818061080a5750805b6108455760405162461bcd60e51b8152600401808060200182810382526021815260200180612da06021913960400191505060405180910390fd5b61085d836108536000611913565b6001015490611767565b6108676000611913565b60010155505050565b610878611763565b6001600160a01b0316610889611380565b6001600160a01b0316146108d2576040805162461bcd60e51b81526020600482018190526024820152600080516020612d80833981519152604482015290519081900360640190fd5b603281111561091d576040805162461bcd60e51b81526020600482015260126024820152710a8d0e4cae6d0ded8c840e8dede40d0d2ced60731b604482015290519081900360640190fd5b6109a2606461099c73__$22e4fd0786f9bb9222b95fc3343146c524$__63907af6c06040518163ffffffff1660e01b815260040160206040518083038186803b15801561096957600080fd5b505af415801561097d573d6000803e3d6000fd5b505050506040513d602081101561099357600080fd5b5051849061193d565b90611996565b607b5550565b6109b0612bbd565b6000806109be8460006119fd565b9092509050801580156109cf575081155b156109db5750506106d7565b6000806109ea60008585611a9e565b8651829052865160200181905290925090506000610a07876106bd565b905060025b8015610ac15760001981016000610a2282611913565b54600160401b90046001600160401b031690508015801590610a555750610a4883611913565b546001600160401b031684105b15610ab6576000610a67826001611b4b565b9050610a738b82611ba8565b9099509750610a83848a8a611a9e565b9097509550868a8560038110610a9557fe5b602002015152858a8560038110610aa857fe5b602002015160016020020152505b505060001901610a0c565b505050505050919050565b607a544203610adb6000611913565b54600160801b90046001600160401b03161115610b3f576040805162461bcd60e51b815260206004820152601d60248201527f546f6f206561726c7920746f20636c6f73652066656520706572696f64000000604482015290519081900360640190fd5b6000610b4b6001611913565b90506000610b596002611913565b9050610b848260010154610b7e83600201548460010154611b4b90919063ffffffff16565b90611767565b610b8e6001611913565b60010155600380830154600483015491830154610baf92610b7e9190611b4b565b610bb96001611913565b600390810191909155607954610be79190610be190600190610bdb9084611767565b90611b4b565b90611c89565b6079819055606a9060038110610bf957fe5b6005020180546001600160c01b0319168155600060018083018290556002830182905560038301829055600490920155610c4690610c3681611913565b546001600160401b031690611767565b610c506000611913565b805467ffffffffffffffff19166001600160401b0392909216919091179055610c77611886565b6001600160a01b031663cd92eba96040518163ffffffff1660e01b815260040160206040518083038186803b158015610caf57600080fd5b505afa158015610cc3573d6000803e3d6000fd5b505050506040513d6020811015610cd957600080fd5b5051610ce56000611913565b80546001600160401b0392909216600160401b026fffffffffffffffff00000000000000001990921691909117905542610d1f6000611913565b80546001600160401b0392909216600160801b0267ffffffffffffffff60801b199092169190911790557fe2ca356e01eb0a4bb7caaf07d472b7d687db156713ffc3111c758e9fe0a17ea7610d746001611913565b54604080516001600160401b039092168252519081900360200190a15050565b6000806000806000806000610da7612bea565b610db089611913565b6040805160e08101825282546001600160401b03808216808452600160401b8304821660208501819052600160801b909304909116938301849052600185015460608401819052600286015460808501819052600387015460a0860181905260049097015460c0909501859052919f929e50939c50929a5091985091965090945092505050565b610e3f611763565b6001600160a01b0316610e50611380565b6001600160a01b031614610e99576040805162461bcd60e51b81526020600482018190526024820152600080516020612d80833981519152604482015290519081900360640190fd5b606580546001600160a01b0319166001600160a01b0392909216919091179055565b610ec3611763565b6001600160a01b0316610ed4611380565b6001600160a01b031614610f1d576040805162461bcd60e51b81526020600482018190526024820152600080516020612d80833981519152604482015290519081900360640190fd5b600a73__$22e4fd0786f9bb9222b95fc3343146c524$__63907af6c06040518163ffffffff1660e01b815260040160206040518083038186803b158015610f6357600080fd5b505af4158015610f77573d6000803e3d6000fd5b505050506040513d6020811015610f8d57600080fd5b505181610f9657fe5b048110610fea576040805162461bcd60e51b815260206004820152601c60248201527f72617465203c204d41585f45584348414e47455f4645455f5241544500000000604482015290519081900360640190fd5b606955565b600080610ffa611886565b6001600160a01b031663a311c7c2846040518263ffffffff1660e01b815260040180826001600160a01b0316815260200191505060206040518083038186803b15801561104657600080fd5b505afa15801561105a573d6000803e3d6000fd5b505050506040513d602081101561107057600080fd5b50519050600061107e611886565b6001600160a01b031663b410a0346040518163ffffffff1660e01b815260040160206040518083038186803b1580156110b657600080fd5b505afa1580156110ca573d6000803e3d6000fd5b505050506040513d60208110156110e057600080fd5b50519050808210156110f7576001925050506106d7565b600061117f611178607b5473__$22e4fd0786f9bb9222b95fc3343146c524$__63907af6c06040518163ffffffff1660e01b815260040160206040518083038186803b15801561114657600080fd5b505af415801561115a573d6000803e3d6000fd5b505050506040513d602081101561117057600080fd5b505190611767565b8390611cf0565b90508083111561119557600093505050506106d7565b506001949350505050565b6111a8611763565b6001600160a01b03166111b9611380565b6001600160a01b031614611202576040805162461bcd60e51b81526020600482018190526024820152600080516020612d80833981519152604482015290519081900360640190fd5b6033546040516000916001600160a01b0316907f8be0079c531659141344cd1fd0a4f28419497f9722a3daafe3b4186f6b6457e0908390a3603380546001600160a01b0319169055565b6068602052816000526040600020816003811061126557fe5b600202018054600190910154909250905082565b611281611886565b6001600160a01b0316336001600160a01b0316146112e6576040805162461bcd60e51b815260206004820152601f60248201527f466565506f6f6c3a204f6e6c792049737375657220417574686f726973656400604482015290519081900360640190fd5b61130c8383836112f66000611913565b54600160401b90046001600160401b0316611d0c565b7f28dcdf40e6b6196065d54760038ab1a8c0c1d9cfa58a99e6b0cb6022f7e2477583838361133a6000611913565b54604080516001600160a01b0390951685526020850193909352838301919091526001600160401b03600160401b909104166060830152519081900360800190a1505050565b6033546001600160a01b031690565b6066546001600160a01b031681565b600381565b60006113b56113b0611763565b611d5c565b905090565b6201518081565b600054610100900460ff16806113da57506113da611ebb565b806113e8575060005460ff16155b6114235760405162461bcd60e51b815260040180806020018281038252602e815260200180612d31602e913960400191505060405180910390fd5b600054610100900460ff1615801561144e576000805460ff1961ff0019909116610100171660011790555b611456611ecc565b61145f82611f7e565b62093a80607a81905550606473__$22e4fd0786f9bb9222b95fc3343146c524$__63907af6c06040518163ffffffff1660e01b815260040160206040518083038186803b1580156114af57600080fd5b505af41580156114c3573d6000803e3d6000fd5b505050506040513d60208110156114d957600080fd5b5051816114e257fe5b04607a55606983905580156114fd576000805461ff00191690555b505050565b607b5481565b7343707c6bb6202a5e1007356539a925c052ea976781565b611528611763565b6001600160a01b0316611539611380565b6001600160a01b031614611582576040805162461bcd60e51b81526020600482018190526024820152600080516020612d80833981519152604482015290519081900360640190fd5b6001600160a01b0381166115c75760405162461bcd60e51b8152600401808060200182810382526026815260200180612ca86026913960400191505060405180910390fd5b6033546040516001600160a01b038084169216907f8be0079c531659141344cd1fd0a4f28419497f9722a3daafe3b4186f6b6457e090600090a3603380546001600160a01b0319166001600160a01b0392909216919091179055565b624f1a0081565b606554604080516321f8a72160e01b8152722932bbb0b93239a234b9ba3934b13aba34b7b760691b600482015290516000926001600160a01b0316916321f8a721916024808301926020929190829003018186803b15801561168b57600080fd5b505afa15801561169f573d6000803e3d6000fd5b505050506040513d60208110156116b557600080fd5b505190506001600160a01b0381166116cb611763565b6001600160a01b031614806116e85750336001600160a01b038216145b611739576040805162461bcd60e51b815260206004820152601e60248201527f43616c6c6572206973206e6f742072657761726473417574686f726974790000604482015290519081900360640190fd5b611751826117476000611913565b6003015490611767565b61175b6000611913565b600301555050565b3390565b6000828201838110156117c1576040805162461bcd60e51b815260206004820152601b60248201527f536166654d6174683a206164646974696f6e206f766572666c6f770000000000604482015290519081900360640190fd5b90505b92915050565b6065546040805163dacb2d0160e01b81526822bc31b430b733b2b960b91b600482015260248101829052601960448201527f4d697373696e672045786368616e676572206164647265737300000000000000606482015290516000926001600160a01b03169163dacb2d01916084808301926020929190829003018186803b15801561185557600080fd5b505afa158015611869573d6000803e3d6000fd5b505050506040513d602081101561187f57600080fd5b5051905090565b6065546040805163dacb2d0160e01b81526a29bcb73a3432b9b4bd32b960a91b600482015260248101829052601b60448201527f4d697373696e672053796e74686573697a657220616464726573730000000000606482015290516000926001600160a01b03169163dacb2d01916084808301926020929190829003018186803b15801561185557600080fd5b6000606a600360ff1683607954018161192857fe5b066003811061193357fe5b6005020192915050565b60008261194c575060006117c4565b8282028284828161195957fe5b04146117c15760405162461bcd60e51b8152600401808060200182810382526021815260200180612d5f6021913960400191505060405180910390fd5b60008082116119ec576040805162461bcd60e51b815260206004820152601a60248201527f536166654d6174683a206469766973696f6e206279207a65726f000000000000604482015290519081900360640190fd5b8183816119f557fe5b049392505050565b60008060038310611a3f5760405162461bcd60e51b8152600401808060200182810382526023815260200180612cce6023913960400191505060405180910390fd5b6001600160a01b03841660009081526068602052604090208360038110611a6257fe5b60020201546001600160a01b03851660009081526068602052604090209092508360038110611a8d57fe5b600202016001015490509250929050565b60008083611ab157506000905080611b43565b838515611af3576000611ae26001611acb60018a03611913565b54600160401b90046001600160401b031690611b4b565b9050611aef818787612032565b9150505b6000611b0c82611b0289611913565b6001015490611cf0565b90506000611b2783611b1d8a611913565b6003015490611cf0565b9050611b328261213f565b611b3b8261213f565b945094505050505b935093915050565b600082821115611ba2576040805162461bcd60e51b815260206004820152601e60248201527f536166654d6174683a207375627472616374696f6e206f766572666c6f770000604482015290519081900360640190fd5b50900390565b600080611bb3612c42565b6001600160a01b0385166000908152606860205260408082208151606081019092529091600390835b82821015611c18578382600202016040518060400160405290816000820154815260200160018201548152505081526020019060010190611bdc565b50505050905060005b6003811015611c7f57818160038110611c3657fe5b6020020151602001518510611c7757818160038110611c5157fe5b602002015151828260038110611c6357fe5b602002015160200151935093505050611c82565b600101611c21565b50505b9250929050565b6000808211611cdf576040805162461bcd60e51b815260206004820152601860248201527f536166654d6174683a206d6f64756c6f206279207a65726f0000000000000000604482015290519081900360640190fd5b818381611ce857fe5b069392505050565b6000670de0b6b3a7640000611d05848461193d565b816119f557fe5b6001600160a01b038416600090815260686020526040902060010154811115611d3857611d3884612161565b506001600160a01b0392909216600090815260686020526040902090815560010155565b600080808080611d6b86610fef565b611dbc576040805162461bcd60e51b815260206004820152601f60248201527f432d526174696f2062656c6f772070656e616c7479207468726573686f6c6400604482015290519081900360640190fd5b611dc5866106dc565b909250905081151580611dd85750600081115b611e135760405162461bcd60e51b8152600401808060200182810382526040815260200180612cf16040913960400191505060405180910390fd5b611e3086611e216001611913565b546001600160401b031661222f565b8115611e4b57611e3f8261224b565b9250611e4b868461230f565b8015611e6657611e5a81612584565b9350611e668685612646565b604080516001600160a01b03881681526020810185905280820186905290517f1ac537f0ad67b64ac68a04587ff3a4cb6977de22eb2c37ee560897a92c6d07c79181900360600190a150600195945050505050565b6000611ec63061284a565b15905090565b600054610100900460ff1680611ee55750611ee5611ebb565b80611ef3575060005460ff16155b611f2e5760405162461bcd60e51b815260040180806020018281038252602e815260200180612d31602e913960400191505060405180910390fd5b600054610100900460ff16158015611f59576000805460ff1961ff0019909116610100171660011790555b611f61612850565b611f696128f0565b8015611f7b576000805461ff00191690555b50565b600054610100900460ff1680611f975750611f97611ebb565b80611fa5575060005460ff16155b611fe05760405162461bcd60e51b815260040180806020018281038252602e815260200180612d31602e913960400191505060405180910390fd5b600054610100900460ff1615801561200b576000805460ff1961ff0019909116610100171660011790555b612013611ecc565b61201c826129e9565b801561202e576000805461ff00191690555b5050565b60008061213684612130612044611886565b6001600160a01b03166308d95cd5876040518263ffffffff1660e01b81526004018082815260200191505060206040518083038186803b15801561208757600080fd5b505afa15801561209b573d6000803e3d6000fd5b505050506040513d60208110156120b157600080fd5b50516120bb611886565b6001600160a01b03166308d95cd58a6040518263ffffffff1660e01b81526004018082815260200191505060206040518083038186803b1580156120fe57600080fd5b505afa158015612112573d6000803e3d6000fd5b505050506040513d602081101561212857600080fd5b505190612aa6565b90612abf565b95945050505050565b60006305f5e10082046005600a82061061215757600a015b600a900492915050565b60015b600381101561202e576001600160a01b03821660009081526068602052604090206001820190826003811061219557fe5b60020201546001600160a01b038416600090815260686020526040902082600381106121bd57fe5b60020201556001600160a01b038316600090815260686020526040902082600381106121e557fe5b600202016001015460686000856001600160a01b03166001600160a01b03168152602001908152602001600020826003811061221d57fe5b60020201600101555060001901612164565b6001600160a01b03909116600090815260676020526040902055565b6000818160025b600381101561230757600061226682611913565b60020154905060006122858261227b85611913565b6001015490611b4b565b905080156122fc57600085821061229c578561229e565b815b90506122aa8382611767565b6122b385611913565b600201556122c18682611b4b565b95506122cd8582611767565b9450856122e2578496505050505050506106d7565b831580156122f05750600086115b156122fa57600095505b505b505060001901612252565b509392505050565b816001600160a01b0381167343707c6bb6202a5e1007356539a925c052ea9767141561237c576040805162461bcd60e51b8152602060048201526017602482015276119959481859191c995cdcc81b9bdd08185b1b1bddd959604a1b604482015290519081900360640190fd5b6001600160a01b03831615158061239c57506001600160a01b0383163014155b806123c057506123aa611886565b6001600160a01b0316836001600160a01b031614155b612411576040805162461bcd60e51b815260206004820152601f60248201527f43616e27742073656e64206665657320746f2074686973206164647265737300604482015290519081900360640190fd5b600061241b611886565b6001600160a01b03166332608039631e1554d160e21b6040518263ffffffff1660e01b81526004018082815260200191505060206040518083038186803b15801561246557600080fd5b505afa158015612479573d6000803e3d6000fd5b505050506040513d602081101561248f57600080fd5b505160408051632770a7eb60e21b81527343707c6bb6202a5e1007356539a925c052ea976760048201526024810186905290519192506001600160a01b03831691639dc29fac9160448082019260009290919082900301818387803b1580156124f757600080fd5b505af115801561250b573d6000803e3d6000fd5b50505050806001600160a01b031663867904b485856040518363ffffffff1660e01b815260040180836001600160a01b0316815260200182815260200192505050600060405180830381600087803b15801561256657600080fd5b505af115801561257a573d6000803e3d6000fd5b5050505050505050565b6000818160025b60038110156123075760006125b96125a283611913565b600401546125af84611913565b6003015490611b4b565b9050801561263c5760008482106125d057846125d2565b815b90506125eb816125e185611913565b6004015490611767565b6125f484611913565b600401556126028582611b4b565b945061260e8482611767565b9350846126225783955050505050506106d7565b821580156126305750600085115b1561263a57600094505b505b506000190161258b565b816001600160a01b0381167343707c6bb6202a5e1007356539a925c052ea976714156126b3576040805162461bcd60e51b8152602060048201526017602482015276119959481859191c995cdcc81b9bdd08185b1b1bddd959604a1b604482015290519081900360640190fd5b6001600160a01b038316612703576040805162461bcd60e51b815260206004820152601260248201527104163636f756e742063616e277420626520360741b604482015290519081900360640190fd5b6001600160a01b038316301415612761576040805162461bcd60e51b815260206004820152601e60248201527f43616e27742073656e64207265776172647320746f2066656520706f6f6c0000604482015290519081900360640190fd5b612769611886565b6001600160a01b0316836001600160a01b031614156127cf576040805162461bcd60e51b815260206004820152601d60248201527f43616e27742073656e64207265776172647320746f20736861646f7773000000604482015290519081900360640190fd5b6127d7612ad8565b6001600160a01b031663b5ddb9c784846040518363ffffffff1660e01b815260040180836001600160a01b0316815260200182815260200192505050600060405180830381600087803b15801561282d57600080fd5b505af1158015612841573d6000803e3d6000fd5b50505050505050565b3b151590565b600054610100900460ff16806128695750612869611ebb565b80612877575060005460ff16155b6128b25760405162461bcd60e51b815260040180806020018281038252602e815260200180612d31602e913960400191505060405180910390fd5b600054610100900460ff16158015611f69576000805460ff1961ff0019909116610100171660011790558015611f7b576000805461ff001916905550565b600054610100900460ff16806129095750612909611ebb565b80612917575060005460ff16155b6129525760405162461bcd60e51b815260040180806020018281038252602e815260200180612d31602e913960400191505060405180910390fd5b600054610100900460ff1615801561297d576000805460ff1961ff0019909116610100171660011790555b6000612987611763565b603380546001600160a01b0319166001600160a01b038316908117909155604051919250906000907f8be0079c531659141344cd1fd0a4f28419497f9722a3daafe3b4186f6b6457e0908290a3508015611f7b576000805461ff001916905550565b600054610100900460ff1680612a025750612a02611ebb565b80612a10575060005460ff16155b612a4b5760405162461bcd60e51b815260040180806020018281038252602e815260200180612d31602e913960400191505060405180910390fd5b600054610100900460ff16158015612a76576000805460ff1961ff0019909116610100171660011790555b606580546001600160a01b0319166001600160a01b038416179055801561202e576000805461ff00191690555050565b60006117c183836b033b2e3c9fd0803ce8000000612b66565b60006117c183836b033b2e3c9fd0803ce8000000612b98565b6065546040805163dacb2d0160e01b81526b526577617264457363726f7760a01b600482015260248101829052601c60448201527f4d697373696e6720526577617264457363726f77206164647265737300000000606482015290516000926001600160a01b03169163dacb2d01916084808301926020929190829003018186803b15801561185557600080fd5b600080612b7a8461099c87600a870261193d565b90506005600a825b0610612b8c57600a015b600a9004949350505050565b600080600a8304612ba9868661193d565b81612bb057fe5b0490506005600a82612b82565b60405180606001604052806003905b612bd4612c6f565b815260200190600190039081612bcc5790505090565b6040518060e0016040528060006001600160401b0316815260200160006001600160401b0316815260200160006001600160401b03168152602001600081526020016000815260200160008152602001600081525090565b60405180606001604052806003905b612c59612c8d565b815260200190600190039081612c515790505090565b60405180604001604052806002906020820280368337509192915050565b60405180604001604052806000815260200160008152509056fe4f776e61626c653a206e6577206f776e657220697320746865207a65726f2061646472657373696e646578206578636565647320746865204645455f504552494f445f4c454e4754484e6f2066656573206f72207265776172647320617661696c61626c6520666f7220706572696f642c206f72206665657320616c726561647920636c61696d6564496e697469616c697a61626c653a20636f6e747261637420697320616c726561647920696e697469616c697a6564536166654d6174683a206d756c7469706c69636174696f6e206f766572666c6f774f776e61626c653a2063616c6c6572206973206e6f7420746865206f776e65724f6e6c792045786368616e6765722c2053796e74687320417574686f7269736564a26469706673582212204bbdce7c75fe22b06852cc0232868c047453fe3d7f378e666a3b660144c19c1a64736f6c63430007010033",
  "libraries": {
    "SafeDecimalMath": "0x7Ad03fA3195761d2c4670DD9B01bcdeF63028DD3"
  },
  "devdoc": {
    "kind": "dev",
    "methods": {
      "appendAccountIssuanceRecord(address,uint256,uint256)": {
        "details": "onlyIssuer to call me on shadows.issue() & shadows.burn() calls to store the locked DOWS per fee period so we know to allocate the correct proportions of fees and rewards per period"
      },
      "owner()": {
        "details": "Returns the address of the current owner."
      },
      "renounceOwnership()": {
        "details": "Leaves the contract without owner. It will not be possible to call `onlyOwner` functions anymore. Can only be called by the current owner. NOTE: Renouncing ownership will leave the contract without an owner, thereby removing any functionality that is only available to the owner."
      },
      "transferOwnership(address)": {
        "details": "Transfers ownership of the contract to a new account (`newOwner`). Can only be called by the current owner."
      }
    },
    "version": 1
  },
  "userdoc": {
    "kind": "user",
    "methods": {
      "closeCurrentFeePeriod()": {
        "notice": "Close the current fee period and start a new one."
      }
    },
    "version": 1
  },
  "storageLayout": {
    "storage": [
      {
        "astId": 595,
        "contract": "contracts/FeePool.sol:FeePool",
        "label": "_initialized",
        "offset": 0,
        "slot": "0",
        "type": "t_bool"
      },
      {
        "astId": 598,
        "contract": "contracts/FeePool.sol:FeePool",
        "label": "_initializing",
        "offset": 1,
        "slot": "0",
        "type": "t_bool"
      },
      {
        "astId": 1615,
        "contract": "contracts/FeePool.sol:FeePool",
        "label": "__gap",
        "offset": 0,
        "slot": "1",
        "type": "t_array(t_uint256)50_storage"
      },
      {
        "astId": 113,
        "contract": "contracts/FeePool.sol:FeePool",
        "label": "_owner",
        "offset": 0,
        "slot": "51",
        "type": "t_address"
      },
      {
        "astId": 232,
        "contract": "contracts/FeePool.sol:FeePool",
        "label": "__gap",
        "offset": 0,
        "slot": "52",
        "type": "t_array(t_uint256)49_storage"
      },
      {
        "astId": 8191,
        "contract": "contracts/FeePool.sol:FeePool",
        "label": "resolver",
        "offset": 0,
        "slot": "101",
        "type": "t_contract(AddressResolver)8179"
      },
      {
        "astId": 2570,
        "contract": "contracts/FeePool.sol:FeePool",
        "label": "feePool",
        "offset": 0,
        "slot": "102",
        "type": "t_address"
      },
      {
        "astId": 2582,
        "contract": "contracts/FeePool.sol:FeePool",
        "label": "lastFeeWithdrawalStorage",
        "offset": 0,
        "slot": "103",
        "type": "t_mapping(t_address,t_uint256)"
      },
      {
        "astId": 2588,
        "contract": "contracts/FeePool.sol:FeePool",
        "label": "accountIssuanceLedger",
        "offset": 0,
        "slot": "104",
        "type": "t_mapping(t_address,t_array(t_struct(IssuanceData)2575_storage)3_storage)"
      },
      {
        "astId": 2590,
        "contract": "contracts/FeePool.sol:FeePool",
        "label": "exchangeFeeRate",
        "offset": 0,
        "slot": "105",
        "type": "t_uint256"
      },
      {
        "astId": 2615,
        "contract": "contracts/FeePool.sol:FeePool",
        "label": "_recentFeePeriods",
        "offset": 0,
        "slot": "106",
        "type": "t_array(t_struct(FeePeriod)2611_storage)3_storage"
      },
      {
        "astId": 2617,
        "contract": "contracts/FeePool.sol:FeePool",
        "label": "_currentFeePeriod",
        "offset": 0,
        "slot": "121",
        "type": "t_uint256"
      },
      {
        "astId": 2619,
        "contract": "contracts/FeePool.sol:FeePool",
        "label": "feePeriodDuration",
        "offset": 0,
        "slot": "122",
        "type": "t_uint256"
      },
      {
        "astId": 2627,
        "contract": "contracts/FeePool.sol:FeePool",
        "label": "targetThreshold",
        "offset": 0,
        "slot": "123",
        "type": "t_uint256"
      }
    ],
    "types": {
      "t_address": {
        "encoding": "inplace",
        "label": "address",
        "numberOfBytes": "20"
      },
      "t_array(t_struct(FeePeriod)2611_storage)3_storage": {
        "base": "t_struct(FeePeriod)2611_storage",
        "encoding": "inplace",
        "label": "struct FeePool.FeePeriod[3]",
        "numberOfBytes": "480"
      },
      "t_array(t_struct(IssuanceData)2575_storage)3_storage": {
        "base": "t_struct(IssuanceData)2575_storage",
        "encoding": "inplace",
        "label": "struct FeePool.IssuanceData[3]",
        "numberOfBytes": "192"
      },
      "t_array(t_uint256)49_storage": {
        "base": "t_uint256",
        "encoding": "inplace",
        "label": "uint256[49]",
        "numberOfBytes": "1568"
      },
      "t_array(t_uint256)50_storage": {
        "base": "t_uint256",
        "encoding": "inplace",
        "label": "uint256[50]",
        "numberOfBytes": "1600"
      },
      "t_bool": {
        "encoding": "inplace",
        "label": "bool",
        "numberOfBytes": "1"
      },
      "t_contract(AddressResolver)8179": {
        "encoding": "inplace",
        "label": "contract AddressResolver",
        "numberOfBytes": "20"
      },
      "t_mapping(t_address,t_array(t_struct(IssuanceData)2575_storage)3_storage)": {
        "encoding": "mapping",
        "key": "t_address",
        "label": "mapping(address => struct FeePool.IssuanceData[3])",
        "numberOfBytes": "32",
        "value": "t_array(t_struct(IssuanceData)2575_storage)3_storage"
      },
      "t_mapping(t_address,t_uint256)": {
        "encoding": "mapping",
        "key": "t_address",
        "label": "mapping(address => uint256)",
        "numberOfBytes": "32",
        "value": "t_uint256"
      },
      "t_struct(FeePeriod)2611_storage": {
        "encoding": "inplace",
        "label": "struct FeePool.FeePeriod",
        "members": [
          {
            "astId": 2598,
            "contract": "contracts/FeePool.sol:FeePool",
            "label": "feePeriodId",
            "offset": 0,
            "slot": "0",
            "type": "t_uint64"
          },
          {
            "astId": 2600,
            "contract": "contracts/FeePool.sol:FeePool",
            "label": "startingDebtIndex",
            "offset": 8,
            "slot": "0",
            "type": "t_uint64"
          },
          {
            "astId": 2602,
            "contract": "contracts/FeePool.sol:FeePool",
            "label": "startTime",
            "offset": 16,
            "slot": "0",
            "type": "t_uint64"
          },
          {
            "astId": 2604,
            "contract": "contracts/FeePool.sol:FeePool",
            "label": "feesToDistribute",
            "offset": 0,
            "slot": "1",
            "type": "t_uint256"
          },
          {
            "astId": 2606,
            "contract": "contracts/FeePool.sol:FeePool",
            "label": "feesClaimed",
            "offset": 0,
            "slot": "2",
            "type": "t_uint256"
          },
          {
            "astId": 2608,
            "contract": "contracts/FeePool.sol:FeePool",
            "label": "rewardsToDistribute",
            "offset": 0,
            "slot": "3",
            "type": "t_uint256"
          },
          {
            "astId": 2610,
            "contract": "contracts/FeePool.sol:FeePool",
            "label": "rewardsClaimed",
            "offset": 0,
            "slot": "4",
            "type": "t_uint256"
          }
        ],
        "numberOfBytes": "160"
      },
      "t_struct(IssuanceData)2575_storage": {
        "encoding": "inplace",
        "label": "struct FeePool.IssuanceData",
        "members": [
          {
            "astId": 2572,
            "contract": "contracts/FeePool.sol:FeePool",
            "label": "debtPercentage",
            "offset": 0,
            "slot": "0",
            "type": "t_uint256"
          },
          {
            "astId": 2574,
            "contract": "contracts/FeePool.sol:FeePool",
            "label": "debtEntryIndex",
            "offset": 0,
            "slot": "1",
            "type": "t_uint256"
          }
        ],
        "numberOfBytes": "64"
      },
      "t_uint256": {
        "encoding": "inplace",
        "label": "uint256",
        "numberOfBytes": "32"
      },
      "t_uint64": {
        "encoding": "inplace",
        "label": "uint64",
        "numberOfBytes": "8"
      }
    }
  }
}