{
  "address": "0x1BED3021e5a339d5fAc061d65b6EbD455dd8453d",
  "abi": [
    {
      "anonymous": false,
      "inputs": [
        {
          "indexed": false,
          "internalType": "bytes32",
          "name": "currencyKey",
          "type": "bytes32"
        },
        {
          "indexed": false,
          "internalType": "address",
          "name": "aggregator",
          "type": "address"
        }
      ],
      "name": "AggregatorAdded",
      "type": "event"
    },
    {
      "anonymous": false,
      "inputs": [
        {
          "indexed": false,
          "internalType": "bytes32",
          "name": "currencyKey",
          "type": "bytes32"
        },
        {
          "indexed": false,
          "internalType": "address",
          "name": "aggregator",
          "type": "address"
        }
      ],
      "name": "AggregatorRemoved",
      "type": "event"
    },
    {
      "anonymous": false,
      "inputs": [
        {
          "indexed": false,
          "internalType": "address",
          "name": "newOracle",
          "type": "address"
        }
      ],
      "name": "OracleUpdated",
      "type": "event"
    },
    {
      "anonymous": false,
      "inputs": [
        {
          "indexed": true,
          "internalType": "address",
          "name": "previousOwner",
          "type": "address"
        },
        {
          "indexed": true,
          "internalType": "address",
          "name": "newOwner",
          "type": "address"
        }
      ],
      "name": "OwnershipTransferred",
      "type": "event"
    },
    {
      "anonymous": false,
      "inputs": [
        {
          "indexed": false,
          "internalType": "bytes32",
          "name": "currencyKey",
          "type": "bytes32"
        }
      ],
      "name": "RateDeleted",
      "type": "event"
    },
    {
      "anonymous": false,
      "inputs": [
        {
          "indexed": false,
          "internalType": "uint256",
          "name": "rateStalePeriod",
          "type": "uint256"
        }
      ],
      "name": "RateStalePeriodUpdated",
      "type": "event"
    },
    {
      "anonymous": false,
      "inputs": [
        {
          "indexed": false,
          "internalType": "bytes32[]",
          "name": "currencyKeys",
          "type": "bytes32[]"
        },
        {
          "indexed": false,
          "internalType": "uint256[]",
          "name": "newRates",
          "type": "uint256[]"
        }
      ],
      "name": "RatesUpdated",
      "type": "event"
    },
    {
      "inputs": [
        {
          "internalType": "bytes32",
          "name": "currencyKey",
          "type": "bytes32"
        },
        {
          "internalType": "address",
          "name": "aggregatorAddress",
          "type": "address"
        }
      ],
      "name": "addAggregator",
      "outputs": [],
      "stateMutability": "nonpayable",
      "type": "function"
    },
    {
      "inputs": [
        {
          "internalType": "uint256",
          "name": "",
          "type": "uint256"
        }
      ],
      "name": "aggregatorKeys",
      "outputs": [
        {
          "internalType": "bytes32",
          "name": "",
          "type": "bytes32"
        }
      ],
      "stateMutability": "view",
      "type": "function"
    },
    {
      "inputs": [
        {
          "internalType": "bytes32",
          "name": "",
          "type": "bytes32"
        }
      ],
      "name": "aggregators",
      "outputs": [
        {
          "internalType": "contract AggregatorV2V3Interface",
          "name": "",
          "type": "address"
        }
      ],
      "stateMutability": "view",
      "type": "function"
    },
    {
      "inputs": [
        {
          "internalType": "bytes32[]",
          "name": "currencyKeys",
          "type": "bytes32[]"
        }
      ],
      "name": "anyRateIsStale",
      "outputs": [
        {
          "internalType": "bool",
          "name": "",
          "type": "bool"
        }
      ],
      "stateMutability": "view",
      "type": "function"
    },
    {
      "inputs": [
        {
          "internalType": "bytes32",
          "name": "currencyKey",
          "type": "bytes32"
        }
      ],
      "name": "deleteRate",
      "outputs": [],
      "stateMutability": "nonpayable",
      "type": "function"
    },
    {
      "inputs": [
        {
          "internalType": "bytes32",
          "name": "sourceCurrencyKey",
          "type": "bytes32"
        },
        {
          "internalType": "uint256",
          "name": "sourceAmount",
          "type": "uint256"
        },
        {
          "internalType": "bytes32",
          "name": "destinationCurrencyKey",
          "type": "bytes32"
        }
      ],
      "name": "effectiveValue",
      "outputs": [
        {
          "internalType": "uint256",
          "name": "",
          "type": "uint256"
        }
      ],
      "stateMutability": "view",
      "type": "function"
    },
    {
      "inputs": [
        {
          "internalType": "bytes32",
          "name": "sourceCurrencyKey",
          "type": "bytes32"
        },
        {
          "internalType": "uint256",
          "name": "sourceAmount",
          "type": "uint256"
        },
        {
          "internalType": "bytes32",
          "name": "destinationCurrencyKey",
          "type": "bytes32"
        },
        {
          "internalType": "uint256",
          "name": "roundIdForSrc",
          "type": "uint256"
        },
        {
          "internalType": "uint256",
          "name": "roundIdForDest",
          "type": "uint256"
        }
      ],
      "name": "effectiveValueAtRound",
      "outputs": [
        {
          "internalType": "uint256",
          "name": "",
          "type": "uint256"
        }
      ],
      "stateMutability": "view",
      "type": "function"
    },
    {
      "inputs": [
        {
          "internalType": "bytes32",
          "name": "currencyKey",
          "type": "bytes32"
        }
      ],
      "name": "getCurrentRoundId",
      "outputs": [
        {
          "internalType": "uint256",
          "name": "",
          "type": "uint256"
        }
      ],
      "stateMutability": "view",
      "type": "function"
    },
    {
      "inputs": [
        {
          "internalType": "bytes32",
          "name": "currencyKey",
          "type": "bytes32"
        },
        {
          "internalType": "uint256",
          "name": "startingRoundId",
          "type": "uint256"
        },
        {
          "internalType": "uint256",
          "name": "startingTimestamp",
          "type": "uint256"
        },
        {
          "internalType": "uint256",
          "name": "timediff",
          "type": "uint256"
        }
      ],
      "name": "getLastRoundIdBeforeElapsedSecs",
      "outputs": [
        {
          "internalType": "uint256",
          "name": "",
          "type": "uint256"
        }
      ],
      "stateMutability": "view",
      "type": "function"
    },
    {
      "inputs": [
        {
          "internalType": "address",
          "name": "_oracle",
          "type": "address"
        },
        {
          "internalType": "bytes32[]",
          "name": "_currencyKeys",
          "type": "bytes32[]"
        },
        {
          "internalType": "uint256[]",
          "name": "_newRates",
          "type": "uint256[]"
        }
      ],
      "name": "initialize",
      "outputs": [],
      "stateMutability": "nonpayable",
      "type": "function"
    },
    {
      "inputs": [
        {
          "internalType": "bytes32",
          "name": "currencyKey",
          "type": "bytes32"
        }
      ],
      "name": "lastRateUpdateTimes",
      "outputs": [
        {
          "internalType": "uint256",
          "name": "",
          "type": "uint256"
        }
      ],
      "stateMutability": "view",
      "type": "function"
    },
    {
      "inputs": [
        {
          "internalType": "bytes32[]",
          "name": "currencyKeys",
          "type": "bytes32[]"
        }
      ],
      "name": "lastRateUpdateTimesForCurrencies",
      "outputs": [
        {
          "internalType": "uint256[]",
          "name": "",
          "type": "uint256[]"
        }
      ],
      "stateMutability": "view",
      "type": "function"
    },
    {
      "inputs": [],
      "name": "oracle",
      "outputs": [
        {
          "internalType": "address",
          "name": "",
          "type": "address"
        }
      ],
      "stateMutability": "view",
      "type": "function"
    },
    {
      "inputs": [],
      "name": "owner",
      "outputs": [
        {
          "internalType": "address",
          "name": "",
          "type": "address"
        }
      ],
      "stateMutability": "view",
      "type": "function"
    },
    {
      "inputs": [
        {
          "internalType": "bytes32",
          "name": "currencyKey",
          "type": "bytes32"
        },
        {
          "internalType": "uint256",
          "name": "roundId",
          "type": "uint256"
        }
      ],
      "name": "rateAndTimestampAtRound",
      "outputs": [
        {
          "internalType": "uint256",
          "name": "rate",
          "type": "uint256"
        },
        {
          "internalType": "uint256",
          "name": "time",
          "type": "uint256"
        }
      ],
      "stateMutability": "view",
      "type": "function"
    },
    {
      "inputs": [
        {
          "internalType": "bytes32",
          "name": "currencyKey",
          "type": "bytes32"
        }
      ],
      "name": "rateForCurrency",
      "outputs": [
        {
          "internalType": "uint256",
          "name": "",
          "type": "uint256"
        }
      ],
      "stateMutability": "view",
      "type": "function"
    },
    {
      "inputs": [
        {
          "internalType": "bytes32",
          "name": "currencyKey",
          "type": "bytes32"
        }
      ],
      "name": "rateIsStale",
      "outputs": [
        {
          "internalType": "bool",
          "name": "",
          "type": "bool"
        }
      ],
      "stateMutability": "view",
      "type": "function"
    },
    {
      "inputs": [],
      "name": "rateStalePeriod",
      "outputs": [
        {
          "internalType": "uint256",
          "name": "",
          "type": "uint256"
        }
      ],
      "stateMutability": "view",
      "type": "function"
    },
    {
      "inputs": [
        {
          "internalType": "bytes32[]",
          "name": "currencyKeys",
          "type": "bytes32[]"
        }
      ],
      "name": "ratesAndStaleForCurrencies",
      "outputs": [
        {
          "internalType": "uint256[]",
          "name": "",
          "type": "uint256[]"
        },
        {
          "internalType": "bool",
          "name": "",
          "type": "bool"
        }
      ],
      "stateMutability": "view",
      "type": "function"
    },
    {
      "inputs": [
        {
          "internalType": "bytes32[]",
          "name": "currencyKeys",
          "type": "bytes32[]"
        }
      ],
      "name": "ratesForCurrencies",
      "outputs": [
        {
          "internalType": "uint256[]",
          "name": "",
          "type": "uint256[]"
        }
      ],
      "stateMutability": "view",
      "type": "function"
    },
    {
      "inputs": [
        {
          "internalType": "bytes32",
          "name": "currencyKey",
          "type": "bytes32"
        }
      ],
      "name": "removeAggregator",
      "outputs": [],
      "stateMutability": "nonpayable",
      "type": "function"
    },
    {
      "inputs": [],
      "name": "renounceOwnership",
      "outputs": [],
      "stateMutability": "nonpayable",
      "type": "function"
    },
    {
      "inputs": [
        {
          "internalType": "address",
          "name": "_oracle",
          "type": "address"
        }
      ],
      "name": "setOracle",
      "outputs": [],
      "stateMutability": "nonpayable",
      "type": "function"
    },
    {
      "inputs": [
        {
          "internalType": "uint256",
          "name": "_time",
          "type": "uint256"
        }
      ],
      "name": "setRateStalePeriod",
      "outputs": [],
      "stateMutability": "nonpayable",
      "type": "function"
    },
    {
      "inputs": [
        {
          "internalType": "address",
          "name": "newOwner",
          "type": "address"
        }
      ],
      "name": "transferOwnership",
      "outputs": [],
      "stateMutability": "nonpayable",
      "type": "function"
    },
    {
      "inputs": [
        {
          "internalType": "bytes32[]",
          "name": "currencyKeys",
          "type": "bytes32[]"
        },
        {
          "internalType": "uint256[]",
          "name": "newRates",
          "type": "uint256[]"
        },
        {
          "internalType": "uint256",
          "name": "timeSent",
          "type": "uint256"
        }
      ],
      "name": "updateRates",
      "outputs": [
        {
          "internalType": "bool",
          "name": "",
          "type": "bool"
        }
      ],
      "stateMutability": "nonpayable",
      "type": "function"
    }
  ],
  "transactionHash": "0xe40290b5b7f4ab32338838dfceb65d5928e3c91bc99c3f2da441a81d9994675c",
  "args": [],
  "solcInputHash": "337b6b00b86b589608341b48d68d253e",
  "bytecode": "0x608060405234801561001057600080fd5b506123ce806100206000396000f3fe608060405234801561001057600080fd5b506004361061018d5760003560e01c8063715018a6116100de578063ac82f60811610097578063c2c8a67611610071578063c2c8a67614610740578063ce8480ea146107ae578063f2fde38b146107cb578063fdadbc7e146107f15761018d565b8063ac82f6081461059a578063babcb423146105b7578063bfa005ce146106825761018d565b8063715018a61461052257806379cb657a1461052a5780637a018a1e146105475780637adbf973146105645780637dc0d1d01461058a5780638da5cb5b146105925761018d565b80632d2276741161014b5780634f72def6116101255780634f72def6146103d5578063539927be146103f2578063654a60ac146104c05780637103353e146104e95761018d565b80632d2276741461031e5780633f0e084f1461038c57806345938849146103b85761018d565b80629919c01461019257806305a046e5146101c35780630ee4951b14610281578063109e46a21461029b578063266da16b146102ca5780632bed9e0c146102ff575b600080fd5b6101af600480360360208110156101a857600080fd5b503561082d565b604080519115158252519081900360200190f35b610231600480360360208110156101d957600080fd5b810190602081018135600160201b8111156101f357600080fd5b82018360208201111561020557600080fd5b803590602001918460208302840111600160201b8311171561022657600080fd5b509092509050610865565b60408051602080825283518183015283519192839290830191858101910280838360005b8381101561026d578181015183820152602001610255565b505050509050019250505060405180910390f35b6102896108fb565b60408051918252519081900360200190f35b610289600480360360808110156102b157600080fd5b5080359060208101359060408101359060600135610901565b610289600480360360a08110156102e057600080fd5b5080359060208101359060408101359060608101359060800135610944565b61031c6004803603602081101561031557600080fd5b5035610a24565b005b6101af6004803603602081101561033457600080fd5b810190602081018135600160201b81111561034e57600080fd5b82018360208201111561036057600080fd5b803590602001918460208302840111600160201b8311171561038157600080fd5b509092509050610b68565b61031c600480360360408110156103a257600080fd5b50803590602001356001600160a01b0316610bd1565b61031c600480360360208110156103ce57600080fd5b5035610dad565b610289600480360360208110156103eb57600080fd5b5035610eac565b61031c6004803603606081101561040857600080fd5b6001600160a01b038235169190810190604081016020820135600160201b81111561043257600080fd5b82018360208201111561044457600080fd5b803590602001918460208302840111600160201b8311171561046557600080fd5b919390929091602081019035600160201b81111561048257600080fd5b82018360208201111561049457600080fd5b803590602001918460208302840111600160201b831117156104b557600080fd5b509092509050610eca565b610289600480360360608110156104d657600080fd5b5080359060208101359060400135611073565b610506600480360360208110156104ff57600080fd5b503561113c565b604080516001600160a01b039092168252519081900360200190f35b61031c611157565b61031c6004803603602081101561054057600080fd5b5035611203565b6102896004803603602081101561055d57600080fd5b50356112a0565b61031c6004803603602081101561057a57600080fd5b50356001600160a01b0316611356565b610506611412565b610506611421565b610289600480360360208110156105b057600080fd5b5035611430565b610625600480360360208110156105cd57600080fd5b810190602081018135600160201b8111156105e757600080fd5b8201836020820111156105f957600080fd5b803590602001918460208302840111600160201b8311171561061a57600080fd5b50909250905061144b565b60405180806020018315158152602001828103825284818151815260200191508051906020019060200280838360005b8381101561066d578181015183820152602001610655565b50505050905001935050505060405180910390f35b6101af6004803603606081101561069857600080fd5b810190602081018135600160201b8111156106b257600080fd5b8201836020820111156106c457600080fd5b803590602001918460208302840111600160201b831117156106e557600080fd5b919390929091602081019035600160201b81111561070257600080fd5b82018360208201111561071457600080fd5b803590602001918460208302840111600160201b8311171561073557600080fd5b91935091503561154e565b6102316004803603602081101561075657600080fd5b810190602081018135600160201b81111561077057600080fd5b82018360208201111561078257600080fd5b803590602001918460208302840111600160201b831117156107a357600080fd5b5090925090506115b1565b610289600480360360208110156107c457600080fd5b503561163d565b61031c600480360360208110156107e157600080fd5b50356001600160a01b0316611659565b6108146004803603604081101561080757600080fd5b508035906020013561175c565b6040805192835260208301919091528051918290030190f35b600081631e1554d160e21b141561084657506000610860565b4261085c6069546108568561163d565b90611774565b1090505b919050565b6060808267ffffffffffffffff8111801561087f57600080fd5b506040519080825280602002602001820160405280156108a9578160200160208202803683370190505b50905060005b838110156108f1576108d28585838181106108c657fe5b9050602002013561163d565b8282815181106108de57fe5b60209081029190910101526001016108af565b5090505b92915050565b60695481565b600083815b61091387836001016117d5565b915050801580610924575083850181115b156109315750905061093c565b600190910190610906565b949350505050565b6000856109508161082d565b1561098c5760405162461bcd60e51b815260040180806020018281038252602281526020018061224a6022913960400191505060405180910390fd5b846109968161082d565b156109d25760405162461bcd60e51b815260040180806020018281038252602281526020018061224a6022913960400191505060405180910390fd5b858814156109e257869250610a19565b60006109ee89876117d5565b50905060006109fd88876117d5565b509050610a1481610a0e8b85611939565b9061194e565b945050505b505095945050505050565b610a2c611963565b6001600160a01b0316610a3d611421565b6001600160a01b031614610a86576040805162461bcd60e51b81526020600482018190526024820152600080516020612308833981519152604482015290519081900360640190fd5b6000818152606760205260409020546001600160a01b031680610af0576040805162461bcd60e51b815260206004820152601c60248201527f4e6f2061676772656761746f722065786973747320666f72206b657900000000604482015290519081900360640190fd5b600082815260676020526040812080546001600160a01b0319169055610b17836068611967565b90508015610b6357604080518481526001600160a01b038416602082015281517fec70e890fc7db7de4059b114c9093a1f41283d18ffcfbcac45566feea4d4f777929181900390910190a15b505050565b6000805b82811015610bc757838382818110610b8057fe5b90506020020135631e1554d160e21b14158015610bb0575042610bae6069546108568787868181106108c657fe5b105b15610bbf5760019150506108f5565b600101610b6c565b5060009392505050565b610bd9611963565b6001600160a01b0316610bea611421565b6001600160a01b031614610c33576040805162461bcd60e51b81526020600482018190526024820152600080516020612308833981519152604482015290519081900360640190fd5b60008190506000816001600160a01b0316638205bf6a6040518163ffffffff1660e01b815260040160206040518083038186803b158015610c7357600080fd5b505afa158015610c87573d6000803e3d6000fd5b505050506040513d6020811015610c9d57600080fd5b50511015610cf2576040805162461bcd60e51b815260206004820152601b60248201527f476976656e2041676772656761746f7220697320696e76616c69640000000000604482015290519081900360640190fd5b6000838152606760205260409020546001600160a01b0316610d4457606880546001810182556000919091527fa2153420d844928b4421650203c77babc8b33d7f2e7b450e2966db0c22097753018390555b60008381526067602090815260409182902080546001600160a01b0319166001600160a01b03851690811790915582518681529182015281517f0bcae573430f69c5361e5d76534d3f61d2d803958778680cd74be9dc6299bc63929181900390910190a1505050565b6066546001600160a01b03163314610df65760405162461bcd60e51b81526004018080602001828103825260278152602001806122926027913960400191505060405180910390fd5b6000610e0182611430565b11610e42576040805162461bcd60e51b815260206004820152600c60248201526b52617465206973207a65726f60a01b604482015290519081900360640190fd5b6000818152606560209081526040808320606a8084528285208054865291845282852085905593859052928252825460001901909255815183815291517fe69d655565c7ff1353d8eaeea62fb7904fa9696987431ec351be288c865f1ae19281900390910190a150565b60688181548110610eb957fe5b600091825260209091200154905081565b600054610100900460ff1680610ee35750610ee3611a12565b80610ef1575060005460ff16155b610f2c5760405162461bcd60e51b815260040180806020018281038252602e8152602001806122b9602e913960400191505060405180910390fd5b600054610100900460ff16158015610f57576000805460ff1961ff0019909116610100171660011790555b610f5f611a23565b838214610f9d5760405162461bcd60e51b815260040180806020018281038252602f8152602001806121ea602f913960400191505060405180910390fd5b85606660006101000a8154816001600160a01b0302191690836001600160a01b03160217905550611045631e1554d160e21b737Ad03fA3195761d2c4670DD9B01bcdeF63028DD363907af6c06040518163ffffffff1660e01b815260040160206040518083038186803b15801561101357600080fd5b505af4158015611027573d6000803e3d6000fd5b505050506040513d602081101561103d57600080fd5b505142611ad5565b6110528585858542611b4e565b50612a30606955801561106b576000805461ff00191690555b505050505050565b60008361107f8161082d565b156110bb5760405162461bcd60e51b815260040180806020018281038252602281526020018061224a6022913960400191505060405180910390fd5b826110c58161082d565b156111015760405162461bcd60e51b815260040180806020018281038252602281526020018061224a6022913960400191505060405180910390fd5b8386141561111157849250611133565b61113061111d85611430565b610a0e61112989611430565b8890611939565b92505b50509392505050565b6067602052600090815260409020546001600160a01b031681565b61115f611963565b6001600160a01b0316611170611421565b6001600160a01b0316146111b9576040805162461bcd60e51b81526020600482018190526024820152600080516020612308833981519152604482015290519081900360640190fd5b6033546040516000916001600160a01b0316907f8be0079c531659141344cd1fd0a4f28419497f9722a3daafe3b4186f6b6457e0908390a3603380546001600160a01b0319169055565b61120b611963565b6001600160a01b031661121c611421565b6001600160a01b031614611265576040805162461bcd60e51b81526020600482018190526024820152600080516020612308833981519152604482015290519081900360640190fd5b60698190556040805182815290517f16529d8c407b08938da67de7fa4319199baffce4f5d1971f812cc770b0237e669181900360200190a150565b6000818152606760205260408120546001600160a01b03161561134157600082815260676020908152604091829020548251633345078160e11b815292516001600160a01b0390911692839263668a0f0292600480840193829003018186803b15801561130c57600080fd5b505afa158015611320573d6000803e3d6000fd5b505050506040513d602081101561133657600080fd5b505191506108609050565b506000818152606a6020526040902054610860565b61135e611963565b6001600160a01b031661136f611421565b6001600160a01b0316146113b8576040805162461bcd60e51b81526020600482018190526024820152600080516020612308833981519152604482015290519081900360640190fd5b606680546001600160a01b0319166001600160a01b03838116919091179182905560408051929091168252517f3df77beb5db05fcdd70a30fc8adf3f83f9501b68579455adbd100b8180940394916020908290030190a150565b6066546001600160a01b031681565b6033546001600160a01b031690565b600061143b82611d7d565b516001600160d81b031692915050565b60606000818367ffffffffffffffff8111801561146757600080fd5b50604051908082528060200260200182016040528015611491578160200160208202803683370190505b50606954909150600090815b8681101561153f576114ad6121d2565b6114c88989848181106114bc57fe5b90506020020135611d7d565b905080600001516001600160d81b03168583815181106114e457fe5b602002602001018181525050836115365788888381811061150157fe5b90506020020135631e1554d160e21b141580156115335750602081015142906115319064ffffffffff1685611774565b105b93505b5060010161149d565b509193509150505b9250929050565b6066546000906001600160a01b0316331461159a5760405162461bcd60e51b81526004018080602001828103825260278152602001806122926027913960400191505060405180910390fd5b6115a78686868686611b4e565b9695505050505050565b6060808267ffffffffffffffff811180156115cb57600080fd5b506040519080825280602002602001820160405280156115f5578160200160208202803683370190505b50905060005b838110156108f15761161e85858381811061161257fe5b90506020020135611430565b82828151811061162a57fe5b60209081029190910101526001016115fb565b600061164882611d7d565b6020015164ffffffffff1692915050565b611661611963565b6001600160a01b0316611672611421565b6001600160a01b0316146116bb576040805162461bcd60e51b81526020600482018190526024820152600080516020612308833981519152604482015290519081900360640190fd5b6001600160a01b0381166117005760405162461bcd60e51b815260040180806020018281038252602681526020018061226c6026913960400191505060405180910390fd5b6033546040516001600160a01b038084169216907f8be0079c531659141344cd1fd0a4f28419497f9722a3daafe3b4186f6b6457e090600090a3603380546001600160a01b0319166001600160a01b0392909216919091179055565b60008061176984846117d5565b915091509250929050565b6000828201838110156117ce576040805162461bcd60e51b815260206004820152601b60248201527f536166654d6174683a206164646974696f6e206f766572666c6f770000000000604482015290519081900360640190fd5b9392505050565b60008281526067602052604081205481906001600160a01b0316156118ff57600084815260676020908152604091829020548251632d6ad63760e21b81526004810187905292516001600160a01b0390911692839263b5ab58dc92602480840193829003018186803b15801561184a57600080fd5b505afa15801561185e573d6000803e3d6000fd5b505050506040513d602081101561187457600080fd5b505160408051632d8cd88360e21b81526004810187905290516402540be400909202916001600160a01b0384169163b633620c916024808301926020929190829003018186803b1580156118c757600080fd5b505afa1580156118db573d6000803e3d6000fd5b505050506040513d60208110156118f157600080fd5b505190935091506115479050565b505060008281526065602090815260408083208484529091529020546001600160d81b03811690600160d81b900464ffffffffff16611547565b60006117ce8383670de0b6b3a7640000611f16565b60006117ce8383670de0b6b3a7640000611f4d565b3390565b6000805b8254811015610bc7578383828154811061198157fe5b90600052602060002001541415611a0a5782818154811061199e57fe5b60009182526020822001558254839060001981019081106119bb57fe5b90600052602060002001548382815481106119d257fe5b9060005260206000200181905550828054806119ea57fe5b6001900381819060005260206000200160009055905560019150506108f5565b60010161196b565b6000611a1d30611f73565b15905090565b600054610100900460ff1680611a3c5750611a3c611a12565b80611a4a575060005460ff16155b611a855760405162461bcd60e51b815260040180806020018281038252602e8152602001806122b9602e913960400191505060405180910390fd5b600054610100900460ff16158015611ab0576000805460ff1961ff0019909116610100171660011790555b611ab8611f79565b611ac0612019565b8015611ad2576000805461ff00191690555b50565b6000838152606a60209081526040808320805460010190819055815180830183526001600160d81b03968716815264ffffffffff958616818501908152978552606584528285209185529252909120905181549451909216600160d81b029183166001600160d81b031990941693909317909116179055565b6000848314611b8e5760405162461bcd60e51b81526004018080602001828103825260388152602001806123286038913960400191505060405180910390fd5b61025842018210611be6576040805162461bcd60e51b815260206004820152601f60248201527f54696d6520697320746f6f2066617220696e746f207468652066757475726500604482015290519081900360640190fd5b60005b85811015611cdd576000878783818110611bff57fe5b905060200201359050858583818110611c1457fe5b9050602002013560001415611c5a5760405162461bcd60e51b81526004018080602001828103825260398152602001806123606039913960400191505060405180910390fd5b80631e1554d160e21b1415611ca05760405162461bcd60e51b81526004018080602001828103825260318152602001806122196031913960400191505060405180910390fd5b611ca98161163d565b841015611cb65750611cd5565b611cd381878785818110611cc657fe5b9050602002013586611ad5565b505b600101611be9565b507f1bc0fc8997efa076f59b5ef02c315bc5390f7a6d24d661ce12128c01a3b0ba57868686866040518080602001806020018381038352878782818152602001925060200280828437600083820152601f01601f19169091018481038352858152602090810191508690860280828437600083820152604051601f909101601f19169092018290039850909650505050505050a150600195945050505050565b611d856121d2565b6000828152606760205260409020546001600160a01b031615611ec8576040805180820180835260008581526067602090815290849020546350d25bcd60e01b9092529251919283926001600160a01b03909216916350d25bcd9160448086019290818703018186803b158015611dfb57600080fd5b505afa158015611e0f573d6000803e3d6000fd5b505050506040513d6020811015611e2557600080fd5b50516402540be400026001600160d81b03168152600084815260676020908152604091829020548251634102dfb560e11b81529251938201936001600160a01b0390911692638205bf6a926004808301939192829003018186803b158015611e8c57600080fd5b505afa158015611ea0573d6000803e3d6000fd5b505050506040513d6020811015611eb657600080fd5b505164ffffffffff1690529050610860565b506000818152606560209081526040808320606a83528184205484528252918290208251808401909352546001600160d81b0381168352600160d81b900464ffffffffff1690820152610860565b600080600a8304611f278686612112565b81611f2e57fe5b0490506005600a825b0610611f4157600a015b600a9004949350505050565b600080611f6784611f6187600a8702612112565b9061216b565b90506005600a82611f37565b3b151590565b600054610100900460ff1680611f925750611f92611a12565b80611fa0575060005460ff16155b611fdb5760405162461bcd60e51b815260040180806020018281038252602e8152602001806122b9602e913960400191505060405180910390fd5b600054610100900460ff16158015611ac0576000805460ff1961ff0019909116610100171660011790558015611ad2576000805461ff001916905550565b600054610100900460ff16806120325750612032611a12565b80612040575060005460ff16155b61207b5760405162461bcd60e51b815260040180806020018281038252602e8152602001806122b9602e913960400191505060405180910390fd5b600054610100900460ff161580156120a6576000805460ff1961ff0019909116610100171660011790555b60006120b0611963565b603380546001600160a01b0319166001600160a01b038316908117909155604051919250906000907f8be0079c531659141344cd1fd0a4f28419497f9722a3daafe3b4186f6b6457e0908290a3508015611ad2576000805461ff001916905550565b600082612121575060006108f5565b8282028284828161212e57fe5b04146117ce5760405162461bcd60e51b81526004018080602001828103825260218152602001806122e76021913960400191505060405180910390fd5b60008082116121c1576040805162461bcd60e51b815260206004820152601a60248201527f536166654d6174683a206469766973696f6e206279207a65726f000000000000604482015290519081900360640190fd5b8183816121ca57fe5b049392505050565b60408051808201909152600080825260208201529056fe43757272656e6379206b6579206c656e67746820616e642072617465206c656e677468206d757374206d617463682e52617465206f6620785553442063616e6e6f7420626520757064617465642c206974277320616c7761797320554e49542e52617465207374616c65206f72206e6f6e6578697374616e742063757272656e63794f776e61626c653a206e6577206f776e657220697320746865207a65726f20616464726573734f6e6c7920746865206f7261636c652063616e20706572666f726d207468697320616374696f6e496e697469616c697a61626c653a20636f6e747261637420697320616c726561647920696e697469616c697a6564536166654d6174683a206d756c7469706c69636174696f6e206f766572666c6f774f776e61626c653a2063616c6c6572206973206e6f7420746865206f776e657243757272656e6379206b6579206172726179206c656e677468206d757374206d61746368207261746573206172726179206c656e6774682e5a65726f206973206e6f7420612076616c696420726174652c20706c656173652063616c6c2064656c6574655261746520696e73746561642ea26469706673582212204b0b6e870458d84f7a36257c22dd345796a281477ec9980e9647ed1be030226e64736f6c63430007010033",
  "deployedBytecode": "0x608060405234801561001057600080fd5b506004361061018d5760003560e01c8063715018a6116100de578063ac82f60811610097578063c2c8a67611610071578063c2c8a67614610740578063ce8480ea146107ae578063f2fde38b146107cb578063fdadbc7e146107f15761018d565b8063ac82f6081461059a578063babcb423146105b7578063bfa005ce146106825761018d565b8063715018a61461052257806379cb657a1461052a5780637a018a1e146105475780637adbf973146105645780637dc0d1d01461058a5780638da5cb5b146105925761018d565b80632d2276741161014b5780634f72def6116101255780634f72def6146103d5578063539927be146103f2578063654a60ac146104c05780637103353e146104e95761018d565b80632d2276741461031e5780633f0e084f1461038c57806345938849146103b85761018d565b80629919c01461019257806305a046e5146101c35780630ee4951b14610281578063109e46a21461029b578063266da16b146102ca5780632bed9e0c146102ff575b600080fd5b6101af600480360360208110156101a857600080fd5b503561082d565b604080519115158252519081900360200190f35b610231600480360360208110156101d957600080fd5b810190602081018135600160201b8111156101f357600080fd5b82018360208201111561020557600080fd5b803590602001918460208302840111600160201b8311171561022657600080fd5b509092509050610865565b60408051602080825283518183015283519192839290830191858101910280838360005b8381101561026d578181015183820152602001610255565b505050509050019250505060405180910390f35b6102896108fb565b60408051918252519081900360200190f35b610289600480360360808110156102b157600080fd5b5080359060208101359060408101359060600135610901565b610289600480360360a08110156102e057600080fd5b5080359060208101359060408101359060608101359060800135610944565b61031c6004803603602081101561031557600080fd5b5035610a24565b005b6101af6004803603602081101561033457600080fd5b810190602081018135600160201b81111561034e57600080fd5b82018360208201111561036057600080fd5b803590602001918460208302840111600160201b8311171561038157600080fd5b509092509050610b68565b61031c600480360360408110156103a257600080fd5b50803590602001356001600160a01b0316610bd1565b61031c600480360360208110156103ce57600080fd5b5035610dad565b610289600480360360208110156103eb57600080fd5b5035610eac565b61031c6004803603606081101561040857600080fd5b6001600160a01b038235169190810190604081016020820135600160201b81111561043257600080fd5b82018360208201111561044457600080fd5b803590602001918460208302840111600160201b8311171561046557600080fd5b919390929091602081019035600160201b81111561048257600080fd5b82018360208201111561049457600080fd5b803590602001918460208302840111600160201b831117156104b557600080fd5b509092509050610eca565b610289600480360360608110156104d657600080fd5b5080359060208101359060400135611073565b610506600480360360208110156104ff57600080fd5b503561113c565b604080516001600160a01b039092168252519081900360200190f35b61031c611157565b61031c6004803603602081101561054057600080fd5b5035611203565b6102896004803603602081101561055d57600080fd5b50356112a0565b61031c6004803603602081101561057a57600080fd5b50356001600160a01b0316611356565b610506611412565b610506611421565b610289600480360360208110156105b057600080fd5b5035611430565b610625600480360360208110156105cd57600080fd5b810190602081018135600160201b8111156105e757600080fd5b8201836020820111156105f957600080fd5b803590602001918460208302840111600160201b8311171561061a57600080fd5b50909250905061144b565b60405180806020018315158152602001828103825284818151815260200191508051906020019060200280838360005b8381101561066d578181015183820152602001610655565b50505050905001935050505060405180910390f35b6101af6004803603606081101561069857600080fd5b810190602081018135600160201b8111156106b257600080fd5b8201836020820111156106c457600080fd5b803590602001918460208302840111600160201b831117156106e557600080fd5b919390929091602081019035600160201b81111561070257600080fd5b82018360208201111561071457600080fd5b803590602001918460208302840111600160201b8311171561073557600080fd5b91935091503561154e565b6102316004803603602081101561075657600080fd5b810190602081018135600160201b81111561077057600080fd5b82018360208201111561078257600080fd5b803590602001918460208302840111600160201b831117156107a357600080fd5b5090925090506115b1565b610289600480360360208110156107c457600080fd5b503561163d565b61031c600480360360208110156107e157600080fd5b50356001600160a01b0316611659565b6108146004803603604081101561080757600080fd5b508035906020013561175c565b6040805192835260208301919091528051918290030190f35b600081631e1554d160e21b141561084657506000610860565b4261085c6069546108568561163d565b90611774565b1090505b919050565b6060808267ffffffffffffffff8111801561087f57600080fd5b506040519080825280602002602001820160405280156108a9578160200160208202803683370190505b50905060005b838110156108f1576108d28585838181106108c657fe5b9050602002013561163d565b8282815181106108de57fe5b60209081029190910101526001016108af565b5090505b92915050565b60695481565b600083815b61091387836001016117d5565b915050801580610924575083850181115b156109315750905061093c565b600190910190610906565b949350505050565b6000856109508161082d565b1561098c5760405162461bcd60e51b815260040180806020018281038252602281526020018061224a6022913960400191505060405180910390fd5b846109968161082d565b156109d25760405162461bcd60e51b815260040180806020018281038252602281526020018061224a6022913960400191505060405180910390fd5b858814156109e257869250610a19565b60006109ee89876117d5565b50905060006109fd88876117d5565b509050610a1481610a0e8b85611939565b9061194e565b945050505b505095945050505050565b610a2c611963565b6001600160a01b0316610a3d611421565b6001600160a01b031614610a86576040805162461bcd60e51b81526020600482018190526024820152600080516020612308833981519152604482015290519081900360640190fd5b6000818152606760205260409020546001600160a01b031680610af0576040805162461bcd60e51b815260206004820152601c60248201527f4e6f2061676772656761746f722065786973747320666f72206b657900000000604482015290519081900360640190fd5b600082815260676020526040812080546001600160a01b0319169055610b17836068611967565b90508015610b6357604080518481526001600160a01b038416602082015281517fec70e890fc7db7de4059b114c9093a1f41283d18ffcfbcac45566feea4d4f777929181900390910190a15b505050565b6000805b82811015610bc757838382818110610b8057fe5b90506020020135631e1554d160e21b14158015610bb0575042610bae6069546108568787868181106108c657fe5b105b15610bbf5760019150506108f5565b600101610b6c565b5060009392505050565b610bd9611963565b6001600160a01b0316610bea611421565b6001600160a01b031614610c33576040805162461bcd60e51b81526020600482018190526024820152600080516020612308833981519152604482015290519081900360640190fd5b60008190506000816001600160a01b0316638205bf6a6040518163ffffffff1660e01b815260040160206040518083038186803b158015610c7357600080fd5b505afa158015610c87573d6000803e3d6000fd5b505050506040513d6020811015610c9d57600080fd5b50511015610cf2576040805162461bcd60e51b815260206004820152601b60248201527f476976656e2041676772656761746f7220697320696e76616c69640000000000604482015290519081900360640190fd5b6000838152606760205260409020546001600160a01b0316610d4457606880546001810182556000919091527fa2153420d844928b4421650203c77babc8b33d7f2e7b450e2966db0c22097753018390555b60008381526067602090815260409182902080546001600160a01b0319166001600160a01b03851690811790915582518681529182015281517f0bcae573430f69c5361e5d76534d3f61d2d803958778680cd74be9dc6299bc63929181900390910190a1505050565b6066546001600160a01b03163314610df65760405162461bcd60e51b81526004018080602001828103825260278152602001806122926027913960400191505060405180910390fd5b6000610e0182611430565b11610e42576040805162461bcd60e51b815260206004820152600c60248201526b52617465206973207a65726f60a01b604482015290519081900360640190fd5b6000818152606560209081526040808320606a8084528285208054865291845282852085905593859052928252825460001901909255815183815291517fe69d655565c7ff1353d8eaeea62fb7904fa9696987431ec351be288c865f1ae19281900390910190a150565b60688181548110610eb957fe5b600091825260209091200154905081565b600054610100900460ff1680610ee35750610ee3611a12565b80610ef1575060005460ff16155b610f2c5760405162461bcd60e51b815260040180806020018281038252602e8152602001806122b9602e913960400191505060405180910390fd5b600054610100900460ff16158015610f57576000805460ff1961ff0019909116610100171660011790555b610f5f611a23565b838214610f9d5760405162461bcd60e51b815260040180806020018281038252602f8152602001806121ea602f913960400191505060405180910390fd5b85606660006101000a8154816001600160a01b0302191690836001600160a01b03160217905550611045631e1554d160e21b73__$22e4fd0786f9bb9222b95fc3343146c524$__63907af6c06040518163ffffffff1660e01b815260040160206040518083038186803b15801561101357600080fd5b505af4158015611027573d6000803e3d6000fd5b505050506040513d602081101561103d57600080fd5b505142611ad5565b6110528585858542611b4e565b50612a30606955801561106b576000805461ff00191690555b505050505050565b60008361107f8161082d565b156110bb5760405162461bcd60e51b815260040180806020018281038252602281526020018061224a6022913960400191505060405180910390fd5b826110c58161082d565b156111015760405162461bcd60e51b815260040180806020018281038252602281526020018061224a6022913960400191505060405180910390fd5b8386141561111157849250611133565b61113061111d85611430565b610a0e61112989611430565b8890611939565b92505b50509392505050565b6067602052600090815260409020546001600160a01b031681565b61115f611963565b6001600160a01b0316611170611421565b6001600160a01b0316146111b9576040805162461bcd60e51b81526020600482018190526024820152600080516020612308833981519152604482015290519081900360640190fd5b6033546040516000916001600160a01b0316907f8be0079c531659141344cd1fd0a4f28419497f9722a3daafe3b4186f6b6457e0908390a3603380546001600160a01b0319169055565b61120b611963565b6001600160a01b031661121c611421565b6001600160a01b031614611265576040805162461bcd60e51b81526020600482018190526024820152600080516020612308833981519152604482015290519081900360640190fd5b60698190556040805182815290517f16529d8c407b08938da67de7fa4319199baffce4f5d1971f812cc770b0237e669181900360200190a150565b6000818152606760205260408120546001600160a01b03161561134157600082815260676020908152604091829020548251633345078160e11b815292516001600160a01b0390911692839263668a0f0292600480840193829003018186803b15801561130c57600080fd5b505afa158015611320573d6000803e3d6000fd5b505050506040513d602081101561133657600080fd5b505191506108609050565b506000818152606a6020526040902054610860565b61135e611963565b6001600160a01b031661136f611421565b6001600160a01b0316146113b8576040805162461bcd60e51b81526020600482018190526024820152600080516020612308833981519152604482015290519081900360640190fd5b606680546001600160a01b0319166001600160a01b03838116919091179182905560408051929091168252517f3df77beb5db05fcdd70a30fc8adf3f83f9501b68579455adbd100b8180940394916020908290030190a150565b6066546001600160a01b031681565b6033546001600160a01b031690565b600061143b82611d7d565b516001600160d81b031692915050565b60606000818367ffffffffffffffff8111801561146757600080fd5b50604051908082528060200260200182016040528015611491578160200160208202803683370190505b50606954909150600090815b8681101561153f576114ad6121d2565b6114c88989848181106114bc57fe5b90506020020135611d7d565b905080600001516001600160d81b03168583815181106114e457fe5b602002602001018181525050836115365788888381811061150157fe5b90506020020135631e1554d160e21b141580156115335750602081015142906115319064ffffffffff1685611774565b105b93505b5060010161149d565b509193509150505b9250929050565b6066546000906001600160a01b0316331461159a5760405162461bcd60e51b81526004018080602001828103825260278152602001806122926027913960400191505060405180910390fd5b6115a78686868686611b4e565b9695505050505050565b6060808267ffffffffffffffff811180156115cb57600080fd5b506040519080825280602002602001820160405280156115f5578160200160208202803683370190505b50905060005b838110156108f15761161e85858381811061161257fe5b90506020020135611430565b82828151811061162a57fe5b60209081029190910101526001016115fb565b600061164882611d7d565b6020015164ffffffffff1692915050565b611661611963565b6001600160a01b0316611672611421565b6001600160a01b0316146116bb576040805162461bcd60e51b81526020600482018190526024820152600080516020612308833981519152604482015290519081900360640190fd5b6001600160a01b0381166117005760405162461bcd60e51b815260040180806020018281038252602681526020018061226c6026913960400191505060405180910390fd5b6033546040516001600160a01b038084169216907f8be0079c531659141344cd1fd0a4f28419497f9722a3daafe3b4186f6b6457e090600090a3603380546001600160a01b0319166001600160a01b0392909216919091179055565b60008061176984846117d5565b915091509250929050565b6000828201838110156117ce576040805162461bcd60e51b815260206004820152601b60248201527f536166654d6174683a206164646974696f6e206f766572666c6f770000000000604482015290519081900360640190fd5b9392505050565b60008281526067602052604081205481906001600160a01b0316156118ff57600084815260676020908152604091829020548251632d6ad63760e21b81526004810187905292516001600160a01b0390911692839263b5ab58dc92602480840193829003018186803b15801561184a57600080fd5b505afa15801561185e573d6000803e3d6000fd5b505050506040513d602081101561187457600080fd5b505160408051632d8cd88360e21b81526004810187905290516402540be400909202916001600160a01b0384169163b633620c916024808301926020929190829003018186803b1580156118c757600080fd5b505afa1580156118db573d6000803e3d6000fd5b505050506040513d60208110156118f157600080fd5b505190935091506115479050565b505060008281526065602090815260408083208484529091529020546001600160d81b03811690600160d81b900464ffffffffff16611547565b60006117ce8383670de0b6b3a7640000611f16565b60006117ce8383670de0b6b3a7640000611f4d565b3390565b6000805b8254811015610bc7578383828154811061198157fe5b90600052602060002001541415611a0a5782818154811061199e57fe5b60009182526020822001558254839060001981019081106119bb57fe5b90600052602060002001548382815481106119d257fe5b9060005260206000200181905550828054806119ea57fe5b6001900381819060005260206000200160009055905560019150506108f5565b60010161196b565b6000611a1d30611f73565b15905090565b600054610100900460ff1680611a3c5750611a3c611a12565b80611a4a575060005460ff16155b611a855760405162461bcd60e51b815260040180806020018281038252602e8152602001806122b9602e913960400191505060405180910390fd5b600054610100900460ff16158015611ab0576000805460ff1961ff0019909116610100171660011790555b611ab8611f79565b611ac0612019565b8015611ad2576000805461ff00191690555b50565b6000838152606a60209081526040808320805460010190819055815180830183526001600160d81b03968716815264ffffffffff958616818501908152978552606584528285209185529252909120905181549451909216600160d81b029183166001600160d81b031990941693909317909116179055565b6000848314611b8e5760405162461bcd60e51b81526004018080602001828103825260388152602001806123286038913960400191505060405180910390fd5b61025842018210611be6576040805162461bcd60e51b815260206004820152601f60248201527f54696d6520697320746f6f2066617220696e746f207468652066757475726500604482015290519081900360640190fd5b60005b85811015611cdd576000878783818110611bff57fe5b905060200201359050858583818110611c1457fe5b9050602002013560001415611c5a5760405162461bcd60e51b81526004018080602001828103825260398152602001806123606039913960400191505060405180910390fd5b80631e1554d160e21b1415611ca05760405162461bcd60e51b81526004018080602001828103825260318152602001806122196031913960400191505060405180910390fd5b611ca98161163d565b841015611cb65750611cd5565b611cd381878785818110611cc657fe5b9050602002013586611ad5565b505b600101611be9565b507f1bc0fc8997efa076f59b5ef02c315bc5390f7a6d24d661ce12128c01a3b0ba57868686866040518080602001806020018381038352878782818152602001925060200280828437600083820152601f01601f19169091018481038352858152602090810191508690860280828437600083820152604051601f909101601f19169092018290039850909650505050505050a150600195945050505050565b611d856121d2565b6000828152606760205260409020546001600160a01b031615611ec8576040805180820180835260008581526067602090815290849020546350d25bcd60e01b9092529251919283926001600160a01b03909216916350d25bcd9160448086019290818703018186803b158015611dfb57600080fd5b505afa158015611e0f573d6000803e3d6000fd5b505050506040513d6020811015611e2557600080fd5b50516402540be400026001600160d81b03168152600084815260676020908152604091829020548251634102dfb560e11b81529251938201936001600160a01b0390911692638205bf6a926004808301939192829003018186803b158015611e8c57600080fd5b505afa158015611ea0573d6000803e3d6000fd5b505050506040513d6020811015611eb657600080fd5b505164ffffffffff1690529050610860565b506000818152606560209081526040808320606a83528184205484528252918290208251808401909352546001600160d81b0381168352600160d81b900464ffffffffff1690820152610860565b600080600a8304611f278686612112565b81611f2e57fe5b0490506005600a825b0610611f4157600a015b600a9004949350505050565b600080611f6784611f6187600a8702612112565b9061216b565b90506005600a82611f37565b3b151590565b600054610100900460ff1680611f925750611f92611a12565b80611fa0575060005460ff16155b611fdb5760405162461bcd60e51b815260040180806020018281038252602e8152602001806122b9602e913960400191505060405180910390fd5b600054610100900460ff16158015611ac0576000805460ff1961ff0019909116610100171660011790558015611ad2576000805461ff001916905550565b600054610100900460ff16806120325750612032611a12565b80612040575060005460ff16155b61207b5760405162461bcd60e51b815260040180806020018281038252602e8152602001806122b9602e913960400191505060405180910390fd5b600054610100900460ff161580156120a6576000805460ff1961ff0019909116610100171660011790555b60006120b0611963565b603380546001600160a01b0319166001600160a01b038316908117909155604051919250906000907f8be0079c531659141344cd1fd0a4f28419497f9722a3daafe3b4186f6b6457e0908290a3508015611ad2576000805461ff001916905550565b600082612121575060006108f5565b8282028284828161212e57fe5b04146117ce5760405162461bcd60e51b81526004018080602001828103825260218152602001806122e76021913960400191505060405180910390fd5b60008082116121c1576040805162461bcd60e51b815260206004820152601a60248201527f536166654d6174683a206469766973696f6e206279207a65726f000000000000604482015290519081900360640190fd5b8183816121ca57fe5b049392505050565b60408051808201909152600080825260208201529056fe43757272656e6379206b6579206c656e67746820616e642072617465206c656e677468206d757374206d617463682e52617465206f6620785553442063616e6e6f7420626520757064617465642c206974277320616c7761797320554e49542e52617465207374616c65206f72206e6f6e6578697374616e742063757272656e63794f776e61626c653a206e6577206f776e657220697320746865207a65726f20616464726573734f6e6c7920746865206f7261636c652063616e20706572666f726d207468697320616374696f6e496e697469616c697a61626c653a20636f6e747261637420697320616c726561647920696e697469616c697a6564536166654d6174683a206d756c7469706c69636174696f6e206f766572666c6f774f776e61626c653a2063616c6c6572206973206e6f7420746865206f776e657243757272656e6379206b6579206172726179206c656e677468206d757374206d61746368207261746573206172726179206c656e6774682e5a65726f206973206e6f7420612076616c696420726174652c20706c656173652063616c6c2064656c6574655261746520696e73746561642ea26469706673582212204b0b6e870458d84f7a36257c22dd345796a281477ec9980e9647ed1be030226e64736f6c63430007010033",
  "libraries": {
    "SafeDecimalMath": "0x7Ad03fA3195761d2c4670DD9B01bcdeF63028DD3"
  },
  "devdoc": {
    "kind": "dev",
    "methods": {
      "owner()": {
        "details": "Returns the address of the current owner."
      },
      "renounceOwnership()": {
        "details": "Leaves the contract without owner. It will not be possible to call `onlyOwner` functions anymore. Can only be called by the current owner. NOTE: Renouncing ownership will leave the contract without an owner, thereby removing any functionality that is only available to the owner."
      },
      "transferOwnership(address)": {
        "details": "Transfers ownership of the contract to a new account (`newOwner`). Can only be called by the current owner."
      }
    },
    "version": 1
  },
  "userdoc": {
    "kind": "user",
    "methods": {
      "addAggregator(bytes32,address)": {
        "notice": "Add a pricing aggregator for the given key. Note: existing aggregators may be overridden."
      }
    },
    "version": 1
  },
  "storageLayout": {
    "storage": [
      {
        "astId": 595,
        "contract": "contracts/Oracle.sol:Oracle",
        "label": "_initialized",
        "offset": 0,
        "slot": "0",
        "type": "t_bool"
      },
      {
        "astId": 598,
        "contract": "contracts/Oracle.sol:Oracle",
        "label": "_initializing",
        "offset": 1,
        "slot": "0",
        "type": "t_bool"
      },
      {
        "astId": 1615,
        "contract": "contracts/Oracle.sol:Oracle",
        "label": "__gap",
        "offset": 0,
        "slot": "1",
        "type": "t_array(t_uint256)50_storage"
      },
      {
        "astId": 113,
        "contract": "contracts/Oracle.sol:Oracle",
        "label": "_owner",
        "offset": 0,
        "slot": "51",
        "type": "t_address"
      },
      {
        "astId": 232,
        "contract": "contracts/Oracle.sol:Oracle",
        "label": "__gap",
        "offset": 0,
        "slot": "52",
        "type": "t_array(t_uint256)49_storage"
      },
      {
        "astId": 4248,
        "contract": "contracts/Oracle.sol:Oracle",
        "label": "_rates",
        "offset": 0,
        "slot": "101",
        "type": "t_mapping(t_bytes32,t_mapping(t_uint256,t_struct(RateAndUpdatedTime)4242_storage))"
      },
      {
        "astId": 4250,
        "contract": "contracts/Oracle.sol:Oracle",
        "label": "oracle",
        "offset": 0,
        "slot": "102",
        "type": "t_address"
      },
      {
        "astId": 4254,
        "contract": "contracts/Oracle.sol:Oracle",
        "label": "aggregators",
        "offset": 0,
        "slot": "103",
        "type": "t_mapping(t_bytes32,t_contract(AggregatorV2V3Interface)56)"
      },
      {
        "astId": 4257,
        "contract": "contracts/Oracle.sol:Oracle",
        "label": "aggregatorKeys",
        "offset": 0,
        "slot": "104",
        "type": "t_array(t_bytes32)dyn_storage"
      },
      {
        "astId": 4262,
        "contract": "contracts/Oracle.sol:Oracle",
        "label": "rateStalePeriod",
        "offset": 0,
        "slot": "105",
        "type": "t_uint256"
      },
      {
        "astId": 4266,
        "contract": "contracts/Oracle.sol:Oracle",
        "label": "currentRoundForRate",
        "offset": 0,
        "slot": "106",
        "type": "t_mapping(t_bytes32,t_uint256)"
      }
    ],
    "types": {
      "t_address": {
        "encoding": "inplace",
        "label": "address",
        "numberOfBytes": "20"
      },
      "t_array(t_bytes32)dyn_storage": {
        "base": "t_bytes32",
        "encoding": "dynamic_array",
        "label": "bytes32[]",
        "numberOfBytes": "32"
      },
      "t_array(t_uint256)49_storage": {
        "base": "t_uint256",
        "encoding": "inplace",
        "label": "uint256[49]",
        "numberOfBytes": "1568"
      },
      "t_array(t_uint256)50_storage": {
        "base": "t_uint256",
        "encoding": "inplace",
        "label": "uint256[50]",
        "numberOfBytes": "1600"
      },
      "t_bool": {
        "encoding": "inplace",
        "label": "bool",
        "numberOfBytes": "1"
      },
      "t_bytes32": {
        "encoding": "inplace",
        "label": "bytes32",
        "numberOfBytes": "32"
      },
      "t_contract(AggregatorV2V3Interface)56": {
        "encoding": "inplace",
        "label": "contract AggregatorV2V3Interface",
        "numberOfBytes": "20"
      },
      "t_mapping(t_bytes32,t_contract(AggregatorV2V3Interface)56)": {
        "encoding": "mapping",
        "key": "t_bytes32",
        "label": "mapping(bytes32 => contract AggregatorV2V3Interface)",
        "numberOfBytes": "32",
        "value": "t_contract(AggregatorV2V3Interface)56"
      },
      "t_mapping(t_bytes32,t_mapping(t_uint256,t_struct(RateAndUpdatedTime)4242_storage))": {
        "encoding": "mapping",
        "key": "t_bytes32",
        "label": "mapping(bytes32 => mapping(uint256 => struct Oracle.RateAndUpdatedTime))",
        "numberOfBytes": "32",
        "value": "t_mapping(t_uint256,t_struct(RateAndUpdatedTime)4242_storage)"
      },
      "t_mapping(t_bytes32,t_uint256)": {
        "encoding": "mapping",
        "key": "t_bytes32",
        "label": "mapping(bytes32 => uint256)",
        "numberOfBytes": "32",
        "value": "t_uint256"
      },
      "t_mapping(t_uint256,t_struct(RateAndUpdatedTime)4242_storage)": {
        "encoding": "mapping",
        "key": "t_uint256",
        "label": "mapping(uint256 => struct Oracle.RateAndUpdatedTime)",
        "numberOfBytes": "32",
        "value": "t_struct(RateAndUpdatedTime)4242_storage"
      },
      "t_struct(RateAndUpdatedTime)4242_storage": {
        "encoding": "inplace",
        "label": "struct Oracle.RateAndUpdatedTime",
        "members": [
          {
            "astId": 4239,
            "contract": "contracts/Oracle.sol:Oracle",
            "label": "rate",
            "offset": 0,
            "slot": "0",
            "type": "t_uint216"
          },
          {
            "astId": 4241,
            "contract": "contracts/Oracle.sol:Oracle",
            "label": "time",
            "offset": 27,
            "slot": "0",
            "type": "t_uint40"
          }
        ],
        "numberOfBytes": "32"
      },
      "t_uint216": {
        "encoding": "inplace",
        "label": "uint216",
        "numberOfBytes": "27"
      },
      "t_uint256": {
        "encoding": "inplace",
        "label": "uint256",
        "numberOfBytes": "32"
      },
      "t_uint40": {
        "encoding": "inplace",
        "label": "uint40",
        "numberOfBytes": "5"
      }
    }
  }
}