{
  "address": "0x0ac44a714ca99178d6deff580c55f04bff22572e",
  "abi": [
    {
      "anonymous": false,
      "inputs": [
        {
          "indexed": true,
          "internalType": "address",
          "name": "previousOwner",
          "type": "address"
        },
        {
          "indexed": true,
          "internalType": "address",
          "name": "newOwner",
          "type": "address"
        }
      ],
      "name": "OwnershipTransferred",
      "type": "event"
    },
    {
      "anonymous": false,
      "inputs": [
        {
          "indexed": true,
          "internalType": "address",
          "name": "beneficiary",
          "type": "address"
        },
        {
          "indexed": false,
          "internalType": "uint256",
          "name": "time",
          "type": "uint256"
        },
        {
          "indexed": false,
          "internalType": "uint256",
          "name": "value",
          "type": "uint256"
        }
      ],
      "name": "Vested",
      "type": "event"
    },
    {
      "anonymous": false,
      "inputs": [
        {
          "indexed": true,
          "internalType": "address",
          "name": "beneficiary",
          "type": "address"
        },
        {
          "indexed": false,
          "internalType": "uint256",
          "name": "time",
          "type": "uint256"
        },
        {
          "indexed": false,
          "internalType": "uint256",
          "name": "value",
          "type": "uint256"
        }
      ],
      "name": "VestingEntryCreated",
      "type": "event"
    },
    {
      "inputs": [],
      "name": "MAX_VESTING_ENTRIES",
      "outputs": [
        {
          "internalType": "uint256",
          "name": "",
          "type": "uint256"
        }
      ],
      "stateMutability": "view",
      "type": "function"
    },
    {
      "inputs": [
        {
          "internalType": "address",
          "name": "account",
          "type": "address"
        },
        {
          "internalType": "uint256",
          "name": "quantity",
          "type": "uint256"
        }
      ],
      "name": "appendVestingEntry",
      "outputs": [],
      "stateMutability": "nonpayable",
      "type": "function"
    },
    {
      "inputs": [
        {
          "internalType": "address",
          "name": "account",
          "type": "address"
        }
      ],
      "name": "balanceOf",
      "outputs": [
        {
          "internalType": "uint256",
          "name": "",
          "type": "uint256"
        }
      ],
      "stateMutability": "view",
      "type": "function"
    },
    {
      "inputs": [
        {
          "internalType": "address",
          "name": "account",
          "type": "address"
        }
      ],
      "name": "checkAccountSchedule",
      "outputs": [
        {
          "internalType": "uint256[520]",
          "name": "",
          "type": "uint256[520]"
        }
      ],
      "stateMutability": "view",
      "type": "function"
    },
    {
      "inputs": [
        {
          "internalType": "address",
          "name": "account",
          "type": "address"
        }
      ],
      "name": "getNextVestingEntry",
      "outputs": [
        {
          "internalType": "uint256[2]",
          "name": "",
          "type": "uint256[2]"
        }
      ],
      "stateMutability": "view",
      "type": "function"
    },
    {
      "inputs": [
        {
          "internalType": "address",
          "name": "account",
          "type": "address"
        }
      ],
      "name": "getNextVestingIndex",
      "outputs": [
        {
          "internalType": "uint256",
          "name": "",
          "type": "uint256"
        }
      ],
      "stateMutability": "view",
      "type": "function"
    },
    {
      "inputs": [
        {
          "internalType": "address",
          "name": "account",
          "type": "address"
        }
      ],
      "name": "getNextVestingQuantity",
      "outputs": [
        {
          "internalType": "uint256",
          "name": "",
          "type": "uint256"
        }
      ],
      "stateMutability": "view",
      "type": "function"
    },
    {
      "inputs": [
        {
          "internalType": "address",
          "name": "account",
          "type": "address"
        }
      ],
      "name": "getNextVestingTime",
      "outputs": [
        {
          "internalType": "uint256",
          "name": "",
          "type": "uint256"
        }
      ],
      "stateMutability": "view",
      "type": "function"
    },
    {
      "inputs": [
        {
          "internalType": "address",
          "name": "account",
          "type": "address"
        },
        {
          "internalType": "uint256",
          "name": "index",
          "type": "uint256"
        }
      ],
      "name": "getVestingQuantity",
      "outputs": [
        {
          "internalType": "uint256",
          "name": "",
          "type": "uint256"
        }
      ],
      "stateMutability": "view",
      "type": "function"
    },
    {
      "inputs": [
        {
          "internalType": "address",
          "name": "account",
          "type": "address"
        },
        {
          "internalType": "uint256",
          "name": "index",
          "type": "uint256"
        }
      ],
      "name": "getVestingScheduleEntry",
      "outputs": [
        {
          "internalType": "uint256[2]",
          "name": "",
          "type": "uint256[2]"
        }
      ],
      "stateMutability": "view",
      "type": "function"
    },
    {
      "inputs": [
        {
          "internalType": "address",
          "name": "account",
          "type": "address"
        },
        {
          "internalType": "uint256",
          "name": "index",
          "type": "uint256"
        }
      ],
      "name": "getVestingTime",
      "outputs": [
        {
          "internalType": "uint256",
          "name": "",
          "type": "uint256"
        }
      ],
      "stateMutability": "view",
      "type": "function"
    },
    {
      "inputs": [
        {
          "internalType": "address",
          "name": "_resolver",
          "type": "address"
        }
      ],
      "name": "initialize",
      "outputs": [],
      "stateMutability": "nonpayable",
      "type": "function"
    },
    {
      "inputs": [
        {
          "internalType": "address",
          "name": "account",
          "type": "address"
        }
      ],
      "name": "numVestingEntries",
      "outputs": [
        {
          "internalType": "uint256",
          "name": "",
          "type": "uint256"
        }
      ],
      "stateMutability": "view",
      "type": "function"
    },
    {
      "inputs": [],
      "name": "owner",
      "outputs": [
        {
          "internalType": "address",
          "name": "",
          "type": "address"
        }
      ],
      "stateMutability": "view",
      "type": "function"
    },
    {
      "inputs": [],
      "name": "renounceOwnership",
      "outputs": [],
      "stateMutability": "nonpayable",
      "type": "function"
    },
    {
      "inputs": [],
      "name": "resolver",
      "outputs": [
        {
          "internalType": "contract AddressResolver",
          "name": "",
          "type": "address"
        }
      ],
      "stateMutability": "view",
      "type": "function"
    },
    {
      "inputs": [
        {
          "internalType": "contract AddressResolver",
          "name": "_resolver",
          "type": "address"
        }
      ],
      "name": "setResolver",
      "outputs": [],
      "stateMutability": "nonpayable",
      "type": "function"
    },
    {
      "inputs": [
        {
          "internalType": "address",
          "name": "",
          "type": "address"
        }
      ],
      "name": "totalEscrowedAccountBalance",
      "outputs": [
        {
          "internalType": "uint256",
          "name": "",
          "type": "uint256"
        }
      ],
      "stateMutability": "view",
      "type": "function"
    },
    {
      "inputs": [],
      "name": "totalEscrowedBalance",
      "outputs": [
        {
          "internalType": "uint256",
          "name": "",
          "type": "uint256"
        }
      ],
      "stateMutability": "view",
      "type": "function"
    },
    {
      "inputs": [
        {
          "internalType": "address",
          "name": "",
          "type": "address"
        }
      ],
      "name": "totalVestedAccountBalance",
      "outputs": [
        {
          "internalType": "uint256",
          "name": "",
          "type": "uint256"
        }
      ],
      "stateMutability": "view",
      "type": "function"
    },
    {
      "inputs": [
        {
          "internalType": "address",
          "name": "newOwner",
          "type": "address"
        }
      ],
      "name": "transferOwnership",
      "outputs": [],
      "stateMutability": "nonpayable",
      "type": "function"
    },
    {
      "inputs": [],
      "name": "vest",
      "outputs": [],
      "stateMutability": "nonpayable",
      "type": "function"
    },
    {
      "inputs": [
        {
          "internalType": "address",
          "name": "account",
          "type": "address"
        }
      ],
      "name": "vestBalanceOf",
      "outputs": [
        {
          "internalType": "uint256",
          "name": "",
          "type": "uint256"
        }
      ],
      "stateMutability": "view",
      "type": "function"
    },
    {
      "inputs": [
        {
          "internalType": "address",
          "name": "",
          "type": "address"
        },
        {
          "internalType": "uint256",
          "name": "",
          "type": "uint256"
        },
        {
          "internalType": "uint256",
          "name": "",
          "type": "uint256"
        }
      ],
      "name": "vestingSchedules",
      "outputs": [
        {
          "internalType": "uint256",
          "name": "",
          "type": "uint256"
        }
      ],
      "stateMutability": "view",
      "type": "function"
    }
  ],
  "transactionHash": "0xae467452979754943eae24079e4e169de1be52111b218146be6cdbca37dd3cf8",
  "args": [],
  "solcInputHash": "8ef461cdde0a7df288c3e662cacefd07",
  "bytecode": "0x608060405234801561001057600080fd5b50611788806100206000396000f3fe608060405234801561001057600080fd5b50600436106101585760003560e01c8063715018a6116100c3578063c4d66de81161007c578063c4d66de81461040c578063d0cc82e314610432578063da7bd3e91461043a578063e33d28d714610466578063ee1d036c1461048c578063f2fde38b146104b857610158565b8063715018a61461037657806371e780f31461037e5780638da5cb5b1461038657806397f465271461038e5780639b217f90146103b4578063b5ddb9c7146103e057610158565b8063449d0eb111610115578063449d0eb11461028c578063458efde3146102c857806345e5441f146102d25780634e543b26146103045780636b3905c41461032a57806370a082311461035057610158565b806304f3bcec1461015d57806319e740c014610181578063204b676a146101b9578063227d517a146101df5780632f5bb66114610205578063326a3cfb14610266575b600080fd5b6101656104de565b604080516001600160a01b039092168252519081900360200190f35b6101a76004803603602081101561019757600080fd5b50356001600160a01b03166104ed565b60408051918252519081900360200190f35b6101a7600480360360208110156101cf57600080fd5b50356001600160a01b031661052f565b6101a7600480360360208110156101f557600080fd5b50356001600160a01b031661054a565b61022b6004803603602081101561021b57600080fd5b50356001600160a01b031661055c565b6040518082600260200280838360005b8381101561025357818101518382015260200161023b565b5050505090500191505060405180910390f35b6101a76004803603602081101561027c57600080fd5b50356001600160a01b03166105ad565b6102b2600480360360208110156102a257600080fd5b50356001600160a01b03166105bf565b604051815181528082614100808383602061023b565b6102d0610645565b005b6101a7600480360360608110156102e857600080fd5b506001600160a01b038135169060208101359060400135610825565b6102d06004803603602081101561031a57600080fd5b50356001600160a01b0316610861565b6101a76004803603602081101561034057600080fd5b50356001600160a01b03166108f7565b6101a76004803603602081101561036657600080fd5b50356001600160a01b0316610910565b6102d061092b565b6101a76109e9565b6101656109ef565b6101a7600480360360208110156103a457600080fd5b50356001600160a01b03166109fe565b6101a7600480360360408110156103ca57600080fd5b506001600160a01b038135169060200135610a10565b6102d0600480360360408110156103f657600080fd5b506001600160a01b038135169060200135610a2b565b6102d06004803603602081101561042257600080fd5b50356001600160a01b0316610d64565b6101a7610e17565b61022b6004803603604081101561045057600080fd5b506001600160a01b038135169060200135610e1d565b6101a76004803603602081101561047c57600080fd5b50356001600160a01b0316610e8c565b6101a7600480360360408110156104a257600080fd5b506001600160a01b038135169060200135610ea7565b6102d0600480360360208110156104ce57600080fd5b50356001600160a01b0316610eba565b6065546001600160a01b031681565b6000806104f98361052f565b905060005b81811015610526576105108482610a10565b1561051e57915061052a9050565b6001016104fe565b5090505b919050565b6001600160a01b031660009081526066602052604090205490565b60686020526000908152604090205481565b61056461158a565b600061056f836104ed565b905061057a8361052f565b81141561059c575050604080518082019091526000808252602082015261052a565b6105a68382610e1d565b9392505050565b60676020526000908152604090205481565b6105c76115a8565b6105cf6115a8565b60006105da8461052f565b905060005b8181101561063c576105ef61158a565b6105f98683610e1d565b80519091508460028402610208811061060e57fe5b602002015280600160200201518483600202600101610208811061062e57fe5b6020020152506001016105df565b50909392505050565b60006106503361052f565b90506000805b828110156106f557600061066a3383610a10565b90504281111561067a57506106f5565b60006106863384610ea7565b9050806106945750506106ed565b6040805180820182526000808252602080830182905233825260669052919091208054859081106106c157fe5b90600052602060002090600202019060026106dd9291906115c8565b506106e88482610fcf565b935050505b600101610656565b508015610821576069546107099082611029565b606955336000908152606760205260409020546107269082611029565b3360009081526067602090815260408083209390935560689052205461074c9082610fcf565b33600090815260686020526040902055610764611086565b6001600160a01b031663a9059cbb33836040518363ffffffff1660e01b815260040180836001600160a01b0316815260200182815260200192505050602060405180830381600087803b1580156107ba57600080fd5b505af11580156107ce573d6000803e3d6000fd5b505050506040513d60208110156107e457600080fd5b50506040805142815260208101839052815133927ffbeff59d2bfda0d79ea8a29f8c57c66d48c7a13eabbdb90908d9115ec41c9dc6928290030190a25b5050565b6066602052826000526040600020828154811061083e57fe5b9060005260206000209060020201816002811061085757fe5b0154925083915050565b610869611140565b6001600160a01b031661087a6109ef565b6001600160a01b0316146108d5576040805162461bcd60e51b815260206004820181905260248201527f4f776e61626c653a2063616c6c6572206973206e6f7420746865206f776e6572604482015290519081900360640190fd5b606580546001600160a01b0319166001600160a01b0392909216919091179055565b60006109028261055c565b60005b602002015192915050565b6001600160a01b031660009081526067602052604090205490565b610933611140565b6001600160a01b03166109446109ef565b6001600160a01b03161461099f576040805162461bcd60e51b815260206004820181905260248201527f4f776e61626c653a2063616c6c6572206973206e6f7420746865206f776e6572604482015290519081900360640190fd5b6033546040516000916001600160a01b0316907f8be0079c531659141344cd1fd0a4f28419497f9722a3daafe3b4186f6b6457e0908390a3603380546001600160a01b0319169055565b60695481565b6033546001600160a01b031690565b6000610a098261055c565b6001610905565b6000610a1c8383610e1d565b60005b60200201519392505050565b6000610a35611144565b6001600160a01b0316336001600160a01b031614905080610a875760405162461bcd60e51b81526004018080602001828103825260328152602001806117216032913960400191505060405180910390fd5b81610ad9576040805162461bcd60e51b815260206004820152601760248201527f5175616e746974792063616e6e6f74206265207a65726f000000000000000000604482015290519081900360640190fd5b606954610ae69083610fcf565b606955610af1611086565b6001600160a01b03166370a08231306040518263ffffffff1660e01b815260040180826001600160a01b0316815260200191505060206040518083038186803b158015610b3d57600080fd5b505afa158015610b51573d6000803e3d6000fd5b505050506040513d6020811015610b6757600080fd5b50516069541115610ba95760405162461bcd60e51b81526004018080602001828103825260478152602001806116ac6047913960600191505060405180910390fd5b6001600160a01b038316600090815260666020526040902054610104811115610c19576040805162461bcd60e51b815260206004820152601c60248201527f56657374696e67207363686564756c6520697320746f6f206c6f6e6700000000604482015290519081900360640190fd5b6301dfe200420181610c45576001600160a01b0385166000908152606760205260409020849055610ccc565b80610c538660018503610a10565b10610c8f5760405162461bcd60e51b81526004018080602001828103825260378152602001806116756037913960400191505060405180910390fd5b6001600160a01b038516600090815260676020526040902054610cb29085610fcf565b6001600160a01b0386166000908152606760205260409020555b6001600160a01b03851660009081526066602090815260408083208151808301909252848252818301889052805460018101825590845291909220610d199260029283029091019161160b565b50604080514281526020810186905281516001600160a01b038816927fedd34dc5a5ea12bd847909801d0660781b50e26c7f4cec3c7b308f1ea410635c928290030190a25050505050565b600054610100900460ff1680610d7d5750610d7d6111cd565b80610d8b575060005460ff16155b610dc65760405162461bcd60e51b815260040180806020018281038252602e8152602001806116f3602e913960400191505060405180910390fd5b600054610100900460ff16158015610df1576000805460ff1961ff0019909116610100171660011790555b610df96111de565b610e0282611290565b8015610821576000805461ff00191690555050565b61010481565b610e2561158a565b6001600160a01b0383166000908152606660205260409020805483908110610e4957fe5b600091825260209091206040805180820191829052926002908102909201919082845b815481526020019060010190808311610e6c575050505050905092915050565b6001600160a01b031660009081526068602052604090205490565b6000610eb38383610e1d565b6001610a1f565b610ec2611140565b6001600160a01b0316610ed36109ef565b6001600160a01b031614610f2e576040805162461bcd60e51b815260206004820181905260248201527f4f776e61626c653a2063616c6c6572206973206e6f7420746865206f776e6572604482015290519081900360640190fd5b6001600160a01b038116610f735760405162461bcd60e51b815260040180806020018281038252602681526020018061164f6026913960400191505060405180910390fd5b6033546040516001600160a01b038084169216907f8be0079c531659141344cd1fd0a4f28419497f9722a3daafe3b4186f6b6457e090600090a3603380546001600160a01b0319166001600160a01b0392909216919091179055565b6000828201838110156105a6576040805162461bcd60e51b815260206004820152601b60248201527f536166654d6174683a206164646974696f6e206f766572666c6f770000000000604482015290519081900360640190fd5b600082821115611080576040805162461bcd60e51b815260206004820152601e60248201527f536166654d6174683a207375627472616374696f6e206f766572666c6f770000604482015290519081900360640190fd5b50900390565b6065546040805163dacb2d0160e01b815266536861646f777360c81b600482015260248101829052601760448201527f4d697373696e6720536861646f77732061646472657373000000000000000000606482015290516000926001600160a01b03169163dacb2d01916084808301926020929190829003018186803b15801561110f57600080fd5b505afa158015611123573d6000803e3d6000fd5b505050506040513d602081101561113957600080fd5b5051905090565b3390565b6065546040805163dacb2d0160e01b815266119959541bdbdb60ca1b600482015260248101829052601760448201527f4d697373696e6720466565506f6f6c2061646472657373000000000000000000606482015290516000926001600160a01b03169163dacb2d01916084808301926020929190829003018186803b15801561110f57600080fd5b60006111d83061132e565b15905090565b600054610100900460ff16806111f757506111f76111cd565b80611205575060005460ff16155b6112405760405162461bcd60e51b815260040180806020018281038252602e8152602001806116f3602e913960400191505060405180910390fd5b600054610100900460ff1615801561126b576000805460ff1961ff0019909116610100171660011790555b611273611334565b61127b6113d4565b801561128d576000805461ff00191690555b50565b600054610100900460ff16806112a957506112a96111cd565b806112b7575060005460ff16155b6112f25760405162461bcd60e51b815260040180806020018281038252602e8152602001806116f3602e913960400191505060405180910390fd5b600054610100900460ff1615801561131d576000805460ff1961ff0019909116610100171660011790555b6113256111de565b610e02826114cd565b3b151590565b600054610100900460ff168061134d575061134d6111cd565b8061135b575060005460ff16155b6113965760405162461bcd60e51b815260040180806020018281038252602e8152602001806116f3602e913960400191505060405180910390fd5b600054610100900460ff1615801561127b576000805460ff1961ff001990911661010017166001179055801561128d576000805461ff001916905550565b600054610100900460ff16806113ed57506113ed6111cd565b806113fb575060005460ff16155b6114365760405162461bcd60e51b815260040180806020018281038252602e8152602001806116f3602e913960400191505060405180910390fd5b600054610100900460ff16158015611461576000805460ff1961ff0019909116610100171660011790555b600061146b611140565b603380546001600160a01b0319166001600160a01b038316908117909155604051919250906000907f8be0079c531659141344cd1fd0a4f28419497f9722a3daafe3b4186f6b6457e0908290a350801561128d576000805461ff001916905550565b600054610100900460ff16806114e657506114e66111cd565b806114f4575060005460ff16155b61152f5760405162461bcd60e51b815260040180806020018281038252602e8152602001806116f3602e913960400191505060405180910390fd5b600054610100900460ff1615801561155a576000805460ff1961ff0019909116610100171660011790555b606580546001600160a01b0319166001600160a01b0384161790558015610821576000805461ff00191690555050565b60405180604001604052806002906020820280368337509192915050565b604051806141000160405280610208906020820280368337509192915050565b82600281019282156115fb579160200282015b828111156115fb578251829060ff169055916020019190600101906115db565b50611607929150611639565b5090565b82600281019282156115fb579160200282015b828111156115fb57825182559160200191906001019061161e565b5b80821115611607576000815560010161163a56fe4f776e61626c653a206e6577206f776e657220697320746865207a65726f206164647265737343616e6e6f7420616464206e65772076657374656420656e7472696573206561726c696572207468616e20746865206c617374206f6e654d75737420626520656e6f7567682062616c616e636520696e2074686520636f6e747261637420746f2070726f7669646520666f72207468652076657374696e6720656e747279496e697469616c697a61626c653a20636f6e747261637420697320616c726561647920696e697469616c697a65644f6e6c792074686520466565506f6f6c20636f6e7472616374732063616e20706572666f726d207468697320616374696f6ea26469706673582212209ea72278ad84a8e119070f5ea2cbeb00d064074dc316cd70afc30e7a946bb48664736f6c63430007010033",
  "devdoc": {
    "kind": "dev",
    "methods": {
      "appendVestingEntry(address,uint256)": {
        "details": "A call to this should accompany a previous successful call to shadows.transfer(rewardEscrow, amount), to ensure that when the funds are withdrawn, there is enough balance. Note; although this function could technically be used to produce unbounded arrays, it's only withinn the 4 year period of the weekly inflation schedule.",
        "params": {
          "account": "The account to append a new vesting entry to.",
          "quantity": "The quantity of DOWS that will be escrowed."
        }
      },
      "checkAccountSchedule(address)": {
        "details": "For DApps to display the vesting schedule for the inflationary supply over 5 years. Solidity cant return variable length arrays so this is returning pairs of data. Vesting Time at [0] and quantity at [1] and so on"
      },
      "getNextVestingEntry(address)": {
        "returns": {
          "_0": "A pair of uints: (timestamp, shadows quantity). "
        }
      },
      "getVestingScheduleEntry(address,uint256)": {
        "returns": {
          "_0": "A pair of uints: (timestamp, shadows quantity)."
        }
      },
      "owner()": {
        "details": "Returns the address of the current owner."
      },
      "renounceOwnership()": {
        "details": "Leaves the contract without owner. It will not be possible to call `onlyOwner` functions anymore. Can only be called by the current owner. NOTE: Renouncing ownership will leave the contract without an owner, thereby removing any functionality that is only available to the owner."
      },
      "transferOwnership(address)": {
        "details": "Transfers ownership of the contract to a new account (`newOwner`). Can only be called by the current owner."
      }
    },
    "version": 1
  },
  "userdoc": {
    "kind": "user",
    "methods": {
      "appendVestingEntry(address,uint256)": {
        "notice": "Add a new vesting entry at a given time and quantity to an account's schedule."
      },
      "checkAccountSchedule(address)": {
        "notice": "return the full vesting schedule entries vest for a given user."
      },
      "getNextVestingEntry(address)": {
        "notice": "Obtain the next schedule entry that will vest for a given user."
      },
      "getNextVestingIndex(address)": {
        "notice": "Obtain the index of the next schedule entry that will vest for a given user."
      },
      "getNextVestingQuantity(address)": {
        "notice": "Obtain the quantity which the next schedule entry will vest for a given user."
      },
      "getNextVestingTime(address)": {
        "notice": "Obtain the time at which the next schedule entry will vest for a given user."
      },
      "getVestingQuantity(address,uint256)": {
        "notice": "Get the quantity of DOWS associated with a given schedule entry."
      },
      "getVestingScheduleEntry(address,uint256)": {
        "notice": "Get a particular schedule entry for an account."
      },
      "getVestingTime(address,uint256)": {
        "notice": "Get the time at which a given schedule entry will vest."
      },
      "numVestingEntries(address)": {
        "notice": "The number of vesting dates in an account's schedule."
      },
      "vest()": {
        "notice": "Allow a user to withdraw any DOWS in their schedule that have vested."
      }
    },
    "version": 1
  },
  "storageLayout": {
    "storage": [
      {
        "astId": 595,
        "contract": "contracts/RewardEscrow.sol:RewardEscrow",
        "label": "_initialized",
        "offset": 0,
        "slot": "0",
        "type": "t_bool"
      },
      {
        "astId": 598,
        "contract": "contracts/RewardEscrow.sol:RewardEscrow",
        "label": "_initializing",
        "offset": 1,
        "slot": "0",
        "type": "t_bool"
      },
      {
        "astId": 1615,
        "contract": "contracts/RewardEscrow.sol:RewardEscrow",
        "label": "__gap",
        "offset": 0,
        "slot": "1",
        "type": "t_array(t_uint256)50_storage"
      },
      {
        "astId": 113,
        "contract": "contracts/RewardEscrow.sol:RewardEscrow",
        "label": "_owner",
        "offset": 0,
        "slot": "51",
        "type": "t_address"
      },
      {
        "astId": 232,
        "contract": "contracts/RewardEscrow.sol:RewardEscrow",
        "label": "__gap",
        "offset": 0,
        "slot": "52",
        "type": "t_array(t_uint256)49_storage"
      },
      {
        "astId": 8232,
        "contract": "contracts/RewardEscrow.sol:RewardEscrow",
        "label": "resolver",
        "offset": 0,
        "slot": "101",
        "type": "t_contract(AddressResolver)8220"
      },
      {
        "astId": 5396,
        "contract": "contracts/RewardEscrow.sol:RewardEscrow",
        "label": "vestingSchedules",
        "offset": 0,
        "slot": "102",
        "type": "t_mapping(t_address,t_array(t_array(t_uint256)2_storage)dyn_storage)"
      },
      {
        "astId": 5400,
        "contract": "contracts/RewardEscrow.sol:RewardEscrow",
        "label": "totalEscrowedAccountBalance",
        "offset": 0,
        "slot": "103",
        "type": "t_mapping(t_address,t_uint256)"
      },
      {
        "astId": 5404,
        "contract": "contracts/RewardEscrow.sol:RewardEscrow",
        "label": "totalVestedAccountBalance",
        "offset": 0,
        "slot": "104",
        "type": "t_mapping(t_address,t_uint256)"
      },
      {
        "astId": 5406,
        "contract": "contracts/RewardEscrow.sol:RewardEscrow",
        "label": "totalEscrowedBalance",
        "offset": 0,
        "slot": "105",
        "type": "t_uint256"
      }
    ],
    "types": {
      "t_address": {
        "encoding": "inplace",
        "label": "address",
        "numberOfBytes": "20"
      },
      "t_array(t_array(t_uint256)2_storage)dyn_storage": {
        "base": "t_array(t_uint256)2_storage",
        "encoding": "dynamic_array",
        "label": "uint256[2][]",
        "numberOfBytes": "32"
      },
      "t_array(t_uint256)2_storage": {
        "base": "t_uint256",
        "encoding": "inplace",
        "label": "uint256[2]",
        "numberOfBytes": "64"
      },
      "t_array(t_uint256)49_storage": {
        "base": "t_uint256",
        "encoding": "inplace",
        "label": "uint256[49]",
        "numberOfBytes": "1568"
      },
      "t_array(t_uint256)50_storage": {
        "base": "t_uint256",
        "encoding": "inplace",
        "label": "uint256[50]",
        "numberOfBytes": "1600"
      },
      "t_bool": {
        "encoding": "inplace",
        "label": "bool",
        "numberOfBytes": "1"
      },
      "t_contract(AddressResolver)8220": {
        "encoding": "inplace",
        "label": "contract AddressResolver",
        "numberOfBytes": "20"
      },
      "t_mapping(t_address,t_array(t_array(t_uint256)2_storage)dyn_storage)": {
        "encoding": "mapping",
        "key": "t_address",
        "label": "mapping(address => uint256[2][])",
        "numberOfBytes": "32",
        "value": "t_array(t_array(t_uint256)2_storage)dyn_storage"
      },
      "t_mapping(t_address,t_uint256)": {
        "encoding": "mapping",
        "key": "t_address",
        "label": "mapping(address => uint256)",
        "numberOfBytes": "32",
        "value": "t_uint256"
      },
      "t_uint256": {
        "encoding": "inplace",
        "label": "uint256",
        "numberOfBytes": "32"
      }
    }
  }
}