{
  "address": "0xBCE1584059046A691f0dBFD6aa3D7DEfd1122519",
  "abi": [
    {
      "inputs": [],
      "name": "PRECISE_UNIT",
      "outputs": [
        {
          "internalType": "uint256",
          "name": "",
          "type": "uint256"
        }
      ],
      "stateMutability": "view",
      "type": "function"
    },
    {
      "inputs": [],
      "name": "UNIT",
      "outputs": [
        {
          "internalType": "uint256",
          "name": "",
          "type": "uint256"
        }
      ],
      "stateMutability": "view",
      "type": "function"
    },
    {
      "inputs": [],
      "name": "decimals",
      "outputs": [
        {
          "internalType": "uint8",
          "name": "",
          "type": "uint8"
        }
      ],
      "stateMutability": "view",
      "type": "function"
    },
    {
      "inputs": [],
      "name": "highPrecisionDecimals",
      "outputs": [
        {
          "internalType": "uint8",
          "name": "",
          "type": "uint8"
        }
      ],
      "stateMutability": "view",
      "type": "function"
    },
    {
      "inputs": [],
      "name": "preciseUnit",
      "outputs": [
        {
          "internalType": "uint256",
          "name": "",
          "type": "uint256"
        }
      ],
      "stateMutability": "pure",
      "type": "function"
    },
    {
      "inputs": [],
      "name": "unit",
      "outputs": [
        {
          "internalType": "uint256",
          "name": "",
          "type": "uint256"
        }
      ],
      "stateMutability": "pure",
      "type": "function"
    }
  ],
  "transactionHash": "0x86e9a8dcd35368693e74faf4c8994d86560baee2cc7391cc431fbe788ed32481",
  "args": [],
  "solcInputHash": "c4c728ab78f2e5e7c824c1a52b9f2453",
  "bytecode": "0x61012e610026600b82828239805160001a60731461001957fe5b30600052607381538281f3fe730000000000000000000000000000000000000000301460806040526004361060655760003560e01c8063313ce56714606a578063864029e7146086578063907af6c014609e5780639d8e21771460a4578063d5e5e6e61460aa578063def4419d1460b0575b600080fd5b607060b6565b6040805160ff9092168252519081900360200190f35b608c60bb565b60408051918252519081900360200190f35b608c60cb565b608c60d7565b608c60e3565b607060f3565b601281565b6b033b2e3c9fd0803ce800000081565b670de0b6b3a764000090565b670de0b6b3a764000081565b6b033b2e3c9fd0803ce800000090565b601b8156fea2646970667358221220401fe4316e5385bc6fea8e7202f464a447145dfe3898bce4909c43fb7f240df164736f6c63430007010033",
  "devdoc": {
    "details": "Functions accepting uints in this contract and derived contracts are taken to be such fixed point decimals of a specified precision (either standard or high).",
    "kind": "dev",
    "methods": {
      "preciseUnit()": {
        "returns": {
          "_0": "Provides an interface to PRECISE_UNIT."
        }
      },
      "unit()": {
        "returns": {
          "_0": "Provides an interface to UNIT."
        }
      }
    },
    "title": "Safely manipulate unsigned fixed-point decimals at a given precision level.",
    "version": 1
  },
  "userdoc": {
    "kind": "user",
    "methods": {},
    "version": 1
  },
  "storageLayout": {
    "storage": [],
    "types": null
  }
}