{
  "address": "0xd58033bc9C92014b875ea67960E22E5FdEF9fB4F",
  "abi": [
    {
      "anonymous": false,
      "inputs": [
        {
          "indexed": false,
          "internalType": "uint256",
          "name": "newRatio",
          "type": "uint256"
        }
      ],
      "name": "IssuanceRatioUpdated",
      "type": "event"
    },
    {
      "anonymous": false,
      "inputs": [
        {
          "indexed": true,
          "internalType": "address",
          "name": "previousOwner",
          "type": "address"
        },
        {
          "indexed": true,
          "internalType": "address",
          "name": "newOwner",
          "type": "address"
        }
      ],
      "name": "OwnershipTransferred",
      "type": "event"
    },
    {
      "inputs": [
        {
          "internalType": "contract ISynth",
          "name": "synth",
          "type": "address"
        }
      ],
      "name": "addSynth",
      "outputs": [],
      "stateMutability": "nonpayable",
      "type": "function"
    },
    {
      "inputs": [],
      "name": "availableCurrencyKeys",
      "outputs": [
        {
          "internalType": "bytes32[]",
          "name": "",
          "type": "bytes32[]"
        }
      ],
      "stateMutability": "view",
      "type": "function"
    },
    {
      "inputs": [],
      "name": "availableSynthCount",
      "outputs": [
        {
          "internalType": "uint256",
          "name": "",
          "type": "uint256"
        }
      ],
      "stateMutability": "view",
      "type": "function"
    },
    {
      "inputs": [
        {
          "internalType": "uint256",
          "name": "",
          "type": "uint256"
        }
      ],
      "name": "availableSynths",
      "outputs": [
        {
          "internalType": "contract ISynth",
          "name": "",
          "type": "address"
        }
      ],
      "stateMutability": "view",
      "type": "function"
    },
    {
      "inputs": [
        {
          "internalType": "uint256",
          "name": "amount",
          "type": "uint256"
        }
      ],
      "name": "burnSynths",
      "outputs": [],
      "stateMutability": "nonpayable",
      "type": "function"
    },
    {
      "inputs": [
        {
          "internalType": "address",
          "name": "account",
          "type": "address"
        }
      ],
      "name": "collateral",
      "outputs": [
        {
          "internalType": "uint256",
          "name": "",
          "type": "uint256"
        }
      ],
      "stateMutability": "view",
      "type": "function"
    },
    {
      "inputs": [
        {
          "internalType": "address",
          "name": "_issuer",
          "type": "address"
        }
      ],
      "name": "collateralisationRatio",
      "outputs": [
        {
          "internalType": "uint256",
          "name": "",
          "type": "uint256"
        }
      ],
      "stateMutability": "view",
      "type": "function"
    },
    {
      "inputs": [
        {
          "internalType": "address",
          "name": "_issuer",
          "type": "address"
        },
        {
          "internalType": "bytes32",
          "name": "currencyKey",
          "type": "bytes32"
        }
      ],
      "name": "debtBalanceOf",
      "outputs": [
        {
          "internalType": "uint256",
          "name": "",
          "type": "uint256"
        }
      ],
      "stateMutability": "view",
      "type": "function"
    },
    {
      "inputs": [
        {
          "internalType": "uint256",
          "name": "",
          "type": "uint256"
        }
      ],
      "name": "debtLedger",
      "outputs": [
        {
          "internalType": "uint256",
          "name": "",
          "type": "uint256"
        }
      ],
      "stateMutability": "view",
      "type": "function"
    },
    {
      "inputs": [],
      "name": "debtLedgerLength",
      "outputs": [
        {
          "internalType": "uint256",
          "name": "",
          "type": "uint256"
        }
      ],
      "stateMutability": "view",
      "type": "function"
    },
    {
      "inputs": [
        {
          "internalType": "bytes32",
          "name": "sourceCurrencyKey",
          "type": "bytes32"
        },
        {
          "internalType": "uint256",
          "name": "sourceAmount",
          "type": "uint256"
        },
        {
          "internalType": "bytes32",
          "name": "destinationCurrencyKey",
          "type": "bytes32"
        }
      ],
      "name": "exchange",
      "outputs": [
        {
          "internalType": "uint256",
          "name": "amountReceived",
          "type": "uint256"
        }
      ],
      "stateMutability": "nonpayable",
      "type": "function"
    },
    {
      "inputs": [
        {
          "internalType": "address",
          "name": "account",
          "type": "address"
        }
      ],
      "name": "hasIssued",
      "outputs": [
        {
          "internalType": "bool",
          "name": "",
          "type": "bool"
        }
      ],
      "stateMutability": "view",
      "type": "function"
    },
    {
      "inputs": [
        {
          "internalType": "address",
          "name": "_resolver",
          "type": "address"
        }
      ],
      "name": "initialize",
      "outputs": [],
      "stateMutability": "nonpayable",
      "type": "function"
    },
    {
      "inputs": [
        {
          "internalType": "address",
          "name": "",
          "type": "address"
        }
      ],
      "name": "issuanceData",
      "outputs": [
        {
          "internalType": "uint256",
          "name": "initialDebtOwnership",
          "type": "uint256"
        },
        {
          "internalType": "uint256",
          "name": "debtEntryIndex",
          "type": "uint256"
        }
      ],
      "stateMutability": "view",
      "type": "function"
    },
    {
      "inputs": [],
      "name": "issuanceRatio",
      "outputs": [
        {
          "internalType": "uint256",
          "name": "",
          "type": "uint256"
        }
      ],
      "stateMutability": "view",
      "type": "function"
    },
    {
      "inputs": [],
      "name": "issueMaxSynths",
      "outputs": [],
      "stateMutability": "nonpayable",
      "type": "function"
    },
    {
      "inputs": [
        {
          "internalType": "uint256",
          "name": "amount",
          "type": "uint256"
        }
      ],
      "name": "issueSynths",
      "outputs": [],
      "stateMutability": "nonpayable",
      "type": "function"
    },
    {
      "inputs": [
        {
          "internalType": "address",
          "name": "from",
          "type": "address"
        },
        {
          "internalType": "uint256",
          "name": "amount",
          "type": "uint256"
        }
      ],
      "name": "issueSynthsFrom",
      "outputs": [],
      "stateMutability": "nonpayable",
      "type": "function"
    },
    {
      "inputs": [],
      "name": "lastDebtLedgerEntry",
      "outputs": [
        {
          "internalType": "uint256",
          "name": "",
          "type": "uint256"
        }
      ],
      "stateMutability": "view",
      "type": "function"
    },
    {
      "inputs": [
        {
          "internalType": "address",
          "name": "account",
          "type": "address"
        },
        {
          "internalType": "uint256",
          "name": "susdAmount",
          "type": "uint256"
        },
        {
          "internalType": "address",
          "name": "liquidator",
          "type": "address"
        }
      ],
      "name": "liquidateDelinquentAccount",
      "outputs": [
        {
          "internalType": "uint256",
          "name": "totalRedeemed",
          "type": "uint256"
        },
        {
          "internalType": "uint256",
          "name": "amountToLiquidate",
          "type": "uint256"
        }
      ],
      "stateMutability": "nonpayable",
      "type": "function"
    },
    {
      "inputs": [
        {
          "internalType": "address",
          "name": "_issuer",
          "type": "address"
        }
      ],
      "name": "maxIssuableSynths",
      "outputs": [
        {
          "internalType": "uint256",
          "name": "",
          "type": "uint256"
        }
      ],
      "stateMutability": "view",
      "type": "function"
    },
    {
      "inputs": [],
      "name": "owner",
      "outputs": [
        {
          "internalType": "address",
          "name": "",
          "type": "address"
        }
      ],
      "stateMutability": "view",
      "type": "function"
    },
    {
      "inputs": [
        {
          "internalType": "address",
          "name": "_issuer",
          "type": "address"
        }
      ],
      "name": "remainingIssuableSynths",
      "outputs": [
        {
          "internalType": "uint256",
          "name": "",
          "type": "uint256"
        },
        {
          "internalType": "uint256",
          "name": "",
          "type": "uint256"
        }
      ],
      "stateMutability": "view",
      "type": "function"
    },
    {
      "inputs": [
        {
          "internalType": "bytes32",
          "name": "currencyKey",
          "type": "bytes32"
        }
      ],
      "name": "removeSynth",
      "outputs": [],
      "stateMutability": "nonpayable",
      "type": "function"
    },
    {
      "inputs": [],
      "name": "renounceOwnership",
      "outputs": [],
      "stateMutability": "nonpayable",
      "type": "function"
    },
    {
      "inputs": [],
      "name": "resolver",
      "outputs": [
        {
          "internalType": "contract AddressResolver",
          "name": "",
          "type": "address"
        }
      ],
      "stateMutability": "view",
      "type": "function"
    },
    {
      "inputs": [
        {
          "internalType": "uint256",
          "name": "_issuanceRatio",
          "type": "uint256"
        }
      ],
      "name": "setIssuanceRatio",
      "outputs": [],
      "stateMutability": "nonpayable",
      "type": "function"
    },
    {
      "inputs": [
        {
          "internalType": "contract AddressResolver",
          "name": "_resolver",
          "type": "address"
        }
      ],
      "name": "setResolver",
      "outputs": [],
      "stateMutability": "nonpayable",
      "type": "function"
    },
    {
      "inputs": [
        {
          "internalType": "bytes32",
          "name": "",
          "type": "bytes32"
        }
      ],
      "name": "synths",
      "outputs": [
        {
          "internalType": "contract ISynth",
          "name": "",
          "type": "address"
        }
      ],
      "stateMutability": "view",
      "type": "function"
    },
    {
      "inputs": [
        {
          "internalType": "address",
          "name": "",
          "type": "address"
        }
      ],
      "name": "synthsByAddress",
      "outputs": [
        {
          "internalType": "bytes32",
          "name": "",
          "type": "bytes32"
        }
      ],
      "stateMutability": "view",
      "type": "function"
    },
    {
      "inputs": [
        {
          "internalType": "bytes32",
          "name": "currencyKey",
          "type": "bytes32"
        }
      ],
      "name": "totalIssuedSynths",
      "outputs": [
        {
          "internalType": "uint256",
          "name": "",
          "type": "uint256"
        }
      ],
      "stateMutability": "view",
      "type": "function"
    },
    {
      "inputs": [],
      "name": "totalIssuerCount",
      "outputs": [
        {
          "internalType": "uint256",
          "name": "",
          "type": "uint256"
        }
      ],
      "stateMutability": "view",
      "type": "function"
    },
    {
      "inputs": [
        {
          "internalType": "address",
          "name": "newOwner",
          "type": "address"
        }
      ],
      "name": "transferOwnership",
      "outputs": [],
      "stateMutability": "nonpayable",
      "type": "function"
    },
    {
      "inputs": [
        {
          "internalType": "address",
          "name": "account",
          "type": "address"
        }
      ],
      "name": "transferableShadows",
      "outputs": [
        {
          "internalType": "uint256",
          "name": "",
          "type": "uint256"
        }
      ],
      "stateMutability": "view",
      "type": "function"
    }
  ],
  "transactionHash": "0x6110f0661cc9772078aaabc1d1fe96976073f53853f03ed1f7126264a4e110f2",
  "args": [],
  "solcInputHash": "c4c728ab78f2e5e7c824c1a52b9f2453",
  "bytecode": "0x608060405234801561001057600080fd5b50613406806100206000396000f3fe608060405234801561001057600080fd5b50600436106102065760003560e01c80638a2900141161011a578063b410a034116100ad578063d37c4d8b1161007c578063d37c4d8b146105c6578063dbf63340146105f2578063dcb5ec23146105fa578063ee52a2f314610620578063f2fde38b1461064957610206565b8063b410a03414610556578063b992812e1461055e578063c4d66de814610598578063cd92eba9146105be57610206565b8063a311c7c2116100e9578063a311c7c2146104cc578063a5fdc5de146104f2578063a63c4df414610518578063af086c7e1461054e57610206565b80638a290014146104795780638b3f8088146104965780638da5cb5b146104bc5780639371bede146104c457610206565b8063326080391161019d57806372cb051f1161016c57806372cb051f1461039557806382a8ab30146103ed578063835e119c1461041957806383d625d414610436578063849cf5881461045357610206565b80633260803914610342578063463177121461035f5780634e543b2614610367578063715018a61461038d57610206565b80630b887dae116101d95780630b887dae146102a35780631137aedf146102c057806316b2213f146102ff578063295da87d1461032557610206565b806304f3bcec1461020b578063054be0b71461022f57806305b3c1c91461024e57806308d95cd514610286575b600080fd5b61021361066f565b604080516001600160a01b039092168252519081900360200190f35b61024c6004803603602081101561024557600080fd5b503561067e565b005b6102746004803603602081101561026457600080fd5b50356001600160a01b03166107c9565b60408051918252519081900360200190f35b6102746004803603602081101561029c57600080fd5b5035610885565b61024c600480360360208110156102b957600080fd5b50356108a3565b6102e6600480360360208110156102d657600080fd5b50356001600160a01b0316610bd7565b6040805192835260208301919091528051918290030190f35b6102746004803603602081101561031557600080fd5b50356001600160a01b0316610c23565b61024c6004803603602081101561033b57600080fd5b5035610c35565b6102136004803603602081101561035857600080fd5b5035610d5e565b610274610d79565b61024c6004803603602081101561037d57600080fd5b50356001600160a01b0316610d9f565b61024c610e23565b61039d610ecf565b60408051602080825283518183015283519192839290830191858101910280838360005b838110156103d95781810151838201526020016103c1565b505050509050019250505060405180910390f35b61024c6004803603604081101561040357600080fd5b506001600160a01b038135169060200135610f84565b6102136004803603602081101561042f57600080fd5b5035611080565b6102746004803603602081101561044c57600080fd5b50356110a7565b61024c6004803603602081101561046957600080fd5b50356001600160a01b03166113be565b61024c6004803603602081101561048f57600080fd5b50356115cb565b6102e6600480360360208110156104ac57600080fd5b50356001600160a01b03166115df565b6102136115f8565b610274611607565b610274600480360360208110156104e257600080fd5b50356001600160a01b031661160d565b6102746004803603602081101561050857600080fd5b50356001600160a01b0316611651565b6102e66004803603606081101561052e57600080fd5b506001600160a01b03813581169160208101359160409091013516611781565b61024c611e69565b610274611e89565b6105846004803603602081101561057457600080fd5b50356001600160a01b0316611e8f565b604080519115158252519081900360200190f35b61024c600480360360208110156105ae57600080fd5b50356001600160a01b0316611eac565b610274611fdd565b610274600480360360408110156105dc57600080fd5b506001600160a01b038135169060200135611fe3565b6102746120a0565b6102746004803603602081101561061057600080fd5b50356001600160a01b03166120a6565b6102746004803603606081101561063657600080fd5b5080359060208101359060400135612243565b61024c6004803603602081101561065f57600080fd5b50356001600160a01b0316612306565b6065546001600160a01b031681565b610686612409565b6001600160a01b03166106976115f8565b6001600160a01b0316146106e0576040805162461bcd60e51b8152602060048201819052602482015260008051602061337e833981519152604482015290519081900360640190fd5b73c64F5722Ba05CdD6648E6e209b99a322b93956bC63907af6c06040518163ffffffff1660e01b815260040160206040518083038186803b15801561072457600080fd5b505af4158015610738573d6000803e3d6000fd5b505050506040513d602081101561074e57600080fd5b505181111561078e5760405162461bcd60e51b815260040180806020018281038252603381526020018061339e6033913960400191505060405180910390fd5b60668190556040805182815290517f63b22e09cc3a33e847c063e35f887bd4ea96bc8c0f93f1f8c311e4fa6d8854529181900360200190a150565b6000806107d461240d565b6001600160a01b031663654a60ac6107eb85611651565b6514da185554d160d21b6040518363ffffffff1660e01b8152600401808063444f575360e01b8152506020018381526020018281526020019250505060206040518083038186803b15801561083f57600080fd5b505afa158015610853573d6000803e3d6000fd5b505050506040513d602081101561086957600080fd5b505160665490915061087c9082906124bf565b9150505b919050565b606c818154811061089257fe5b600091825260209091200154905081565b6108ab612409565b6001600160a01b03166108bc6115f8565b6001600160a01b031614610905576040805162461bcd60e51b8152602060048201819052602482015260008051602061337e833981519152604482015290519081900360640190fd5b6000818152606860205260409020546001600160a01b0316610965576040805162461bcd60e51b815260206004820152601460248201527314de5b9d1a08191bd95cc81b9bdd08195e1a5cdd60621b604482015290519081900360640190fd5b6000818152606860209081526040918290205482516318160ddd60e01b815292516001600160a01b03909116926318160ddd926004808301939192829003018186803b1580156109b457600080fd5b505afa1580156109c8573d6000803e3d6000fd5b505050506040513d60208110156109de57600080fd5b505115610a28576040805162461bcd60e51b815260206004820152601360248201527253796e746820737570706c792065786973747360681b604482015290519081900360640190fd5b6514da185554d160d21b811415610a7b576040805162461bcd60e51b815260206004820152601260248201527110d85b9b9bdd081c995b5bdd99481e1554d160721b604482015290519081900360640190fd5b6000818152606860205260408120546001600160a01b0316905b606754811015610b9757816001600160a01b031660678281548110610ab657fe5b6000918252602090912001546001600160a01b03161415610b8f5760678181548110610ade57fe5b600091825260209091200180546001600160a01b0319169055606780546000198101908110610b0957fe5b600091825260209091200154606780546001600160a01b039092169183908110610b2f57fe5b9060005260206000200160006101000a8154816001600160a01b0302191690836001600160a01b031602179055506067805480610b6857fe5b600082815260209020810160001990810180546001600160a01b0319169055019055610b97565b600101610a95565b5050600081815260686020818152604080842080546001600160a01b031685526069835290842084905593909252905280546001600160a01b0319169055565b6000806000610bef846514da185554d160d21b611fe3565b90506000610bfc856107c9565b9050808210610c0d57506000610c1a565b610c1781836124e3565b90505b92509050915091565b60696020526000908152604090205481565b6000610c3f612409565b90506000610c56826514da185554d160d21b611fe3565b905060008111610ca2576040805162461bcd60e51b81526020600482015260126024820152714e6f206465627420746f20666f726769766560701b604482015290519081900360640190fd5b6000838210610cb15783610cb3565b815b9050610cc0838284612540565b6514da185554d160d21b6000908152606860205260008051602061333d8339815191525460408051632770a7eb60e21b81526001600160a01b03878116600483015260248201869052915185949290931692639dc29fac9260448084019391929182900301818387803b158015610d3657600080fd5b505af1158015610d4a573d6000803e3d6000fd5b50505050610d578461262d565b5050505050565b6068602052600090815260409020546001600160a01b031681565b606c8054600091906000198101908110610d8f57fe5b9060005260206000200154905090565b610da7612409565b6001600160a01b0316610db86115f8565b6001600160a01b031614610e01576040805162461bcd60e51b8152602060048201819052602482015260008051602061337e833981519152604482015290519081900360640190fd5b606580546001600160a01b0319166001600160a01b0392909216919091179055565b610e2b612409565b6001600160a01b0316610e3c6115f8565b6001600160a01b031614610e85576040805162461bcd60e51b8152602060048201819052602482015260008051602061337e833981519152604482015290519081900360640190fd5b6033546040516000916001600160a01b0316907f8be0079c531659141344cd1fd0a4f28419497f9722a3daafe3b4186f6b6457e0908390a3603380546001600160a01b0319169055565b606754606090819067ffffffffffffffff81118015610eed57600080fd5b50604051908082528060200260200182016040528015610f17578160200160208202803683370190505b50905060005b606754811015610f7e576069600060678381548110610f3857fe5b60009182526020808320909101546001600160a01b031683528201929092526040019020548251839083908110610f6b57fe5b6020908102919091010152600101610f1d565b50905090565b600080610f9084610bd7565b9150915081831115610fdc576040805162461bcd60e51b815260206004820152601060248201526f416d6f756e7420746f6f206c6172676560801b604482015290519081900360640190fd5b610fe78484836126f0565b6514da185554d160d21b6000908152606860205260008051602061333d833981519152546040805163219e412d60e21b81526001600160a01b038881166004830152602482018890529151919092169263867904b4926044808201939182900301818387803b15801561105957600080fd5b505af115801561106d573d6000803e3d6000fd5b5050505061107a8461262d565b50505050565b6067818154811061108d57fe5b6000918252602090912001546001600160a01b0316905081565b6000806110b261240d565b9050600080826001600160a01b031663ac82f608866040518263ffffffff1660e01b81526004018082815260200191505060206040518083038186803b1580156110fb57600080fd5b505afa15801561110f573d6000803e3d6000fd5b505050506040513d602081101561112557600080fd5b50519050606060006001600160a01b03851663babcb423611144610ecf565b6040518263ffffffff1660e01b81526004018080602001828103825283818151815260200191508051906020019060200280838360005b8381101561119357818101518382015260200161117b565b505050509050019250505060006040518083038186803b1580156111b657600080fd5b505afa1580156111ca573d6000803e3d6000fd5b505050506040513d6000823e601f3d908101601f1916820160409081528110156111f357600080fd5b810190808051604051939291908464010000000082111561121357600080fd5b90830190602082018581111561122857600080fd5b825186602082028301116401000000008211171561124557600080fd5b82525081516020918201928201910280838360005b8381101561127257818101518382015260200161125a565b5050505091909101604052506020015192945091925050811590506112d0576040805162461bcd60e51b815260206004820152600f60248201526e526174657320617265207374616c6560881b604482015290519081900360640190fd5b60005b6067548110156113a8576000606782815481106112ec57fe5b60009182526020918290200154604080516318160ddd60e01b815290516001600160a01b03909216926318160ddd92600480840193829003018186803b15801561133557600080fd5b505afa158015611349573d6000803e3d6000fd5b505050506040513d602081101561135f57600080fd5b505184519091506000906113909086908590811061137957fe5b60200260200101518361286a90919063ffffffff16565b905061139c8782612886565b965050506001016112d3565b506113b384846128e0565b979650505050505050565b6113c6612409565b6001600160a01b03166113d76115f8565b6001600160a01b031614611420576040805162461bcd60e51b8152602060048201819052602482015260008051602061337e833981519152604482015290519081900360640190fd5b6000816001600160a01b031663dbd06c856040518163ffffffff1660e01b815260040160206040518083038186803b15801561145b57600080fd5b505afa15801561146f573d6000803e3d6000fd5b505050506040513d602081101561148557600080fd5b50516000818152606860205260409020549091506001600160a01b0316156114eb576040805162461bcd60e51b815260206004820152601460248201527353796e746820616c72656164792065786973747360601b604482015290519081900360640190fd5b6001600160a01b03821660009081526069602052604090205415611556576040805162461bcd60e51b815260206004820152601c60248201527f53796e7468206164647265737320616c72656164792065786973747300000000604482015290519081900360640190fd5b60678054600181019091557f9787eeb91fe3101235e4a76063c7023ecb40f923f97916639c598592fa30d6ae0180546001600160a01b039093166001600160a01b0319938416811790915560008281526068602090815260408083208054909616841790955591815260699091529190912055565b6115dc6115d6612409565b82610f84565b50565b606a602052600090815260409020805460019091015482565b6033546001600160a01b031690565b606b5481565b60008061161983611651565b90508061162a576000915050610880565b600061163d8463444f575360e01b611fe3565b905061164981836128e0565b949350505050565b60008061165c6128f5565b6001600160a01b03166370a08231846040518263ffffffff1660e01b815260040180826001600160a01b0316815260200191505060206040518083038186803b1580156116a857600080fd5b505afa1580156116bc573d6000803e3d6000fd5b505050506040513d60208110156116d257600080fd5b5051905060006116e061297e565b6001600160a01b03161461177b576117786116f961297e565b6001600160a01b03166370a08231856040518263ffffffff1660e01b815260040180826001600160a01b0316815260200191505060206040518083038186803b15801561174557600080fd5b505afa158015611759573d6000803e3d6000fd5b505050506040513d602081101561176f57600080fd5b50518290612886565b90505b92915050565b60008063444f575360e01b61179461240d565b6001600160a01b0316629919c0826040518263ffffffff1660e01b81526004018082815260200191505060206040518083038186803b1580156117d657600080fd5b505afa1580156117ea573d6000803e3d6000fd5b505050506040513d602081101561180057600080fd5b505115611850576040805162461bcd60e51b81526020600482015260196024820152780a4c2e8ca40e6e8c2d8ca40dee440dcdee840c240e6f2dce8d603b1b604482015290519081900360640190fd5b600061185a612a0c565b9050806001600160a01b031663c49e80a6886040518263ffffffff1660e01b815260040180826001600160a01b0316815260200191505060206040518083038186803b1580156118a957600080fd5b505afa1580156118bd573d6000803e3d6000fd5b505050506040513d60208110156118d357600080fd5b5051611926576040805162461bcd60e51b815260206004820181905260248201527f4163636f756e74206e6f74206f70656e20666f72206c69717569646174696f6e604482015290519081900360640190fd5b6514da185554d160d21b6000526068602090815260008051602061333d83398151915254604080516370a0823160e01b81526001600160a01b03898116600483015291518a9492909316926370a0823192602480840193919291829003018186803b15801561199457600080fd5b505afa1580156119a8573d6000803e3d6000fd5b505050506040513d60208110156119be57600080fd5b50511015611a05576040805162461bcd60e51b815260206004820152600f60248201526e139bdd08195b9bdd59da081e1554d1608a1b604482015290519081900360640190fd5b6000816001600160a01b03166323f5589a6040518163ffffffff1660e01b815260040160206040518083038186803b158015611a4057600080fd5b505afa158015611a54573d6000803e3d6000fd5b505050506040513d6020811015611a6a57600080fd5b505190506000611a7989611651565b90506000611a8561240d565b6001600160a01b031663654a60ac836514da185554d160d21b6040518363ffffffff1660e01b8152600401808063444f575360e01b8152506020018381526020018281526020019250505060206040518083038186803b158015611ae857600080fd5b505afa158015611afc573d6000803e3d6000fd5b505050506040513d6020811015611b1257600080fd5b505190506000611b2b8b6514da185554d160d21b611fe3565b90506000856001600160a01b0316630ac045d583856040518363ffffffff1660e01b8152600401808381526020018281526020019250505060206040518083038186803b158015611b7b57600080fd5b505afa158015611b8f573d6000803e3d6000fd5b505050506040513d6020811015611ba557600080fd5b505190508a8110611bb6578a611bb8565b805b97506000611bc461240d565b6001600160a01b031663654a60ac6514da185554d160d21b8b6040518363ffffffff1660e01b8152600401808381526020018281526020018063444f575360e01b8152506020019250505060206040518083038186803b158015611c2757600080fd5b505afa158015611c3b573d6000803e3d6000fd5b505050506040513d6020811015611c5157600080fd5b505160408051630241ebdb60e61b81529051919250611ce491611cdd91899173c64F5722Ba05CdD6648E6e209b99a322b93956bC9163907af6c0916004808301926020929190829003018186803b158015611cab57600080fd5b505af4158015611cbf573d6000803e3d6000fd5b505050506040513d6020811015611cd557600080fd5b505190612886565b82906124bf565b9950848a1115611ddc57849950611cf961240d565b6001600160a01b031663654a60ac611d59611d528973c64F5722Ba05CdD6648E6e209b99a322b93956bC63907af6c06040518163ffffffff1660e01b815260040160206040518083038186803b158015611cab57600080fd5b8890612a9a565b6514da185554d160d21b6040518363ffffffff1660e01b8152600401808063444f575360e01b8152506020018381526020018281526020019250505060206040518083038186803b158015611dad57600080fd5b505afa158015611dc1573d6000803e3d6000fd5b505050506040513d6020811015611dd757600080fd5b505198505b611de98d8c8b868e612ab8565b81891415611e5957866001600160a01b031663974e9e7f8e6040518263ffffffff1660e01b815260040180826001600160a01b03168152602001915050600060405180830381600087803b158015611e4057600080fd5b505af1158015611e54573d6000803e3d6000fd5b505050505b5050505050505050935093915050565b6000611e7b611e76612409565b610bd7565b5090506115dc6115d6612409565b60665481565b6001600160a01b03166000908152606a6020526040902054151590565b600054610100900460ff1680611ec55750611ec5612bf9565b80611ed3575060005460ff16155b611f0e5760405162461bcd60e51b815260040180806020018281038252602e81526020018061330f602e913960400191505060405180910390fd5b600054610100900460ff16158015611f39576000805460ff1961ff0019909116610100171660011790555b611f41612c0a565b611f4a82612cbb565b600573c64F5722Ba05CdD6648E6e209b99a322b93956bC63907af6c06040518163ffffffff1660e01b815260040160206040518083038186803b158015611f9057600080fd5b505af4158015611fa4573d6000803e3d6000fd5b505050506040513d6020811015611fba57600080fd5b505181611fc357fe5b046066558015611fd9576000805461ff00191690555b5050565b606c5490565b6000611fed6132ce565b506001600160a01b0383166000908152606a6020908152604091829020825180840190935280548084526001909101549183018290529081612035576000935050505061177b565b600061206a83612064606c858154811061204b57fe5b906000526020600020015461205e610d79565b90612d6e565b90612d87565b90506000612077876110a7565b905060006120888361206484612da0565b905061209381612db0565b9998505050505050505050565b60675490565b600063444f575360e01b6120b861240d565b6001600160a01b0316629919c0826040518263ffffffff1660e01b81526004018082815260200191505060206040518083038186803b1580156120fa57600080fd5b505afa15801561210e573d6000803e3d6000fd5b505050506040513d602081101561212457600080fd5b505115612174576040805162461bcd60e51b81526020600482015260196024820152780a4c2e8ca40e6e8c2d8ca40dee440dcdee840c240e6f2dce8d603b1b604482015290519081900360640190fd5b600061217e6128f5565b6001600160a01b03166370a08231856040518263ffffffff1660e01b815260040180826001600160a01b0316815260200191505060206040518083038186803b1580156121ca57600080fd5b505afa1580156121de573d6000803e3d6000fd5b505050506040513d60208110156121f457600080fd5b505160665490915060009061221a906122148763444f575360e01b611fe3565b906128e0565b905081811061222e5760009350505061223d565b61223882826124e3565b935050505b50919050565b600061224d612dd2565b6001600160a01b0316630a1e187d612263612409565b86868661226e612409565b6040518663ffffffff1660e01b815260040180866001600160a01b03168152602001858152602001848152602001838152602001826001600160a01b0316815260200195505050505050602060405180830381600087803b1580156122d257600080fd5b505af11580156122e6573d6000803e3d6000fd5b505050506040513d60208110156122fc57600080fd5b5051949350505050565b61230e612409565b6001600160a01b031661231f6115f8565b6001600160a01b031614612368576040805162461bcd60e51b8152602060048201819052602482015260008051602061337e833981519152604482015290519081900360640190fd5b6001600160a01b0381166123ad5760405162461bcd60e51b81526004018080602001828103825260268152602001806132e96026913960400191505060405180910390fd5b6033546040516001600160a01b038084169216907f8be0079c531659141344cd1fd0a4f28419497f9722a3daafe3b4186f6b6457e090600090a3603380546001600160a01b0319166001600160a01b0392909216919091179055565b3390565b6065546040805163dacb2d0160e01b8152654f7261636c6560d01b60048201526024810182905260166044820152754d697373696e67204f7261636c65206164647265737360501b606482015290516000926001600160a01b03169163dacb2d01916084808301926020929190829003018186803b15801561248e57600080fd5b505afa1580156124a2573d6000803e3d6000fd5b505050506040513d60208110156124b857600080fd5b5051905090565b6000670de0b6b3a76400006124d48484612e5d565b816124db57fe5b049392505050565b60008282111561253a576040805162461bcd60e51b815260206004820152601e60248201527f536166654d6174683a207375627472616374696f6e206f766572666c6f770000604482015290519081900360640190fd5b50900390565b8160006125556514da185554d160d21b6110a7565b9050600061256382846124e3565b9050600081156125c75760006125798584612d6e565b90506125c38173c64F5722Ba05CdD6648E6e209b99a322b93956bC63d5e5e6e66040518163ffffffff1660e01b815260040160206040518083038186803b158015611cab57600080fd5b9150505b848414156125e7576125da876000612eb6565b6125e2612edd565b612610565b60006125f386866124e3565b905060006126018285612d6e565b905061260d8982612eb6565b50505b61262461261f82612064610d79565b612ef0565b50505050505050565b6126356132ce565b506001600160a01b0381166000908152606a6020908152604091829020825180840190935280548352600101549082015261266e612f25565b6001600160a01b0316638664527483836000015184602001516040518463ffffffff1660e01b815260040180846001600160a01b031681526020018381526020018281526020019350505050600060405180830381600087803b1580156126d457600080fd5b505af11580156126e8573d6000803e3d6000fd5b505050505050565b60006127046514da185554d160d21b6110a7565b905060006127128483612886565b905060006127208583612d6e565b9050600061279e8273c64F5722Ba05CdD6648E6e209b99a322b93956bC63d5e5e6e66040518163ffffffff1660e01b815260040160206040518083038186803b15801561276c57600080fd5b505af4158015612780573d6000803e3d6000fd5b505050506040513d602081101561279657600080fd5b5051906124e3565b905084156127b7576127b48361205e8888612886565b91505b846127c4576127c4612fae565b6127ce8783612eb6565b60006127d8611fdd565b11156127f2576127ed61261f82612064610d79565b612624565b61262473c64F5722Ba05CdD6648E6e209b99a322b93956bC63d5e5e6e66040518163ffffffff1660e01b815260040160206040518083038186803b15801561283957600080fd5b505af415801561284d573d6000803e3d6000fd5b505050506040513d602081101561286357600080fd5b5051612ef0565b600061287f8383670de0b6b3a7640000612fbc565b9392505050565b60008282018381101561287f576040805162461bcd60e51b815260206004820152601b60248201527f536166654d6174683a206164646974696f6e206f766572666c6f770000000000604482015290519081900360640190fd5b600061287f8383670de0b6b3a7640000612ff3565b6065546040805163dacb2d0160e01b815266536861646f777360c81b600482015260248101829052601760448201527f4d697373696e6720536861646f77732061646472657373000000000000000000606482015290516000926001600160a01b03169163dacb2d01916084808301926020929190829003018186803b15801561248e57600080fd5b6065546040805163dacb2d0160e01b81526b526577617264457363726f7760a01b600482015260248101829052601c60448201527f4d697373696e6720526577617264457363726f77206164647265737300000000606482015290516000926001600160a01b03169163dacb2d01916084808301926020929190829003018186803b15801561248e57600080fd5b6065546040805163dacb2d0160e01b81526b4c69717569646174696f6e7360a01b600482015260248101829052601c60448201527f4d697373696e67204c69717569646174696f6e73206164647265737300000000606482015290516000926001600160a01b03169163dacb2d01916084808301926020929190829003018186803b15801561248e57600080fd5b600061287f82612ab285670de0b6b3a7640000612e5d565b90613013565b826000612ac487611651565b9050808310612ad1578391505b612adc878386612540565b6514da185554d160d21b6000908152606860205260008051602061333d8339815191525460408051632770a7eb60e21b81526001600160a01b038b811660048301526024820187905291519190921692639dc29fac926044808201939182900301818387803b158015612b4e57600080fd5b505af1158015612b62573d6000803e3d6000fd5b50506514da185554d160d21b6000908152606860205260008051602061333d8339815191525460408051632770a7eb60e21b81526001600160a01b038c81166004830152602482018c90529151919092169450639dc29fac93506044808301939282900301818387803b158015612bd857600080fd5b505af1158015612bec573d6000803e3d6000fd5b505050506126248761262d565b6000612c0430613072565b15905090565b600054610100900460ff1680612c235750612c23612bf9565b80612c31575060005460ff16155b612c6c5760405162461bcd60e51b815260040180806020018281038252602e81526020018061330f602e913960400191505060405180910390fd5b600054610100900460ff16158015612c97576000805460ff1961ff0019909116610100171660011790555b612c9f613078565b612ca7613118565b80156115dc576000805461ff001916905550565b600054610100900460ff1680612cd45750612cd4612bf9565b80612ce2575060005460ff16155b612d1d5760405162461bcd60e51b815260040180806020018281038252602e81526020018061330f602e913960400191505060405180910390fd5b600054610100900460ff16158015612d48576000805460ff1961ff0019909116610100171660011790555b612d50612c0a565b612d5982613211565b8015611fd9576000805461ff00191690555050565b600061287f83836b033b2e3c9fd0803ce8000000612ff3565b600061287f83836b033b2e3c9fd0803ce8000000612fbc565b600061177b82633b9aca00612e5d565b60006305f5e10082046005600a820610612dc857600a015b600a900492915050565b6065546040805163dacb2d0160e01b81526822bc31b430b733b2b960b91b600482015260248101829052601960448201527f4d697373696e672045786368616e676572206164647265737300000000000000606482015290516000926001600160a01b03169163dacb2d01916084808301926020929190829003018186803b15801561248e57600080fd5b600082612e6c5750600061177b565b82820282848281612e7957fe5b041461287f5760405162461bcd60e51b815260040180806020018281038252602181526020018061335d6021913960400191505060405180910390fd5b6001600160a01b039091166000908152606a60205260409020908155606c54600190910155565b606b54612eeb9060006124e3565b606b55565b606c80546001810182556000919091527f2b4a51ab505fc96a0952efda2ba61bcd3078d4c02c39a186ec16f21883fbe0160155565b6065546040805163dacb2d0160e01b815266119959541bdbdb60ca1b600482015260248101829052601760448201527f4d697373696e6720466565506f6f6c2061646472657373000000000000000000606482015290516000926001600160a01b03169163dacb2d01916084808301926020929190829003018186803b15801561248e57600080fd5b606b54612eeb906000612886565b600080600a8304612fcd8686612e5d565b81612fd457fe5b0490506005600a825b0610612fe757600a015b600a9004949350505050565b60008061300784612ab287600a8702612e5d565b90506005600a82612fdd565b6000808211613069576040805162461bcd60e51b815260206004820152601a60248201527f536166654d6174683a206469766973696f6e206279207a65726f000000000000604482015290519081900360640190fd5b8183816124db57fe5b3b151590565b600054610100900460ff16806130915750613091612bf9565b8061309f575060005460ff16155b6130da5760405162461bcd60e51b815260040180806020018281038252602e81526020018061330f602e913960400191505060405180910390fd5b600054610100900460ff16158015612ca7576000805460ff1961ff00199091166101001716600117905580156115dc576000805461ff001916905550565b600054610100900460ff16806131315750613131612bf9565b8061313f575060005460ff16155b61317a5760405162461bcd60e51b815260040180806020018281038252602e81526020018061330f602e913960400191505060405180910390fd5b600054610100900460ff161580156131a5576000805460ff1961ff0019909116610100171660011790555b60006131af612409565b603380546001600160a01b0319166001600160a01b038316908117909155604051919250906000907f8be0079c531659141344cd1fd0a4f28419497f9722a3daafe3b4186f6b6457e0908290a35080156115dc576000805461ff001916905550565b600054610100900460ff168061322a575061322a612bf9565b80613238575060005460ff16155b6132735760405162461bcd60e51b815260040180806020018281038252602e81526020018061330f602e913960400191505060405180910390fd5b600054610100900460ff1615801561329e576000805460ff1961ff0019909116610100171660011790555b606580546001600160a01b0319166001600160a01b0384161790558015611fd9576000805461ff00191690555050565b60405180604001604052806000815260200160008152509056fe4f776e61626c653a206e6577206f776e657220697320746865207a65726f2061646472657373496e697469616c697a61626c653a20636f6e747261637420697320616c726561647920696e697469616c697a6564a608fccd882de3f13cf929a9041c4506fed4bea4cb411db49150f4291a7027f3536166654d6174683a206d756c7469706c69636174696f6e206f766572666c6f774f776e61626c653a2063616c6c6572206973206e6f7420746865206f776e65724e65772069737375616e636520726174696f2063616e6e6f7420657863656564204d41585f49535355414e43455f524154494fa26469706673582212205bb38c35d7123f875ee9f034563ff3ef8daa45639ab78bfb199d2637fc4ad14764736f6c63430007010033",
  "deployedBytecode": "0x608060405234801561001057600080fd5b50600436106102065760003560e01c80638a2900141161011a578063b410a034116100ad578063d37c4d8b1161007c578063d37c4d8b146105c6578063dbf63340146105f2578063dcb5ec23146105fa578063ee52a2f314610620578063f2fde38b1461064957610206565b8063b410a03414610556578063b992812e1461055e578063c4d66de814610598578063cd92eba9146105be57610206565b8063a311c7c2116100e9578063a311c7c2146104cc578063a5fdc5de146104f2578063a63c4df414610518578063af086c7e1461054e57610206565b80638a290014146104795780638b3f8088146104965780638da5cb5b146104bc5780639371bede146104c457610206565b8063326080391161019d57806372cb051f1161016c57806372cb051f1461039557806382a8ab30146103ed578063835e119c1461041957806383d625d414610436578063849cf5881461045357610206565b80633260803914610342578063463177121461035f5780634e543b2614610367578063715018a61461038d57610206565b80630b887dae116101d95780630b887dae146102a35780631137aedf146102c057806316b2213f146102ff578063295da87d1461032557610206565b806304f3bcec1461020b578063054be0b71461022f57806305b3c1c91461024e57806308d95cd514610286575b600080fd5b61021361066f565b604080516001600160a01b039092168252519081900360200190f35b61024c6004803603602081101561024557600080fd5b503561067e565b005b6102746004803603602081101561026457600080fd5b50356001600160a01b03166107c9565b60408051918252519081900360200190f35b6102746004803603602081101561029c57600080fd5b5035610885565b61024c600480360360208110156102b957600080fd5b50356108a3565b6102e6600480360360208110156102d657600080fd5b50356001600160a01b0316610bd7565b6040805192835260208301919091528051918290030190f35b6102746004803603602081101561031557600080fd5b50356001600160a01b0316610c23565b61024c6004803603602081101561033b57600080fd5b5035610c35565b6102136004803603602081101561035857600080fd5b5035610d5e565b610274610d79565b61024c6004803603602081101561037d57600080fd5b50356001600160a01b0316610d9f565b61024c610e23565b61039d610ecf565b60408051602080825283518183015283519192839290830191858101910280838360005b838110156103d95781810151838201526020016103c1565b505050509050019250505060405180910390f35b61024c6004803603604081101561040357600080fd5b506001600160a01b038135169060200135610f84565b6102136004803603602081101561042f57600080fd5b5035611080565b6102746004803603602081101561044c57600080fd5b50356110a7565b61024c6004803603602081101561046957600080fd5b50356001600160a01b03166113be565b61024c6004803603602081101561048f57600080fd5b50356115cb565b6102e6600480360360208110156104ac57600080fd5b50356001600160a01b03166115df565b6102136115f8565b610274611607565b610274600480360360208110156104e257600080fd5b50356001600160a01b031661160d565b6102746004803603602081101561050857600080fd5b50356001600160a01b0316611651565b6102e66004803603606081101561052e57600080fd5b506001600160a01b03813581169160208101359160409091013516611781565b61024c611e69565b610274611e89565b6105846004803603602081101561057457600080fd5b50356001600160a01b0316611e8f565b604080519115158252519081900360200190f35b61024c600480360360208110156105ae57600080fd5b50356001600160a01b0316611eac565b610274611fdd565b610274600480360360408110156105dc57600080fd5b506001600160a01b038135169060200135611fe3565b6102746120a0565b6102746004803603602081101561061057600080fd5b50356001600160a01b03166120a6565b6102746004803603606081101561063657600080fd5b5080359060208101359060400135612243565b61024c6004803603602081101561065f57600080fd5b50356001600160a01b0316612306565b6065546001600160a01b031681565b610686612409565b6001600160a01b03166106976115f8565b6001600160a01b0316146106e0576040805162461bcd60e51b8152602060048201819052602482015260008051602061337e833981519152604482015290519081900360640190fd5b73__$22e4fd0786f9bb9222b95fc3343146c524$__63907af6c06040518163ffffffff1660e01b815260040160206040518083038186803b15801561072457600080fd5b505af4158015610738573d6000803e3d6000fd5b505050506040513d602081101561074e57600080fd5b505181111561078e5760405162461bcd60e51b815260040180806020018281038252603381526020018061339e6033913960400191505060405180910390fd5b60668190556040805182815290517f63b22e09cc3a33e847c063e35f887bd4ea96bc8c0f93f1f8c311e4fa6d8854529181900360200190a150565b6000806107d461240d565b6001600160a01b031663654a60ac6107eb85611651565b6514da185554d160d21b6040518363ffffffff1660e01b8152600401808063444f575360e01b8152506020018381526020018281526020019250505060206040518083038186803b15801561083f57600080fd5b505afa158015610853573d6000803e3d6000fd5b505050506040513d602081101561086957600080fd5b505160665490915061087c9082906124bf565b9150505b919050565b606c818154811061089257fe5b600091825260209091200154905081565b6108ab612409565b6001600160a01b03166108bc6115f8565b6001600160a01b031614610905576040805162461bcd60e51b8152602060048201819052602482015260008051602061337e833981519152604482015290519081900360640190fd5b6000818152606860205260409020546001600160a01b0316610965576040805162461bcd60e51b815260206004820152601460248201527314de5b9d1a08191bd95cc81b9bdd08195e1a5cdd60621b604482015290519081900360640190fd5b6000818152606860209081526040918290205482516318160ddd60e01b815292516001600160a01b03909116926318160ddd926004808301939192829003018186803b1580156109b457600080fd5b505afa1580156109c8573d6000803e3d6000fd5b505050506040513d60208110156109de57600080fd5b505115610a28576040805162461bcd60e51b815260206004820152601360248201527253796e746820737570706c792065786973747360681b604482015290519081900360640190fd5b6514da185554d160d21b811415610a7b576040805162461bcd60e51b815260206004820152601260248201527110d85b9b9bdd081c995b5bdd99481e1554d160721b604482015290519081900360640190fd5b6000818152606860205260408120546001600160a01b0316905b606754811015610b9757816001600160a01b031660678281548110610ab657fe5b6000918252602090912001546001600160a01b03161415610b8f5760678181548110610ade57fe5b600091825260209091200180546001600160a01b0319169055606780546000198101908110610b0957fe5b600091825260209091200154606780546001600160a01b039092169183908110610b2f57fe5b9060005260206000200160006101000a8154816001600160a01b0302191690836001600160a01b031602179055506067805480610b6857fe5b600082815260209020810160001990810180546001600160a01b0319169055019055610b97565b600101610a95565b5050600081815260686020818152604080842080546001600160a01b031685526069835290842084905593909252905280546001600160a01b0319169055565b6000806000610bef846514da185554d160d21b611fe3565b90506000610bfc856107c9565b9050808210610c0d57506000610c1a565b610c1781836124e3565b90505b92509050915091565b60696020526000908152604090205481565b6000610c3f612409565b90506000610c56826514da185554d160d21b611fe3565b905060008111610ca2576040805162461bcd60e51b81526020600482015260126024820152714e6f206465627420746f20666f726769766560701b604482015290519081900360640190fd5b6000838210610cb15783610cb3565b815b9050610cc0838284612540565b6514da185554d160d21b6000908152606860205260008051602061333d8339815191525460408051632770a7eb60e21b81526001600160a01b03878116600483015260248201869052915185949290931692639dc29fac9260448084019391929182900301818387803b158015610d3657600080fd5b505af1158015610d4a573d6000803e3d6000fd5b50505050610d578461262d565b5050505050565b6068602052600090815260409020546001600160a01b031681565b606c8054600091906000198101908110610d8f57fe5b9060005260206000200154905090565b610da7612409565b6001600160a01b0316610db86115f8565b6001600160a01b031614610e01576040805162461bcd60e51b8152602060048201819052602482015260008051602061337e833981519152604482015290519081900360640190fd5b606580546001600160a01b0319166001600160a01b0392909216919091179055565b610e2b612409565b6001600160a01b0316610e3c6115f8565b6001600160a01b031614610e85576040805162461bcd60e51b8152602060048201819052602482015260008051602061337e833981519152604482015290519081900360640190fd5b6033546040516000916001600160a01b0316907f8be0079c531659141344cd1fd0a4f28419497f9722a3daafe3b4186f6b6457e0908390a3603380546001600160a01b0319169055565b606754606090819067ffffffffffffffff81118015610eed57600080fd5b50604051908082528060200260200182016040528015610f17578160200160208202803683370190505b50905060005b606754811015610f7e576069600060678381548110610f3857fe5b60009182526020808320909101546001600160a01b031683528201929092526040019020548251839083908110610f6b57fe5b6020908102919091010152600101610f1d565b50905090565b600080610f9084610bd7565b9150915081831115610fdc576040805162461bcd60e51b815260206004820152601060248201526f416d6f756e7420746f6f206c6172676560801b604482015290519081900360640190fd5b610fe78484836126f0565b6514da185554d160d21b6000908152606860205260008051602061333d833981519152546040805163219e412d60e21b81526001600160a01b038881166004830152602482018890529151919092169263867904b4926044808201939182900301818387803b15801561105957600080fd5b505af115801561106d573d6000803e3d6000fd5b5050505061107a8461262d565b50505050565b6067818154811061108d57fe5b6000918252602090912001546001600160a01b0316905081565b6000806110b261240d565b9050600080826001600160a01b031663ac82f608866040518263ffffffff1660e01b81526004018082815260200191505060206040518083038186803b1580156110fb57600080fd5b505afa15801561110f573d6000803e3d6000fd5b505050506040513d602081101561112557600080fd5b50519050606060006001600160a01b03851663babcb423611144610ecf565b6040518263ffffffff1660e01b81526004018080602001828103825283818151815260200191508051906020019060200280838360005b8381101561119357818101518382015260200161117b565b505050509050019250505060006040518083038186803b1580156111b657600080fd5b505afa1580156111ca573d6000803e3d6000fd5b505050506040513d6000823e601f3d908101601f1916820160409081528110156111f357600080fd5b810190808051604051939291908464010000000082111561121357600080fd5b90830190602082018581111561122857600080fd5b825186602082028301116401000000008211171561124557600080fd5b82525081516020918201928201910280838360005b8381101561127257818101518382015260200161125a565b5050505091909101604052506020015192945091925050811590506112d0576040805162461bcd60e51b815260206004820152600f60248201526e526174657320617265207374616c6560881b604482015290519081900360640190fd5b60005b6067548110156113a8576000606782815481106112ec57fe5b60009182526020918290200154604080516318160ddd60e01b815290516001600160a01b03909216926318160ddd92600480840193829003018186803b15801561133557600080fd5b505afa158015611349573d6000803e3d6000fd5b505050506040513d602081101561135f57600080fd5b505184519091506000906113909086908590811061137957fe5b60200260200101518361286a90919063ffffffff16565b905061139c8782612886565b965050506001016112d3565b506113b384846128e0565b979650505050505050565b6113c6612409565b6001600160a01b03166113d76115f8565b6001600160a01b031614611420576040805162461bcd60e51b8152602060048201819052602482015260008051602061337e833981519152604482015290519081900360640190fd5b6000816001600160a01b031663dbd06c856040518163ffffffff1660e01b815260040160206040518083038186803b15801561145b57600080fd5b505afa15801561146f573d6000803e3d6000fd5b505050506040513d602081101561148557600080fd5b50516000818152606860205260409020549091506001600160a01b0316156114eb576040805162461bcd60e51b815260206004820152601460248201527353796e746820616c72656164792065786973747360601b604482015290519081900360640190fd5b6001600160a01b03821660009081526069602052604090205415611556576040805162461bcd60e51b815260206004820152601c60248201527f53796e7468206164647265737320616c72656164792065786973747300000000604482015290519081900360640190fd5b60678054600181019091557f9787eeb91fe3101235e4a76063c7023ecb40f923f97916639c598592fa30d6ae0180546001600160a01b039093166001600160a01b0319938416811790915560008281526068602090815260408083208054909616841790955591815260699091529190912055565b6115dc6115d6612409565b82610f84565b50565b606a602052600090815260409020805460019091015482565b6033546001600160a01b031690565b606b5481565b60008061161983611651565b90508061162a576000915050610880565b600061163d8463444f575360e01b611fe3565b905061164981836128e0565b949350505050565b60008061165c6128f5565b6001600160a01b03166370a08231846040518263ffffffff1660e01b815260040180826001600160a01b0316815260200191505060206040518083038186803b1580156116a857600080fd5b505afa1580156116bc573d6000803e3d6000fd5b505050506040513d60208110156116d257600080fd5b5051905060006116e061297e565b6001600160a01b03161461177b576117786116f961297e565b6001600160a01b03166370a08231856040518263ffffffff1660e01b815260040180826001600160a01b0316815260200191505060206040518083038186803b15801561174557600080fd5b505afa158015611759573d6000803e3d6000fd5b505050506040513d602081101561176f57600080fd5b50518290612886565b90505b92915050565b60008063444f575360e01b61179461240d565b6001600160a01b0316629919c0826040518263ffffffff1660e01b81526004018082815260200191505060206040518083038186803b1580156117d657600080fd5b505afa1580156117ea573d6000803e3d6000fd5b505050506040513d602081101561180057600080fd5b505115611850576040805162461bcd60e51b81526020600482015260196024820152780a4c2e8ca40e6e8c2d8ca40dee440dcdee840c240e6f2dce8d603b1b604482015290519081900360640190fd5b600061185a612a0c565b9050806001600160a01b031663c49e80a6886040518263ffffffff1660e01b815260040180826001600160a01b0316815260200191505060206040518083038186803b1580156118a957600080fd5b505afa1580156118bd573d6000803e3d6000fd5b505050506040513d60208110156118d357600080fd5b5051611926576040805162461bcd60e51b815260206004820181905260248201527f4163636f756e74206e6f74206f70656e20666f72206c69717569646174696f6e604482015290519081900360640190fd5b6514da185554d160d21b6000526068602090815260008051602061333d83398151915254604080516370a0823160e01b81526001600160a01b03898116600483015291518a9492909316926370a0823192602480840193919291829003018186803b15801561199457600080fd5b505afa1580156119a8573d6000803e3d6000fd5b505050506040513d60208110156119be57600080fd5b50511015611a05576040805162461bcd60e51b815260206004820152600f60248201526e139bdd08195b9bdd59da081e1554d1608a1b604482015290519081900360640190fd5b6000816001600160a01b03166323f5589a6040518163ffffffff1660e01b815260040160206040518083038186803b158015611a4057600080fd5b505afa158015611a54573d6000803e3d6000fd5b505050506040513d6020811015611a6a57600080fd5b505190506000611a7989611651565b90506000611a8561240d565b6001600160a01b031663654a60ac836514da185554d160d21b6040518363ffffffff1660e01b8152600401808063444f575360e01b8152506020018381526020018281526020019250505060206040518083038186803b158015611ae857600080fd5b505afa158015611afc573d6000803e3d6000fd5b505050506040513d6020811015611b1257600080fd5b505190506000611b2b8b6514da185554d160d21b611fe3565b90506000856001600160a01b0316630ac045d583856040518363ffffffff1660e01b8152600401808381526020018281526020019250505060206040518083038186803b158015611b7b57600080fd5b505afa158015611b8f573d6000803e3d6000fd5b505050506040513d6020811015611ba557600080fd5b505190508a8110611bb6578a611bb8565b805b97506000611bc461240d565b6001600160a01b031663654a60ac6514da185554d160d21b8b6040518363ffffffff1660e01b8152600401808381526020018281526020018063444f575360e01b8152506020019250505060206040518083038186803b158015611c2757600080fd5b505afa158015611c3b573d6000803e3d6000fd5b505050506040513d6020811015611c5157600080fd5b505160408051630241ebdb60e61b81529051919250611ce491611cdd91899173__$22e4fd0786f9bb9222b95fc3343146c524$__9163907af6c0916004808301926020929190829003018186803b158015611cab57600080fd5b505af4158015611cbf573d6000803e3d6000fd5b505050506040513d6020811015611cd557600080fd5b505190612886565b82906124bf565b9950848a1115611ddc57849950611cf961240d565b6001600160a01b031663654a60ac611d59611d528973__$22e4fd0786f9bb9222b95fc3343146c524$__63907af6c06040518163ffffffff1660e01b815260040160206040518083038186803b158015611cab57600080fd5b8890612a9a565b6514da185554d160d21b6040518363ffffffff1660e01b8152600401808063444f575360e01b8152506020018381526020018281526020019250505060206040518083038186803b158015611dad57600080fd5b505afa158015611dc1573d6000803e3d6000fd5b505050506040513d6020811015611dd757600080fd5b505198505b611de98d8c8b868e612ab8565b81891415611e5957866001600160a01b031663974e9e7f8e6040518263ffffffff1660e01b815260040180826001600160a01b03168152602001915050600060405180830381600087803b158015611e4057600080fd5b505af1158015611e54573d6000803e3d6000fd5b505050505b5050505050505050935093915050565b6000611e7b611e76612409565b610bd7565b5090506115dc6115d6612409565b60665481565b6001600160a01b03166000908152606a6020526040902054151590565b600054610100900460ff1680611ec55750611ec5612bf9565b80611ed3575060005460ff16155b611f0e5760405162461bcd60e51b815260040180806020018281038252602e81526020018061330f602e913960400191505060405180910390fd5b600054610100900460ff16158015611f39576000805460ff1961ff0019909116610100171660011790555b611f41612c0a565b611f4a82612cbb565b600573__$22e4fd0786f9bb9222b95fc3343146c524$__63907af6c06040518163ffffffff1660e01b815260040160206040518083038186803b158015611f9057600080fd5b505af4158015611fa4573d6000803e3d6000fd5b505050506040513d6020811015611fba57600080fd5b505181611fc357fe5b046066558015611fd9576000805461ff00191690555b5050565b606c5490565b6000611fed6132ce565b506001600160a01b0383166000908152606a6020908152604091829020825180840190935280548084526001909101549183018290529081612035576000935050505061177b565b600061206a83612064606c858154811061204b57fe5b906000526020600020015461205e610d79565b90612d6e565b90612d87565b90506000612077876110a7565b905060006120888361206484612da0565b905061209381612db0565b9998505050505050505050565b60675490565b600063444f575360e01b6120b861240d565b6001600160a01b0316629919c0826040518263ffffffff1660e01b81526004018082815260200191505060206040518083038186803b1580156120fa57600080fd5b505afa15801561210e573d6000803e3d6000fd5b505050506040513d602081101561212457600080fd5b505115612174576040805162461bcd60e51b81526020600482015260196024820152780a4c2e8ca40e6e8c2d8ca40dee440dcdee840c240e6f2dce8d603b1b604482015290519081900360640190fd5b600061217e6128f5565b6001600160a01b03166370a08231856040518263ffffffff1660e01b815260040180826001600160a01b0316815260200191505060206040518083038186803b1580156121ca57600080fd5b505afa1580156121de573d6000803e3d6000fd5b505050506040513d60208110156121f457600080fd5b505160665490915060009061221a906122148763444f575360e01b611fe3565b906128e0565b905081811061222e5760009350505061223d565b61223882826124e3565b935050505b50919050565b600061224d612dd2565b6001600160a01b0316630a1e187d612263612409565b86868661226e612409565b6040518663ffffffff1660e01b815260040180866001600160a01b03168152602001858152602001848152602001838152602001826001600160a01b0316815260200195505050505050602060405180830381600087803b1580156122d257600080fd5b505af11580156122e6573d6000803e3d6000fd5b505050506040513d60208110156122fc57600080fd5b5051949350505050565b61230e612409565b6001600160a01b031661231f6115f8565b6001600160a01b031614612368576040805162461bcd60e51b8152602060048201819052602482015260008051602061337e833981519152604482015290519081900360640190fd5b6001600160a01b0381166123ad5760405162461bcd60e51b81526004018080602001828103825260268152602001806132e96026913960400191505060405180910390fd5b6033546040516001600160a01b038084169216907f8be0079c531659141344cd1fd0a4f28419497f9722a3daafe3b4186f6b6457e090600090a3603380546001600160a01b0319166001600160a01b0392909216919091179055565b3390565b6065546040805163dacb2d0160e01b8152654f7261636c6560d01b60048201526024810182905260166044820152754d697373696e67204f7261636c65206164647265737360501b606482015290516000926001600160a01b03169163dacb2d01916084808301926020929190829003018186803b15801561248e57600080fd5b505afa1580156124a2573d6000803e3d6000fd5b505050506040513d60208110156124b857600080fd5b5051905090565b6000670de0b6b3a76400006124d48484612e5d565b816124db57fe5b049392505050565b60008282111561253a576040805162461bcd60e51b815260206004820152601e60248201527f536166654d6174683a207375627472616374696f6e206f766572666c6f770000604482015290519081900360640190fd5b50900390565b8160006125556514da185554d160d21b6110a7565b9050600061256382846124e3565b9050600081156125c75760006125798584612d6e565b90506125c38173__$22e4fd0786f9bb9222b95fc3343146c524$__63d5e5e6e66040518163ffffffff1660e01b815260040160206040518083038186803b158015611cab57600080fd5b9150505b848414156125e7576125da876000612eb6565b6125e2612edd565b612610565b60006125f386866124e3565b905060006126018285612d6e565b905061260d8982612eb6565b50505b61262461261f82612064610d79565b612ef0565b50505050505050565b6126356132ce565b506001600160a01b0381166000908152606a6020908152604091829020825180840190935280548352600101549082015261266e612f25565b6001600160a01b0316638664527483836000015184602001516040518463ffffffff1660e01b815260040180846001600160a01b031681526020018381526020018281526020019350505050600060405180830381600087803b1580156126d457600080fd5b505af11580156126e8573d6000803e3d6000fd5b505050505050565b60006127046514da185554d160d21b6110a7565b905060006127128483612886565b905060006127208583612d6e565b9050600061279e8273__$22e4fd0786f9bb9222b95fc3343146c524$__63d5e5e6e66040518163ffffffff1660e01b815260040160206040518083038186803b15801561276c57600080fd5b505af4158015612780573d6000803e3d6000fd5b505050506040513d602081101561279657600080fd5b5051906124e3565b905084156127b7576127b48361205e8888612886565b91505b846127c4576127c4612fae565b6127ce8783612eb6565b60006127d8611fdd565b11156127f2576127ed61261f82612064610d79565b612624565b61262473__$22e4fd0786f9bb9222b95fc3343146c524$__63d5e5e6e66040518163ffffffff1660e01b815260040160206040518083038186803b15801561283957600080fd5b505af415801561284d573d6000803e3d6000fd5b505050506040513d602081101561286357600080fd5b5051612ef0565b600061287f8383670de0b6b3a7640000612fbc565b9392505050565b60008282018381101561287f576040805162461bcd60e51b815260206004820152601b60248201527f536166654d6174683a206164646974696f6e206f766572666c6f770000000000604482015290519081900360640190fd5b600061287f8383670de0b6b3a7640000612ff3565b6065546040805163dacb2d0160e01b815266536861646f777360c81b600482015260248101829052601760448201527f4d697373696e6720536861646f77732061646472657373000000000000000000606482015290516000926001600160a01b03169163dacb2d01916084808301926020929190829003018186803b15801561248e57600080fd5b6065546040805163dacb2d0160e01b81526b526577617264457363726f7760a01b600482015260248101829052601c60448201527f4d697373696e6720526577617264457363726f77206164647265737300000000606482015290516000926001600160a01b03169163dacb2d01916084808301926020929190829003018186803b15801561248e57600080fd5b6065546040805163dacb2d0160e01b81526b4c69717569646174696f6e7360a01b600482015260248101829052601c60448201527f4d697373696e67204c69717569646174696f6e73206164647265737300000000606482015290516000926001600160a01b03169163dacb2d01916084808301926020929190829003018186803b15801561248e57600080fd5b600061287f82612ab285670de0b6b3a7640000612e5d565b90613013565b826000612ac487611651565b9050808310612ad1578391505b612adc878386612540565b6514da185554d160d21b6000908152606860205260008051602061333d8339815191525460408051632770a7eb60e21b81526001600160a01b038b811660048301526024820187905291519190921692639dc29fac926044808201939182900301818387803b158015612b4e57600080fd5b505af1158015612b62573d6000803e3d6000fd5b50506514da185554d160d21b6000908152606860205260008051602061333d8339815191525460408051632770a7eb60e21b81526001600160a01b038c81166004830152602482018c90529151919092169450639dc29fac93506044808301939282900301818387803b158015612bd857600080fd5b505af1158015612bec573d6000803e3d6000fd5b505050506126248761262d565b6000612c0430613072565b15905090565b600054610100900460ff1680612c235750612c23612bf9565b80612c31575060005460ff16155b612c6c5760405162461bcd60e51b815260040180806020018281038252602e81526020018061330f602e913960400191505060405180910390fd5b600054610100900460ff16158015612c97576000805460ff1961ff0019909116610100171660011790555b612c9f613078565b612ca7613118565b80156115dc576000805461ff001916905550565b600054610100900460ff1680612cd45750612cd4612bf9565b80612ce2575060005460ff16155b612d1d5760405162461bcd60e51b815260040180806020018281038252602e81526020018061330f602e913960400191505060405180910390fd5b600054610100900460ff16158015612d48576000805460ff1961ff0019909116610100171660011790555b612d50612c0a565b612d5982613211565b8015611fd9576000805461ff00191690555050565b600061287f83836b033b2e3c9fd0803ce8000000612ff3565b600061287f83836b033b2e3c9fd0803ce8000000612fbc565b600061177b82633b9aca00612e5d565b60006305f5e10082046005600a820610612dc857600a015b600a900492915050565b6065546040805163dacb2d0160e01b81526822bc31b430b733b2b960b91b600482015260248101829052601960448201527f4d697373696e672045786368616e676572206164647265737300000000000000606482015290516000926001600160a01b03169163dacb2d01916084808301926020929190829003018186803b15801561248e57600080fd5b600082612e6c5750600061177b565b82820282848281612e7957fe5b041461287f5760405162461bcd60e51b815260040180806020018281038252602181526020018061335d6021913960400191505060405180910390fd5b6001600160a01b039091166000908152606a60205260409020908155606c54600190910155565b606b54612eeb9060006124e3565b606b55565b606c80546001810182556000919091527f2b4a51ab505fc96a0952efda2ba61bcd3078d4c02c39a186ec16f21883fbe0160155565b6065546040805163dacb2d0160e01b815266119959541bdbdb60ca1b600482015260248101829052601760448201527f4d697373696e6720466565506f6f6c2061646472657373000000000000000000606482015290516000926001600160a01b03169163dacb2d01916084808301926020929190829003018186803b15801561248e57600080fd5b606b54612eeb906000612886565b600080600a8304612fcd8686612e5d565b81612fd457fe5b0490506005600a825b0610612fe757600a015b600a9004949350505050565b60008061300784612ab287600a8702612e5d565b90506005600a82612fdd565b6000808211613069576040805162461bcd60e51b815260206004820152601a60248201527f536166654d6174683a206469766973696f6e206279207a65726f000000000000604482015290519081900360640190fd5b8183816124db57fe5b3b151590565b600054610100900460ff16806130915750613091612bf9565b8061309f575060005460ff16155b6130da5760405162461bcd60e51b815260040180806020018281038252602e81526020018061330f602e913960400191505060405180910390fd5b600054610100900460ff16158015612ca7576000805460ff1961ff00199091166101001716600117905580156115dc576000805461ff001916905550565b600054610100900460ff16806131315750613131612bf9565b8061313f575060005460ff16155b61317a5760405162461bcd60e51b815260040180806020018281038252602e81526020018061330f602e913960400191505060405180910390fd5b600054610100900460ff161580156131a5576000805460ff1961ff0019909116610100171660011790555b60006131af612409565b603380546001600160a01b0319166001600160a01b038316908117909155604051919250906000907f8be0079c531659141344cd1fd0a4f28419497f9722a3daafe3b4186f6b6457e0908290a35080156115dc576000805461ff001916905550565b600054610100900460ff168061322a575061322a612bf9565b80613238575060005460ff16155b6132735760405162461bcd60e51b815260040180806020018281038252602e81526020018061330f602e913960400191505060405180910390fd5b600054610100900460ff1615801561329e576000805460ff1961ff0019909116610100171660011790555b606580546001600160a01b0319166001600160a01b0384161790558015611fd9576000805461ff00191690555050565b60405180604001604052806000815260200160008152509056fe4f776e61626c653a206e6577206f776e657220697320746865207a65726f2061646472657373496e697469616c697a61626c653a20636f6e747261637420697320616c726561647920696e697469616c697a6564a608fccd882de3f13cf929a9041c4506fed4bea4cb411db49150f4291a7027f3536166654d6174683a206d756c7469706c69636174696f6e206f766572666c6f774f776e61626c653a2063616c6c6572206973206e6f7420746865206f776e65724e65772069737375616e636520726174696f2063616e6e6f7420657863656564204d41585f49535355414e43455f524154494fa26469706673582212205bb38c35d7123f875ee9f034563ff3ef8daa45639ab78bfb199d2637fc4ad14764736f6c63430007010033",
  "libraries": {
    "SafeDecimalMath": "0xc64F5722Ba05CdD6648E6e209b99a322b93956bC"
  },
  "devdoc": {
    "kind": "dev",
    "methods": {
      "owner()": {
        "details": "Returns the address of the current owner."
      },
      "renounceOwnership()": {
        "details": "Leaves the contract without owner. It will not be possible to call `onlyOwner` functions anymore. Can only be called by the current owner. NOTE: Renouncing ownership will leave the contract without an owner, thereby removing any functionality that is only available to the owner."
      },
      "transferOwnership(address)": {
        "details": "Transfers ownership of the contract to a new account (`newOwner`). Can only be called by the current owner."
      }
    },
    "version": 1
  },
  "userdoc": {
    "kind": "user",
    "methods": {},
    "version": 1
  },
  "storageLayout": {
    "storage": [
      {
        "astId": 595,
        "contract": "contracts/Synthesizer.sol:Synthesizer",
        "label": "_initialized",
        "offset": 0,
        "slot": "0",
        "type": "t_bool"
      },
      {
        "astId": 598,
        "contract": "contracts/Synthesizer.sol:Synthesizer",
        "label": "_initializing",
        "offset": 1,
        "slot": "0",
        "type": "t_bool"
      },
      {
        "astId": 1615,
        "contract": "contracts/Synthesizer.sol:Synthesizer",
        "label": "__gap",
        "offset": 0,
        "slot": "1",
        "type": "t_array(t_uint256)50_storage"
      },
      {
        "astId": 113,
        "contract": "contracts/Synthesizer.sol:Synthesizer",
        "label": "_owner",
        "offset": 0,
        "slot": "51",
        "type": "t_address"
      },
      {
        "astId": 232,
        "contract": "contracts/Synthesizer.sol:Synthesizer",
        "label": "__gap",
        "offset": 0,
        "slot": "52",
        "type": "t_array(t_uint256)49_storage"
      },
      {
        "astId": 9352,
        "contract": "contracts/Synthesizer.sol:Synthesizer",
        "label": "resolver",
        "offset": 0,
        "slot": "101",
        "type": "t_contract(AddressResolver)9340"
      },
      {
        "astId": 7290,
        "contract": "contracts/Synthesizer.sol:Synthesizer",
        "label": "issuanceRatio",
        "offset": 0,
        "slot": "102",
        "type": "t_uint256"
      },
      {
        "astId": 7293,
        "contract": "contracts/Synthesizer.sol:Synthesizer",
        "label": "availableSynths",
        "offset": 0,
        "slot": "103",
        "type": "t_array(t_contract(ISynth)9096)dyn_storage"
      },
      {
        "astId": 7297,
        "contract": "contracts/Synthesizer.sol:Synthesizer",
        "label": "synths",
        "offset": 0,
        "slot": "104",
        "type": "t_mapping(t_bytes32,t_contract(ISynth)9096)"
      },
      {
        "astId": 7301,
        "contract": "contracts/Synthesizer.sol:Synthesizer",
        "label": "synthsByAddress",
        "offset": 0,
        "slot": "105",
        "type": "t_mapping(t_address,t_bytes32)"
      },
      {
        "astId": 7310,
        "contract": "contracts/Synthesizer.sol:Synthesizer",
        "label": "issuanceData",
        "offset": 0,
        "slot": "106",
        "type": "t_mapping(t_address,t_struct(IssuanceData)7306_storage)"
      },
      {
        "astId": 7312,
        "contract": "contracts/Synthesizer.sol:Synthesizer",
        "label": "totalIssuerCount",
        "offset": 0,
        "slot": "107",
        "type": "t_uint256"
      },
      {
        "astId": 7315,
        "contract": "contracts/Synthesizer.sol:Synthesizer",
        "label": "debtLedger",
        "offset": 0,
        "slot": "108",
        "type": "t_array(t_uint256)dyn_storage"
      }
    ],
    "types": {
      "t_address": {
        "encoding": "inplace",
        "label": "address",
        "numberOfBytes": "20"
      },
      "t_array(t_contract(ISynth)9096)dyn_storage": {
        "base": "t_contract(ISynth)9096",
        "encoding": "dynamic_array",
        "label": "contract ISynth[]",
        "numberOfBytes": "32"
      },
      "t_array(t_uint256)49_storage": {
        "base": "t_uint256",
        "encoding": "inplace",
        "label": "uint256[49]",
        "numberOfBytes": "1568"
      },
      "t_array(t_uint256)50_storage": {
        "base": "t_uint256",
        "encoding": "inplace",
        "label": "uint256[50]",
        "numberOfBytes": "1600"
      },
      "t_array(t_uint256)dyn_storage": {
        "base": "t_uint256",
        "encoding": "dynamic_array",
        "label": "uint256[]",
        "numberOfBytes": "32"
      },
      "t_bool": {
        "encoding": "inplace",
        "label": "bool",
        "numberOfBytes": "1"
      },
      "t_bytes32": {
        "encoding": "inplace",
        "label": "bytes32",
        "numberOfBytes": "32"
      },
      "t_contract(AddressResolver)9340": {
        "encoding": "inplace",
        "label": "contract AddressResolver",
        "numberOfBytes": "20"
      },
      "t_contract(ISynth)9096": {
        "encoding": "inplace",
        "label": "contract ISynth",
        "numberOfBytes": "20"
      },
      "t_mapping(t_address,t_bytes32)": {
        "encoding": "mapping",
        "key": "t_address",
        "label": "mapping(address => bytes32)",
        "numberOfBytes": "32",
        "value": "t_bytes32"
      },
      "t_mapping(t_address,t_struct(IssuanceData)7306_storage)": {
        "encoding": "mapping",
        "key": "t_address",
        "label": "mapping(address => struct Synthesizer.IssuanceData)",
        "numberOfBytes": "32",
        "value": "t_struct(IssuanceData)7306_storage"
      },
      "t_mapping(t_bytes32,t_contract(ISynth)9096)": {
        "encoding": "mapping",
        "key": "t_bytes32",
        "label": "mapping(bytes32 => contract ISynth)",
        "numberOfBytes": "32",
        "value": "t_contract(ISynth)9096"
      },
      "t_struct(IssuanceData)7306_storage": {
        "encoding": "inplace",
        "label": "struct Synthesizer.IssuanceData",
        "members": [
          {
            "astId": 7303,
            "contract": "contracts/Synthesizer.sol:Synthesizer",
            "label": "initialDebtOwnership",
            "offset": 0,
            "slot": "0",
            "type": "t_uint256"
          },
          {
            "astId": 7305,
            "contract": "contracts/Synthesizer.sol:Synthesizer",
            "label": "debtEntryIndex",
            "offset": 0,
            "slot": "1",
            "type": "t_uint256"
          }
        ],
        "numberOfBytes": "64"
      },
      "t_uint256": {
        "encoding": "inplace",
        "label": "uint256",
        "numberOfBytes": "32"
      }
    }
  }
}