{
  "address": "0x995cd366c8f86B45f2d3261bD3Cf20806ed5b3d1",
  "abi": [
    {
      "anonymous": false,
      "inputs": [
        {
          "indexed": false,
          "internalType": "uint256",
          "name": "newRatio",
          "type": "uint256"
        }
      ],
      "name": "IssuanceRatioUpdated",
      "type": "event"
    },
    {
      "anonymous": false,
      "inputs": [
        {
          "indexed": true,
          "internalType": "address",
          "name": "previousOwner",
          "type": "address"
        },
        {
          "indexed": true,
          "internalType": "address",
          "name": "newOwner",
          "type": "address"
        }
      ],
      "name": "OwnershipTransferred",
      "type": "event"
    },
    {
      "inputs": [
        {
          "internalType": "contract ISynth",
          "name": "synth",
          "type": "address"
        }
      ],
      "name": "addSynth",
      "outputs": [],
      "stateMutability": "nonpayable",
      "type": "function"
    },
    {
      "inputs": [],
      "name": "availableCurrencyKeys",
      "outputs": [
        {
          "internalType": "bytes32[]",
          "name": "",
          "type": "bytes32[]"
        }
      ],
      "stateMutability": "view",
      "type": "function"
    },
    {
      "inputs": [],
      "name": "availableSynthCount",
      "outputs": [
        {
          "internalType": "uint256",
          "name": "",
          "type": "uint256"
        }
      ],
      "stateMutability": "view",
      "type": "function"
    },
    {
      "inputs": [
        {
          "internalType": "uint256",
          "name": "",
          "type": "uint256"
        }
      ],
      "name": "availableSynths",
      "outputs": [
        {
          "internalType": "contract ISynth",
          "name": "",
          "type": "address"
        }
      ],
      "stateMutability": "view",
      "type": "function"
    },
    {
      "inputs": [
        {
          "internalType": "uint256",
          "name": "amount",
          "type": "uint256"
        }
      ],
      "name": "burnSynths",
      "outputs": [],
      "stateMutability": "nonpayable",
      "type": "function"
    },
    {
      "inputs": [
        {
          "internalType": "address",
          "name": "account",
          "type": "address"
        }
      ],
      "name": "collateral",
      "outputs": [
        {
          "internalType": "uint256",
          "name": "",
          "type": "uint256"
        }
      ],
      "stateMutability": "view",
      "type": "function"
    },
    {
      "inputs": [
        {
          "internalType": "address",
          "name": "_issuer",
          "type": "address"
        }
      ],
      "name": "collateralisationRatio",
      "outputs": [
        {
          "internalType": "uint256",
          "name": "",
          "type": "uint256"
        }
      ],
      "stateMutability": "view",
      "type": "function"
    },
    {
      "inputs": [
        {
          "internalType": "address",
          "name": "_issuer",
          "type": "address"
        },
        {
          "internalType": "bytes32",
          "name": "currencyKey",
          "type": "bytes32"
        }
      ],
      "name": "debtBalanceOf",
      "outputs": [
        {
          "internalType": "uint256",
          "name": "",
          "type": "uint256"
        }
      ],
      "stateMutability": "view",
      "type": "function"
    },
    {
      "inputs": [
        {
          "internalType": "uint256",
          "name": "",
          "type": "uint256"
        }
      ],
      "name": "debtLedger",
      "outputs": [
        {
          "internalType": "uint256",
          "name": "",
          "type": "uint256"
        }
      ],
      "stateMutability": "view",
      "type": "function"
    },
    {
      "inputs": [],
      "name": "debtLedgerLength",
      "outputs": [
        {
          "internalType": "uint256",
          "name": "",
          "type": "uint256"
        }
      ],
      "stateMutability": "view",
      "type": "function"
    },
    {
      "inputs": [
        {
          "internalType": "bytes32",
          "name": "sourceCurrencyKey",
          "type": "bytes32"
        },
        {
          "internalType": "uint256",
          "name": "sourceAmount",
          "type": "uint256"
        },
        {
          "internalType": "bytes32",
          "name": "destinationCurrencyKey",
          "type": "bytes32"
        }
      ],
      "name": "exchange",
      "outputs": [
        {
          "internalType": "uint256",
          "name": "amountReceived",
          "type": "uint256"
        }
      ],
      "stateMutability": "nonpayable",
      "type": "function"
    },
    {
      "inputs": [
        {
          "internalType": "address",
          "name": "account",
          "type": "address"
        }
      ],
      "name": "hasIssued",
      "outputs": [
        {
          "internalType": "bool",
          "name": "",
          "type": "bool"
        }
      ],
      "stateMutability": "view",
      "type": "function"
    },
    {
      "inputs": [
        {
          "internalType": "address",
          "name": "_resolver",
          "type": "address"
        }
      ],
      "name": "initialize",
      "outputs": [],
      "stateMutability": "nonpayable",
      "type": "function"
    },
    {
      "inputs": [
        {
          "internalType": "address",
          "name": "",
          "type": "address"
        }
      ],
      "name": "issuanceData",
      "outputs": [
        {
          "internalType": "uint256",
          "name": "initialDebtOwnership",
          "type": "uint256"
        },
        {
          "internalType": "uint256",
          "name": "debtEntryIndex",
          "type": "uint256"
        }
      ],
      "stateMutability": "view",
      "type": "function"
    },
    {
      "inputs": [],
      "name": "issuanceRatio",
      "outputs": [
        {
          "internalType": "uint256",
          "name": "",
          "type": "uint256"
        }
      ],
      "stateMutability": "view",
      "type": "function"
    },
    {
      "inputs": [],
      "name": "issueMaxSynths",
      "outputs": [],
      "stateMutability": "nonpayable",
      "type": "function"
    },
    {
      "inputs": [
        {
          "internalType": "uint256",
          "name": "amount",
          "type": "uint256"
        }
      ],
      "name": "issueSynths",
      "outputs": [],
      "stateMutability": "nonpayable",
      "type": "function"
    },
    {
      "inputs": [
        {
          "internalType": "address",
          "name": "from",
          "type": "address"
        },
        {
          "internalType": "uint256",
          "name": "amount",
          "type": "uint256"
        }
      ],
      "name": "issueSynthsFrom",
      "outputs": [],
      "stateMutability": "nonpayable",
      "type": "function"
    },
    {
      "inputs": [],
      "name": "lastDebtLedgerEntry",
      "outputs": [
        {
          "internalType": "uint256",
          "name": "",
          "type": "uint256"
        }
      ],
      "stateMutability": "view",
      "type": "function"
    },
    {
      "inputs": [
        {
          "internalType": "address",
          "name": "_issuer",
          "type": "address"
        }
      ],
      "name": "maxIssuableSynths",
      "outputs": [
        {
          "internalType": "uint256",
          "name": "",
          "type": "uint256"
        }
      ],
      "stateMutability": "view",
      "type": "function"
    },
    {
      "inputs": [],
      "name": "owner",
      "outputs": [
        {
          "internalType": "address",
          "name": "",
          "type": "address"
        }
      ],
      "stateMutability": "view",
      "type": "function"
    },
    {
      "inputs": [
        {
          "internalType": "address",
          "name": "_issuer",
          "type": "address"
        }
      ],
      "name": "remainingIssuableSynths",
      "outputs": [
        {
          "internalType": "uint256",
          "name": "",
          "type": "uint256"
        },
        {
          "internalType": "uint256",
          "name": "",
          "type": "uint256"
        }
      ],
      "stateMutability": "view",
      "type": "function"
    },
    {
      "inputs": [
        {
          "internalType": "bytes32",
          "name": "currencyKey",
          "type": "bytes32"
        }
      ],
      "name": "removeSynth",
      "outputs": [],
      "stateMutability": "nonpayable",
      "type": "function"
    },
    {
      "inputs": [],
      "name": "renounceOwnership",
      "outputs": [],
      "stateMutability": "nonpayable",
      "type": "function"
    },
    {
      "inputs": [],
      "name": "resolver",
      "outputs": [
        {
          "internalType": "contract AddressResolver",
          "name": "",
          "type": "address"
        }
      ],
      "stateMutability": "view",
      "type": "function"
    },
    {
      "inputs": [
        {
          "internalType": "uint256",
          "name": "_issuanceRatio",
          "type": "uint256"
        }
      ],
      "name": "setIssuanceRatio",
      "outputs": [],
      "stateMutability": "nonpayable",
      "type": "function"
    },
    {
      "inputs": [
        {
          "internalType": "contract AddressResolver",
          "name": "_resolver",
          "type": "address"
        }
      ],
      "name": "setResolver",
      "outputs": [],
      "stateMutability": "nonpayable",
      "type": "function"
    },
    {
      "inputs": [
        {
          "internalType": "bytes32",
          "name": "",
          "type": "bytes32"
        }
      ],
      "name": "synths",
      "outputs": [
        {
          "internalType": "contract ISynth",
          "name": "",
          "type": "address"
        }
      ],
      "stateMutability": "view",
      "type": "function"
    },
    {
      "inputs": [
        {
          "internalType": "address",
          "name": "",
          "type": "address"
        }
      ],
      "name": "synthsByAddress",
      "outputs": [
        {
          "internalType": "bytes32",
          "name": "",
          "type": "bytes32"
        }
      ],
      "stateMutability": "view",
      "type": "function"
    },
    {
      "inputs": [
        {
          "internalType": "bytes32",
          "name": "currencyKey",
          "type": "bytes32"
        }
      ],
      "name": "totalIssuedSynths",
      "outputs": [
        {
          "internalType": "uint256",
          "name": "",
          "type": "uint256"
        }
      ],
      "stateMutability": "view",
      "type": "function"
    },
    {
      "inputs": [],
      "name": "totalIssuerCount",
      "outputs": [
        {
          "internalType": "uint256",
          "name": "",
          "type": "uint256"
        }
      ],
      "stateMutability": "view",
      "type": "function"
    },
    {
      "inputs": [
        {
          "internalType": "address",
          "name": "newOwner",
          "type": "address"
        }
      ],
      "name": "transferOwnership",
      "outputs": [],
      "stateMutability": "nonpayable",
      "type": "function"
    },
    {
      "inputs": [
        {
          "internalType": "address",
          "name": "account",
          "type": "address"
        }
      ],
      "name": "transferableShadows",
      "outputs": [
        {
          "internalType": "uint256",
          "name": "",
          "type": "uint256"
        }
      ],
      "stateMutability": "view",
      "type": "function"
    }
  ],
  "transactionHash": "0x2ed0c6f749d335e2dedb2a75b5b986b0f7123d7f1223778867b8273c6c4c67ec",
  "args": [],
  "solcInputHash": "337b6b00b86b589608341b48d68d253e",
  "bytecode": "0x60806040819052630241ebdb60e61b8152600590737Ad03fA3195761d2c4670DD9B01bcdeF63028DD39063907af6c09060849060209060048186803b15801561004757600080fd5b505af415801561005b573d6000803e3d6000fd5b505050506040513d602081101561007157600080fd5b50518161007a57fe5b0460665534801561008a57600080fd5b50612a8e806200009b6000396000f3fe608060405234801561001057600080fd5b50600436106101fb5760003560e01c8063849cf5881161011a578063b410a034116100ad578063d37c4d8b1161007c578063d37c4d8b14610585578063dbf63340146105b1578063dcb5ec23146105b9578063ee52a2f3146105df578063f2fde38b14610608576101fb565b8063b410a03414610515578063b992812e1461051d578063c4d66de814610557578063cd92eba91461057d576101fb565b80639371bede116100e95780639371bede146104b9578063a311c7c2146104c1578063a5fdc5de146104e7578063af086c7e1461050d576101fb565b8063849cf588146104485780638a2900141461046e5780638b3f80881461048b5780638da5cb5b146104b1576101fb565b8063326080391161019257806372cb051f1161016157806372cb051f1461038a57806382a8ab30146103e2578063835e119c1461040e57806383d625d41461042b576101fb565b8063326080391461033757806346317712146103545780634e543b261461035c578063715018a614610382576101fb565b80630b887dae116101ce5780630b887dae146102985780631137aedf146102b557806316b2213f146102f4578063295da87d1461031a576101fb565b806304f3bcec14610200578063054be0b71461022457806305b3c1c91461024357806308d95cd51461027b575b600080fd5b61020861062e565b604080516001600160a01b039092168252519081900360200190f35b6102416004803603602081101561023a57600080fd5b503561063d565b005b6102696004803603602081101561025957600080fd5b50356001600160a01b0316610788565b60408051918252519081900360200190f35b6102696004803603602081101561029157600080fd5b5035610842565b610241600480360360208110156102ae57600080fd5b5035610860565b6102db600480360360208110156102cb57600080fd5b50356001600160a01b0316610b92565b6040805192835260208301919091528051918290030190f35b6102696004803603602081101561030a57600080fd5b50356001600160a01b0316610bdc565b6102416004803603602081101561033057600080fd5b5035610bee565b6102086004803603602081101561034d57600080fd5b5035610d25565b610269610d40565b6102416004803603602081101561037257600080fd5b50356001600160a01b0316610d66565b610241610dea565b610392610e96565b60408051602080825283518183015283519192839290830191858101910280838360005b838110156103ce5781810151838201526020016103b6565b505050509050019250505060405180910390f35b610241600480360360408110156103f857600080fd5b506001600160a01b038135169060200135610f4b565b6102086004803603602081101561042457600080fd5b5035611057565b6102696004803603602081101561044157600080fd5b503561107e565b6102416004803603602081101561045e57600080fd5b50356001600160a01b0316611395565b6102416004803603602081101561048457600080fd5b50356115a2565b6102db600480360360208110156104a157600080fd5b50356001600160a01b03166115b6565b6102086115cf565b6102696115de565b610269600480360360208110156104d757600080fd5b50356001600160a01b03166115e4565b610269600480360360208110156104fd57600080fd5b50356001600160a01b0316611628565b610241611758565b610269611778565b6105436004803603602081101561053357600080fd5b50356001600160a01b031661177e565b604080519115158252519081900360200190f35b6102416004803603602081101561056d57600080fd5b50356001600160a01b031661179b565b61026961184f565b6102696004803603604081101561059b57600080fd5b506001600160a01b038135169060200135611855565b610269611912565b610269600480360360208110156105cf57600080fd5b50356001600160a01b0316611918565b610269600480360360608110156105f557600080fd5b5080359060208101359060400135611ab9565b6102416004803603602081101561061e57600080fd5b50356001600160a01b0316611b7c565b6065546001600160a01b031681565b610645611c7f565b6001600160a01b03166106566115cf565b6001600160a01b03161461069f576040805162461bcd60e51b81526020600482018190526024820152600080516020612a06833981519152604482015290519081900360640190fd5b737Ad03fA3195761d2c4670DD9B01bcdeF63028DD363907af6c06040518163ffffffff1660e01b815260040160206040518083038186803b1580156106e357600080fd5b505af41580156106f7573d6000803e3d6000fd5b505050506040513d602081101561070d57600080fd5b505181111561074d5760405162461bcd60e51b8152600401808060200182810382526033815260200180612a266033913960400191505060405180910390fd5b60668190556040805182815290517f63b22e09cc3a33e847c063e35f887bd4ea96bc8c0f93f1f8c311e4fa6d8854529181900360200190a150565b600080610793611c83565b6001600160a01b031663654a60ac6107aa85611628565b631e1554d160e21b6040518363ffffffff1660e01b8152600401808063444f575360e01b8152506020018381526020018281526020019250505060206040518083038186803b1580156107fc57600080fd5b505afa158015610810573d6000803e3d6000fd5b505050506040513d602081101561082657600080fd5b5051606654909150610839908290611d35565b9150505b919050565b606c818154811061084f57fe5b600091825260209091200154905081565b610868611c7f565b6001600160a01b03166108796115cf565b6001600160a01b0316146108c2576040805162461bcd60e51b81526020600482018190526024820152600080516020612a06833981519152604482015290519081900360640190fd5b6000818152606860205260409020546001600160a01b0316610922576040805162461bcd60e51b815260206004820152601460248201527314de5b9d1a08191bd95cc81b9bdd08195e1a5cdd60621b604482015290519081900360640190fd5b6000818152606860209081526040918290205482516318160ddd60e01b815292516001600160a01b03909116926318160ddd926004808301939192829003018186803b15801561097157600080fd5b505afa158015610985573d6000803e3d6000fd5b505050506040513d602081101561099b57600080fd5b5051156109e5576040805162461bcd60e51b815260206004820152601360248201527253796e746820737570706c792065786973747360681b604482015290519081900360640190fd5b631e1554d160e21b811415610a36576040805162461bcd60e51b815260206004820152601260248201527110d85b9b9bdd081c995b5bdd99481e1554d160721b604482015290519081900360640190fd5b6000818152606860205260408120546001600160a01b0316905b606754811015610b5257816001600160a01b031660678281548110610a7157fe5b6000918252602090912001546001600160a01b03161415610b4a5760678181548110610a9957fe5b600091825260209091200180546001600160a01b0319169055606780546000198101908110610ac457fe5b600091825260209091200154606780546001600160a01b039092169183908110610aea57fe5b9060005260206000200160006101000a8154816001600160a01b0302191690836001600160a01b031602179055506067805480610b2357fe5b600082815260209020810160001990810180546001600160a01b0319169055019055610b52565b600101610a50565b5050600081815260686020818152604080842080546001600160a01b031685526069835290842084905593909252905280546001600160a01b0319169055565b6000806000610ba884631e1554d160e21b611855565b90506000610bb585610788565b9050808210610bc657506000610bd3565b610bd08183611d59565b90505b92509050915091565b60696020526000908152604090205481565b6000610bf8611c7f565b90506000610c0d82631e1554d160e21b611855565b905060008111610c59576040805162461bcd60e51b81526020600482015260126024820152714e6f206465627420746f20666f726769766560701b604482015290519081900360640190fd5b6000838210610c685783610c6a565b815b9050610c77838284611db6565b631e1554d160e21b600090815260686020527f31c850b0c3cccd5c1559edc97879c47e69bf75b73ef9157cf216bd97aed325505460408051632770a7eb60e21b81526001600160a01b03878116600483015260248201869052915185949290931692639dc29fac9260448084019391929182900301818387803b158015610cfd57600080fd5b505af1158015610d11573d6000803e3d6000fd5b50505050610d1e84611ed3565b5050505050565b6068602052600090815260409020546001600160a01b031681565b606c8054600091906000198101908110610d5657fe5b9060005260206000200154905090565b610d6e611c7f565b6001600160a01b0316610d7f6115cf565b6001600160a01b031614610dc8576040805162461bcd60e51b81526020600482018190526024820152600080516020612a06833981519152604482015290519081900360640190fd5b606580546001600160a01b0319166001600160a01b0392909216919091179055565b610df2611c7f565b6001600160a01b0316610e036115cf565b6001600160a01b031614610e4c576040805162461bcd60e51b81526020600482018190526024820152600080516020612a06833981519152604482015290519081900360640190fd5b6033546040516000916001600160a01b0316907f8be0079c531659141344cd1fd0a4f28419497f9722a3daafe3b4186f6b6457e0908390a3603380546001600160a01b0319169055565b606754606090819067ffffffffffffffff81118015610eb457600080fd5b50604051908082528060200260200182016040528015610ede578160200160208202803683370190505b50905060005b606754811015610f45576069600060678381548110610eff57fe5b60009182526020808320909101546001600160a01b031683528201929092526040019020548251839083908110610f3257fe5b6020908102919091010152600101610ee4565b50905090565b600080610f5784610b92565b9150915081831115610fa3576040805162461bcd60e51b815260206004820152601060248201526f416d6f756e7420746f6f206c6172676560801b604482015290519081900360640190fd5b610fae848483611f96565b631e1554d160e21b600090815260686020527f31c850b0c3cccd5c1559edc97879c47e69bf75b73ef9157cf216bd97aed32550546040805163219e412d60e21b81526001600160a01b038881166004830152602482018890529151919092169263867904b4926044808201939182900301818387803b15801561103057600080fd5b505af1158015611044573d6000803e3d6000fd5b5050505061105184611ed3565b50505050565b6067818154811061106457fe5b6000918252602090912001546001600160a01b0316905081565b600080611089611c83565b9050600080826001600160a01b031663ac82f608866040518263ffffffff1660e01b81526004018082815260200191505060206040518083038186803b1580156110d257600080fd5b505afa1580156110e6573d6000803e3d6000fd5b505050506040513d60208110156110fc57600080fd5b50519050606060006001600160a01b03851663babcb42361111b610e96565b6040518263ffffffff1660e01b81526004018080602001828103825283818151815260200191508051906020019060200280838360005b8381101561116a578181015183820152602001611152565b505050509050019250505060006040518083038186803b15801561118d57600080fd5b505afa1580156111a1573d6000803e3d6000fd5b505050506040513d6000823e601f3d908101601f1916820160409081528110156111ca57600080fd5b81019080805160405193929190846401000000008211156111ea57600080fd5b9083019060208201858111156111ff57600080fd5b825186602082028301116401000000008211171561121c57600080fd5b82525081516020918201928201910280838360005b83811015611249578181015183820152602001611231565b5050505091909101604052506020015192945091925050811590506112a7576040805162461bcd60e51b815260206004820152600f60248201526e526174657320617265207374616c6560881b604482015290519081900360640190fd5b60005b60675481101561137f576000606782815481106112c357fe5b60009182526020918290200154604080516318160ddd60e01b815290516001600160a01b03909216926318160ddd92600480840193829003018186803b15801561130c57600080fd5b505afa158015611320573d6000803e3d6000fd5b505050506040513d602081101561133657600080fd5b505184519091506000906113679086908590811061135057fe5b60200260200101518361210e90919063ffffffff16565b9050611373878261212a565b965050506001016112aa565b5061138a8484612184565b979650505050505050565b61139d611c7f565b6001600160a01b03166113ae6115cf565b6001600160a01b0316146113f7576040805162461bcd60e51b81526020600482018190526024820152600080516020612a06833981519152604482015290519081900360640190fd5b6000816001600160a01b031663dbd06c856040518163ffffffff1660e01b815260040160206040518083038186803b15801561143257600080fd5b505afa158015611446573d6000803e3d6000fd5b505050506040513d602081101561145c57600080fd5b50516000818152606860205260409020549091506001600160a01b0316156114c2576040805162461bcd60e51b815260206004820152601460248201527353796e746820616c72656164792065786973747360601b604482015290519081900360640190fd5b6001600160a01b0382166000908152606960205260409020541561152d576040805162461bcd60e51b815260206004820152601c60248201527f53796e7468206164647265737320616c72656164792065786973747300000000604482015290519081900360640190fd5b60678054600181019091557f9787eeb91fe3101235e4a76063c7023ecb40f923f97916639c598592fa30d6ae0180546001600160a01b039093166001600160a01b0319938416811790915560008281526068602090815260408083208054909616841790955591815260699091529190912055565b6115b36115ad611c7f565b82610f4b565b50565b606a602052600090815260409020805460019091015482565b6033546001600160a01b031690565b606b5481565b6000806115f083611628565b90508061160157600091505061083d565b60006116148463444f575360e01b611855565b90506116208183612184565b949350505050565b600080611633612199565b6001600160a01b03166370a08231846040518263ffffffff1660e01b815260040180826001600160a01b0316815260200191505060206040518083038186803b15801561167f57600080fd5b505afa158015611693573d6000803e3d6000fd5b505050506040513d60208110156116a957600080fd5b5051905060006116b7612222565b6001600160a01b0316146117525761174f6116d0612222565b6001600160a01b03166370a08231856040518263ffffffff1660e01b815260040180826001600160a01b0316815260200191505060206040518083038186803b15801561171c57600080fd5b505afa158015611730573d6000803e3d6000fd5b505050506040513d602081101561174657600080fd5b5051829061212a565b90505b92915050565b600061176a611765611c7f565b610b92565b5090506115b36115ad611c7f565b60665481565b6001600160a01b03166000908152606a6020526040902054151590565b600054610100900460ff16806117b457506117b46122b0565b806117c2575060005460ff16155b6117fd5760405162461bcd60e51b815260040180806020018281038252602e8152602001806129b7602e913960400191505060405180910390fd5b600054610100900460ff16158015611828576000805460ff1961ff0019909116610100171660011790555b6118306122c1565b61183982612372565b801561184b576000805461ff00191690555b5050565b606c5490565b600061185f612976565b506001600160a01b0383166000908152606a60209081526040918290208251808401909352805480845260019091015491830182905290816118a75760009350505050611752565b60006118dc836118d6606c85815481106118bd57fe5b90600052602060002001546118d0610d40565b90612410565b90612429565b905060006118e98761107e565b905060006118fa836118d684612442565b905061190581612452565b9998505050505050505050565b60675490565b600063444f575360e01b61192a611c83565b6001600160a01b0316629919c0826040518263ffffffff1660e01b81526004018082815260200191505060206040518083038186803b15801561196c57600080fd5b505afa158015611980573d6000803e3d6000fd5b505050506040513d602081101561199657600080fd5b5051156119ea576040805162461bcd60e51b815260206004820152601960248201527f52617465207374616c65206f72206e6f7420612073796e746800000000000000604482015290519081900360640190fd5b60006119f4612199565b6001600160a01b03166370a08231856040518263ffffffff1660e01b815260040180826001600160a01b0316815260200191505060206040518083038186803b158015611a4057600080fd5b505afa158015611a54573d6000803e3d6000fd5b505050506040513d6020811015611a6a57600080fd5b5051606654909150600090611a9090611a8a8763444f575360e01b611855565b90612184565b9050818110611aa457600093505050611ab3565b611aae8282611d59565b935050505b50919050565b6000611ac3612474565b6001600160a01b0316630a1e187d611ad9611c7f565b868686611ae4611c7f565b6040518663ffffffff1660e01b815260040180866001600160a01b03168152602001858152602001848152602001838152602001826001600160a01b0316815260200195505050505050602060405180830381600087803b158015611b4857600080fd5b505af1158015611b5c573d6000803e3d6000fd5b505050506040513d6020811015611b7257600080fd5b5051949350505050565b611b84611c7f565b6001600160a01b0316611b956115cf565b6001600160a01b031614611bde576040805162461bcd60e51b81526020600482018190526024820152600080516020612a06833981519152604482015290519081900360640190fd5b6001600160a01b038116611c235760405162461bcd60e51b81526004018080602001828103825260268152602001806129916026913960400191505060405180910390fd5b6033546040516001600160a01b038084169216907f8be0079c531659141344cd1fd0a4f28419497f9722a3daafe3b4186f6b6457e090600090a3603380546001600160a01b0319166001600160a01b0392909216919091179055565b3390565b6065546040805163dacb2d0160e01b8152654f7261636c6560d01b60048201526024810182905260166044820152754d697373696e67204f7261636c65206164647265737360501b606482015290516000926001600160a01b03169163dacb2d01916084808301926020929190829003018186803b158015611d0457600080fd5b505afa158015611d18573d6000803e3d6000fd5b505050506040513d6020811015611d2e57600080fd5b5051905090565b6000670de0b6b3a7640000611d4a84846124ff565b81611d5157fe5b049392505050565b600082821115611db0576040805162461bcd60e51b815260206004820152601e60248201527f536166654d6174683a207375627472616374696f6e206f766572666c6f770000604482015290519081900360640190fd5b50900390565b816000611dc9631e1554d160e21b61107e565b90506000611dd78284611d59565b905060008115611e6d576000611ded8584612410565b9050611e6981737Ad03fA3195761d2c4670DD9B01bcdeF63028DD363d5e5e6e66040518163ffffffff1660e01b815260040160206040518083038186803b158015611e3757600080fd5b505af4158015611e4b573d6000803e3d6000fd5b505050506040513d6020811015611e6157600080fd5b50519061212a565b9150505b84841415611e8d57611e80876000612558565b611e8861257f565b611eb6565b6000611e998686611d59565b90506000611ea78285612410565b9050611eb38982612558565b50505b611eca611ec5826118d6610d40565b612592565b50505050505050565b611edb612976565b506001600160a01b0381166000908152606a60209081526040918290208251808401909352805483526001015490820152611f146125c7565b6001600160a01b0316638664527483836000015184602001516040518463ffffffff1660e01b815260040180846001600160a01b031681526020018381526020018281526020019350505050600060405180830381600087803b158015611f7a57600080fd5b505af1158015611f8e573d6000803e3d6000fd5b505050505050565b6000611fa8631e1554d160e21b61107e565b90506000611fb6848361212a565b90506000611fc48583612410565b9050600061204282737Ad03fA3195761d2c4670DD9B01bcdeF63028DD363d5e5e6e66040518163ffffffff1660e01b815260040160206040518083038186803b15801561201057600080fd5b505af4158015612024573d6000803e3d6000fd5b505050506040513d602081101561203a57600080fd5b505190611d59565b9050841561205b57612058836118d0888861212a565b91505b8461206857612068612650565b6120728783612558565b600061207c61184f565b111561209657612091611ec5826118d6610d40565b611eca565b611eca737Ad03fA3195761d2c4670DD9B01bcdeF63028DD363d5e5e6e66040518163ffffffff1660e01b815260040160206040518083038186803b1580156120dd57600080fd5b505af41580156120f1573d6000803e3d6000fd5b505050506040513d602081101561210757600080fd5b5051612592565b60006121238383670de0b6b3a764000061265e565b9392505050565b600082820183811015612123576040805162461bcd60e51b815260206004820152601b60248201527f536166654d6174683a206164646974696f6e206f766572666c6f770000000000604482015290519081900360640190fd5b60006121238383670de0b6b3a7640000612695565b6065546040805163dacb2d0160e01b815266536861646f777360c81b600482015260248101829052601760448201527f4d697373696e6720536861646f77732061646472657373000000000000000000606482015290516000926001600160a01b03169163dacb2d01916084808301926020929190829003018186803b158015611d0457600080fd5b6065546040805163dacb2d0160e01b81526b526577617264457363726f7760a01b600482015260248101829052601c60448201527f4d697373696e6720526577617264457363726f77206164647265737300000000606482015290516000926001600160a01b03169163dacb2d01916084808301926020929190829003018186803b158015611d0457600080fd5b60006122bb306126bb565b15905090565b600054610100900460ff16806122da57506122da6122b0565b806122e8575060005460ff16155b6123235760405162461bcd60e51b815260040180806020018281038252602e8152602001806129b7602e913960400191505060405180910390fd5b600054610100900460ff1615801561234e576000805460ff1961ff0019909116610100171660011790555b6123566126c1565b61235e612761565b80156115b3576000805461ff001916905550565b600054610100900460ff168061238b575061238b6122b0565b80612399575060005460ff16155b6123d45760405162461bcd60e51b815260040180806020018281038252602e8152602001806129b7602e913960400191505060405180910390fd5b600054610100900460ff161580156123ff576000805460ff1961ff0019909116610100171660011790555b6124076122c1565b6118398261285a565b600061212383836b033b2e3c9fd0803ce8000000612695565b600061212383836b033b2e3c9fd0803ce800000061265e565b600061175282633b9aca006124ff565b60006305f5e10082046005600a82061061246a57600a015b600a900492915050565b6065546040805163dacb2d0160e01b81526822bc31b430b733b2b960b91b600482015260248101829052601960448201527f4d697373696e672045786368616e676572206164647265737300000000000000606482015290516000926001600160a01b03169163dacb2d01916084808301926020929190829003018186803b158015611d0457600080fd5b60008261250e57506000611752565b8282028284828161251b57fe5b04146121235760405162461bcd60e51b81526004018080602001828103825260218152602001806129e56021913960400191505060405180910390fd5b6001600160a01b039091166000908152606a60205260409020908155606c54600190910155565b606b5461258d906000611d59565b606b55565b606c80546001810182556000919091527f2b4a51ab505fc96a0952efda2ba61bcd3078d4c02c39a186ec16f21883fbe0160155565b6065546040805163dacb2d0160e01b815266119959541bdbdb60ca1b600482015260248101829052601760448201527f4d697373696e6720466565506f6f6c2061646472657373000000000000000000606482015290516000926001600160a01b03169163dacb2d01916084808301926020929190829003018186803b158015611d0457600080fd5b606b5461258d90600061212a565b600080600a830461266f86866124ff565b8161267657fe5b0490506005600a825b061061268957600a015b600a9004949350505050565b6000806126af846126a987600a87026124ff565b90612917565b90506005600a8261267f565b3b151590565b600054610100900460ff16806126da57506126da6122b0565b806126e8575060005460ff16155b6127235760405162461bcd60e51b815260040180806020018281038252602e8152602001806129b7602e913960400191505060405180910390fd5b600054610100900460ff1615801561235e576000805460ff1961ff00199091166101001716600117905580156115b3576000805461ff001916905550565b600054610100900460ff168061277a575061277a6122b0565b80612788575060005460ff16155b6127c35760405162461bcd60e51b815260040180806020018281038252602e8152602001806129b7602e913960400191505060405180910390fd5b600054610100900460ff161580156127ee576000805460ff1961ff0019909116610100171660011790555b60006127f8611c7f565b603380546001600160a01b0319166001600160a01b038316908117909155604051919250906000907f8be0079c531659141344cd1fd0a4f28419497f9722a3daafe3b4186f6b6457e0908290a35080156115b3576000805461ff001916905550565b600054610100900460ff168061287357506128736122b0565b80612881575060005460ff16155b6128bc5760405162461bcd60e51b815260040180806020018281038252602e8152602001806129b7602e913960400191505060405180910390fd5b600054610100900460ff161580156128e7576000805460ff1961ff0019909116610100171660011790555b606580546001600160a01b0319166001600160a01b038416179055801561184b576000805461ff00191690555050565b600080821161296d576040805162461bcd60e51b815260206004820152601a60248201527f536166654d6174683a206469766973696f6e206279207a65726f000000000000604482015290519081900360640190fd5b818381611d5157fe5b60405180604001604052806000815260200160008152509056fe4f776e61626c653a206e6577206f776e657220697320746865207a65726f2061646472657373496e697469616c697a61626c653a20636f6e747261637420697320616c726561647920696e697469616c697a6564536166654d6174683a206d756c7469706c69636174696f6e206f766572666c6f774f776e61626c653a2063616c6c6572206973206e6f7420746865206f776e65724e65772069737375616e636520726174696f2063616e6e6f7420657863656564204d41585f49535355414e43455f524154494fa264697066735822122000241ff1cecee30666b82f2cd1de1313c06d77ebd0fdc663a1fe9cea7ac415f264736f6c63430007010033",
  "deployedBytecode": "0x608060405234801561001057600080fd5b50600436106101fb5760003560e01c8063849cf5881161011a578063b410a034116100ad578063d37c4d8b1161007c578063d37c4d8b14610585578063dbf63340146105b1578063dcb5ec23146105b9578063ee52a2f3146105df578063f2fde38b14610608576101fb565b8063b410a03414610515578063b992812e1461051d578063c4d66de814610557578063cd92eba91461057d576101fb565b80639371bede116100e95780639371bede146104b9578063a311c7c2146104c1578063a5fdc5de146104e7578063af086c7e1461050d576101fb565b8063849cf588146104485780638a2900141461046e5780638b3f80881461048b5780638da5cb5b146104b1576101fb565b8063326080391161019257806372cb051f1161016157806372cb051f1461038a57806382a8ab30146103e2578063835e119c1461040e57806383d625d41461042b576101fb565b8063326080391461033757806346317712146103545780634e543b261461035c578063715018a614610382576101fb565b80630b887dae116101ce5780630b887dae146102985780631137aedf146102b557806316b2213f146102f4578063295da87d1461031a576101fb565b806304f3bcec14610200578063054be0b71461022457806305b3c1c91461024357806308d95cd51461027b575b600080fd5b61020861062e565b604080516001600160a01b039092168252519081900360200190f35b6102416004803603602081101561023a57600080fd5b503561063d565b005b6102696004803603602081101561025957600080fd5b50356001600160a01b0316610788565b60408051918252519081900360200190f35b6102696004803603602081101561029157600080fd5b5035610842565b610241600480360360208110156102ae57600080fd5b5035610860565b6102db600480360360208110156102cb57600080fd5b50356001600160a01b0316610b92565b6040805192835260208301919091528051918290030190f35b6102696004803603602081101561030a57600080fd5b50356001600160a01b0316610bdc565b6102416004803603602081101561033057600080fd5b5035610bee565b6102086004803603602081101561034d57600080fd5b5035610d25565b610269610d40565b6102416004803603602081101561037257600080fd5b50356001600160a01b0316610d66565b610241610dea565b610392610e96565b60408051602080825283518183015283519192839290830191858101910280838360005b838110156103ce5781810151838201526020016103b6565b505050509050019250505060405180910390f35b610241600480360360408110156103f857600080fd5b506001600160a01b038135169060200135610f4b565b6102086004803603602081101561042457600080fd5b5035611057565b6102696004803603602081101561044157600080fd5b503561107e565b6102416004803603602081101561045e57600080fd5b50356001600160a01b0316611395565b6102416004803603602081101561048457600080fd5b50356115a2565b6102db600480360360208110156104a157600080fd5b50356001600160a01b03166115b6565b6102086115cf565b6102696115de565b610269600480360360208110156104d757600080fd5b50356001600160a01b03166115e4565b610269600480360360208110156104fd57600080fd5b50356001600160a01b0316611628565b610241611758565b610269611778565b6105436004803603602081101561053357600080fd5b50356001600160a01b031661177e565b604080519115158252519081900360200190f35b6102416004803603602081101561056d57600080fd5b50356001600160a01b031661179b565b61026961184f565b6102696004803603604081101561059b57600080fd5b506001600160a01b038135169060200135611855565b610269611912565b610269600480360360208110156105cf57600080fd5b50356001600160a01b0316611918565b610269600480360360608110156105f557600080fd5b5080359060208101359060400135611ab9565b6102416004803603602081101561061e57600080fd5b50356001600160a01b0316611b7c565b6065546001600160a01b031681565b610645611c7f565b6001600160a01b03166106566115cf565b6001600160a01b03161461069f576040805162461bcd60e51b81526020600482018190526024820152600080516020612a06833981519152604482015290519081900360640190fd5b73__$22e4fd0786f9bb9222b95fc3343146c524$__63907af6c06040518163ffffffff1660e01b815260040160206040518083038186803b1580156106e357600080fd5b505af41580156106f7573d6000803e3d6000fd5b505050506040513d602081101561070d57600080fd5b505181111561074d5760405162461bcd60e51b8152600401808060200182810382526033815260200180612a266033913960400191505060405180910390fd5b60668190556040805182815290517f63b22e09cc3a33e847c063e35f887bd4ea96bc8c0f93f1f8c311e4fa6d8854529181900360200190a150565b600080610793611c83565b6001600160a01b031663654a60ac6107aa85611628565b631e1554d160e21b6040518363ffffffff1660e01b8152600401808063444f575360e01b8152506020018381526020018281526020019250505060206040518083038186803b1580156107fc57600080fd5b505afa158015610810573d6000803e3d6000fd5b505050506040513d602081101561082657600080fd5b5051606654909150610839908290611d35565b9150505b919050565b606c818154811061084f57fe5b600091825260209091200154905081565b610868611c7f565b6001600160a01b03166108796115cf565b6001600160a01b0316146108c2576040805162461bcd60e51b81526020600482018190526024820152600080516020612a06833981519152604482015290519081900360640190fd5b6000818152606860205260409020546001600160a01b0316610922576040805162461bcd60e51b815260206004820152601460248201527314de5b9d1a08191bd95cc81b9bdd08195e1a5cdd60621b604482015290519081900360640190fd5b6000818152606860209081526040918290205482516318160ddd60e01b815292516001600160a01b03909116926318160ddd926004808301939192829003018186803b15801561097157600080fd5b505afa158015610985573d6000803e3d6000fd5b505050506040513d602081101561099b57600080fd5b5051156109e5576040805162461bcd60e51b815260206004820152601360248201527253796e746820737570706c792065786973747360681b604482015290519081900360640190fd5b631e1554d160e21b811415610a36576040805162461bcd60e51b815260206004820152601260248201527110d85b9b9bdd081c995b5bdd99481e1554d160721b604482015290519081900360640190fd5b6000818152606860205260408120546001600160a01b0316905b606754811015610b5257816001600160a01b031660678281548110610a7157fe5b6000918252602090912001546001600160a01b03161415610b4a5760678181548110610a9957fe5b600091825260209091200180546001600160a01b0319169055606780546000198101908110610ac457fe5b600091825260209091200154606780546001600160a01b039092169183908110610aea57fe5b9060005260206000200160006101000a8154816001600160a01b0302191690836001600160a01b031602179055506067805480610b2357fe5b600082815260209020810160001990810180546001600160a01b0319169055019055610b52565b600101610a50565b5050600081815260686020818152604080842080546001600160a01b031685526069835290842084905593909252905280546001600160a01b0319169055565b6000806000610ba884631e1554d160e21b611855565b90506000610bb585610788565b9050808210610bc657506000610bd3565b610bd08183611d59565b90505b92509050915091565b60696020526000908152604090205481565b6000610bf8611c7f565b90506000610c0d82631e1554d160e21b611855565b905060008111610c59576040805162461bcd60e51b81526020600482015260126024820152714e6f206465627420746f20666f726769766560701b604482015290519081900360640190fd5b6000838210610c685783610c6a565b815b9050610c77838284611db6565b631e1554d160e21b600090815260686020527f31c850b0c3cccd5c1559edc97879c47e69bf75b73ef9157cf216bd97aed325505460408051632770a7eb60e21b81526001600160a01b03878116600483015260248201869052915185949290931692639dc29fac9260448084019391929182900301818387803b158015610cfd57600080fd5b505af1158015610d11573d6000803e3d6000fd5b50505050610d1e84611ed3565b5050505050565b6068602052600090815260409020546001600160a01b031681565b606c8054600091906000198101908110610d5657fe5b9060005260206000200154905090565b610d6e611c7f565b6001600160a01b0316610d7f6115cf565b6001600160a01b031614610dc8576040805162461bcd60e51b81526020600482018190526024820152600080516020612a06833981519152604482015290519081900360640190fd5b606580546001600160a01b0319166001600160a01b0392909216919091179055565b610df2611c7f565b6001600160a01b0316610e036115cf565b6001600160a01b031614610e4c576040805162461bcd60e51b81526020600482018190526024820152600080516020612a06833981519152604482015290519081900360640190fd5b6033546040516000916001600160a01b0316907f8be0079c531659141344cd1fd0a4f28419497f9722a3daafe3b4186f6b6457e0908390a3603380546001600160a01b0319169055565b606754606090819067ffffffffffffffff81118015610eb457600080fd5b50604051908082528060200260200182016040528015610ede578160200160208202803683370190505b50905060005b606754811015610f45576069600060678381548110610eff57fe5b60009182526020808320909101546001600160a01b031683528201929092526040019020548251839083908110610f3257fe5b6020908102919091010152600101610ee4565b50905090565b600080610f5784610b92565b9150915081831115610fa3576040805162461bcd60e51b815260206004820152601060248201526f416d6f756e7420746f6f206c6172676560801b604482015290519081900360640190fd5b610fae848483611f96565b631e1554d160e21b600090815260686020527f31c850b0c3cccd5c1559edc97879c47e69bf75b73ef9157cf216bd97aed32550546040805163219e412d60e21b81526001600160a01b038881166004830152602482018890529151919092169263867904b4926044808201939182900301818387803b15801561103057600080fd5b505af1158015611044573d6000803e3d6000fd5b5050505061105184611ed3565b50505050565b6067818154811061106457fe5b6000918252602090912001546001600160a01b0316905081565b600080611089611c83565b9050600080826001600160a01b031663ac82f608866040518263ffffffff1660e01b81526004018082815260200191505060206040518083038186803b1580156110d257600080fd5b505afa1580156110e6573d6000803e3d6000fd5b505050506040513d60208110156110fc57600080fd5b50519050606060006001600160a01b03851663babcb42361111b610e96565b6040518263ffffffff1660e01b81526004018080602001828103825283818151815260200191508051906020019060200280838360005b8381101561116a578181015183820152602001611152565b505050509050019250505060006040518083038186803b15801561118d57600080fd5b505afa1580156111a1573d6000803e3d6000fd5b505050506040513d6000823e601f3d908101601f1916820160409081528110156111ca57600080fd5b81019080805160405193929190846401000000008211156111ea57600080fd5b9083019060208201858111156111ff57600080fd5b825186602082028301116401000000008211171561121c57600080fd5b82525081516020918201928201910280838360005b83811015611249578181015183820152602001611231565b5050505091909101604052506020015192945091925050811590506112a7576040805162461bcd60e51b815260206004820152600f60248201526e526174657320617265207374616c6560881b604482015290519081900360640190fd5b60005b60675481101561137f576000606782815481106112c357fe5b60009182526020918290200154604080516318160ddd60e01b815290516001600160a01b03909216926318160ddd92600480840193829003018186803b15801561130c57600080fd5b505afa158015611320573d6000803e3d6000fd5b505050506040513d602081101561133657600080fd5b505184519091506000906113679086908590811061135057fe5b60200260200101518361210e90919063ffffffff16565b9050611373878261212a565b965050506001016112aa565b5061138a8484612184565b979650505050505050565b61139d611c7f565b6001600160a01b03166113ae6115cf565b6001600160a01b0316146113f7576040805162461bcd60e51b81526020600482018190526024820152600080516020612a06833981519152604482015290519081900360640190fd5b6000816001600160a01b031663dbd06c856040518163ffffffff1660e01b815260040160206040518083038186803b15801561143257600080fd5b505afa158015611446573d6000803e3d6000fd5b505050506040513d602081101561145c57600080fd5b50516000818152606860205260409020549091506001600160a01b0316156114c2576040805162461bcd60e51b815260206004820152601460248201527353796e746820616c72656164792065786973747360601b604482015290519081900360640190fd5b6001600160a01b0382166000908152606960205260409020541561152d576040805162461bcd60e51b815260206004820152601c60248201527f53796e7468206164647265737320616c72656164792065786973747300000000604482015290519081900360640190fd5b60678054600181019091557f9787eeb91fe3101235e4a76063c7023ecb40f923f97916639c598592fa30d6ae0180546001600160a01b039093166001600160a01b0319938416811790915560008281526068602090815260408083208054909616841790955591815260699091529190912055565b6115b36115ad611c7f565b82610f4b565b50565b606a602052600090815260409020805460019091015482565b6033546001600160a01b031690565b606b5481565b6000806115f083611628565b90508061160157600091505061083d565b60006116148463444f575360e01b611855565b90506116208183612184565b949350505050565b600080611633612199565b6001600160a01b03166370a08231846040518263ffffffff1660e01b815260040180826001600160a01b0316815260200191505060206040518083038186803b15801561167f57600080fd5b505afa158015611693573d6000803e3d6000fd5b505050506040513d60208110156116a957600080fd5b5051905060006116b7612222565b6001600160a01b0316146117525761174f6116d0612222565b6001600160a01b03166370a08231856040518263ffffffff1660e01b815260040180826001600160a01b0316815260200191505060206040518083038186803b15801561171c57600080fd5b505afa158015611730573d6000803e3d6000fd5b505050506040513d602081101561174657600080fd5b5051829061212a565b90505b92915050565b600061176a611765611c7f565b610b92565b5090506115b36115ad611c7f565b60665481565b6001600160a01b03166000908152606a6020526040902054151590565b600054610100900460ff16806117b457506117b46122b0565b806117c2575060005460ff16155b6117fd5760405162461bcd60e51b815260040180806020018281038252602e8152602001806129b7602e913960400191505060405180910390fd5b600054610100900460ff16158015611828576000805460ff1961ff0019909116610100171660011790555b6118306122c1565b61183982612372565b801561184b576000805461ff00191690555b5050565b606c5490565b600061185f612976565b506001600160a01b0383166000908152606a60209081526040918290208251808401909352805480845260019091015491830182905290816118a75760009350505050611752565b60006118dc836118d6606c85815481106118bd57fe5b90600052602060002001546118d0610d40565b90612410565b90612429565b905060006118e98761107e565b905060006118fa836118d684612442565b905061190581612452565b9998505050505050505050565b60675490565b600063444f575360e01b61192a611c83565b6001600160a01b0316629919c0826040518263ffffffff1660e01b81526004018082815260200191505060206040518083038186803b15801561196c57600080fd5b505afa158015611980573d6000803e3d6000fd5b505050506040513d602081101561199657600080fd5b5051156119ea576040805162461bcd60e51b815260206004820152601960248201527f52617465207374616c65206f72206e6f7420612073796e746800000000000000604482015290519081900360640190fd5b60006119f4612199565b6001600160a01b03166370a08231856040518263ffffffff1660e01b815260040180826001600160a01b0316815260200191505060206040518083038186803b158015611a4057600080fd5b505afa158015611a54573d6000803e3d6000fd5b505050506040513d6020811015611a6a57600080fd5b5051606654909150600090611a9090611a8a8763444f575360e01b611855565b90612184565b9050818110611aa457600093505050611ab3565b611aae8282611d59565b935050505b50919050565b6000611ac3612474565b6001600160a01b0316630a1e187d611ad9611c7f565b868686611ae4611c7f565b6040518663ffffffff1660e01b815260040180866001600160a01b03168152602001858152602001848152602001838152602001826001600160a01b0316815260200195505050505050602060405180830381600087803b158015611b4857600080fd5b505af1158015611b5c573d6000803e3d6000fd5b505050506040513d6020811015611b7257600080fd5b5051949350505050565b611b84611c7f565b6001600160a01b0316611b956115cf565b6001600160a01b031614611bde576040805162461bcd60e51b81526020600482018190526024820152600080516020612a06833981519152604482015290519081900360640190fd5b6001600160a01b038116611c235760405162461bcd60e51b81526004018080602001828103825260268152602001806129916026913960400191505060405180910390fd5b6033546040516001600160a01b038084169216907f8be0079c531659141344cd1fd0a4f28419497f9722a3daafe3b4186f6b6457e090600090a3603380546001600160a01b0319166001600160a01b0392909216919091179055565b3390565b6065546040805163dacb2d0160e01b8152654f7261636c6560d01b60048201526024810182905260166044820152754d697373696e67204f7261636c65206164647265737360501b606482015290516000926001600160a01b03169163dacb2d01916084808301926020929190829003018186803b158015611d0457600080fd5b505afa158015611d18573d6000803e3d6000fd5b505050506040513d6020811015611d2e57600080fd5b5051905090565b6000670de0b6b3a7640000611d4a84846124ff565b81611d5157fe5b049392505050565b600082821115611db0576040805162461bcd60e51b815260206004820152601e60248201527f536166654d6174683a207375627472616374696f6e206f766572666c6f770000604482015290519081900360640190fd5b50900390565b816000611dc9631e1554d160e21b61107e565b90506000611dd78284611d59565b905060008115611e6d576000611ded8584612410565b9050611e698173__$22e4fd0786f9bb9222b95fc3343146c524$__63d5e5e6e66040518163ffffffff1660e01b815260040160206040518083038186803b158015611e3757600080fd5b505af4158015611e4b573d6000803e3d6000fd5b505050506040513d6020811015611e6157600080fd5b50519061212a565b9150505b84841415611e8d57611e80876000612558565b611e8861257f565b611eb6565b6000611e998686611d59565b90506000611ea78285612410565b9050611eb38982612558565b50505b611eca611ec5826118d6610d40565b612592565b50505050505050565b611edb612976565b506001600160a01b0381166000908152606a60209081526040918290208251808401909352805483526001015490820152611f146125c7565b6001600160a01b0316638664527483836000015184602001516040518463ffffffff1660e01b815260040180846001600160a01b031681526020018381526020018281526020019350505050600060405180830381600087803b158015611f7a57600080fd5b505af1158015611f8e573d6000803e3d6000fd5b505050505050565b6000611fa8631e1554d160e21b61107e565b90506000611fb6848361212a565b90506000611fc48583612410565b905060006120428273__$22e4fd0786f9bb9222b95fc3343146c524$__63d5e5e6e66040518163ffffffff1660e01b815260040160206040518083038186803b15801561201057600080fd5b505af4158015612024573d6000803e3d6000fd5b505050506040513d602081101561203a57600080fd5b505190611d59565b9050841561205b57612058836118d0888861212a565b91505b8461206857612068612650565b6120728783612558565b600061207c61184f565b111561209657612091611ec5826118d6610d40565b611eca565b611eca73__$22e4fd0786f9bb9222b95fc3343146c524$__63d5e5e6e66040518163ffffffff1660e01b815260040160206040518083038186803b1580156120dd57600080fd5b505af41580156120f1573d6000803e3d6000fd5b505050506040513d602081101561210757600080fd5b5051612592565b60006121238383670de0b6b3a764000061265e565b9392505050565b600082820183811015612123576040805162461bcd60e51b815260206004820152601b60248201527f536166654d6174683a206164646974696f6e206f766572666c6f770000000000604482015290519081900360640190fd5b60006121238383670de0b6b3a7640000612695565b6065546040805163dacb2d0160e01b815266536861646f777360c81b600482015260248101829052601760448201527f4d697373696e6720536861646f77732061646472657373000000000000000000606482015290516000926001600160a01b03169163dacb2d01916084808301926020929190829003018186803b158015611d0457600080fd5b6065546040805163dacb2d0160e01b81526b526577617264457363726f7760a01b600482015260248101829052601c60448201527f4d697373696e6720526577617264457363726f77206164647265737300000000606482015290516000926001600160a01b03169163dacb2d01916084808301926020929190829003018186803b158015611d0457600080fd5b60006122bb306126bb565b15905090565b600054610100900460ff16806122da57506122da6122b0565b806122e8575060005460ff16155b6123235760405162461bcd60e51b815260040180806020018281038252602e8152602001806129b7602e913960400191505060405180910390fd5b600054610100900460ff1615801561234e576000805460ff1961ff0019909116610100171660011790555b6123566126c1565b61235e612761565b80156115b3576000805461ff001916905550565b600054610100900460ff168061238b575061238b6122b0565b80612399575060005460ff16155b6123d45760405162461bcd60e51b815260040180806020018281038252602e8152602001806129b7602e913960400191505060405180910390fd5b600054610100900460ff161580156123ff576000805460ff1961ff0019909116610100171660011790555b6124076122c1565b6118398261285a565b600061212383836b033b2e3c9fd0803ce8000000612695565b600061212383836b033b2e3c9fd0803ce800000061265e565b600061175282633b9aca006124ff565b60006305f5e10082046005600a82061061246a57600a015b600a900492915050565b6065546040805163dacb2d0160e01b81526822bc31b430b733b2b960b91b600482015260248101829052601960448201527f4d697373696e672045786368616e676572206164647265737300000000000000606482015290516000926001600160a01b03169163dacb2d01916084808301926020929190829003018186803b158015611d0457600080fd5b60008261250e57506000611752565b8282028284828161251b57fe5b04146121235760405162461bcd60e51b81526004018080602001828103825260218152602001806129e56021913960400191505060405180910390fd5b6001600160a01b039091166000908152606a60205260409020908155606c54600190910155565b606b5461258d906000611d59565b606b55565b606c80546001810182556000919091527f2b4a51ab505fc96a0952efda2ba61bcd3078d4c02c39a186ec16f21883fbe0160155565b6065546040805163dacb2d0160e01b815266119959541bdbdb60ca1b600482015260248101829052601760448201527f4d697373696e6720466565506f6f6c2061646472657373000000000000000000606482015290516000926001600160a01b03169163dacb2d01916084808301926020929190829003018186803b158015611d0457600080fd5b606b5461258d90600061212a565b600080600a830461266f86866124ff565b8161267657fe5b0490506005600a825b061061268957600a015b600a9004949350505050565b6000806126af846126a987600a87026124ff565b90612917565b90506005600a8261267f565b3b151590565b600054610100900460ff16806126da57506126da6122b0565b806126e8575060005460ff16155b6127235760405162461bcd60e51b815260040180806020018281038252602e8152602001806129b7602e913960400191505060405180910390fd5b600054610100900460ff1615801561235e576000805460ff1961ff00199091166101001716600117905580156115b3576000805461ff001916905550565b600054610100900460ff168061277a575061277a6122b0565b80612788575060005460ff16155b6127c35760405162461bcd60e51b815260040180806020018281038252602e8152602001806129b7602e913960400191505060405180910390fd5b600054610100900460ff161580156127ee576000805460ff1961ff0019909116610100171660011790555b60006127f8611c7f565b603380546001600160a01b0319166001600160a01b038316908117909155604051919250906000907f8be0079c531659141344cd1fd0a4f28419497f9722a3daafe3b4186f6b6457e0908290a35080156115b3576000805461ff001916905550565b600054610100900460ff168061287357506128736122b0565b80612881575060005460ff16155b6128bc5760405162461bcd60e51b815260040180806020018281038252602e8152602001806129b7602e913960400191505060405180910390fd5b600054610100900460ff161580156128e7576000805460ff1961ff0019909116610100171660011790555b606580546001600160a01b0319166001600160a01b038416179055801561184b576000805461ff00191690555050565b600080821161296d576040805162461bcd60e51b815260206004820152601a60248201527f536166654d6174683a206469766973696f6e206279207a65726f000000000000604482015290519081900360640190fd5b818381611d5157fe5b60405180604001604052806000815260200160008152509056fe4f776e61626c653a206e6577206f776e657220697320746865207a65726f2061646472657373496e697469616c697a61626c653a20636f6e747261637420697320616c726561647920696e697469616c697a6564536166654d6174683a206d756c7469706c69636174696f6e206f766572666c6f774f776e61626c653a2063616c6c6572206973206e6f7420746865206f776e65724e65772069737375616e636520726174696f2063616e6e6f7420657863656564204d41585f49535355414e43455f524154494fa264697066735822122000241ff1cecee30666b82f2cd1de1313c06d77ebd0fdc663a1fe9cea7ac415f264736f6c63430007010033",
  "libraries": {
    "SafeDecimalMath": "0x7Ad03fA3195761d2c4670DD9B01bcdeF63028DD3"
  },
  "devdoc": {
    "kind": "dev",
    "methods": {
      "owner()": {
        "details": "Returns the address of the current owner."
      },
      "renounceOwnership()": {
        "details": "Leaves the contract without owner. It will not be possible to call `onlyOwner` functions anymore. Can only be called by the current owner. NOTE: Renouncing ownership will leave the contract without an owner, thereby removing any functionality that is only available to the owner."
      },
      "transferOwnership(address)": {
        "details": "Transfers ownership of the contract to a new account (`newOwner`). Can only be called by the current owner."
      }
    },
    "version": 1
  },
  "userdoc": {
    "kind": "user",
    "methods": {},
    "version": 1
  },
  "storageLayout": {
    "storage": [
      {
        "astId": 595,
        "contract": "contracts/Synthesizer.sol:Synthesizer",
        "label": "_initialized",
        "offset": 0,
        "slot": "0",
        "type": "t_bool"
      },
      {
        "astId": 598,
        "contract": "contracts/Synthesizer.sol:Synthesizer",
        "label": "_initializing",
        "offset": 1,
        "slot": "0",
        "type": "t_bool"
      },
      {
        "astId": 1615,
        "contract": "contracts/Synthesizer.sol:Synthesizer",
        "label": "__gap",
        "offset": 0,
        "slot": "1",
        "type": "t_array(t_uint256)50_storage"
      },
      {
        "astId": 113,
        "contract": "contracts/Synthesizer.sol:Synthesizer",
        "label": "_owner",
        "offset": 0,
        "slot": "51",
        "type": "t_address"
      },
      {
        "astId": 232,
        "contract": "contracts/Synthesizer.sol:Synthesizer",
        "label": "__gap",
        "offset": 0,
        "slot": "52",
        "type": "t_array(t_uint256)49_storage"
      },
      {
        "astId": 8191,
        "contract": "contracts/Synthesizer.sol:Synthesizer",
        "label": "resolver",
        "offset": 0,
        "slot": "101",
        "type": "t_contract(AddressResolver)8179"
      },
      {
        "astId": 6469,
        "contract": "contracts/Synthesizer.sol:Synthesizer",
        "label": "issuanceRatio",
        "offset": 0,
        "slot": "102",
        "type": "t_uint256"
      },
      {
        "astId": 6472,
        "contract": "contracts/Synthesizer.sol:Synthesizer",
        "label": "availableSynths",
        "offset": 0,
        "slot": "103",
        "type": "t_array(t_contract(ISynth)7948)dyn_storage"
      },
      {
        "astId": 6476,
        "contract": "contracts/Synthesizer.sol:Synthesizer",
        "label": "synths",
        "offset": 0,
        "slot": "104",
        "type": "t_mapping(t_bytes32,t_contract(ISynth)7948)"
      },
      {
        "astId": 6480,
        "contract": "contracts/Synthesizer.sol:Synthesizer",
        "label": "synthsByAddress",
        "offset": 0,
        "slot": "105",
        "type": "t_mapping(t_address,t_bytes32)"
      },
      {
        "astId": 6489,
        "contract": "contracts/Synthesizer.sol:Synthesizer",
        "label": "issuanceData",
        "offset": 0,
        "slot": "106",
        "type": "t_mapping(t_address,t_struct(IssuanceData)6485_storage)"
      },
      {
        "astId": 6491,
        "contract": "contracts/Synthesizer.sol:Synthesizer",
        "label": "totalIssuerCount",
        "offset": 0,
        "slot": "107",
        "type": "t_uint256"
      },
      {
        "astId": 6494,
        "contract": "contracts/Synthesizer.sol:Synthesizer",
        "label": "debtLedger",
        "offset": 0,
        "slot": "108",
        "type": "t_array(t_uint256)dyn_storage"
      }
    ],
    "types": {
      "t_address": {
        "encoding": "inplace",
        "label": "address",
        "numberOfBytes": "20"
      },
      "t_array(t_contract(ISynth)7948)dyn_storage": {
        "base": "t_contract(ISynth)7948",
        "encoding": "dynamic_array",
        "label": "contract ISynth[]",
        "numberOfBytes": "32"
      },
      "t_array(t_uint256)49_storage": {
        "base": "t_uint256",
        "encoding": "inplace",
        "label": "uint256[49]",
        "numberOfBytes": "1568"
      },
      "t_array(t_uint256)50_storage": {
        "base": "t_uint256",
        "encoding": "inplace",
        "label": "uint256[50]",
        "numberOfBytes": "1600"
      },
      "t_array(t_uint256)dyn_storage": {
        "base": "t_uint256",
        "encoding": "dynamic_array",
        "label": "uint256[]",
        "numberOfBytes": "32"
      },
      "t_bool": {
        "encoding": "inplace",
        "label": "bool",
        "numberOfBytes": "1"
      },
      "t_bytes32": {
        "encoding": "inplace",
        "label": "bytes32",
        "numberOfBytes": "32"
      },
      "t_contract(AddressResolver)8179": {
        "encoding": "inplace",
        "label": "contract AddressResolver",
        "numberOfBytes": "20"
      },
      "t_contract(ISynth)7948": {
        "encoding": "inplace",
        "label": "contract ISynth",
        "numberOfBytes": "20"
      },
      "t_mapping(t_address,t_bytes32)": {
        "encoding": "mapping",
        "key": "t_address",
        "label": "mapping(address => bytes32)",
        "numberOfBytes": "32",
        "value": "t_bytes32"
      },
      "t_mapping(t_address,t_struct(IssuanceData)6485_storage)": {
        "encoding": "mapping",
        "key": "t_address",
        "label": "mapping(address => struct Synthesizer.IssuanceData)",
        "numberOfBytes": "32",
        "value": "t_struct(IssuanceData)6485_storage"
      },
      "t_mapping(t_bytes32,t_contract(ISynth)7948)": {
        "encoding": "mapping",
        "key": "t_bytes32",
        "label": "mapping(bytes32 => contract ISynth)",
        "numberOfBytes": "32",
        "value": "t_contract(ISynth)7948"
      },
      "t_struct(IssuanceData)6485_storage": {
        "encoding": "inplace",
        "label": "struct Synthesizer.IssuanceData",
        "members": [
          {
            "astId": 6482,
            "contract": "contracts/Synthesizer.sol:Synthesizer",
            "label": "initialDebtOwnership",
            "offset": 0,
            "slot": "0",
            "type": "t_uint256"
          },
          {
            "astId": 6484,
            "contract": "contracts/Synthesizer.sol:Synthesizer",
            "label": "debtEntryIndex",
            "offset": 0,
            "slot": "1",
            "type": "t_uint256"
          }
        ],
        "numberOfBytes": "64"
      },
      "t_uint256": {
        "encoding": "inplace",
        "label": "uint256",
        "numberOfBytes": "32"
      }
    }
  }
}