{
  "address": "0x15A8beD223638A78d103d241f97ab4A89dB1D429",
  "abi": [
    {
      "anonymous": false,
      "inputs": [
        {
          "indexed": true,
          "internalType": "address",
          "name": "owner",
          "type": "address"
        },
        {
          "indexed": true,
          "internalType": "address",
          "name": "spender",
          "type": "address"
        },
        {
          "indexed": false,
          "internalType": "uint256",
          "name": "value",
          "type": "uint256"
        }
      ],
      "name": "Approval",
      "type": "event"
    },
    {
      "anonymous": false,
      "inputs": [
        {
          "indexed": true,
          "internalType": "address",
          "name": "account",
          "type": "address"
        },
        {
          "indexed": false,
          "internalType": "uint256",
          "name": "value",
          "type": "uint256"
        }
      ],
      "name": "Burned",
      "type": "event"
    },
    {
      "anonymous": false,
      "inputs": [
        {
          "indexed": true,
          "internalType": "address",
          "name": "account",
          "type": "address"
        },
        {
          "indexed": false,
          "internalType": "uint256",
          "name": "value",
          "type": "uint256"
        }
      ],
      "name": "Issued",
      "type": "event"
    },
    {
      "anonymous": false,
      "inputs": [
        {
          "indexed": true,
          "internalType": "address",
          "name": "previousOwner",
          "type": "address"
        },
        {
          "indexed": true,
          "internalType": "address",
          "name": "newOwner",
          "type": "address"
        }
      ],
      "name": "OwnershipTransferred",
      "type": "event"
    },
    {
      "anonymous": false,
      "inputs": [
        {
          "indexed": true,
          "internalType": "address",
          "name": "account",
          "type": "address"
        },
        {
          "indexed": false,
          "internalType": "uint256",
          "name": "value",
          "type": "uint256"
        }
      ],
      "name": "Purged",
      "type": "event"
    },
    {
      "anonymous": false,
      "inputs": [
        {
          "indexed": true,
          "internalType": "address",
          "name": "from",
          "type": "address"
        },
        {
          "indexed": true,
          "internalType": "address",
          "name": "to",
          "type": "address"
        },
        {
          "indexed": false,
          "internalType": "uint256",
          "name": "value",
          "type": "uint256"
        }
      ],
      "name": "Transfer",
      "type": "event"
    },
    {
      "inputs": [],
      "name": "DECIMALS",
      "outputs": [
        {
          "internalType": "uint8",
          "name": "",
          "type": "uint8"
        }
      ],
      "stateMutability": "view",
      "type": "function"
    },
    {
      "inputs": [
        {
          "internalType": "address",
          "name": "owner",
          "type": "address"
        },
        {
          "internalType": "address",
          "name": "spender",
          "type": "address"
        }
      ],
      "name": "allowance",
      "outputs": [
        {
          "internalType": "uint256",
          "name": "",
          "type": "uint256"
        }
      ],
      "stateMutability": "view",
      "type": "function"
    },
    {
      "inputs": [
        {
          "internalType": "address",
          "name": "spender",
          "type": "address"
        },
        {
          "internalType": "uint256",
          "name": "amount",
          "type": "uint256"
        }
      ],
      "name": "approve",
      "outputs": [
        {
          "internalType": "bool",
          "name": "",
          "type": "bool"
        }
      ],
      "stateMutability": "nonpayable",
      "type": "function"
    },
    {
      "inputs": [
        {
          "internalType": "address",
          "name": "account",
          "type": "address"
        }
      ],
      "name": "balanceOf",
      "outputs": [
        {
          "internalType": "uint256",
          "name": "",
          "type": "uint256"
        }
      ],
      "stateMutability": "view",
      "type": "function"
    },
    {
      "inputs": [
        {
          "internalType": "address",
          "name": "account",
          "type": "address"
        },
        {
          "internalType": "uint256",
          "name": "amount",
          "type": "uint256"
        }
      ],
      "name": "burn",
      "outputs": [],
      "stateMutability": "nonpayable",
      "type": "function"
    },
    {
      "inputs": [],
      "name": "currencyKey",
      "outputs": [
        {
          "internalType": "bytes32",
          "name": "",
          "type": "bytes32"
        }
      ],
      "stateMutability": "view",
      "type": "function"
    },
    {
      "inputs": [],
      "name": "decimals",
      "outputs": [
        {
          "internalType": "uint8",
          "name": "",
          "type": "uint8"
        }
      ],
      "stateMutability": "view",
      "type": "function"
    },
    {
      "inputs": [
        {
          "internalType": "address",
          "name": "spender",
          "type": "address"
        },
        {
          "internalType": "uint256",
          "name": "subtractedValue",
          "type": "uint256"
        }
      ],
      "name": "decreaseAllowance",
      "outputs": [
        {
          "internalType": "bool",
          "name": "",
          "type": "bool"
        }
      ],
      "stateMutability": "nonpayable",
      "type": "function"
    },
    {
      "inputs": [
        {
          "internalType": "address",
          "name": "spender",
          "type": "address"
        },
        {
          "internalType": "uint256",
          "name": "addedValue",
          "type": "uint256"
        }
      ],
      "name": "increaseAllowance",
      "outputs": [
        {
          "internalType": "bool",
          "name": "",
          "type": "bool"
        }
      ],
      "stateMutability": "nonpayable",
      "type": "function"
    },
    {
      "inputs": [
        {
          "internalType": "string",
          "name": "_tokenName",
          "type": "string"
        },
        {
          "internalType": "string",
          "name": "_tokenSymbol",
          "type": "string"
        },
        {
          "internalType": "bytes32",
          "name": "_currencyKey",
          "type": "bytes32"
        },
        {
          "internalType": "address",
          "name": "_resolver",
          "type": "address"
        }
      ],
      "name": "initialize",
      "outputs": [],
      "stateMutability": "nonpayable",
      "type": "function"
    },
    {
      "inputs": [
        {
          "internalType": "address",
          "name": "account",
          "type": "address"
        },
        {
          "internalType": "uint256",
          "name": "amount",
          "type": "uint256"
        }
      ],
      "name": "issue",
      "outputs": [],
      "stateMutability": "nonpayable",
      "type": "function"
    },
    {
      "inputs": [],
      "name": "name",
      "outputs": [
        {
          "internalType": "string",
          "name": "",
          "type": "string"
        }
      ],
      "stateMutability": "view",
      "type": "function"
    },
    {
      "inputs": [],
      "name": "owner",
      "outputs": [
        {
          "internalType": "address",
          "name": "",
          "type": "address"
        }
      ],
      "stateMutability": "view",
      "type": "function"
    },
    {
      "inputs": [
        {
          "internalType": "address[]",
          "name": "addresses",
          "type": "address[]"
        }
      ],
      "name": "purge",
      "outputs": [],
      "stateMutability": "nonpayable",
      "type": "function"
    },
    {
      "inputs": [],
      "name": "renounceOwnership",
      "outputs": [],
      "stateMutability": "nonpayable",
      "type": "function"
    },
    {
      "inputs": [],
      "name": "resolver",
      "outputs": [
        {
          "internalType": "contract AddressResolver",
          "name": "",
          "type": "address"
        }
      ],
      "stateMutability": "view",
      "type": "function"
    },
    {
      "inputs": [
        {
          "internalType": "contract AddressResolver",
          "name": "_resolver",
          "type": "address"
        }
      ],
      "name": "setResolver",
      "outputs": [],
      "stateMutability": "nonpayable",
      "type": "function"
    },
    {
      "inputs": [],
      "name": "symbol",
      "outputs": [
        {
          "internalType": "string",
          "name": "",
          "type": "string"
        }
      ],
      "stateMutability": "view",
      "type": "function"
    },
    {
      "inputs": [],
      "name": "totalSupply",
      "outputs": [
        {
          "internalType": "uint256",
          "name": "",
          "type": "uint256"
        }
      ],
      "stateMutability": "view",
      "type": "function"
    },
    {
      "inputs": [
        {
          "internalType": "address",
          "name": "recipient",
          "type": "address"
        },
        {
          "internalType": "uint256",
          "name": "amount",
          "type": "uint256"
        }
      ],
      "name": "transfer",
      "outputs": [
        {
          "internalType": "bool",
          "name": "",
          "type": "bool"
        }
      ],
      "stateMutability": "nonpayable",
      "type": "function"
    },
    {
      "inputs": [
        {
          "internalType": "address",
          "name": "sender",
          "type": "address"
        },
        {
          "internalType": "address",
          "name": "recipient",
          "type": "address"
        },
        {
          "internalType": "uint256",
          "name": "amount",
          "type": "uint256"
        }
      ],
      "name": "transferFrom",
      "outputs": [
        {
          "internalType": "bool",
          "name": "",
          "type": "bool"
        }
      ],
      "stateMutability": "nonpayable",
      "type": "function"
    },
    {
      "inputs": [
        {
          "internalType": "address",
          "name": "newOwner",
          "type": "address"
        }
      ],
      "name": "transferOwnership",
      "outputs": [],
      "stateMutability": "nonpayable",
      "type": "function"
    },
    {
      "inputs": [
        {
          "internalType": "address",
          "name": "account",
          "type": "address"
        }
      ],
      "name": "transferableSynths",
      "outputs": [
        {
          "internalType": "uint256",
          "name": "",
          "type": "uint256"
        }
      ],
      "stateMutability": "view",
      "type": "function"
    }
  ],
  "transactionHash": "0xc3893ee65ae97b62ccc9bd7d7c6a3ddc433a5de755513259b1cf261825c68d2f",
  "args": [],
  "solcInputHash": "af1ed12eca4c89b9fdd77b9c5611c252",
  "bytecode": "0x608060405234801561001057600080fd5b50612194806100206000396000f3fe608060405234801561001057600080fd5b506004361061014d5760003560e01c8063715018a6116100c3578063a9059cbb1161007c578063a9059cbb14610490578063ab593079146104bc578063dbd06c851461052c578063dd62ed3e14610534578063f2fde38b14610562578063ffff51d6146105885761014d565b8063715018a6146103f4578063867904b4146103fc5780638da5cb5b1461042857806395d89b41146104305780639dc29fac14610438578063a457c2d7146104645761014d565b806323b872dd1161011557806323b872dd146103205780632e0f262514610356578063313ce56714610374578063395093511461037c5780634e543b26146103a857806370a08231146103ce5761014d565b806304f3bcec1461015257806306fdde0314610176578063095ea7b3146101f3578063155f273b1461023357806318160ddd14610306575b600080fd5b61015a6105ae565b604080516001600160a01b039092168252519081900360200190f35b61017e6105bd565b6040805160208082528351818301528351919283929083019185019080838360005b838110156101b85781810151838201526020016101a0565b50505050905090810190601f1680156101e55780820380516001836020036101000a031916815260200191505b509250505060405180910390f35b61021f6004803603604081101561020957600080fd5b506001600160a01b038135169060200135610653565b604080519115158252519081900360200190f35b6103046004803603608081101561024957600080fd5b81019060208101813564010000000081111561026457600080fd5b82018360208201111561027657600080fd5b8035906020019184600183028401116401000000008311171561029857600080fd5b9193909290916020810190356401000000008111156102b657600080fd5b8201836020820111156102c857600080fd5b803590602001918460018302840111640100000000831117156102ea57600080fd5b9193509150803590602001356001600160a01b0316610670565b005b61030e6107a1565b60408051918252519081900360200190f35b61021f6004803603606081101561033657600080fd5b506001600160a01b038135811691602081013590911690604001356107a7565b61035e61082e565b6040805160ff9092168252519081900360200190f35b61035e610833565b61021f6004803603604081101561039257600080fd5b506001600160a01b03813516906020013561083c565b610304600480360360208110156103be57600080fd5b50356001600160a01b031661088a565b61030e600480360360208110156103e457600080fd5b50356001600160a01b031661090e565b610304610929565b6103046004803603604081101561041257600080fd5b506001600160a01b0381351690602001356109d5565b61015a610ad1565b61017e610ae0565b6103046004803603604081101561044e57600080fd5b506001600160a01b038135169060200135610b41565b61021f6004803603604081101561047a57600080fd5b506001600160a01b038135169060200135610c3d565b61021f600480360360408110156104a657600080fd5b506001600160a01b038135169060200135610ca5565b610304600480360360208110156104d257600080fd5b8101906020810181356401000000008111156104ed57600080fd5b8201836020820111156104ff57600080fd5b8035906020019184602083028401116401000000008311171561052157600080fd5b509092509050610cb9565b61030e610e5c565b61030e6004803603604081101561054a57600080fd5b506001600160a01b0381358116916020013516610e62565b6103046004803603602081101561057857600080fd5b50356001600160a01b0316610e8d565b61030e6004803603602081101561059e57600080fd5b50356001600160a01b0316610f90565b6097546001600160a01b031681565b60688054604080516020601f60026000196101006001881615020190951694909404938401819004810282018101909252828152606093909290918301828280156106495780601f1061061e57610100808354040283529160200191610649565b820191906000526020600020905b81548152906001019060200180831161062c57829003601f168201915b5050505050905090565b6000610667610660610fa1565b8484610fa5565b50600192915050565b600054610100900460ff16806106895750610689611091565b80610697575060005460ff16155b6106d25760405162461bcd60e51b815260040180806020018281038252602e81526020018061201a602e913960400191505060405180910390fd5b600054610100900460ff161580156106fd576000805460ff1961ff0019909116610100171660011790555b6107056110a2565b61077887878080601f01602080910402602001604051908101604052809392919081815260200183838082843760009201919091525050604080516020601f8b01819004810282018101909252898152925089915088908190840183828082843760009201919091525061115492505050565b61078182611209565b60988390558015610798576000805461ff00191690555b50505050505050565b60675490565b60006107b48484846112bd565b610824846107c0610fa1565b61081f85604051806060016040528060288152602001612088602891396001600160a01b038a166000908152606660205260408120906107fe610fa1565b6001600160a01b031681526020810191909152604001600020549190611375565b610fa5565b5060019392505050565b601281565b606a5460ff1690565b6000610667610849610fa1565b8461081f856066600061085a610fa1565b6001600160a01b03908116825260208083019390935260409182016000908120918c16815292529020549061140c565b610892610fa1565b6001600160a01b03166108a3610ad1565b6001600160a01b0316146108ec576040805162461bcd60e51b815260206004820181905260248201526000805160206120b0833981519152604482015290519081900360640190fd5b609780546001600160a01b0319166001600160a01b0392909216919091179055565b6001600160a01b031660009081526065602052604090205490565b610931610fa1565b6001600160a01b0316610942610ad1565b6001600160a01b03161461098b576040805162461bcd60e51b815260206004820181905260248201526000805160206120b0833981519152604482015290519081900360640190fd5b6033546040516000916001600160a01b0316907f8be0079c531659141344cd1fd0a4f28419497f9722a3daafe3b4186f6b6457e0908390a3603380546001600160a01b0319169055565b60006109df61146d565b6001600160a01b0316336001600160a01b031614905060006109ff61152b565b6001600160a01b0316336001600160a01b03161490506000610a1f6115b4565b6001600160a01b0316336001600160a01b03161490508280610a3e5750815b80610a465750805b610a815760405162461bcd60e51b81526004018080602001828103825260408152602001806120486040913960400191505060405180910390fd5b610a8b858561163f565b6040805185815290516001600160a01b038716917fa59f12e354e8cd10bb74c559844c2dd69a5458e31fe56c7594c62ca57480509a919081900360200190a25050505050565b6033546001600160a01b031690565b60698054604080516020601f60026000196101006001881615020190951694909404938401819004810282018101909252828152606093909290918301828280156106495780601f1061061e57610100808354040283529160200191610649565b6000610b4b61146d565b6001600160a01b0316336001600160a01b03161490506000610b6b61152b565b6001600160a01b0316336001600160a01b03161490506000610b8b6115b4565b6001600160a01b0316336001600160a01b03161490508280610baa5750815b80610bb25750805b610bed5760405162461bcd60e51b81526004018080602001828103825260408152602001806120486040913960400191505060405180910390fd5b610bf78585611731565b6040805185815290516001600160a01b038716917f696de425f79f4a40bc6d2122ca50507f0efbeabbff86a84871b7196ab8ea8df7919081900360200190a25050505050565b6000610667610c4a610fa1565b8461081f8560405180606001604052806025815260200161213a6025913960666000610c74610fa1565b6001600160a01b03908116825260208083019390935260409182016000908120918d16815292529020549190611375565b6000610667610cb2610fa1565b84846112bd565b610cc1610fa1565b6001600160a01b0316610cd2610ad1565b6001600160a01b031614610d1b576040805162461bcd60e51b815260206004820181905260248201526000805160206120b0833981519152604482015290519081900360640190fd5b60005b81811015610e57576000838383818110610d3457fe5b905060200201356001600160a01b031690506000610d518261090e565b90508015610e4d57610d616115b4565b6001600160a01b0316630a1e187d8360985484866040518563ffffffff1660e01b815260040180856001600160a01b0316815260200184815260200183815260200180631e1554d160e21b815250602001826001600160a01b03168152602001945050505050602060405180830381600087803b158015610de157600080fd5b505af1158015610df5573d6000803e3d6000fd5b505050506040513d6020811015610e0b57600080fd5b50506040805182815290516001600160a01b038416917f265db6c9c62cb962adbcf4398a54e4b02b2d87b28ab5b7538850150465a5f43c919081900360200190a25b5050600101610d1e565b505050565b60985481565b6001600160a01b03918216600090815260666020908152604080832093909416825291909152205490565b610e95610fa1565b6001600160a01b0316610ea6610ad1565b6001600160a01b031614610eef576040805162461bcd60e51b815260206004820181905260248201526000805160206120b0833981519152604482015290519081900360640190fd5b6001600160a01b038116610f345760405162461bcd60e51b8152600401808060200182810382526026815260200180611fac6026913960400191505060405180910390fd5b6033546040516001600160a01b038084169216907f8be0079c531659141344cd1fd0a4f28419497f9722a3daafe3b4186f6b6457e090600090a3603380546001600160a01b0319166001600160a01b0392909216919091179055565b6000610f9b8261090e565b92915050565b3390565b6001600160a01b038316610fea5760405162461bcd60e51b81526004018080602001828103825260248152602001806121166024913960400191505060405180910390fd5b6001600160a01b03821661102f5760405162461bcd60e51b8152600401808060200182810382526022815260200180611fd26022913960400191505060405180910390fd5b6001600160a01b03808416600081815260666020908152604080832094871680845294825291829020859055815185815291517f8c5be1e5ebec7d5bd14f71427d1e84f3dd0314c0f7b2291e5b200ac8c7c3b9259281900390910190a3505050565b600061109c3061182d565b15905090565b600054610100900460ff16806110bb57506110bb611091565b806110c9575060005460ff16155b6111045760405162461bcd60e51b815260040180806020018281038252602e81526020018061201a602e913960400191505060405180910390fd5b600054610100900460ff1615801561112f576000805460ff1961ff0019909116610100171660011790555b611137611833565b61113f6118d3565b8015611151576000805461ff00191690555b50565b600054610100900460ff168061116d575061116d611091565b8061117b575060005460ff16155b6111b65760405162461bcd60e51b815260040180806020018281038252602e81526020018061201a602e913960400191505060405180910390fd5b600054610100900460ff161580156111e1576000805460ff1961ff0019909116610100171660011790555b6111e9611833565b6111f383836119cc565b8015610e57576000805461ff0019169055505050565b600054610100900460ff16806112225750611222611091565b80611230575060005460ff16155b61126b5760405162461bcd60e51b815260040180806020018281038252602e81526020018061201a602e913960400191505060405180910390fd5b600054610100900460ff16158015611296576000805460ff1961ff0019909116610100171660011790555b61129e6110a2565b6112a782611aa4565b80156112b9576000805461ff00191690555b5050565b6112c561152b565b6001600160a01b031663eb1edd616040518163ffffffff1660e01b815260040160206040518083038186803b1580156112fd57600080fd5b505afa158015611311573d6000803e3d6000fd5b505050506040513d602081101561132757600080fd5b50516001600160a01b038381169116141561134b576113468382611b61565b610e57565b6001600160a01b03821661136a57611346611364610fa1565b82611731565b610e57838383611d19565b600081848411156114045760405162461bcd60e51b81526004018080602001828103825283818151815260200191508051906020019080838360005b838110156113c95781810151838201526020016113b1565b50505050905090810190601f1680156113f65780820380516001836020036101000a031916815260200191505b509250505060405180910390fd5b505050900390565b600082820183811015611466576040805162461bcd60e51b815260206004820152601b60248201527f536166654d6174683a206164646974696f6e206f766572666c6f770000000000604482015290519081900360640190fd5b9392505050565b6097546040805163dacb2d0160e01b81526a29bcb73a3432b9b4bd32b960a91b600482015260248101829052601b60448201527f4d697373696e672053796e74686573697a657220616464726573730000000000606482015290516000926001600160a01b03169163dacb2d01916084808301926020929190829003018186803b1580156114fa57600080fd5b505afa15801561150e573d6000803e3d6000fd5b505050506040513d602081101561152457600080fd5b5051905090565b6097546040805163dacb2d0160e01b815266119959541bdbdb60ca1b600482015260248101829052601760448201527f4d697373696e6720466565506f6f6c2061646472657373000000000000000000606482015290516000926001600160a01b03169163dacb2d01916084808301926020929190829003018186803b1580156114fa57600080fd5b6097546040805163dacb2d0160e01b81526822bc31b430b733b2b960b91b600482015260248101829052601960448201527f4d697373696e672045786368616e676572206164647265737300000000000000606482015290516000926001600160a01b03169163dacb2d01916084808301926020929190829003018186803b1580156114fa57600080fd5b6001600160a01b03821661169a576040805162461bcd60e51b815260206004820152601f60248201527f45524332303a206d696e7420746f20746865207a65726f206164647265737300604482015290519081900360640190fd5b6116a660008383610e57565b6067546116b3908261140c565b6067556001600160a01b0382166000908152606560205260409020546116d9908261140c565b6001600160a01b03831660008181526065602090815260408083209490945583518581529351929391927fddf252ad1be2c89b69c2b068fc378daa952ba7f163c4a11628f55a4df523b3ef9281900390910190a35050565b6001600160a01b0382166117765760405162461bcd60e51b81526004018080602001828103825260218152602001806120d06021913960400191505060405180910390fd5b61178282600083610e57565b6117bf81604051806060016040528060228152602001611f8a602291396001600160a01b0385166000908152606560205260409020549190611375565b6001600160a01b0383166000908152606560205260409020556067546117e59082611e76565b6067556040805182815290516000916001600160a01b038516917fddf252ad1be2c89b69c2b068fc378daa952ba7f163c4a11628f55a4df523b3ef9181900360200190a35050565b3b151590565b600054610100900460ff168061184c575061184c611091565b8061185a575060005460ff16155b6118955760405162461bcd60e51b815260040180806020018281038252602e81526020018061201a602e913960400191505060405180910390fd5b600054610100900460ff1615801561113f576000805460ff1961ff0019909116610100171660011790558015611151576000805461ff001916905550565b600054610100900460ff16806118ec57506118ec611091565b806118fa575060005460ff16155b6119355760405162461bcd60e51b815260040180806020018281038252602e81526020018061201a602e913960400191505060405180910390fd5b600054610100900460ff16158015611960576000805460ff1961ff0019909116610100171660011790555b600061196a610fa1565b603380546001600160a01b0319166001600160a01b038316908117909155604051919250906000907f8be0079c531659141344cd1fd0a4f28419497f9722a3daafe3b4186f6b6457e0908290a3508015611151576000805461ff001916905550565b600054610100900460ff16806119e557506119e5611091565b806119f3575060005460ff16155b611a2e5760405162461bcd60e51b815260040180806020018281038252602e81526020018061201a602e913960400191505060405180910390fd5b600054610100900460ff16158015611a59576000805460ff1961ff0019909116610100171660011790555b8251611a6c906068906020860190611ed3565b508151611a80906069906020850190611ed3565b50606a805460ff191660121790558015610e57576000805461ff0019169055505050565b600054610100900460ff1680611abd5750611abd611091565b80611acb575060005460ff16155b611b065760405162461bcd60e51b815260040180806020018281038252602e81526020018061201a602e913960400191505060405180910390fd5b600054610100900460ff16158015611b31576000805460ff1961ff0019909116610100171660011790555b609780546001600160a01b0319166001600160a01b03841617905580156112b9576000805461ff00191690555050565b6000609854631e1554d160e21b1415611b8d575080611b88611b81610fa1565b8484611d19565b611cb8565b611b956115b4565b6001600160a01b0316630a1e187d611bab610fa1565b60985485611bb761152b565b6001600160a01b031663eb1edd616040518163ffffffff1660e01b815260040160206040518083038186803b158015611bef57600080fd5b505afa158015611c03573d6000803e3d6000fd5b505050506040513d6020811015611c1957600080fd5b5051604080516001600160e01b031960e088901b1681526001600160a01b03958616600482015260248101949094526044840192909252631e1554d160e21b6064840152929092166084820152905160a48083019260209291908290030181600087803b158015611c8957600080fd5b505af1158015611c9d573d6000803e3d6000fd5b505050506040513d6020811015611cb357600080fd5b505190505b611cc061152b565b6001600160a01b03166322bf55ef826040518263ffffffff1660e01b815260040180828152602001915050600060405180830381600087803b158015611d0557600080fd5b505af1158015610798573d6000803e3d6000fd5b6001600160a01b038316611d5e5760405162461bcd60e51b81526004018080602001828103825260258152602001806120f16025913960400191505060405180910390fd5b6001600160a01b038216611da35760405162461bcd60e51b8152600401808060200182810382526023815260200180611f676023913960400191505060405180910390fd5b611dae838383610e57565b611deb81604051806060016040528060268152602001611ff4602691396001600160a01b0386166000908152606560205260409020549190611375565b6001600160a01b038085166000908152606560205260408082209390935590841681522054611e1a908261140c565b6001600160a01b0380841660008181526065602090815260409182902094909455805185815290519193928716927fddf252ad1be2c89b69c2b068fc378daa952ba7f163c4a11628f55a4df523b3ef92918290030190a3505050565b600082821115611ecd576040805162461bcd60e51b815260206004820152601e60248201527f536166654d6174683a207375627472616374696f6e206f766572666c6f770000604482015290519081900360640190fd5b50900390565b828054600181600116156101000203166002900490600052602060002090601f016020900481019282601f10611f1457805160ff1916838001178555611f41565b82800160010185558215611f41579182015b82811115611f41578251825591602001919060010190611f26565b50611f4d929150611f51565b5090565b5b80821115611f4d5760008155600101611f5256fe45524332303a207472616e7366657220746f20746865207a65726f206164647265737345524332303a206275726e20616d6f756e7420657863656564732062616c616e63654f776e61626c653a206e6577206f776e657220697320746865207a65726f206164647265737345524332303a20617070726f766520746f20746865207a65726f206164647265737345524332303a207472616e7366657220616d6f756e7420657863656564732062616c616e6365496e697469616c697a61626c653a20636f6e747261637420697320616c726561647920696e697469616c697a65644f6e6c792053796e74686573697a65722c20466565506f6f6c2c2045786368616e676572206f722049737375657220636f6e74726163747320616c6c6f77656445524332303a207472616e7366657220616d6f756e74206578636565647320616c6c6f77616e63654f776e61626c653a2063616c6c6572206973206e6f7420746865206f776e657245524332303a206275726e2066726f6d20746865207a65726f206164647265737345524332303a207472616e736665722066726f6d20746865207a65726f206164647265737345524332303a20617070726f76652066726f6d20746865207a65726f206164647265737345524332303a2064656372656173656420616c6c6f77616e63652062656c6f77207a65726fa264697066735822122052ec5ba3f741f382c73ef2b6f58fad59967bf1e1f982d569f7eea26006c3db5064736f6c63430007010033",
  "devdoc": {
    "kind": "dev",
    "methods": {
      "allowance(address,address)": {
        "details": "See {IERC20-allowance}."
      },
      "approve(address,uint256)": {
        "details": "See {IERC20-approve}. Requirements: - `spender` cannot be the zero address."
      },
      "balanceOf(address)": {
        "details": "See {IERC20-balanceOf}."
      },
      "decimals()": {
        "details": "Returns the number of decimals used to get its user representation. For example, if `decimals` equals `2`, a balance of `505` tokens should be displayed to a user as `5,05` (`505 / 10 ** 2`). Tokens usually opt for a value of 18, imitating the relationship between Ether and Wei. This is the value {ERC20} uses, unless {_setupDecimals} is called. NOTE: This information is only used for _display_ purposes: it in no way affects any of the arithmetic of the contract, including {IERC20-balanceOf} and {IERC20-transfer}."
      },
      "decreaseAllowance(address,uint256)": {
        "details": "Atomically decreases the allowance granted to `spender` by the caller. This is an alternative to {approve} that can be used as a mitigation for problems described in {IERC20-approve}. Emits an {Approval} event indicating the updated allowance. Requirements: - `spender` cannot be the zero address. - `spender` must have allowance for the caller of at least `subtractedValue`."
      },
      "increaseAllowance(address,uint256)": {
        "details": "Atomically increases the allowance granted to `spender` by the caller. This is an alternative to {approve} that can be used as a mitigation for problems described in {IERC20-approve}. Emits an {Approval} event indicating the updated allowance. Requirements: - `spender` cannot be the zero address."
      },
      "name()": {
        "details": "Returns the name of the token."
      },
      "owner()": {
        "details": "Returns the address of the current owner."
      },
      "renounceOwnership()": {
        "details": "Leaves the contract without owner. It will not be possible to call `onlyOwner` functions anymore. Can only be called by the current owner. NOTE: Renouncing ownership will leave the contract without an owner, thereby removing any functionality that is only available to the owner."
      },
      "symbol()": {
        "details": "Returns the symbol of the token, usually a shorter version of the name."
      },
      "totalSupply()": {
        "details": "See {IERC20-totalSupply}."
      },
      "transfer(address,uint256)": {
        "details": "See {IERC20-transfer}. Requirements: - `recipient` cannot be the zero address. - the caller must have a balance of at least `amount`."
      },
      "transferFrom(address,address,uint256)": {
        "details": "See {IERC20-transferFrom}. Emits an {Approval} event indicating the updated allowance. This is not required by the EIP. See the note at the beginning of {ERC20}. Requirements: - `sender` and `recipient` cannot be the zero address. - `sender` must have a balance of at least `amount`. - the caller must have allowance for ``sender``'s tokens of at least `amount`."
      },
      "transferOwnership(address)": {
        "details": "Transfers ownership of the contract to a new account (`newOwner`). Can only be called by the current owner."
      }
    },
    "version": 1
  },
  "userdoc": {
    "kind": "user",
    "methods": {},
    "version": 1
  },
  "storageLayout": {
    "storage": [
      {
        "astId": 595,
        "contract": "contracts/Synth.sol:Synth",
        "label": "_initialized",
        "offset": 0,
        "slot": "0",
        "type": "t_bool"
      },
      {
        "astId": 598,
        "contract": "contracts/Synth.sol:Synth",
        "label": "_initializing",
        "offset": 1,
        "slot": "0",
        "type": "t_bool"
      },
      {
        "astId": 1615,
        "contract": "contracts/Synth.sol:Synth",
        "label": "__gap",
        "offset": 0,
        "slot": "1",
        "type": "t_array(t_uint256)50_storage"
      },
      {
        "astId": 113,
        "contract": "contracts/Synth.sol:Synth",
        "label": "_owner",
        "offset": 0,
        "slot": "51",
        "type": "t_address"
      },
      {
        "astId": 232,
        "contract": "contracts/Synth.sol:Synth",
        "label": "__gap",
        "offset": 0,
        "slot": "52",
        "type": "t_array(t_uint256)49_storage"
      },
      {
        "astId": 739,
        "contract": "contracts/Synth.sol:Synth",
        "label": "_balances",
        "offset": 0,
        "slot": "101",
        "type": "t_mapping(t_address,t_uint256)"
      },
      {
        "astId": 745,
        "contract": "contracts/Synth.sol:Synth",
        "label": "_allowances",
        "offset": 0,
        "slot": "102",
        "type": "t_mapping(t_address,t_mapping(t_address,t_uint256))"
      },
      {
        "astId": 747,
        "contract": "contracts/Synth.sol:Synth",
        "label": "_totalSupply",
        "offset": 0,
        "slot": "103",
        "type": "t_uint256"
      },
      {
        "astId": 749,
        "contract": "contracts/Synth.sol:Synth",
        "label": "_name",
        "offset": 0,
        "slot": "104",
        "type": "t_string_storage"
      },
      {
        "astId": 751,
        "contract": "contracts/Synth.sol:Synth",
        "label": "_symbol",
        "offset": 0,
        "slot": "105",
        "type": "t_string_storage"
      },
      {
        "astId": 753,
        "contract": "contracts/Synth.sol:Synth",
        "label": "_decimals",
        "offset": 0,
        "slot": "106",
        "type": "t_uint8"
      },
      {
        "astId": 1248,
        "contract": "contracts/Synth.sol:Synth",
        "label": "__gap",
        "offset": 0,
        "slot": "107",
        "type": "t_array(t_uint256)44_storage"
      },
      {
        "astId": 8294,
        "contract": "contracts/Synth.sol:Synth",
        "label": "resolver",
        "offset": 0,
        "slot": "151",
        "type": "t_contract(AddressResolver)8282"
      },
      {
        "astId": 6178,
        "contract": "contracts/Synth.sol:Synth",
        "label": "currencyKey",
        "offset": 0,
        "slot": "152",
        "type": "t_bytes32"
      }
    ],
    "types": {
      "t_address": {
        "encoding": "inplace",
        "label": "address",
        "numberOfBytes": "20"
      },
      "t_array(t_uint256)44_storage": {
        "base": "t_uint256",
        "encoding": "inplace",
        "label": "uint256[44]",
        "numberOfBytes": "1408"
      },
      "t_array(t_uint256)49_storage": {
        "base": "t_uint256",
        "encoding": "inplace",
        "label": "uint256[49]",
        "numberOfBytes": "1568"
      },
      "t_array(t_uint256)50_storage": {
        "base": "t_uint256",
        "encoding": "inplace",
        "label": "uint256[50]",
        "numberOfBytes": "1600"
      },
      "t_bool": {
        "encoding": "inplace",
        "label": "bool",
        "numberOfBytes": "1"
      },
      "t_bytes32": {
        "encoding": "inplace",
        "label": "bytes32",
        "numberOfBytes": "32"
      },
      "t_contract(AddressResolver)8282": {
        "encoding": "inplace",
        "label": "contract AddressResolver",
        "numberOfBytes": "20"
      },
      "t_mapping(t_address,t_mapping(t_address,t_uint256))": {
        "encoding": "mapping",
        "key": "t_address",
        "label": "mapping(address => mapping(address => uint256))",
        "numberOfBytes": "32",
        "value": "t_mapping(t_address,t_uint256)"
      },
      "t_mapping(t_address,t_uint256)": {
        "encoding": "mapping",
        "key": "t_address",
        "label": "mapping(address => uint256)",
        "numberOfBytes": "32",
        "value": "t_uint256"
      },
      "t_string_storage": {
        "encoding": "bytes",
        "label": "string",
        "numberOfBytes": "32"
      },
      "t_uint256": {
        "encoding": "inplace",
        "label": "uint256",
        "numberOfBytes": "32"
      },
      "t_uint8": {
        "encoding": "inplace",
        "label": "uint8",
        "numberOfBytes": "1"
      }
    }
  }
}