{
  "address": "0xb5cf5c9DBf279adA166c3a47ae7FA281aaB8e9e6",
  "abi": [
    {
      "anonymous": false,
      "inputs": [
        {
          "indexed": true,
          "internalType": "address",
          "name": "owner",
          "type": "address"
        },
        {
          "indexed": true,
          "internalType": "address",
          "name": "spender",
          "type": "address"
        },
        {
          "indexed": false,
          "internalType": "uint256",
          "name": "value",
          "type": "uint256"
        }
      ],
      "name": "Approval",
      "type": "event"
    },
    {
      "anonymous": false,
      "inputs": [
        {
          "indexed": true,
          "internalType": "address",
          "name": "account",
          "type": "address"
        },
        {
          "indexed": false,
          "internalType": "uint256",
          "name": "value",
          "type": "uint256"
        }
      ],
      "name": "Burned",
      "type": "event"
    },
    {
      "anonymous": false,
      "inputs": [
        {
          "indexed": true,
          "internalType": "address",
          "name": "account",
          "type": "address"
        },
        {
          "indexed": false,
          "internalType": "uint256",
          "name": "value",
          "type": "uint256"
        }
      ],
      "name": "Issued",
      "type": "event"
    },
    {
      "anonymous": false,
      "inputs": [
        {
          "indexed": true,
          "internalType": "address",
          "name": "previousOwner",
          "type": "address"
        },
        {
          "indexed": true,
          "internalType": "address",
          "name": "newOwner",
          "type": "address"
        }
      ],
      "name": "OwnershipTransferred",
      "type": "event"
    },
    {
      "anonymous": false,
      "inputs": [
        {
          "indexed": true,
          "internalType": "address",
          "name": "from",
          "type": "address"
        },
        {
          "indexed": true,
          "internalType": "address",
          "name": "to",
          "type": "address"
        },
        {
          "indexed": false,
          "internalType": "uint256",
          "name": "value",
          "type": "uint256"
        }
      ],
      "name": "Transfer",
      "type": "event"
    },
    {
      "inputs": [],
      "name": "DECIMALS",
      "outputs": [
        {
          "internalType": "uint8",
          "name": "",
          "type": "uint8"
        }
      ],
      "stateMutability": "view",
      "type": "function"
    },
    {
      "inputs": [
        {
          "internalType": "address",
          "name": "owner",
          "type": "address"
        },
        {
          "internalType": "address",
          "name": "spender",
          "type": "address"
        }
      ],
      "name": "allowance",
      "outputs": [
        {
          "internalType": "uint256",
          "name": "",
          "type": "uint256"
        }
      ],
      "stateMutability": "view",
      "type": "function"
    },
    {
      "inputs": [
        {
          "internalType": "address",
          "name": "spender",
          "type": "address"
        },
        {
          "internalType": "uint256",
          "name": "amount",
          "type": "uint256"
        }
      ],
      "name": "approve",
      "outputs": [
        {
          "internalType": "bool",
          "name": "",
          "type": "bool"
        }
      ],
      "stateMutability": "nonpayable",
      "type": "function"
    },
    {
      "inputs": [
        {
          "internalType": "address",
          "name": "account",
          "type": "address"
        }
      ],
      "name": "balanceOf",
      "outputs": [
        {
          "internalType": "uint256",
          "name": "",
          "type": "uint256"
        }
      ],
      "stateMutability": "view",
      "type": "function"
    },
    {
      "inputs": [
        {
          "internalType": "address",
          "name": "account",
          "type": "address"
        },
        {
          "internalType": "uint256",
          "name": "amount",
          "type": "uint256"
        }
      ],
      "name": "burn",
      "outputs": [],
      "stateMutability": "nonpayable",
      "type": "function"
    },
    {
      "inputs": [],
      "name": "currencyKey",
      "outputs": [
        {
          "internalType": "bytes32",
          "name": "",
          "type": "bytes32"
        }
      ],
      "stateMutability": "view",
      "type": "function"
    },
    {
      "inputs": [],
      "name": "decimals",
      "outputs": [
        {
          "internalType": "uint8",
          "name": "",
          "type": "uint8"
        }
      ],
      "stateMutability": "view",
      "type": "function"
    },
    {
      "inputs": [
        {
          "internalType": "address",
          "name": "spender",
          "type": "address"
        },
        {
          "internalType": "uint256",
          "name": "subtractedValue",
          "type": "uint256"
        }
      ],
      "name": "decreaseAllowance",
      "outputs": [
        {
          "internalType": "bool",
          "name": "",
          "type": "bool"
        }
      ],
      "stateMutability": "nonpayable",
      "type": "function"
    },
    {
      "inputs": [
        {
          "internalType": "address",
          "name": "spender",
          "type": "address"
        },
        {
          "internalType": "uint256",
          "name": "addedValue",
          "type": "uint256"
        }
      ],
      "name": "increaseAllowance",
      "outputs": [
        {
          "internalType": "bool",
          "name": "",
          "type": "bool"
        }
      ],
      "stateMutability": "nonpayable",
      "type": "function"
    },
    {
      "inputs": [
        {
          "internalType": "string",
          "name": "_tokenName",
          "type": "string"
        },
        {
          "internalType": "string",
          "name": "_tokenSymbol",
          "type": "string"
        },
        {
          "internalType": "bytes32",
          "name": "_currencyKey",
          "type": "bytes32"
        },
        {
          "internalType": "address",
          "name": "_resolver",
          "type": "address"
        }
      ],
      "name": "initialize",
      "outputs": [],
      "stateMutability": "nonpayable",
      "type": "function"
    },
    {
      "inputs": [
        {
          "internalType": "address",
          "name": "account",
          "type": "address"
        },
        {
          "internalType": "uint256",
          "name": "amount",
          "type": "uint256"
        }
      ],
      "name": "issue",
      "outputs": [],
      "stateMutability": "nonpayable",
      "type": "function"
    },
    {
      "inputs": [],
      "name": "name",
      "outputs": [
        {
          "internalType": "string",
          "name": "",
          "type": "string"
        }
      ],
      "stateMutability": "view",
      "type": "function"
    },
    {
      "inputs": [],
      "name": "owner",
      "outputs": [
        {
          "internalType": "address",
          "name": "",
          "type": "address"
        }
      ],
      "stateMutability": "view",
      "type": "function"
    },
    {
      "inputs": [],
      "name": "renounceOwnership",
      "outputs": [],
      "stateMutability": "nonpayable",
      "type": "function"
    },
    {
      "inputs": [],
      "name": "resolver",
      "outputs": [
        {
          "internalType": "contract AddressResolver",
          "name": "",
          "type": "address"
        }
      ],
      "stateMutability": "view",
      "type": "function"
    },
    {
      "inputs": [
        {
          "internalType": "contract AddressResolver",
          "name": "_resolver",
          "type": "address"
        }
      ],
      "name": "setResolver",
      "outputs": [],
      "stateMutability": "nonpayable",
      "type": "function"
    },
    {
      "inputs": [],
      "name": "symbol",
      "outputs": [
        {
          "internalType": "string",
          "name": "",
          "type": "string"
        }
      ],
      "stateMutability": "view",
      "type": "function"
    },
    {
      "inputs": [],
      "name": "totalSupply",
      "outputs": [
        {
          "internalType": "uint256",
          "name": "",
          "type": "uint256"
        }
      ],
      "stateMutability": "view",
      "type": "function"
    },
    {
      "inputs": [
        {
          "internalType": "address",
          "name": "recipient",
          "type": "address"
        },
        {
          "internalType": "uint256",
          "name": "amount",
          "type": "uint256"
        }
      ],
      "name": "transfer",
      "outputs": [
        {
          "internalType": "bool",
          "name": "",
          "type": "bool"
        }
      ],
      "stateMutability": "nonpayable",
      "type": "function"
    },
    {
      "inputs": [
        {
          "internalType": "address",
          "name": "sender",
          "type": "address"
        },
        {
          "internalType": "address",
          "name": "recipient",
          "type": "address"
        },
        {
          "internalType": "uint256",
          "name": "amount",
          "type": "uint256"
        }
      ],
      "name": "transferFrom",
      "outputs": [
        {
          "internalType": "bool",
          "name": "",
          "type": "bool"
        }
      ],
      "stateMutability": "nonpayable",
      "type": "function"
    },
    {
      "inputs": [
        {
          "internalType": "address",
          "name": "newOwner",
          "type": "address"
        }
      ],
      "name": "transferOwnership",
      "outputs": [],
      "stateMutability": "nonpayable",
      "type": "function"
    },
    {
      "inputs": [
        {
          "internalType": "address",
          "name": "account",
          "type": "address"
        }
      ],
      "name": "transferableSynths",
      "outputs": [
        {
          "internalType": "uint256",
          "name": "",
          "type": "uint256"
        }
      ],
      "stateMutability": "view",
      "type": "function"
    }
  ],
  "transactionHash": "0x016f4f2e73839c587228b622574056f871d8cafd4e4a9f65a9779e53be4dfb64",
  "args": [],
  "solcInputHash": "03a0a60549000702ef478ba52b38b820",
  "bytecode": "0x608060405234801561001057600080fd5b50611f8d806100206000396000f3fe608060405234801561001057600080fd5b50600436106101425760003560e01c8063715018a6116100b8578063a457c2d71161007c578063a457c2d714610459578063a9059cbb14610485578063dbd06c85146104b1578063dd62ed3e146104b9578063f2fde38b146104e7578063ffff51d61461050d57610142565b8063715018a6146103e9578063867904b4146103f15780638da5cb5b1461041d57806395d89b41146104255780639dc29fac1461042d57610142565b806323b872dd1161010a57806323b872dd146103155780632e0f26251461034b578063313ce5671461036957806339509351146103715780634e543b261461039d57806370a08231146103c357610142565b806304f3bcec1461014757806306fdde031461016b578063095ea7b3146101e8578063155f273b1461022857806318160ddd146102fb575b600080fd5b61014f610533565b604080516001600160a01b039092168252519081900360200190f35b610173610542565b6040805160208082528351818301528351919283929083019185019080838360005b838110156101ad578181015183820152602001610195565b50505050905090810190601f1680156101da5780820380516001836020036101000a031916815260200191505b509250505060405180910390f35b610214600480360360408110156101fe57600080fd5b506001600160a01b0381351690602001356105d8565b604080519115158252519081900360200190f35b6102f96004803603608081101561023e57600080fd5b81019060208101813564010000000081111561025957600080fd5b82018360208201111561026b57600080fd5b8035906020019184600183028401116401000000008311171561028d57600080fd5b9193909290916020810190356401000000008111156102ab57600080fd5b8201836020820111156102bd57600080fd5b803590602001918460018302840111640100000000831117156102df57600080fd5b9193509150803590602001356001600160a01b03166105f5565b005b610303610726565b60408051918252519081900360200190f35b6102146004803603606081101561032b57600080fd5b506001600160a01b0381358116916020810135909116906040013561072c565b6103536107b3565b6040805160ff9092168252519081900360200190f35b6103536107b8565b6102146004803603604081101561038757600080fd5b506001600160a01b0381351690602001356107c1565b6102f9600480360360208110156103b357600080fd5b50356001600160a01b031661080f565b610303600480360360208110156103d957600080fd5b50356001600160a01b03166108a5565b6102f96108c0565b6102f96004803603604081101561040757600080fd5b506001600160a01b03813516906020013561097e565b61014f610a7a565b610173610a89565b6102f96004803603604081101561044357600080fd5b506001600160a01b038135169060200135610aea565b6102146004803603604081101561046f57600080fd5b506001600160a01b038135169060200135610be6565b6102146004803603604081101561049b57600080fd5b506001600160a01b038135169060200135610c4e565b610303610c62565b610303600480360360408110156104cf57600080fd5b506001600160a01b0381358116916020013516610c68565b6102f9600480360360208110156104fd57600080fd5b50356001600160a01b0316610c93565b6103036004803603602081101561052357600080fd5b50356001600160a01b0316610da8565b6097546001600160a01b031681565b60688054604080516020601f60026000196101006001881615020190951694909404938401819004810282018101909252828152606093909290918301828280156105ce5780601f106105a3576101008083540402835291602001916105ce565b820191906000526020600020905b8154815290600101906020018083116105b157829003601f168201915b5050505050905090565b60006105ec6105e5610db9565b8484610dbd565b50600192915050565b600054610100900460ff168061060e575061060e610ea9565b8061061c575060005460ff16155b6106575760405162461bcd60e51b815260040180806020018281038252602e815260200180611e33602e913960400191505060405180910390fd5b600054610100900460ff16158015610682576000805460ff1961ff0019909116610100171660011790555b61068a610eba565b6106fd87878080601f01602080910402602001604051908101604052809392919081815260200183838082843760009201919091525050604080516020601f8b018190048102820181019092528981529250899150889081908401838280828437600092019190915250610f6c92505050565b61070682611022565b6098839055801561071d576000805461ff00191690555b50505050505050565b60675490565b60006107398484846110d6565b6107a984610745610db9565b6107a485604051806060016040528060288152602001611ea1602891396001600160a01b038a16600090815260666020526040812090610783610db9565b6001600160a01b03168152602081019190915260400160002054919061118e565b610dbd565b5060019392505050565b601281565b606a5460ff1690565b60006105ec6107ce610db9565b846107a485606660006107df610db9565b6001600160a01b03908116825260208083019390935260409182016000908120918c168152925290205490611225565b610817610db9565b6001600160a01b0316610828610a7a565b6001600160a01b031614610883576040805162461bcd60e51b815260206004820181905260248201527f4f776e61626c653a2063616c6c6572206973206e6f7420746865206f776e6572604482015290519081900360640190fd5b609780546001600160a01b0319166001600160a01b0392909216919091179055565b6001600160a01b031660009081526065602052604090205490565b6108c8610db9565b6001600160a01b03166108d9610a7a565b6001600160a01b031614610934576040805162461bcd60e51b815260206004820181905260248201527f4f776e61626c653a2063616c6c6572206973206e6f7420746865206f776e6572604482015290519081900360640190fd5b6033546040516000916001600160a01b0316907f8be0079c531659141344cd1fd0a4f28419497f9722a3daafe3b4186f6b6457e0908390a3603380546001600160a01b0319169055565b6000610988611286565b6001600160a01b0316336001600160a01b031614905060006109a8611344565b6001600160a01b0316336001600160a01b031614905060006109c86113cd565b6001600160a01b0316336001600160a01b031614905082806109e75750815b806109ef5750805b610a2a5760405162461bcd60e51b8152600401808060200182810382526040815260200180611e616040913960400191505060405180910390fd5b610a348585611458565b6040805185815290516001600160a01b038716917fa59f12e354e8cd10bb74c559844c2dd69a5458e31fe56c7594c62ca57480509a919081900360200190a25050505050565b6033546001600160a01b031690565b60698054604080516020601f60026000196101006001881615020190951694909404938401819004810282018101909252828152606093909290918301828280156105ce5780601f106105a3576101008083540402835291602001916105ce565b6000610af4611286565b6001600160a01b0316336001600160a01b03161490506000610b14611344565b6001600160a01b0316336001600160a01b03161490506000610b346113cd565b6001600160a01b0316336001600160a01b03161490508280610b535750815b80610b5b5750805b610b965760405162461bcd60e51b8152600401808060200182810382526040815260200180611e616040913960400191505060405180910390fd5b610ba0858561154a565b6040805185815290516001600160a01b038716917f696de425f79f4a40bc6d2122ca50507f0efbeabbff86a84871b7196ab8ea8df7919081900360200190a25050505050565b60006105ec610bf3610db9565b846107a485604051806060016040528060258152602001611f336025913960666000610c1d610db9565b6001600160a01b03908116825260208083019390935260409182016000908120918d1681529252902054919061118e565b60006105ec610c5b610db9565b84846110d6565b60985481565b6001600160a01b03918216600090815260666020908152604080832093909416825291909152205490565b610c9b610db9565b6001600160a01b0316610cac610a7a565b6001600160a01b031614610d07576040805162461bcd60e51b815260206004820181905260248201527f4f776e61626c653a2063616c6c6572206973206e6f7420746865206f776e6572604482015290519081900360640190fd5b6001600160a01b038116610d4c5760405162461bcd60e51b8152600401808060200182810382526026815260200180611dc56026913960400191505060405180910390fd5b6033546040516001600160a01b038084169216907f8be0079c531659141344cd1fd0a4f28419497f9722a3daafe3b4186f6b6457e090600090a3603380546001600160a01b0319166001600160a01b0392909216919091179055565b6000610db3826108a5565b92915050565b3390565b6001600160a01b038316610e025760405162461bcd60e51b8152600401808060200182810382526024815260200180611f0f6024913960400191505060405180910390fd5b6001600160a01b038216610e475760405162461bcd60e51b8152600401808060200182810382526022815260200180611deb6022913960400191505060405180910390fd5b6001600160a01b03808416600081815260666020908152604080832094871680845294825291829020859055815185815291517f8c5be1e5ebec7d5bd14f71427d1e84f3dd0314c0f7b2291e5b200ac8c7c3b9259281900390910190a3505050565b6000610eb430611646565b15905090565b600054610100900460ff1680610ed35750610ed3610ea9565b80610ee1575060005460ff16155b610f1c5760405162461bcd60e51b815260040180806020018281038252602e815260200180611e33602e913960400191505060405180910390fd5b600054610100900460ff16158015610f47576000805460ff1961ff0019909116610100171660011790555b610f4f61164c565b610f576116ec565b8015610f69576000805461ff00191690555b50565b600054610100900460ff1680610f855750610f85610ea9565b80610f93575060005460ff16155b610fce5760405162461bcd60e51b815260040180806020018281038252602e815260200180611e33602e913960400191505060405180910390fd5b600054610100900460ff16158015610ff9576000805460ff1961ff0019909116610100171660011790555b61100161164c565b61100b83836117e5565b801561101d576000805461ff00191690555b505050565b600054610100900460ff168061103b575061103b610ea9565b80611049575060005460ff16155b6110845760405162461bcd60e51b815260040180806020018281038252602e815260200180611e33602e913960400191505060405180910390fd5b600054610100900460ff161580156110af576000805460ff1961ff0019909116610100171660011790555b6110b7610eba565b6110c0826118bd565b80156110d2576000805461ff00191690555b5050565b6110de611344565b6001600160a01b031663eb1edd616040518163ffffffff1660e01b815260040160206040518083038186803b15801561111657600080fd5b505afa15801561112a573d6000803e3d6000fd5b505050506040513d602081101561114057600080fd5b50516001600160a01b03838116911614156111645761115f838261197a565b61101d565b6001600160a01b0382166111835761115f61117d610db9565b8261154a565b61101d838383611b32565b6000818484111561121d5760405162461bcd60e51b81526004018080602001828103825283818151815260200191508051906020019080838360005b838110156111e25781810151838201526020016111ca565b50505050905090810190601f16801561120f5780820380516001836020036101000a031916815260200191505b509250505060405180910390fd5b505050900390565b60008282018381101561127f576040805162461bcd60e51b815260206004820152601b60248201527f536166654d6174683a206164646974696f6e206f766572666c6f770000000000604482015290519081900360640190fd5b9392505050565b6097546040805163dacb2d0160e01b81526a29bcb73a3432b9b4bd32b960a91b600482015260248101829052601b60448201527f4d697373696e672053796e74686573697a657220616464726573730000000000606482015290516000926001600160a01b03169163dacb2d01916084808301926020929190829003018186803b15801561131357600080fd5b505afa158015611327573d6000803e3d6000fd5b505050506040513d602081101561133d57600080fd5b5051905090565b6097546040805163dacb2d0160e01b815266119959541bdbdb60ca1b600482015260248101829052601760448201527f4d697373696e6720466565506f6f6c2061646472657373000000000000000000606482015290516000926001600160a01b03169163dacb2d01916084808301926020929190829003018186803b15801561131357600080fd5b6097546040805163dacb2d0160e01b81526822bc31b430b733b2b960b91b600482015260248101829052601960448201527f4d697373696e672045786368616e676572206164647265737300000000000000606482015290516000926001600160a01b03169163dacb2d01916084808301926020929190829003018186803b15801561131357600080fd5b6001600160a01b0382166114b3576040805162461bcd60e51b815260206004820152601f60248201527f45524332303a206d696e7420746f20746865207a65726f206164647265737300604482015290519081900360640190fd5b6114bf6000838361101d565b6067546114cc9082611225565b6067556001600160a01b0382166000908152606560205260409020546114f29082611225565b6001600160a01b03831660008181526065602090815260408083209490945583518581529351929391927fddf252ad1be2c89b69c2b068fc378daa952ba7f163c4a11628f55a4df523b3ef9281900390910190a35050565b6001600160a01b03821661158f5760405162461bcd60e51b8152600401808060200182810382526021815260200180611ec96021913960400191505060405180910390fd5b61159b8260008361101d565b6115d881604051806060016040528060228152602001611da3602291396001600160a01b038516600090815260656020526040902054919061118e565b6001600160a01b0383166000908152606560205260409020556067546115fe9082611c8f565b6067556040805182815290516000916001600160a01b038516917fddf252ad1be2c89b69c2b068fc378daa952ba7f163c4a11628f55a4df523b3ef9181900360200190a35050565b3b151590565b600054610100900460ff16806116655750611665610ea9565b80611673575060005460ff16155b6116ae5760405162461bcd60e51b815260040180806020018281038252602e815260200180611e33602e913960400191505060405180910390fd5b600054610100900460ff16158015610f57576000805460ff1961ff0019909116610100171660011790558015610f69576000805461ff001916905550565b600054610100900460ff16806117055750611705610ea9565b80611713575060005460ff16155b61174e5760405162461bcd60e51b815260040180806020018281038252602e815260200180611e33602e913960400191505060405180910390fd5b600054610100900460ff16158015611779576000805460ff1961ff0019909116610100171660011790555b6000611783610db9565b603380546001600160a01b0319166001600160a01b038316908117909155604051919250906000907f8be0079c531659141344cd1fd0a4f28419497f9722a3daafe3b4186f6b6457e0908290a3508015610f69576000805461ff001916905550565b600054610100900460ff16806117fe57506117fe610ea9565b8061180c575060005460ff16155b6118475760405162461bcd60e51b815260040180806020018281038252602e815260200180611e33602e913960400191505060405180910390fd5b600054610100900460ff16158015611872576000805460ff1961ff0019909116610100171660011790555b8251611885906068906020860190611cec565b508151611899906069906020850190611cec565b50606a805460ff19166012179055801561101d576000805461ff0019169055505050565b600054610100900460ff16806118d657506118d6610ea9565b806118e4575060005460ff16155b61191f5760405162461bcd60e51b815260040180806020018281038252602e815260200180611e33602e913960400191505060405180910390fd5b600054610100900460ff1615801561194a576000805460ff1961ff0019909116610100171660011790555b609780546001600160a01b0319166001600160a01b03841617905580156110d2576000805461ff00191690555050565b6000609854631e1554d160e21b14156119a65750806119a161199a610db9565b8484611b32565b611ad1565b6119ae6113cd565b6001600160a01b0316630a1e187d6119c4610db9565b609854856119d0611344565b6001600160a01b031663eb1edd616040518163ffffffff1660e01b815260040160206040518083038186803b158015611a0857600080fd5b505afa158015611a1c573d6000803e3d6000fd5b505050506040513d6020811015611a3257600080fd5b5051604080516001600160e01b031960e088901b1681526001600160a01b03958616600482015260248101949094526044840192909252631e1554d160e21b6064840152929092166084820152905160a48083019260209291908290030181600087803b158015611aa257600080fd5b505af1158015611ab6573d6000803e3d6000fd5b505050506040513d6020811015611acc57600080fd5b505190505b611ad9611344565b6001600160a01b03166322bf55ef826040518263ffffffff1660e01b815260040180828152602001915050600060405180830381600087803b158015611b1e57600080fd5b505af115801561071d573d6000803e3d6000fd5b6001600160a01b038316611b775760405162461bcd60e51b8152600401808060200182810382526025815260200180611eea6025913960400191505060405180910390fd5b6001600160a01b038216611bbc5760405162461bcd60e51b8152600401808060200182810382526023815260200180611d806023913960400191505060405180910390fd5b611bc783838361101d565b611c0481604051806060016040528060268152602001611e0d602691396001600160a01b038616600090815260656020526040902054919061118e565b6001600160a01b038085166000908152606560205260408082209390935590841681522054611c339082611225565b6001600160a01b0380841660008181526065602090815260409182902094909455805185815290519193928716927fddf252ad1be2c89b69c2b068fc378daa952ba7f163c4a11628f55a4df523b3ef92918290030190a3505050565b600082821115611ce6576040805162461bcd60e51b815260206004820152601e60248201527f536166654d6174683a207375627472616374696f6e206f766572666c6f770000604482015290519081900360640190fd5b50900390565b828054600181600116156101000203166002900490600052602060002090601f016020900481019282601f10611d2d57805160ff1916838001178555611d5a565b82800160010185558215611d5a579182015b82811115611d5a578251825591602001919060010190611d3f565b50611d66929150611d6a565b5090565b5b80821115611d665760008155600101611d6b56fe45524332303a207472616e7366657220746f20746865207a65726f206164647265737345524332303a206275726e20616d6f756e7420657863656564732062616c616e63654f776e61626c653a206e6577206f776e657220697320746865207a65726f206164647265737345524332303a20617070726f766520746f20746865207a65726f206164647265737345524332303a207472616e7366657220616d6f756e7420657863656564732062616c616e6365496e697469616c697a61626c653a20636f6e747261637420697320616c726561647920696e697469616c697a65644f6e6c792053796e74686573697a65722c20466565506f6f6c2c2045786368616e676572206f722049737375657220636f6e74726163747320616c6c6f77656445524332303a207472616e7366657220616d6f756e74206578636565647320616c6c6f77616e636545524332303a206275726e2066726f6d20746865207a65726f206164647265737345524332303a207472616e736665722066726f6d20746865207a65726f206164647265737345524332303a20617070726f76652066726f6d20746865207a65726f206164647265737345524332303a2064656372656173656420616c6c6f77616e63652062656c6f77207a65726fa264697066735822122040838fccacc9e1ca16ad9e31aa44ebaf4f013114853b731f5342d063a3840de864736f6c63430007010033",
  "devdoc": {
    "kind": "dev",
    "methods": {
      "allowance(address,address)": {
        "details": "See {IERC20-allowance}."
      },
      "approve(address,uint256)": {
        "details": "See {IERC20-approve}. Requirements: - `spender` cannot be the zero address."
      },
      "balanceOf(address)": {
        "details": "See {IERC20-balanceOf}."
      },
      "decimals()": {
        "details": "Returns the number of decimals used to get its user representation. For example, if `decimals` equals `2`, a balance of `505` tokens should be displayed to a user as `5,05` (`505 / 10 ** 2`). Tokens usually opt for a value of 18, imitating the relationship between Ether and Wei. This is the value {ERC20} uses, unless {_setupDecimals} is called. NOTE: This information is only used for _display_ purposes: it in no way affects any of the arithmetic of the contract, including {IERC20-balanceOf} and {IERC20-transfer}."
      },
      "decreaseAllowance(address,uint256)": {
        "details": "Atomically decreases the allowance granted to `spender` by the caller. This is an alternative to {approve} that can be used as a mitigation for problems described in {IERC20-approve}. Emits an {Approval} event indicating the updated allowance. Requirements: - `spender` cannot be the zero address. - `spender` must have allowance for the caller of at least `subtractedValue`."
      },
      "increaseAllowance(address,uint256)": {
        "details": "Atomically increases the allowance granted to `spender` by the caller. This is an alternative to {approve} that can be used as a mitigation for problems described in {IERC20-approve}. Emits an {Approval} event indicating the updated allowance. Requirements: - `spender` cannot be the zero address."
      },
      "name()": {
        "details": "Returns the name of the token."
      },
      "owner()": {
        "details": "Returns the address of the current owner."
      },
      "renounceOwnership()": {
        "details": "Leaves the contract without owner. It will not be possible to call `onlyOwner` functions anymore. Can only be called by the current owner. NOTE: Renouncing ownership will leave the contract without an owner, thereby removing any functionality that is only available to the owner."
      },
      "symbol()": {
        "details": "Returns the symbol of the token, usually a shorter version of the name."
      },
      "totalSupply()": {
        "details": "See {IERC20-totalSupply}."
      },
      "transfer(address,uint256)": {
        "details": "See {IERC20-transfer}. Requirements: - `recipient` cannot be the zero address. - the caller must have a balance of at least `amount`."
      },
      "transferFrom(address,address,uint256)": {
        "details": "See {IERC20-transferFrom}. Emits an {Approval} event indicating the updated allowance. This is not required by the EIP. See the note at the beginning of {ERC20}. Requirements: - `sender` and `recipient` cannot be the zero address. - `sender` must have a balance of at least `amount`. - the caller must have allowance for ``sender``'s tokens of at least `amount`."
      },
      "transferOwnership(address)": {
        "details": "Transfers ownership of the contract to a new account (`newOwner`). Can only be called by the current owner."
      }
    },
    "version": 1
  },
  "userdoc": {
    "kind": "user",
    "methods": {},
    "version": 1
  },
  "storageLayout": {
    "storage": [
      {
        "astId": 595,
        "contract": "contracts/Synth.sol:Synth",
        "label": "_initialized",
        "offset": 0,
        "slot": "0",
        "type": "t_bool"
      },
      {
        "astId": 598,
        "contract": "contracts/Synth.sol:Synth",
        "label": "_initializing",
        "offset": 1,
        "slot": "0",
        "type": "t_bool"
      },
      {
        "astId": 1615,
        "contract": "contracts/Synth.sol:Synth",
        "label": "__gap",
        "offset": 0,
        "slot": "1",
        "type": "t_array(t_uint256)50_storage"
      },
      {
        "astId": 113,
        "contract": "contracts/Synth.sol:Synth",
        "label": "_owner",
        "offset": 0,
        "slot": "51",
        "type": "t_address"
      },
      {
        "astId": 232,
        "contract": "contracts/Synth.sol:Synth",
        "label": "__gap",
        "offset": 0,
        "slot": "52",
        "type": "t_array(t_uint256)49_storage"
      },
      {
        "astId": 739,
        "contract": "contracts/Synth.sol:Synth",
        "label": "_balances",
        "offset": 0,
        "slot": "101",
        "type": "t_mapping(t_address,t_uint256)"
      },
      {
        "astId": 745,
        "contract": "contracts/Synth.sol:Synth",
        "label": "_allowances",
        "offset": 0,
        "slot": "102",
        "type": "t_mapping(t_address,t_mapping(t_address,t_uint256))"
      },
      {
        "astId": 747,
        "contract": "contracts/Synth.sol:Synth",
        "label": "_totalSupply",
        "offset": 0,
        "slot": "103",
        "type": "t_uint256"
      },
      {
        "astId": 749,
        "contract": "contracts/Synth.sol:Synth",
        "label": "_name",
        "offset": 0,
        "slot": "104",
        "type": "t_string_storage"
      },
      {
        "astId": 751,
        "contract": "contracts/Synth.sol:Synth",
        "label": "_symbol",
        "offset": 0,
        "slot": "105",
        "type": "t_string_storage"
      },
      {
        "astId": 753,
        "contract": "contracts/Synth.sol:Synth",
        "label": "_decimals",
        "offset": 0,
        "slot": "106",
        "type": "t_uint8"
      },
      {
        "astId": 1248,
        "contract": "contracts/Synth.sol:Synth",
        "label": "__gap",
        "offset": 0,
        "slot": "107",
        "type": "t_array(t_uint256)44_storage"
      },
      {
        "astId": 8196,
        "contract": "contracts/Synth.sol:Synth",
        "label": "resolver",
        "offset": 0,
        "slot": "151",
        "type": "t_contract(AddressResolver)8184"
      },
      {
        "astId": 6155,
        "contract": "contracts/Synth.sol:Synth",
        "label": "currencyKey",
        "offset": 0,
        "slot": "152",
        "type": "t_bytes32"
      }
    ],
    "types": {
      "t_address": {
        "encoding": "inplace",
        "label": "address",
        "numberOfBytes": "20"
      },
      "t_array(t_uint256)44_storage": {
        "base": "t_uint256",
        "encoding": "inplace",
        "label": "uint256[44]",
        "numberOfBytes": "1408"
      },
      "t_array(t_uint256)49_storage": {
        "base": "t_uint256",
        "encoding": "inplace",
        "label": "uint256[49]",
        "numberOfBytes": "1568"
      },
      "t_array(t_uint256)50_storage": {
        "base": "t_uint256",
        "encoding": "inplace",
        "label": "uint256[50]",
        "numberOfBytes": "1600"
      },
      "t_bool": {
        "encoding": "inplace",
        "label": "bool",
        "numberOfBytes": "1"
      },
      "t_bytes32": {
        "encoding": "inplace",
        "label": "bytes32",
        "numberOfBytes": "32"
      },
      "t_contract(AddressResolver)8184": {
        "encoding": "inplace",
        "label": "contract AddressResolver",
        "numberOfBytes": "20"
      },
      "t_mapping(t_address,t_mapping(t_address,t_uint256))": {
        "encoding": "mapping",
        "key": "t_address",
        "label": "mapping(address => mapping(address => uint256))",
        "numberOfBytes": "32",
        "value": "t_mapping(t_address,t_uint256)"
      },
      "t_mapping(t_address,t_uint256)": {
        "encoding": "mapping",
        "key": "t_address",
        "label": "mapping(address => uint256)",
        "numberOfBytes": "32",
        "value": "t_uint256"
      },
      "t_string_storage": {
        "encoding": "bytes",
        "label": "string",
        "numberOfBytes": "32"
      },
      "t_uint256": {
        "encoding": "inplace",
        "label": "uint256",
        "numberOfBytes": "32"
      },
      "t_uint8": {
        "encoding": "inplace",
        "label": "uint8",
        "numberOfBytes": "1"
      }
    }
  }
}